{
  "abi": [
    {
      "inputs": [
        {
          "internalType": "uint256",
          "name": "preOpGas",
          "type": "uint256"
        },
        {
          "internalType": "uint256",
          "name": "paid",
          "type": "uint256"
        },
        {
          "internalType": "uint48",
          "name": "validAfter",
          "type": "uint48"
        },
        {
          "internalType": "uint48",
          "name": "validUntil",
          "type": "uint48"
        },
        {
          "internalType": "bool",
          "name": "targetSuccess",
          "type": "bool"
        },
        {
          "internalType": "bytes",
          "name": "targetResult",
          "type": "bytes"
        }
      ],
      "name": "ExecutionResult",
      "type": "error"
    },
    {
      "inputs": [
        {
          "internalType": "uint256",
          "name": "opIndex",
          "type": "uint256"
        },
        {
          "internalType": "string",
          "name": "reason",
          "type": "string"
        }
      ],
      "name": "FailedOp",
      "type": "error"
    },
    {
      "inputs": [
        {
          "internalType": "address",
          "name": "sender",
          "type": "address"
        }
      ],
      "name": "SenderAddressResult",
      "type": "error"
    },
    {
      "inputs": [
        {
          "internalType": "address",
          "name": "aggregator",
          "type": "address"
        }
      ],
      "name": "SignatureValidationFailed",
      "type": "error"
    },
    {
      "inputs": [
        {
          "components": [
            {
              "internalType": "uint256",
              "name": "preOpGas",
              "type": "uint256"
            },
            {
              "internalType": "uint256",
              "name": "prefund",
              "type": "uint256"
            },
            {
              "internalType": "bool",
              "name": "sigFailed",
              "type": "bool"
            },
            {
              "internalType": "uint48",
              "name": "validAfter",
              "type": "uint48"
            },
            {
              "internalType": "uint48",
              "name": "validUntil",
              "type": "uint48"
            },
            {
              "internalType": "bytes",
              "name": "paymasterContext",
              "type": "bytes"
            }
          ],
          "internalType": "struct IEntryPoint.ReturnInfo",
          "name": "returnInfo",
          "type": "tuple"
        },
        {
          "components": [
            {
              "internalType": "uint256",
              "name": "stake",
              "type": "uint256"
            },
            {
              "internalType": "uint256",
              "name": "unstakeDelaySec",
              "type": "uint256"
            }
          ],
          "internalType": "struct IStakeManager.StakeInfo",
          "name": "senderInfo",
          "type": "tuple"
        },
        {
          "components": [
            {
              "internalType": "uint256",
              "name": "stake",
              "type": "uint256"
            },
            {
              "internalType": "uint256",
              "name": "unstakeDelaySec",
              "type": "uint256"
            }
          ],
          "internalType": "struct IStakeManager.StakeInfo",
          "name": "factoryInfo",
          "type": "tuple"
        },
        {
          "components": [
            {
              "internalType": "uint256",
              "name": "stake",
              "type": "uint256"
            },
            {
              "internalType": "uint256",
              "name": "unstakeDelaySec",
              "type": "uint256"
            }
          ],
          "internalType": "struct IStakeManager.StakeInfo",
          "name": "paymasterInfo",
          "type": "tuple"
        }
      ],
      "name": "ValidationResult",
      "type": "error"
    },
    {
      "inputs": [
        {
          "components": [
            {
              "internalType": "uint256",
              "name": "preOpGas",
              "type": "uint256"
            },
            {
              "internalType": "uint256",
              "name": "prefund",
              "type": "uint256"
            },
            {
              "internalType": "bool",
              "name": "sigFailed",
              "type": "bool"
            },
            {
              "internalType": "uint48",
              "name": "validAfter",
              "type": "uint48"
            },
            {
              "internalType": "uint48",
              "name": "validUntil",
              "type": "uint48"
            },
            {
              "internalType": "bytes",
              "name": "paymasterContext",
              "type": "bytes"
            }
          ],
          "internalType": "struct IEntryPoint.ReturnInfo",
          "name": "returnInfo",
          "type": "tuple"
        },
        {
          "components": [
            {
              "internalType": "uint256",
              "name": "stake",
              "type": "uint256"
            },
            {
              "internalType": "uint256",
              "name": "unstakeDelaySec",
              "type": "uint256"
            }
          ],
          "internalType": "struct IStakeManager.StakeInfo",
          "name": "senderInfo",
          "type": "tuple"
        },
        {
          "components": [
            {
              "internalType": "uint256",
              "name": "stake",
              "type": "uint256"
            },
            {
              "internalType": "uint256",
              "name": "unstakeDelaySec",
              "type": "uint256"
            }
          ],
          "internalType": "struct IStakeManager.StakeInfo",
          "name": "factoryInfo",
          "type": "tuple"
        },
        {
          "components": [
            {
              "internalType": "uint256",
              "name": "stake",
              "type": "uint256"
            },
            {
              "internalType": "uint256",
              "name": "unstakeDelaySec",
              "type": "uint256"
            }
          ],
          "internalType": "struct IStakeManager.StakeInfo",
          "name": "paymasterInfo",
          "type": "tuple"
        },
        {
          "components": [
            {
              "internalType": "address",
              "name": "aggregator",
              "type": "address"
            },
            {
              "components": [
                {
                  "internalType": "uint256",
                  "name": "stake",
                  "type": "uint256"
                },
                {
                  "internalType": "uint256",
                  "name": "unstakeDelaySec",
                  "type": "uint256"
                }
              ],
              "internalType": "struct IStakeManager.StakeInfo",
              "name": "stakeInfo",
              "type": "tuple"
            }
          ],
          "internalType": "struct IEntryPoint.AggregatorStakeInfo",
          "name": "aggregatorInfo",
          "type": "tuple"
        }
      ],
      "name": "ValidationResultWithAggregation",
      "type": "error"
    },
    {
      "anonymous": false,
      "inputs": [
        {
          "indexed": true,
          "internalType": "bytes32",
          "name": "userOpHash",
          "type": "bytes32"
        },
        {
          "indexed": true,
          "internalType": "address",
          "name": "sender",
          "type": "address"
        },
        {
          "indexed": false,
          "internalType": "address",
          "name": "factory",
          "type": "address"
        },
        {
          "indexed": false,
          "internalType": "address",
          "name": "paymaster",
          "type": "address"
        }
      ],
      "name": "AccountDeployed",
      "type": "event"
    },
    {
      "anonymous": false,
      "inputs": [
        {
          "indexed": true,
          "internalType": "address",
          "name": "account",
          "type": "address"
        },
        {
          "indexed": false,
          "internalType": "uint256",
          "name": "totalDeposit",
          "type": "uint256"
        }
      ],
      "name": "Deposited",
      "type": "event"
    },
    {
      "anonymous": false,
      "inputs": [
        {
          "indexed": false,
          "internalType": "uint256",
          "name": "",
          "type": "uint256"
        }
      ],
      "name": "EntryPointEvent",
      "type": "event"
    },
    {
      "anonymous": false,
      "inputs": [
        {
          "indexed": true,
          "internalType": "address",
          "name": "aggregator",
          "type": "address"
        }
      ],
      "name": "SignatureAggregatorChanged",
      "type": "event"
    },
    {
      "anonymous": false,
      "inputs": [
        {
          "indexed": true,
          "internalType": "address",
          "name": "account",
          "type": "address"
        },
        {
          "indexed": false,
          "internalType": "uint256",
          "name": "totalStaked",
          "type": "uint256"
        },
        {
          "indexed": false,
          "internalType": "uint256",
          "name": "unstakeDelaySec",
          "type": "uint256"
        }
      ],
      "name": "StakeLocked",
      "type": "event"
    },
    {
      "anonymous": false,
      "inputs": [
        {
          "indexed": true,
          "internalType": "address",
          "name": "account",
          "type": "address"
        },
        {
          "indexed": false,
          "internalType": "uint256",
          "name": "withdrawTime",
          "type": "uint256"
        }
      ],
      "name": "StakeUnlocked",
      "type": "event"
    },
    {
      "anonymous": false,
      "inputs": [
        {
          "indexed": true,
          "internalType": "address",
          "name": "account",
          "type": "address"
        },
        {
          "indexed": false,
          "internalType": "address",
          "name": "withdrawAddress",
          "type": "address"
        },
        {
          "indexed": false,
          "internalType": "uint256",
          "name": "amount",
          "type": "uint256"
        }
      ],
      "name": "StakeWithdrawn",
      "type": "event"
    },
    {
      "anonymous": false,
      "inputs": [
        {
          "indexed": true,
          "internalType": "bytes32",
          "name": "userOpHash",
          "type": "bytes32"
        },
        {
          "indexed": true,
          "internalType": "address",
          "name": "sender",
          "type": "address"
        },
        {
          "indexed": true,
          "internalType": "address",
          "name": "paymaster",
          "type": "address"
        },
        {
          "indexed": false,
          "internalType": "uint256",
          "name": "nonce",
          "type": "uint256"
        },
        {
          "indexed": false,
          "internalType": "bool",
          "name": "success",
          "type": "bool"
        },
        {
          "indexed": false,
          "internalType": "uint256",
          "name": "actualGasCost",
          "type": "uint256"
        },
        {
          "indexed": false,
          "internalType": "uint256",
          "name": "actualGasUsed",
          "type": "uint256"
        }
      ],
      "name": "UserOperationEvent",
      "type": "event"
    },
    {
      "anonymous": false,
      "inputs": [
        {
          "indexed": true,
          "internalType": "bytes32",
          "name": "userOpHash",
          "type": "bytes32"
        },
        {
          "indexed": true,
          "internalType": "address",
          "name": "sender",
          "type": "address"
        },
        {
          "indexed": false,
          "internalType": "uint256",
          "name": "nonce",
          "type": "uint256"
        },
        {
          "indexed": false,
          "internalType": "bytes",
          "name": "revertReason",
          "type": "bytes"
        }
      ],
      "name": "UserOperationRevertReason",
      "type": "event"
    },
    {
      "anonymous": false,
      "inputs": [
        {
          "indexed": true,
          "internalType": "address",
          "name": "account",
          "type": "address"
        },
        {
          "indexed": false,
          "internalType": "address",
          "name": "withdrawAddress",
          "type": "address"
        },
        {
          "indexed": false,
          "internalType": "uint256",
          "name": "amount",
          "type": "uint256"
        }
      ],
      "name": "Withdrawn",
      "type": "event"
    },
    {
      "inputs": [],
      "name": "SIG_VALIDATION_FAILED",
      "outputs": [
        {
          "internalType": "uint256",
          "name": "",
          "type": "uint256"
        }
      ],
      "stateMutability": "view",
      "type": "function"
    },
    {
      "inputs": [
        {
          "internalType": "bytes",
          "name": "initCode",
          "type": "bytes"
        },
        {
          "internalType": "address",
          "name": "sender",
          "type": "address"
        },
        {
          "internalType": "bytes",
          "name": "paymasterAndData",
          "type": "bytes"
        }
      ],
      "name": "_validateSenderAndPaymaster",
      "outputs": [],
      "stateMutability": "view",
      "type": "function"
    },
    {
      "inputs": [
        {
          "internalType": "uint32",
          "name": "unstakeDelaySec",
          "type": "uint32"
        }
      ],
      "name": "addStake",
      "outputs": [],
      "stateMutability": "payable",
      "type": "function"
    },
    {
      "inputs": [
        {
          "internalType": "address",
          "name": "account",
          "type": "address"
        }
      ],
      "name": "balanceOf",
      "outputs": [
        {
          "internalType": "uint256",
          "name": "",
          "type": "uint256"
        }
      ],
      "stateMutability": "view",
      "type": "function"
    },
    {
      "inputs": [
        {
          "internalType": "address",
          "name": "account",
          "type": "address"
        }
      ],
      "name": "depositTo",
      "outputs": [],
      "stateMutability": "payable",
      "type": "function"
    },
    {
      "inputs": [
        {
          "internalType": "address",
          "name": "",
          "type": "address"
        }
      ],
      "name": "deposits",
      "outputs": [
        {
          "internalType": "uint112",
          "name": "deposit",
          "type": "uint112"
        },
        {
          "internalType": "bool",
          "name": "staked",
          "type": "bool"
        },
        {
          "internalType": "uint112",
          "name": "stake",
          "type": "uint112"
        },
        {
          "internalType": "uint32",
          "name": "unstakeDelaySec",
          "type": "uint32"
        },
        {
          "internalType": "uint48",
          "name": "withdrawTime",
          "type": "uint48"
        }
      ],
      "stateMutability": "view",
      "type": "function"
    },
    {
      "inputs": [
        {
          "internalType": "address",
          "name": "account",
          "type": "address"
        }
      ],
      "name": "getDepositInfo",
      "outputs": [
        {
          "components": [
            {
              "internalType": "uint112",
              "name": "deposit",
              "type": "uint112"
            },
            {
              "internalType": "bool",
              "name": "staked",
              "type": "bool"
            },
            {
              "internalType": "uint112",
              "name": "stake",
              "type": "uint112"
            },
            {
              "internalType": "uint32",
              "name": "unstakeDelaySec",
              "type": "uint32"
            },
            {
              "internalType": "uint48",
              "name": "withdrawTime",
              "type": "uint48"
            }
          ],
          "internalType": "struct IStakeManager.DepositInfo",
          "name": "info",
          "type": "tuple"
        }
      ],
      "stateMutability": "view",
      "type": "function"
    },
    {
      "inputs": [
        {
          "internalType": "bytes",
          "name": "initCode",
          "type": "bytes"
        }
      ],
      "name": "getSenderAddress",
      "outputs": [],
      "stateMutability": "nonpayable",
      "type": "function"
    },
    {
      "inputs": [
        {
          "components": [
            {
              "internalType": "address",
              "name": "sender",
              "type": "address"
            },
            {
              "internalType": "uint256",
              "name": "nonce",
              "type": "uint256"
            },
            {
              "internalType": "bytes",
              "name": "initCode",
              "type": "bytes"
            },
            {
              "internalType": "bytes",
              "name": "callData",
              "type": "bytes"
            },
            {
              "internalType": "uint256",
              "name": "callGasLimit",
              "type": "uint256"
            },
            {
              "internalType": "uint256",
              "name": "verificationGasLimit",
              "type": "uint256"
            },
            {
              "internalType": "uint256",
              "name": "preVerificationGas",
              "type": "uint256"
            },
            {
              "internalType": "uint256",
              "name": "maxFeePerGas",
              "type": "uint256"
            },
            {
              "internalType": "uint256",
              "name": "maxPriorityFeePerGas",
              "type": "uint256"
            },
            {
              "internalType": "bytes",
              "name": "paymasterAndData",
              "type": "bytes"
            },
            {
              "internalType": "bytes",
              "name": "signature",
              "type": "bytes"
            }
          ],
          "internalType": "struct UserOperation",
          "name": "userOp",
          "type": "tuple"
        }
      ],
      "name": "getUserOpHash",
      "outputs": [
        {
          "internalType": "bytes32",
          "name": "",
          "type": "bytes32"
        }
      ],
      "stateMutability": "view",
      "type": "function"
    },
    {
      "inputs": [
        {
          "components": [
            {
              "components": [
                {
                  "internalType": "address",
                  "name": "sender",
                  "type": "address"
                },
                {
                  "internalType": "uint256",
                  "name": "nonce",
                  "type": "uint256"
                },
                {
                  "internalType": "bytes",
                  "name": "initCode",
                  "type": "bytes"
                },
                {
                  "internalType": "bytes",
                  "name": "callData",
                  "type": "bytes"
                },
                {
                  "internalType": "uint256",
                  "name": "callGasLimit",
                  "type": "uint256"
                },
                {
                  "internalType": "uint256",
                  "name": "verificationGasLimit",
                  "type": "uint256"
                },
                {
                  "internalType": "uint256",
                  "name": "preVerificationGas",
                  "type": "uint256"
                },
                {
                  "internalType": "uint256",
                  "name": "maxFeePerGas",
                  "type": "uint256"
                },
                {
                  "internalType": "uint256",
                  "name": "maxPriorityFeePerGas",
                  "type": "uint256"
                },
                {
                  "internalType": "bytes",
                  "name": "paymasterAndData",
                  "type": "bytes"
                },
                {
                  "internalType": "bytes",
                  "name": "signature",
                  "type": "bytes"
                }
              ],
              "internalType": "struct UserOperation[]",
              "name": "userOps",
              "type": "tuple[]"
            },
            {
              "internalType": "contract IAggregator",
              "name": "aggregator",
              "type": "address"
            },
            {
              "internalType": "bytes",
              "name": "signature",
              "type": "bytes"
            }
          ],
          "internalType": "struct IEntryPoint.UserOpsPerAggregator[]",
          "name": "opsPerAggregator",
          "type": "tuple[]"
        },
        {
          "internalType": "address payable",
          "name": "beneficiary",
          "type": "address"
        }
      ],
      "name": "handleAggregatedOps",
      "outputs": [],
      "stateMutability": "nonpayable",
      "type": "function"
    },
    {
      "inputs": [
        {
          "components": [
            {
              "internalType": "address",
              "name": "sender",
              "type": "address"
            },
            {
              "internalType": "uint256",
              "name": "nonce",
              "type": "uint256"
            },
            {
              "internalType": "bytes",
              "name": "initCode",
              "type": "bytes"
            },
            {
              "internalType": "bytes",
              "name": "callData",
              "type": "bytes"
            },
            {
              "internalType": "uint256",
              "name": "callGasLimit",
              "type": "uint256"
            },
            {
              "internalType": "uint256",
              "name": "verificationGasLimit",
              "type": "uint256"
            },
            {
              "internalType": "uint256",
              "name": "preVerificationGas",
              "type": "uint256"
            },
            {
              "internalType": "uint256",
              "name": "maxFeePerGas",
              "type": "uint256"
            },
            {
              "internalType": "uint256",
              "name": "maxPriorityFeePerGas",
              "type": "uint256"
            },
            {
              "internalType": "bytes",
              "name": "paymasterAndData",
              "type": "bytes"
            },
            {
              "internalType": "bytes",
              "name": "signature",
              "type": "bytes"
            }
          ],
          "internalType": "struct UserOperation[]",
          "name": "ops",
          "type": "tuple[]"
        },
        {
          "internalType": "address payable",
          "name": "beneficiary",
          "type": "address"
        }
      ],
      "name": "handleOps",
      "outputs": [],
      "stateMutability": "nonpayable",
      "type": "function"
    },
    {
      "inputs": [
        {
          "internalType": "bytes",
          "name": "callData",
          "type": "bytes"
        },
        {
          "components": [
            {
              "components": [
                {
                  "internalType": "address",
                  "name": "sender",
                  "type": "address"
                },
                {
                  "internalType": "uint256",
                  "name": "nonce",
                  "type": "uint256"
                },
                {
                  "internalType": "uint256",
                  "name": "callGasLimit",
                  "type": "uint256"
                },
                {
                  "internalType": "uint256",
                  "name": "verificationGasLimit",
                  "type": "uint256"
                },
                {
                  "internalType": "uint256",
                  "name": "preVerificationGas",
                  "type": "uint256"
                },
                {
                  "internalType": "address",
                  "name": "paymaster",
                  "type": "address"
                },
                {
                  "internalType": "uint256",
                  "name": "maxFeePerGas",
                  "type": "uint256"
                },
                {
                  "internalType": "uint256",
                  "name": "maxPriorityFeePerGas",
                  "type": "uint256"
                }
              ],
              "internalType": "struct EntryPoint.MemoryUserOp",
              "name": "mUserOp",
              "type": "tuple"
            },
            {
              "internalType": "bytes32",
              "name": "userOpHash",
              "type": "bytes32"
            },
            {
              "internalType": "uint256",
              "name": "prefund",
              "type": "uint256"
            },
            {
              "internalType": "uint256",
              "name": "contextOffset",
              "type": "uint256"
            },
            {
              "internalType": "uint256",
              "name": "preOpGas",
              "type": "uint256"
            }
          ],
          "internalType": "struct EntryPoint.UserOpInfo",
          "name": "opInfo",
          "type": "tuple"
        },
        {
          "internalType": "bytes",
          "name": "context",
          "type": "bytes"
        }
      ],
      "name": "innerHandleOp",
      "outputs": [
        {
          "internalType": "uint256",
          "name": "actualGasCost",
          "type": "uint256"
        }
      ],
      "stateMutability": "nonpayable",
      "type": "function"
    },
    {
      "inputs": [
        {
          "components": [
            {
              "internalType": "address",
              "name": "sender",
              "type": "address"
            },
            {
              "internalType": "uint256",
              "name": "nonce",
              "type": "uint256"
            },
            {
              "internalType": "bytes",
              "name": "initCode",
              "type": "bytes"
            },
            {
              "internalType": "bytes",
              "name": "callData",
              "type": "bytes"
            },
            {
              "internalType": "uint256",
              "name": "callGasLimit",
              "type": "uint256"
            },
            {
              "internalType": "uint256",
              "name": "verificationGasLimit",
              "type": "uint256"
            },
            {
              "internalType": "uint256",
              "name": "preVerificationGas",
              "type": "uint256"
            },
            {
              "internalType": "uint256",
              "name": "maxFeePerGas",
              "type": "uint256"
            },
            {
              "internalType": "uint256",
              "name": "maxPriorityFeePerGas",
              "type": "uint256"
            },
            {
              "internalType": "bytes",
              "name": "paymasterAndData",
              "type": "bytes"
            },
            {
              "internalType": "bytes",
              "name": "signature",
              "type": "bytes"
            }
          ],
          "internalType": "struct UserOperation",
          "name": "op",
          "type": "tuple"
        },
        {
          "internalType": "address",
          "name": "target",
          "type": "address"
        },
        {
          "internalType": "bytes",
          "name": "targetCallData",
          "type": "bytes"
        }
      ],
      "name": "simulateHandleOp",
      "outputs": [],
      "stateMutability": "nonpayable",
      "type": "function"
    },
    {
      "inputs": [
        {
          "components": [
            {
              "internalType": "address",
              "name": "sender",
              "type": "address"
            },
            {
              "internalType": "uint256",
              "name": "nonce",
              "type": "uint256"
            },
            {
              "internalType": "bytes",
              "name": "initCode",
              "type": "bytes"
            },
            {
              "internalType": "bytes",
              "name": "callData",
              "type": "bytes"
            },
            {
              "internalType": "uint256",
              "name": "callGasLimit",
              "type": "uint256"
            },
            {
              "internalType": "uint256",
              "name": "verificationGasLimit",
              "type": "uint256"
            },
            {
              "internalType": "uint256",
              "name": "preVerificationGas",
              "type": "uint256"
            },
            {
              "internalType": "uint256",
              "name": "maxFeePerGas",
              "type": "uint256"
            },
            {
              "internalType": "uint256",
              "name": "maxPriorityFeePerGas",
              "type": "uint256"
            },
            {
              "internalType": "bytes",
              "name": "paymasterAndData",
              "type": "bytes"
            },
            {
              "internalType": "bytes",
              "name": "signature",
              "type": "bytes"
            }
          ],
          "internalType": "struct UserOperation",
          "name": "userOp",
          "type": "tuple"
        }
      ],
      "name": "simulateValidation",
      "outputs": [],
      "stateMutability": "nonpayable",
      "type": "function"
    },
    {
      "inputs": [],
      "name": "unlockStake",
      "outputs": [],
      "stateMutability": "nonpayable",
      "type": "function"
    },
    {
      "inputs": [
        {
          "internalType": "address payable",
          "name": "withdrawAddress",
          "type": "address"
        }
      ],
      "name": "withdrawStake",
      "outputs": [],
      "stateMutability": "nonpayable",
      "type": "function"
    },
    {
      "inputs": [
        {
          "internalType": "address payable",
          "name": "withdrawAddress",
          "type": "address"
        },
        {
          "internalType": "uint256",
          "name": "withdrawAmount",
          "type": "uint256"
        }
      ],
      "name": "withdrawTo",
      "outputs": [],
      "stateMutability": "nonpayable",
      "type": "function"
    },
    {
      "stateMutability": "payable",
      "type": "receive"
    }
  ],
  "bytecode": {
    "object": "0x60a0604052604051620000129062000050565b604051809103906000f0801580156200002f573d6000803e3d6000fd5b506001600160a01b03166080523480156200004957600080fd5b506200005e565b6102138062003ce683390190565b608051613c65620000816000396000818161117c0152612b360152613c656000f3fe6080604052600436106101025760003560e01c8063957122ab11610095578063bb9fe6bf11610064578063bb9fe6bf146103a1578063c23a5cea146103b6578063d6383f94146103d6578063ee219423146103f6578063fc7e286d1461041657600080fd5b8063957122ab1461032e5780639b249f691461034e578063a61935311461036e578063b760faf91461038e57600080fd5b80634b1d7cf5116100d15780634b1d7cf51461019d5780635287ce12146101bd57806370a08231146102da5780638f41ec5a1461031957600080fd5b80630396cb60146101175780631d7327561461012a5780631fad948c1461015d578063205c28781461017d57600080fd5b3661011257610110336104cb565b005b600080fd5b610110610125366004612df6565b610532565b34801561013657600080fd5b5061014a610145366004613006565b6107c1565b6040519081526020015b60405180910390f35b34801561016957600080fd5b5061011061017836600461310f565b6109a0565b34801561018957600080fd5b50610110610198366004613165565b610ae0565b3480156101a957600080fd5b506101106101b836600461310f565b610c5c565b3480156101c957600080fd5b506102826101d8366004613191565b6040805160a081018252600080825260208201819052918101829052606081018290526080810191909152506001600160a01b031660009081526020818152604091829020825160a08101845281546001600160701b038082168352600160701b820460ff16151594830194909452600160781b90049092169282019290925260019091015463ffffffff81166060830152640100000000900465ffffffffffff16608082015290565b6040805182516001600160701b03908116825260208085015115159083015283830151169181019190915260608083015163ffffffff169082015260809182015165ffffffffffff169181019190915260a001610154565b3480156102e657600080fd5b5061014a6102f5366004613191565b6001600160a01b03166000908152602081905260409020546001600160701b031690565b34801561032557600080fd5b5061014a600181565b34801561033a57600080fd5b506101106103493660046131ae565b611068565b34801561035a57600080fd5b50610110610369366004613232565b611165565b34801561037a57600080fd5b5061014a61038936600461328c565b61121b565b61011061039c366004613191565b6104cb565b3480156103ad57600080fd5b5061011061125d565b3480156103c257600080fd5b506101106103d1366004613191565b611386565b3480156103e257600080fd5b506101106103f13660046132c0565b6115be565b34801561040257600080fd5b5061011061041136600461328c565b6116b9565b34801561042257600080fd5b50610485610431366004613191565b600060208190529081526040902080546001909101546001600160701b0380831692600160701b810460ff1692600160781b9091049091169063ffffffff811690640100000000900465ffffffffffff1685565b604080516001600160701b0396871681529415156020860152929094169183019190915263ffffffff16606082015265ffffffffffff909116608082015260a001610154565b6104d58134611895565b6001600160a01b03811660008181526020818152604091829020805492516001600160701b03909316835292917f2da466a7b24304f47e87fa2e1e5a81b9831ce54fec19055ce277ca2f39ba42c491015b60405180910390a25050565b33600090815260208190526040902063ffffffff82166105995760405162461bcd60e51b815260206004820152601a60248201527f6d757374207370656369667920756e7374616b652064656c617900000000000060448201526064015b60405180910390fd5b600181015463ffffffff90811690831610156105f75760405162461bcd60e51b815260206004820152601c60248201527f63616e6e6f7420646563726561736520756e7374616b652074696d65000000006044820152606401610590565b8054600090610617903490600160781b90046001600160701b0316613337565b90506000811161065e5760405162461bcd60e51b81526020600482015260126024820152711b9bc81cdd185ad9481cdc1958da599a595960721b6044820152606401610590565b6001600160701b038111156106a65760405162461bcd60e51b815260206004820152600e60248201526d7374616b65206f766572666c6f7760901b6044820152606401610590565b6040805160a08101825283546001600160701b0390811682526001602080840182815286841685870190815263ffffffff808b16606088019081526000608089018181523380835296829052908a902098518954955194518916600160781b02600160781b600160e81b0319951515600160701b026effffffffffffffffffffffffffffff199097169190991617949094179290921695909517865551949092018054925165ffffffffffff166401000000000269ffffffffffffffffffff19909316949093169390931717905590517fa5ae833d0bb1dcd632d98a8b70973e8516812898e19bf27b70071ebc8dc52c01906107b4908490879091825263ffffffff16602082015260400190565b60405180910390a2505050565b6000805a90507f1264a4afba23bdd66201ceaa518651beb8afe15773e194fb8349e556eeb44fe5816040516107f891815260200190565b60405180910390a133301461084f5760405162461bcd60e51b815260206004820152601760248201527f4141393220696e7465726e616c2063616c6c206f6e6c790000000000000000006044820152606401610590565b845160408101517f1264a4afba23bdd66201ceaa518651beb8afe15773e194fb8349e556eeb44fe55a60405190815260200160405180910390a181606001518101611388015a10156108ac5763deaddead60e01b60005260206000fd5b8751600090156109405760006108c9846000015160008c86611931565b90508061093e5760006108dd610800611949565b8051909150156109385784600001516001600160a01b03168a602001517f1c4fada7374c0a9ee8841fc38afe82932dc0f8e69012e927f061a8bae611a20187602001518460405161092f92919061339a565b60405180910390a35b60019250505b505b600088608001515a86030190506109926000838b8b8b8080601f016020809104026020016040519081016040528093929190818152602001838380828437600092019190915250889250611975915050565b9a9950505050505050505050565b816000816001600160401b038111156109bb576109bb612e1c565b6040519080825280602002602001820160405280156109f457816020015b6109e1612d6c565b8152602001906001900390816109d95790505b50905060005b82811015610a6d576000828281518110610a1657610a166133b3565b60200260200101519050600080610a51848a8a87818110610a3957610a396133b3565b9050602002810190610a4b91906133c9565b85611c6c565b91509150610a628483836000611dee565b5050506001016109fa565b506000805b83811015610acd57610ac181888884818110610a9057610a906133b3565b9050602002810190610aa291906133c9565b858481518110610ab457610ab46133b3565b6020026020010151611f8a565b90910190600101610a72565b50610ad884826120b2565b505050505050565b33600090815260208190526040902080546001600160701b0316821115610b495760405162461bcd60e51b815260206004820152601960248201527f576974686472617720616d6f756e7420746f6f206c61726765000000000000006044820152606401610590565b8054610b5f9083906001600160701b03166133ea565b81546001600160701b0319166001600160701b0391909116178155604080516001600160a01b03851681526020810184905233917fd1c19fbcd4551a5edfb66d43d2e337c04837afda3482b42bdf569a8fccdae5fb910160405180910390a26000836001600160a01b03168360405160006040518083038185875af1925050503d8060008114610c0b576040519150601f19603f3d011682016040523d82523d6000602084013e610c10565b606091505b5050905080610c565760405162461bcd60e51b81526020600482015260126024820152716661696c656420746f20776974686472617760701b6044820152606401610590565b50505050565b816000805b82811015610dd05736868683818110610c7c57610c7c6133b3565b9050602002810190610c8e91906133fd565b9050366000610c9d8380613413565b90925090506000610cb46040850160208601613191565b90506000196001600160a01b03821601610d105760405162461bcd60e51b815260206004820152601760248201527f4141393620696e76616c69642061676772656761746f720000000000000000006044820152606401610590565b6001600160a01b03811615610dad576001600160a01b03811663e3563a4f8484610d3d604089018961345c565b6040518563ffffffff1660e01b8152600401610d5c9493929190613607565b60006040518083038186803b158015610d7457600080fd5b505afa925050508015610d85575060015b610dad5760405163086a9f7560e41b81526001600160a01b0382166004820152602401610590565b610db78287613337565b9550505050508080610dc890613684565b915050610c61565b506000816001600160401b03811115610deb57610deb612e1c565b604051908082528060200260200182016040528015610e2457816020015b610e11612d6c565b815260200190600190039081610e095790505b5090506000805b84811015610f0f5736888883818110610e4657610e466133b3565b9050602002810190610e5891906133fd565b9050366000610e678380613413565b90925090506000610e7e6040850160208601613191565b90508160005b81811015610ef6576000898981518110610ea057610ea06133b3565b60200260200101519050600080610ec38b898987818110610a3957610a396133b3565b91509150610ed384838389611dee565b8a610edd81613684565b9b50505050508080610eee90613684565b915050610e84565b5050505050508080610f0790613684565b915050610e2b565b50600080915060005b858110156110285736898983818110610f3357610f336133b3565b9050602002810190610f4591906133fd565b9050610f576040820160208301613191565b6001600160a01b03167f575ff3acadd5ab348fe1855e217e0f3678f8d767d7494c9f9fefbee2e17cca4d60405160405180910390a2366000610f998380613413565b90925090508060005b8181101561101057610fe488858584818110610fc057610fc06133b3565b9050602002810190610fd291906133c9565b8b8b81518110610ab457610ab46133b3565b610fee9088613337565b965087610ffa81613684565b985050808061100890613684565b915050610fa2565b5050505050808061102090613684565b915050610f18565b506040516000907f575ff3acadd5ab348fe1855e217e0f3678f8d767d7494c9f9fefbee2e17cca4d908290a261105e86826120b2565b5050505050505050565b8315801561107e57506001600160a01b0383163b155b156110cb5760405162461bcd60e51b815260206004820152601960248201527f41413230206163636f756e74206e6f74206465706c6f796564000000000000006044820152606401610590565b601481106111435760006110e2601482848661369d565b6110eb916136c7565b60601c9050803b6000036111415760405162461bcd60e51b815260206004820152601b60248201527f41413330207061796d6173746572206e6f74206465706c6f79656400000000006044820152606401610590565b505b60405162461bcd60e51b81526020600482015260006024820152604401610590565b604051632b870d1b60e11b81526001600160a01b037f0000000000000000000000000000000000000000000000000000000000000000169063570e1a36906111b390859085906004016136fc565b6020604051808303816000875af11580156111d2573d6000803e3d6000fd5b505050506040513d601f19601f820116820180604052508101906111f69190613710565b604051633653dc0360e11b81526001600160a01b039091166004820152602401610590565b6000611226826121b0565b6040805160208101929092523090820152466060820152608001604051602081830303815290604052805190602001209050919050565b3360009081526020819052604081206001810154909163ffffffff90911690036112b65760405162461bcd60e51b815260206004820152600a6024820152691b9bdd081cdd185ad95960b21b6044820152606401610590565b8054600160701b900460ff166113025760405162461bcd60e51b8152602060048201526011602482015270616c726561647920756e7374616b696e6760781b6044820152606401610590565b600181015460009061131a9063ffffffff164261372d565b60018301805469ffffffffffff00000000191664010000000065ffffffffffff841690810291909117909155835460ff60701b1916845560405190815290915033907ffa9b3c14cc825c412c9ed81b3ba365a5b459439403f18829e572ed53a4180f0a90602001610526565b3360009081526020819052604090208054600160781b90046001600160701b0316806113eb5760405162461bcd60e51b81526020600482015260146024820152734e6f207374616b6520746f20776974686472617760601b6044820152606401610590565b6001820154640100000000900465ffffffffffff1661144c5760405162461bcd60e51b815260206004820152601d60248201527f6d7573742063616c6c20756e6c6f636b5374616b6528292066697273740000006044820152606401610590565b60018201544264010000000090910465ffffffffffff1611156114b15760405162461bcd60e51b815260206004820152601b60248201527f5374616b65207769746864726177616c206973206e6f742064756500000000006044820152606401610590565b60018201805469ffffffffffffffffffff191690558154600160781b600160e81b0319168255604080516001600160a01b03851681526020810183905233917fb7c918e0e249f999e965cafeb6c664271b3f4317d296461500e71da39f0cbda3910160405180910390a26000836001600160a01b03168260405160006040518083038185875af1925050503d8060008114611568576040519150601f19603f3d011682016040523d82523d6000602084013e61156d565b606091505b5050905080610c565760405162461bcd60e51b815260206004820152601860248201527f6661696c656420746f207769746864726177207374616b6500000000000000006044820152606401610590565b6115c6612d6c565b6115cf856121c9565b6000806115de60008885611c6c565b9150915060006115ee83836122a3565b90506115f943600052565b600061160760008a87611f8a565b905061161243600052565b600060606001600160a01b038a161561168857896001600160a01b0316898960405161163f929190613753565b6000604051808303816000865af19150503d806000811461167c576040519150601f19603f3d011682016040523d82523d6000602084013e611681565b606091505b5090925090505b866080015183856020015186604001518585604051630116f59360e71b815260040161059096959493929190613763565b6116c1612d6c565b6116ca826121c9565b6000806116d960008585611c6c565b9150915060006116f0846000015160a00151612370565b84515190915060009061170290612370565b9050611721604051806040016040528060008152602001600081525090565b36600061173160408a018a61345c565b909250905060006014821015611748576000611763565b61175660146000848661369d565b61175f916136c7565b60601c5b905061176e81612370565b9350505050600061177f86866122a3565b9050600081600001519050600060016001600160a01b0316826001600160a01b031614905060006040518060c001604052808b6080015181526020018b6040015181526020018315158152602001856020015165ffffffffffff168152602001856040015165ffffffffffff1681526020016117fc8c6060015190565b905290506001600160a01b0383161580159061182257506001600160a01b038316600114155b156118745760006040518060400160405280856001600160a01b0316815260200161184c86612370565b81525090508187878a84604051633ebb2d3960e21b8152600401610590959493929190613805565b8086868960405163e0cff05f60e01b81526004016105909493929190613885565b6001600160a01b038216600090815260208190526040812080549091906118c69084906001600160701b0316613337565b90506001600160701b038111156119125760405162461bcd60e51b815260206004820152601060248201526f6465706f736974206f766572666c6f7760801b6044820152606401610590565b81546001600160701b0319166001600160701b03919091161790555050565b6000806000845160208601878987f195945050505050565b60603d828111156119575750815b604051602082018101604052818152816000602083013e9392505050565b6000805a85519091506000908161198b826123bf565b60a08301519091506001600160a01b0381166119aa5782519350611b51565b809350600088511115611b5157868202955060028a60028111156119d0576119d06138dc565b14611a4257606083015160405163a9a2340960e01b81526001600160a01b0383169163a9a2340991611a0a908e908d908c906004016138f2565b600060405180830381600088803b158015611a2457600080fd5b5087f1158015611a38573d6000803e3d6000fd5b5050505050611b51565b606083015160405163a9a2340960e01b81526001600160a01b0383169163a9a2340991611a77908e908d908c906004016138f2565b600060405180830381600088803b158015611a9157600080fd5b5087f193505050508015611aa3575060015b611b5157611aaf613939565b806308c379a003611b085750611ac3613955565b80611ace5750611b0a565b8b81604051602001611ae091906139de565b60408051601f1981840301815290829052631101335b60e11b8252610590929160040161339a565b505b8a604051631101335b60e11b81526004016105909181526040602082018190526012908201527110504d4c081c1bdcdd13dc081c995d995c9d60721b606082015260800190565b5a85038701965081870295508589604001511015611bba578a604051631101335b60e11b815260040161059091815260406020808301829052908201527f414135312070726566756e642062656c6f772061637475616c476173436f7374606082015260800190565b6040890151869003611bcc8582611895565b6000808c6002811115611be157611be16138dc565b1490508460a001516001600160a01b031685600001516001600160a01b03168c602001517f49628fd1471006c1482da88028e9ce4dbb080b815c9b0344d39e5a8e6ec1419f8860200151858d8f604051611c54949392919093845291151560208401526040830152606082015260800190565b60405180910390a45050505050505095945050505050565b60008060005a8451909150611c8186826123ef565b611c8a8661121b565b6020860152604081015160608201516080830151171760e087013517610100870135176effffffffffffffffffffffffffffff811115611d0c5760405162461bcd60e51b815260206004820152601860248201527f41413934206761732076616c756573206f766572666c6f7700000000000000006044820152606401610590565b600080611d18846124e8565b9050611d268a8a8a84612535565b97509150611d3343600052565b60a08401516060906001600160a01b031615611d5b57611d568b8b8b858761276d565b975090505b60005a87039050808b60a001351015611dc0578b604051631101335b60e11b8152600401610590918152604060208201819052601e908201527f41413430206f76657220766572696669636174696f6e4761734c696d69740000606082015260800190565b60408a018390528160608b015260c08b01355a8803018a608001818152505050505050505050935093915050565b600080611dfa85612990565b91509150816001600160a01b0316836001600160a01b031614611e605785604051631101335b60e11b81526004016105909181526040602082018190526014908201527320a0991a1039b4b3b730ba3ab9329032b93937b960611b606082015260800190565b8015611eb85785604051631101335b60e11b81526004016105909181526040602082018190526017908201527f414132322065787069726564206f72206e6f7420647565000000000000000000606082015260800190565b6000611ec385612990565b925090506001600160a01b03811615611f1f5786604051631101335b60e11b81526004016105909181526040602082018190526014908201527320a0999a1039b4b3b730ba3ab9329032b93937b960611b606082015260800190565b8115611f815786604051631101335b60e11b81526004016105909181526040602082018190526021908201527f41413332207061796d61737465722065787069726564206f72206e6f742064756060820152606560f81b608082015260a00190565b50505050505050565b6000805a90506000611f9d846060015190565b905030631d732756611fb2606088018861345c565b87856040518563ffffffff1660e01b8152600401611fd39493929190613a1c565b6020604051808303816000875af192505050801561200e575060408051601f3d908101601f1916820190925261200b91810190613acf565b60015b6120a657600060206000803e50600051632152215360e01b81016120715786604051631101335b60e11b81526004016105909181526040602082018190526010908201526f20a09c9a9037baba1037b31033b0b99960811b606082015260800190565b600085608001515a61208390866133ea565b61208d9190613337565b905061209d886002888685611975565b945050506120a9565b92505b50509392505050565b6001600160a01b0382166121085760405162461bcd60e51b815260206004820152601860248201527f4141393020696e76616c69642062656e656669636961727900000000000000006044820152606401610590565b6000826001600160a01b03168260405160006040518083038185875af1925050503d8060008114612155576040519150601f19603f3d011682016040523d82523d6000602084013e61215a565b606091505b50509050806121ab5760405162461bcd60e51b815260206004820152601f60248201527f41413931206661696c65642073656e6420746f2062656e6566696369617279006044820152606401610590565b505050565b60006121bb826129e3565b805190602001209050919050565b3063957122ab6121dc604084018461345c565b6121e96020860186613191565b6121f761012087018761345c565b6040518663ffffffff1660e01b8152600401612217959493929190613ae8565b60006040518083038186803b15801561222f57600080fd5b505afa925050508015612240575060015b6122a05761224c613939565b806308c379a0036122945750612260613955565b8061226b5750612296565b80511561229057600081604051631101335b60e11b815260040161059092919061339a565b5050565b505b3d6000803e3d6000fd5b50565b60408051606081018252600080825260208201819052918101829052906122c984612a22565b905060006122d684612a22565b82519091506001600160a01b0381166122ed575080515b602080840151604080860151928501519085015191929165ffffffffffff808316908516101561231b578193505b8065ffffffffffff168365ffffffffffff161115612337578092505b5050604080516060810182526001600160a01b03909416845265ffffffffffff9283166020850152911690820152925050505b92915050565b604080518082018252600080825260208083018281526001600160a01b03959095168252819052919091208054600160781b90046001600160701b031682526001015463ffffffff1690915290565b60c081015160e0820151600091908082036123db575092915050565b6123e782488301612a93565b949350505050565b6123fc6020830183613191565b6001600160a01b0316815260208083013590820152608080830135604083015260a0830135606083015260c0808401359183019190915260e080840135918301919091526101008301359082015236600061245b61012085018561345c565b909250905080156124db5760148110156124b75760405162461bcd60e51b815260206004820152601d60248201527f4141393320696e76616c6964207061796d6173746572416e64446174610000006044820152606401610590565b6124c560146000838561369d565b6124ce916136c7565b60601c60a0840152610c56565b600060a084015250505050565b60a081015160009081906001600160a01b0316612506576001612509565b60035b60ff16905060008360800151828560600151028560400151010190508360c00151810292505050919050565b60008060005a855180519192509061255a898861255560408c018c61345c565b612aab565b60a082015161256843600052565b60006001600160a01b0382166125b0576001600160a01b0383166000908152602081905260409020546001600160701b03168881116125a9578089036125ac565b60005b9150505b606084015160208a0151604051633a871cdd60e01b81526001600160a01b03861692633a871cdd9290916125ea918f918790600401613b1e565b60206040518083038160008887f193505050508015612626575060408051601f3d908101601f1916820190925261262391810190613acf565b60015b6126b057612632613939565b806308c379a0036126635750612646613955565b806126515750612665565b8b81604051602001611ae09190613b43565b505b8a604051631101335b60e11b8152600401610590918152604060208201819052601690820152754141323320726576657274656420286f72204f4f472960501b606082015260800190565b95506001600160a01b03821661275a576001600160a01b038316600090815260208190526040902080546001600160701b0316808a111561273d578c604051631101335b60e11b81526004016105909181526040602082018190526017908201527f41413231206469646e2774207061792070726566756e64000000000000000000606082015260800190565b81546001600160701b031916908a90036001600160701b03161790555b5a85039650505050505094509492505050565b825160608181015190916000918481116127c95760405162461bcd60e51b815260206004820152601f60248201527f4141343120746f6f206c6974746c6520766572696669636174696f6e476173006044820152606401610590565b60a08201516001600160a01b038116600090815260208190526040902080548784039291906001600160701b031689811015612851578c604051631101335b60e11b8152600401610590918152604060208201819052601e908201527f41413331207061796d6173746572206465706f73697420746f6f206c6f770000606082015260800190565b8981038260000160006101000a8154816001600160701b0302191690836001600160701b03160217905550826001600160a01b031663f465c77e858e8e602001518e6040518563ffffffff1660e01b81526004016128b193929190613b1e565b60006040518083038160008887f1935050505080156128f257506040513d6000823e601f3d908101601f191682016040526128ef9190810190613b7a565b60015b61297c576128fe613939565b806308c379a00361292f5750612912613955565b8061291d5750612931565b8d81604051602001611ae09190613c05565b505b8c604051631101335b60e11b8152600401610590918152604060208201819052601690820152754141333320726576657274656420286f72204f4f472960501b606082015260800190565b909e909d509b505050505050505050505050565b600080826000036129a657506000928392509050565b60006129b184612a22565b9050806040015165ffffffffffff164211806129d85750806020015165ffffffffffff1642105b905194909350915050565b60603660006129f661014085018561345c565b915091508360208184030360405194506020810185016040528085528082602087013750505050919050565b60408051606081018252600080825260208201819052918101919091528160a081901c65ffffffffffff8116600003612a5e575065ffffffffffff5b604080516060810182526001600160a01b03909316835260d09490941c602083015265ffffffffffff16928101929092525090565b6000818310612aa25781612aa4565b825b9392505050565b8015610c56578251516001600160a01b0381163b15612b165784604051631101335b60e11b8152600401610590918152604060208201819052601f908201527f414131302073656e64657220616c726561647920636f6e737472756374656400606082015260800190565b835160600151604051632b870d1b60e11b81526000916001600160a01b037f0000000000000000000000000000000000000000000000000000000000000000169163570e1a369190612b6e90889088906004016136fc565b60206040518083038160008887f1158015612b8d573d6000803e3d6000fd5b50505050506040513d601f19601f82011682018060405250810190612bb29190613710565b90506001600160a01b038116612c145785604051631101335b60e11b8152600401610590918152604060208201819052601b908201527f4141313320696e6974436f6465206661696c6564206f72204f4f470000000000606082015260800190565b816001600160a01b0316816001600160a01b031614612c7e5785604051631101335b60e11b815260040161059091815260406020808301829052908201527f4141313420696e6974436f6465206d7573742072657475726e2073656e646572606082015260800190565b806001600160a01b03163b600003612ce15785604051631101335b60e11b815260040161059091815260406020808301829052908201527f4141313520696e6974436f6465206d757374206372656174652073656e646572606082015260800190565b6000612cf0601482868861369d565b612cf9916136c7565b60601c9050826001600160a01b031686602001517fd51a9c61267aa6196961883ecf5ff2da6619c37dac0fa92122513fb32c032d2d83896000015160a00151604051612d5b9291906001600160a01b0392831681529116602082015260400190565b60405180910390a350505050505050565b6040518060a00160405280612dd160405180610100016040528060006001600160a01b031681526020016000815260200160008152602001600081526020016000815260200160006001600160a01b0316815260200160008152602001600081525090565b8152602001600080191681526020016000815260200160008152602001600081525090565b600060208284031215612e0857600080fd5b813563ffffffff81168114612aa457600080fd5b634e487b7160e01b600052604160045260246000fd5b60a081018181106001600160401b0382111715612e5157612e51612e1c565b60405250565b61010081018181106001600160401b0382111715612e5157612e51612e1c565b601f8201601f191681016001600160401b0381118282101715612e9c57612e9c612e1c565b6040525050565b60006001600160401b03821115612ebc57612ebc612e1c565b50601f01601f191660200190565b6001600160a01b03811681146122a057600080fd5b8035612eea81612eca565b919050565b6000818303610180811215612f0357600080fd5b604051612f0f81612e32565b80925061010080831215612f2257600080fd5b6040519250612f3083612e57565b612f3985612edf565b835260208501356020840152604085013560408401526060850135606084015260808501356080840152612f6f60a08601612edf565b60a084015260c085013560c084015260e085013560e084015282825280850135602083015250610120840135604082015261014084013560608201526101608401356080820152505092915050565b60008083601f840112612fd057600080fd5b5081356001600160401b03811115612fe757600080fd5b602083019150836020828501011115612fff57600080fd5b9250929050565b6000806000806101c0858703121561301d57600080fd5b84356001600160401b038082111561303457600080fd5b818701915087601f83011261304857600080fd5b813561305381612ea3565b6040516130608282612e77565b8281528a602084870101111561307557600080fd5b8260208601602083013760006020848301015280985050505061309b8860208901612eef565b94506101a08701359150808211156130b257600080fd5b506130bf87828801612fbe565b95989497509550505050565b60008083601f8401126130dd57600080fd5b5081356001600160401b038111156130f457600080fd5b6020830191508360208260051b8501011115612fff57600080fd5b60008060006040848603121561312457600080fd5b83356001600160401b0381111561313a57600080fd5b613146868287016130cb565b909450925050602084013561315a81612eca565b809150509250925092565b6000806040838503121561317857600080fd5b823561318381612eca565b946020939093013593505050565b6000602082840312156131a357600080fd5b8135612aa481612eca565b6000806000806000606086880312156131c657600080fd5b85356001600160401b03808211156131dd57600080fd5b6131e989838a01612fbe565b9097509550602088013591506131fe82612eca565b9093506040870135908082111561321457600080fd5b5061322188828901612fbe565b969995985093965092949392505050565b6000806020838503121561324557600080fd5b82356001600160401b0381111561325b57600080fd5b61326785828601612fbe565b90969095509350505050565b6000610160828403121561328657600080fd5b50919050565b60006020828403121561329e57600080fd5b81356001600160401b038111156132b457600080fd5b6123e784828501613273565b600080600080606085870312156132d657600080fd5b84356001600160401b03808211156132ed57600080fd5b6132f988838901613273565b95506020870135915061330b82612eca565b909350604086013590808211156130b257600080fd5b634e487b7160e01b600052601160045260246000fd5b8082018082111561236a5761236a613321565b60005b8381101561336557818101518382015260200161334d565b50506000910152565b6000815180845261338681602086016020860161334a565b601f01601f19169290920160200192915050565b8281526040602082015260006123e7604083018461336e565b634e487b7160e01b600052603260045260246000fd5b6000823561015e198336030181126133e057600080fd5b9190910192915050565b8181038181111561236a5761236a613321565b60008235605e198336030181126133e057600080fd5b6000808335601e1984360301811261342a57600080fd5b8301803591506001600160401b0382111561344457600080fd5b6020019150600581901b3603821315612fff57600080fd5b6000808335601e1984360301811261347357600080fd5b8301803591506001600160401b0382111561348d57600080fd5b602001915036819003821315612fff57600080fd5b6000808335601e198436030181126134b957600080fd5b83016020810192503590506001600160401b038111156134d857600080fd5b803603821315612fff57600080fd5b81835281816020850137506000828201602090810191909152601f909101601f19169091010190565b600061016061352f8461352285612edf565b6001600160a01b03169052565b6020830135602085015261354660408401846134a2565b82604087015261355983870182846134e7565b9250505061356a60608401846134a2565b858303606087015261357d8382846134e7565b925050506080830135608085015260a083013560a085015260c083013560c085015260e083013560e08501526101008084013581860152506101206135c4818501856134a2565b868403838801526135d68482846134e7565b93505050506101406135ea818501856134a2565b868403838801526135fc8482846134e7565b979650505050505050565b6040808252810184905260006060600586901b830181019083018783805b8981101561366d57868503605f190184528235368c900361015e1901811261364b578283fd5b613657868d8301613510565b9550506020938401939290920191600101613625565b5050505082810360208401526135fc8185876134e7565b60006001820161369657613696613321565b5060010190565b600080858511156136ad57600080fd5b838611156136ba57600080fd5b5050820193919092039150565b6bffffffffffffffffffffffff1981358181169160148510156136f45780818660140360031b1b83161692505b505092915050565b6020815260006123e76020830184866134e7565b60006020828403121561372257600080fd5b8151612aa481612eca565b65ffffffffffff81811683821601908082111561374c5761374c613321565b5092915050565b8183823760009101908152919050565b868152856020820152600065ffffffffffff8087166040840152808616606084015250831515608083015260c060a08301526137a260c083018461336e565b98975050505050505050565b80518252602081015160208301526040810151151560408301526000606082015165ffffffffffff8082166060860152806080850151166080860152505060a082015160c060a08501526123e760c085018261336e565b6000610140808352613819818401896137ae565b915050613833602083018780518252602090810151910152565b845160608301526020948501516080830152835160a08301529284015160c082015281516001600160a01b031660e0820152908301518051610100830152909201516101209092019190915292915050565b60e08152600061389860e08301876137ae565b90506138b1602083018680518252602090810151910152565b8351606083015260208401516080830152825160a0830152602083015160c083015295945050505050565b634e487b7160e01b600052602160045260246000fd5b60006003851061391257634e487b7160e01b600052602160045260246000fd5b84825260606020830152613929606083018561336e565b9050826040830152949350505050565b600060033d11156139525760046000803e5060005160e01c5b90565b600060443d10156139635790565b6040516003193d81016004833e81513d6001600160401b03816024840111818411171561399257505050505090565b82850191508151818111156139aa5750505050505090565b843d87010160208285010111156139c45750505050505090565b6139d360208286010187612e77565b509095945050505050565b75020a09a98103837b9ba27b8103932bb32b93a32b21d160551b815260008251613a0f81601685016020870161334a565b9190910160160192915050565b60006101c0808352613a3181840187896134e7565b9050845160018060a01b03808251166020860152602082015160408601526040820151606086015260608201516080860152608082015160a08601528060a08301511660c08601525060c081015160e085015260e08101516101008501525060208501516101208401526040850151610140840152606085015161016084015260808501516101808401528281036101a08401526135fc818561336e565b600060208284031215613ae157600080fd5b5051919050565b606081526000613afc6060830187896134e7565b6001600160a01b038616602084015282810360408401526137a28185876134e7565b606081526000613b316060830186613510565b60208301949094525060400152919050565b6e020a09919903932bb32b93a32b21d1608d1b815260008251613b6d81600f85016020870161334a565b91909101600f0192915050565b60008060408385031215613b8d57600080fd5b82516001600160401b03811115613ba357600080fd5b8301601f81018513613bb457600080fd5b8051613bbf81612ea3565b604051613bcc8282612e77565b828152876020848601011115613be157600080fd5b613bf283602083016020870161334a565b6020969096015195979596505050505050565b6e020a09999903932bb32b93a32b21d1608d1b815260008251613b6d81600f85016020870161334a56fea26469706673582212205818e07305fa277f71f87a701568d57ec407b9661d070d4300191213485b3b4f64736f6c63430008130033608060405234801561001057600080fd5b506101f3806100206000396000f3fe608060405234801561001057600080fd5b506004361061002b5760003560e01c8063570e1a3614610030575b600080fd5b61004361003e3660046100ec565b61005f565b6040516001600160a01b03909116815260200160405180910390f35b60008061006f601482858761015e565b61007891610188565b60601c9050600061008c846014818861015e565b8080601f016020809104026020016040519081016040528093929190818152602001838380828437600092018290525084519495509360209350849250905082850182875af190506000519350806100e357600093505b50505092915050565b600080602083850312156100ff57600080fd5b823567ffffffffffffffff8082111561011757600080fd5b818501915085601f83011261012b57600080fd5b81358181111561013a57600080fd5b86602082850101111561014c57600080fd5b60209290920196919550909350505050565b6000808585111561016e57600080fd5b8386111561017b57600080fd5b5050820193919092039150565b6bffffffffffffffffffffffff1981358181169160148510156101b55780818660140360031b1b83161692505b50509291505056fea26469706673582212204db84ec799c3c119a3315c88f0065e6ed9a5821b8f9f81c1b1bdebafa8f79d2164736f6c63430008130033",
    "linkReferences": {}
  },
  "methodIdentifiers": {
    "SIG_VALIDATION_FAILED()": "8f41ec5a",
    "_validateSenderAndPaymaster(bytes,address,bytes)": "957122ab",
    "addStake(uint32)": "0396cb60",
    "balanceOf(address)": "70a08231",
    "depositTo(address)": "b760faf9",
    "deposits(address)": "fc7e286d",
    "getDepositInfo(address)": "5287ce12",
    "getSenderAddress(bytes)": "9b249f69",
    "getUserOpHash((address,uint256,bytes,bytes,uint256,uint256,uint256,uint256,uint256,bytes,bytes))": "a6193531",
    "handleAggregatedOps(((address,uint256,bytes,bytes,uint256,uint256,uint256,uint256,uint256,bytes,bytes)[],address,bytes)[],address)": "4b1d7cf5",
    "handleOps((address,uint256,bytes,bytes,uint256,uint256,uint256,uint256,uint256,bytes,bytes)[],address)": "1fad948c",
    "innerHandleOp(bytes,((address,uint256,uint256,uint256,uint256,address,uint256,uint256),bytes32,uint256,uint256,uint256),bytes)": "1d732756",
    "simulateHandleOp((address,uint256,bytes,bytes,uint256,uint256,uint256,uint256,uint256,bytes,bytes),address,bytes)": "d6383f94",
    "simulateValidation((address,uint256,bytes,bytes,uint256,uint256,uint256,uint256,uint256,bytes,bytes))": "ee219423",
    "unlockStake()": "bb9fe6bf",
    "withdrawStake(address)": "c23a5cea",
    "withdrawTo(address,uint256)": "205c2878"
  },
  "id": 9
}