{
  "abi": [
    {
      "inputs": [
        {
          "internalType": "contract IEntryPoint",
          "name": "entryPoint",
          "type": "address"
        },
        {
          "internalType": "address[]",
          "name": "addresses",
          "type": "address[]"
        }
      ],
      "name": "setupDaypass",
      "outputs": [
        {
          "internalType": "contract Hackathon721",
          "name": "nftContract",
          "type": "address"
        },
        {
          "internalType": "contract HackathonPaymaster",
          "name": "paymasterContract",
          "type": "address"
        }
      ],
      "stateMutability": "payable",
      "type": "function"
    }
  ],
  "bytecode": {
    "object": "0x608060405234801561001057600080fd5b50613f7c806100206000396000f3fe60806040526004361061001e5760003560e01c8063d5ff050614610023575b600080fd5b6100366100313660046102a0565b61005a565b604080516001600160a01b0393841681529290911660208301520160405180910390f35b60008060405161006990610248565b604051809103906000f080158015610085573d6000803e3d6000fd5b50915083828460405161009790610255565b6100a39392919061037a565b604051809103906000f0801580156100bf573d6000803e3d6000fd5b5090506001600160a01b03811663d0e30db06100dc6002346103dd565b6040518263ffffffff1660e01b81526004016000604051808303818588803b15801561010757600080fd5b505af115801561011b573d6000803e3d6000fd5b5050505050806001600160a01b0316630396cb6060023461013c91906103dd565b6040516001600160e01b031960e084901b1681526201518060048201526024016000604051808303818588803b15801561017557600080fd5b505af1158015610189573d6000803e3d6000fd5b505060405163f2fde38b60e01b81523360048201526001600160a01b038516935063f2fde38b92506024019050600060405180830381600087803b1580156101d057600080fd5b505af11580156101e4573d6000803e3d6000fd5b505060405163f2fde38b60e01b81523360048201526001600160a01b038516925063f2fde38b9150602401600060405180830381600087803b15801561022957600080fd5b505af115801561023d573d6000803e3d6000fd5b505050509250929050565b6129c08061040083390190565b61118780612dc083390190565b6001600160a01b038116811461027757600080fd5b50565b634e487b7160e01b600052604160045260246000fd5b803561029b81610262565b919050565b600080604083850312156102b357600080fd5b82356102be81610262565b915060208381013567ffffffffffffffff808211156102dc57600080fd5b818601915086601f8301126102f057600080fd5b8135818111156103025761030261027a565b8060051b604051601f19603f830116810181811085821117156103275761032761027a565b60405291825284820192508381018501918983111561034557600080fd5b938501935b8285101561036a5761035b85610290565b8452938501939285019261034a565b8096505050505050509250929050565b60006060820160018060a01b03808716845260208187168186015260606040860152828651808552608087019150828801945060005b818110156103ce5785518516835294830194918301916001016103b0565b50909998505050505050505050565b6000826103fa57634e487b7160e01b600052601260045260246000fd5b50049056fe6000600b556006600c5561010060405260506080818152906200297060a039600e906200002d9082620001aa565b50604051806040016040528060078152602001664461797061737360c81b81525060405180604001604052806005815260200164445041535360d81b81525081600090816200007d9190620001aa565b5060016200008c8282620001aa565b505050620000a9620000a3620000af60201b60201c565b620000b3565b62000276565b3390565b600a80546001600160a01b038381166001600160a01b0319831681179093556040519116919082907f8be0079c531659141344cd1fd0a4f28419497f9722a3daafe3b4186f6b6457e090600090a35050565b634e487b7160e01b600052604160045260246000fd5b600181811c908216806200013057607f821691505b6020821081036200015157634e487b7160e01b600052602260045260246000fd5b50919050565b601f821115620001a557600081815260208120601f850160051c81016020861015620001805750805b601f850160051c820191505b81811015620001a1578281556001016200018c565b5050505b505050565b81516001600160401b03811115620001c657620001c662000105565b620001de81620001d784546200011b565b8462000157565b602080601f831160018114620002165760008415620001fd5750858301515b600019600386901b1c1916600185901b178555620001a1565b600085815260208120601f198616915b82811015620002475788860151825594840194600190910190840162000226565b5085821015620002665787850151600019600388901b60f8161c191681555b5050505050600190811b01905550565b6126ea80620002866000396000f3fe6080604052600436106101cc5760003560e01c80636352211e116100f7578063b88d4fde11610095578063f1b0aa1511610064578063f1b0aa1514610534578063f2fde38b14610561578063f34341c714610581578063f51f96dd1461059757600080fd5b8063b88d4fde14610496578063c87b56dd146104b6578063e985e9c5146104d6578063eac989f81461051f57600080fd5b80638da5cb5b116100d15780638da5cb5b1461043057806395d89b411461044e578063a0712d6814610463578063a22cb4651461047657600080fd5b80636352211e146103db57806370a08231146103fb578063715018a61461041b57600080fd5b80631919fed71161016f57806342842e0e1161013e57806342842e0e1461035b57806348c6195d1461037b5780634f6ccce71461039b57806355f804b3146103bb57600080fd5b80631919fed7146102db57806323b872dd146102fb5780632f745c591461031b57806331b3eb941461033b57600080fd5b8063081812fc116101ab578063081812fc1461024c578063095ea7b31461028457806318160ddd146102a657806318dbe6b0146102bb57600080fd5b80629a9b7b146101d157806301ffc9a7146101fa57806306fdde031461022a575b600080fd5b3480156101dd57600080fd5b506101e7600d5481565b6040519081526020015b60405180910390f35b34801561020657600080fd5b5061021a610215366004611cf7565b6105ad565b60405190151581526020016101f1565b34801561023657600080fd5b5061023f6105d8565b6040516101f19190611d6b565b34801561025857600080fd5b5061026c610267366004611d7e565b61066a565b6040516001600160a01b0390911681526020016101f1565b34801561029057600080fd5b506102a461029f366004611dac565b610691565b005b3480156102b257600080fd5b506008546101e7565b3480156102c757600080fd5b5061021a6102d6366004611dd8565b6107ab565b3480156102e757600080fd5b506102a46102f6366004611d7e565b610808565b34801561030757600080fd5b506102a4610316366004611df5565b610815565b34801561032757600080fd5b506101e7610336366004611dac565b610846565b34801561034757600080fd5b506102a4610356366004611dd8565b6108dc565b34801561036757600080fd5b506102a4610376366004611df5565b610958565b34801561038757600080fd5b5061021a610396366004611d7e565b610973565b3480156103a757600080fd5b506101e76103b6366004611d7e565b6109a1565b3480156103c757600080fd5b506102a46103d6366004611e36565b610a34565b3480156103e757600080fd5b5061026c6103f6366004611d7e565b610a49565b34801561040757600080fd5b506101e7610416366004611dd8565b610aa9565b34801561042757600080fd5b506102a4610b2f565b34801561043c57600080fd5b50600a546001600160a01b031661026c565b34801561045a57600080fd5b5061023f610b43565b6102a4610471366004611d7e565b610b52565b34801561048257600080fd5b506102a4610491366004611ea8565b610bfc565b3480156104a257600080fd5b506102a46104b1366004611efc565b610c0b565b3480156104c257600080fd5b5061023f6104d1366004611d7e565b610c3d565b3480156104e257600080fd5b5061021a6104f1366004611fdc565b6001600160a01b03918216600090815260056020908152604080832093909416825291909152205460ff1690565b34801561052b57600080fd5b5061023f610e90565b34801561054057600080fd5b506101e761054f366004611d7e565b600f6020526000908152604090205481565b34801561056d57600080fd5b506102a461057c366004611dd8565b610f1e565b34801561058d57600080fd5b506101e7600c5481565b3480156105a357600080fd5b506101e7600b5481565b60006001600160e01b0319821663780e9d6360e01b14806105d257506105d282610f97565b92915050565b6060600080546105e79061200a565b80601f01602080910402602001604051908101604052809291908181526020018280546106139061200a565b80156106605780601f1061063557610100808354040283529160200191610660565b820191906000526020600020905b81548152906001019060200180831161064357829003601f168201915b5050505050905090565b600061067582610fe7565b506000908152600460205260409020546001600160a01b031690565b600061069c82610a49565b9050806001600160a01b0316836001600160a01b03160361070e5760405162461bcd60e51b815260206004820152602160248201527f4552433732313a20617070726f76616c20746f2063757272656e74206f776e656044820152603960f91b60648201526084015b60405180910390fd5b336001600160a01b038216148061072a575061072a81336104f1565b61079c5760405162461bcd60e51b815260206004820152603d60248201527f4552433732313a20617070726f76652063616c6c6572206973206e6f7420746f60448201527f6b656e206f776e6572206f7220617070726f76656420666f7220616c6c0000006064820152608401610705565b6107a68383611046565b505050565b6000806107b783610aa9565b905060005b818110156107fe5760006107d08583610846565b90506107db81610973565b156107eb57506001949350505050565b50806107f68161205a565b9150506107bc565b5060009392505050565b6108106110b4565b600b55565b61081f338261110e565b61083b5760405162461bcd60e51b815260040161070590612073565b6107a683838361118d565b600061085183610aa9565b82106108b35760405162461bcd60e51b815260206004820152602b60248201527f455243373231456e756d657261626c653a206f776e657220696e646578206f7560448201526a74206f6620626f756e647360a81b6064820152608401610705565b506001600160a01b03919091166000908152600660209081526040808320938352929052205490565b6108e46110b4565b60405147906000906001600160a01b0384169083908381818185875af1925050503d8060008114610931576040519150601f19603f3d011682016040523d82523d6000602084013e610936565b606091505b50509050806107a65760405163d23a9e8960e01b815260040160405180910390fd5b6107a683838360405180602001604052806000815250610c0b565b6000818152600f60205260408120546203f48061099081836120c0565b4210156107fe575060019392505050565b60006109ac60085490565b8210610a0f5760405162461bcd60e51b815260206004820152602c60248201527f455243373231456e756d657261626c653a20676c6f62616c20696e646578206f60448201526b7574206f6620626f756e647360a01b6064820152608401610705565b60088281548110610a2257610a226120d3565b90600052602060002001549050919050565b610a3c6110b4565b600e6107a6828483612137565b6000818152600260205260408120546001600160a01b0316806105d25760405162461bcd60e51b8152602060048201526018602482015277115490cdcc8c4e881a5b9d985b1a59081d1bdad95b88125160421b6044820152606401610705565b60006001600160a01b038216610b135760405162461bcd60e51b815260206004820152602960248201527f4552433732313a2061646472657373207a65726f206973206e6f7420612076616044820152683634b21037bbb732b960b91b6064820152608401610705565b506001600160a01b031660009081526003602052604090205490565b610b376110b4565b610b4160006112fe565b565b6060600180546105e79061200a565b80600c54811115610b7657604051633a4733d960e11b815260040160405180910390fd5b813481600b54610b8691906121f7565b14610ba457604051636956f2ab60e11b815260040160405180910390fd5b60005b83811015610bf657600d8054906000610bbf8361205a565b9190505550610bd033600d54611350565b600d546000908152600f6020526040902042905580610bee8161205a565b915050610ba7565b50505050565b610c0733838361136a565b5050565b610c15338361110e565b610c315760405162461bcd60e51b815260040161070590612073565b610bf684848484611438565b6000818152600260205260409020546060906001600160a01b0316610cbc5760405162461bcd60e51b815260206004820152602f60248201527f4552433732314d657461646174613a2055524920717565727920666f72206e6f60448201526e3732bc34b9ba32b73a103a37b5b2b760891b6064820152608401610705565b6000828152600f6020526040812054906203f48090610cdb82846120c0565b421015610cfe5742610ced83856120c0565b610cf7919061220e565b9050610d02565b5060005b6000610d10610e1083612237565b90506000603c610d22610e108561224b565b610d2c9190612237565b90506000610d3b603c8561224b565b9050610d45611cba565b60405180610140016040528061011481526020016125a161011491398152610d6c8461146b565b610d758461146b565b610d7e8461146b565b604051602001610d909392919061225f565b60408051601f19818403018152918152602083810192835281518083018352600d81526c1e17ba32bc3a1f1e17b9bb339f60991b81830152848301819052845193519251600094610de6949093909291016122e6565b60405160208183030381529060405290506000610e02826114fe565b9050600081604051602001610e179190612329565b60405160208183030381529060405290506000610e5c610e368e61146b565b83604051602001610e4892919061236e565b6040516020818303038152906040526114fe565b905080604051602001610e6f9190612414565b6040516020818303038152906040529b505050505050505050505050919050565b600e8054610e9d9061200a565b80601f0160208091040260200160405190810160405280929190818152602001828054610ec99061200a565b8015610f165780601f10610eeb57610100808354040283529160200191610f16565b820191906000526020600020905b815481529060010190602001808311610ef957829003601f168201915b505050505081565b610f266110b4565b6001600160a01b038116610f8b5760405162461bcd60e51b815260206004820152602660248201527f4f776e61626c653a206e6577206f776e657220697320746865207a65726f206160448201526564647265737360d01b6064820152608401610705565b610f94816112fe565b50565b60006001600160e01b031982166380ac58cd60e01b1480610fc857506001600160e01b03198216635b5e139f60e01b145b806105d257506301ffc9a760e01b6001600160e01b03198316146105d2565b6000818152600260205260409020546001600160a01b0316610f945760405162461bcd60e51b8152602060048201526018602482015277115490cdcc8c4e881a5b9d985b1a59081d1bdad95b88125160421b6044820152606401610705565b600081815260046020526040902080546001600160a01b0319166001600160a01b038416908117909155819061107b82610a49565b6001600160a01b03167f8c5be1e5ebec7d5bd14f71427d1e84f3dd0314c0f7b2291e5b200ac8c7c3b92560405160405180910390a45050565b600a546001600160a01b03163314610b415760405162461bcd60e51b815260206004820181905260248201527f4f776e61626c653a2063616c6c6572206973206e6f7420746865206f776e65726044820152606401610705565b60008061111a83610a49565b9050806001600160a01b0316846001600160a01b0316148061116157506001600160a01b0380821660009081526005602090815260408083209388168352929052205460ff165b806111855750836001600160a01b031661117a8461066a565b6001600160a01b0316145b949350505050565b826001600160a01b03166111a082610a49565b6001600160a01b0316146111c65760405162461bcd60e51b815260040161070590612459565b6001600160a01b0382166112285760405162461bcd60e51b8152602060048201526024808201527f4552433732313a207472616e7366657220746f20746865207a65726f206164646044820152637265737360e01b6064820152608401610705565b6112358383836001611651565b826001600160a01b031661124882610a49565b6001600160a01b03161461126e5760405162461bcd60e51b815260040161070590612459565b600081815260046020908152604080832080546001600160a01b03199081169091556001600160a01b0387811680865260038552838620805460001901905590871680865283862080546001019055868652600290945282852080549092168417909155905184937fddf252ad1be2c89b69c2b068fc378daa952ba7f163c4a11628f55a4df523b3ef91a4505050565b600a80546001600160a01b038381166001600160a01b0319831681179093556040519116919082907f8be0079c531659141344cd1fd0a4f28419497f9722a3daafe3b4186f6b6457e090600090a35050565b610c07828260405180602001604052806000815250611785565b816001600160a01b0316836001600160a01b0316036113cb5760405162461bcd60e51b815260206004820152601960248201527f4552433732313a20617070726f766520746f2063616c6c6572000000000000006044820152606401610705565b6001600160a01b03838116600081815260056020908152604080832094871680845294825291829020805460ff191686151590811790915591519182527f17307eab39ab6107e8899845ad3d59bd9653f200f220920489ca2b5937696c31910160405180910390a3505050565b61144384848461118d565b61144f848484846117b8565b610bf65760405162461bcd60e51b81526004016107059061249e565b60606000611478836118b9565b600101905060008167ffffffffffffffff81111561149857611498611ee6565b6040519080825280601f01601f1916602001820160405280156114c2576020820181803683370190505b5090508181016020015b600019016f181899199a1a9b1b9c1cb0b131b232b360811b600a86061a8153600a85049450846114cc57509392505050565b6060815160000361151d57505060408051602081019091526000815290565b6000604051806060016040528060408152602001612561604091399050600060038451600261154c91906120c0565b6115569190612237565b6115619060046121f7565b67ffffffffffffffff81111561157957611579611ee6565b6040519080825280601f01601f1916602001820160405280156115a3576020820181803683370190505b509050600182016020820185865187015b8082101561160f576003820191508151603f8160121c168501518453600184019350603f81600c1c168501518453600184019350603f8160061c168501518453600184019350603f81168501518453506001830192506115b4565b505060038651066001811461162b576002811461163e57611646565b603d6001830353603d6002830353611646565b603d60018303535b509195945050505050565b60018111156116c05760405162461bcd60e51b815260206004820152603560248201527f455243373231456e756d657261626c653a20636f6e7365637574697665207472604482015274185b9cd9995c9cc81b9bdd081cdd5c1c1bdc9d1959605a1b6064820152608401610705565b816001600160a01b03851661171c5761171781600880546000838152600960205260408120829055600182018355919091527ff3f7a9fe364faab93b216da50a3214154f22a0a2b415b23a84c8169e8b636ee30155565b61173f565b836001600160a01b0316856001600160a01b03161461173f5761173f8582611991565b6001600160a01b03841661175b5761175681611a2e565b61177e565b846001600160a01b0316846001600160a01b03161461177e5761177e8482611add565b5050505050565b61178f8383611b21565b61179c60008484846117b8565b6107a65760405162461bcd60e51b81526004016107059061249e565b60006001600160a01b0384163b156118ae57604051630a85bd0160e11b81526001600160a01b0385169063150b7a02906117fc9033908990889088906004016124f0565b6020604051808303816000875af1925050508015611837575060408051601f3d908101601f191682019092526118349181019061252d565b60015b611894573d808015611865576040519150601f19603f3d011682016040523d82523d6000602084013e61186a565b606091505b50805160000361188c5760405162461bcd60e51b81526004016107059061249e565b805181602001fd5b6001600160e01b031916630a85bd0160e11b149050611185565b506001949350505050565b60008072184f03e93ff9f4daa797ed6e38ed64bf6a1f0160401b83106118f85772184f03e93ff9f4daa797ed6e38ed64bf6a1f0160401b830492506040015b6d04ee2d6d415b85acef81000000008310611924576d04ee2d6d415b85acef8100000000830492506020015b662386f26fc10000831061194257662386f26fc10000830492506010015b6305f5e100831061195a576305f5e100830492506008015b612710831061196e57612710830492506004015b60648310611980576064830492506002015b600a83106105d25760010192915050565b6000600161199e84610aa9565b6119a8919061220e565b6000838152600760205260409020549091508082146119fb576001600160a01b03841660009081526006602090815260408083208584528252808320548484528184208190558352600790915290208190555b5060009182526007602090815260408084208490556001600160a01b039094168352600681528383209183525290812055565b600854600090611a409060019061220e565b60008381526009602052604081205460088054939450909284908110611a6857611a686120d3565b906000526020600020015490508060088381548110611a8957611a896120d3565b6000918252602080832090910192909255828152600990915260408082208490558582528120556008805480611ac157611ac161254a565b6001900381819060005260206000200160009055905550505050565b6000611ae883610aa9565b6001600160a01b039093166000908152600660209081526040808320868452825280832085905593825260079052919091209190915550565b6001600160a01b038216611b775760405162461bcd60e51b815260206004820181905260248201527f4552433732313a206d696e7420746f20746865207a65726f20616464726573736044820152606401610705565b6000818152600260205260409020546001600160a01b031615611bdc5760405162461bcd60e51b815260206004820152601c60248201527f4552433732313a20746f6b656e20616c7265616479206d696e746564000000006044820152606401610705565b611bea600083836001611651565b6000818152600260205260409020546001600160a01b031615611c4f5760405162461bcd60e51b815260206004820152601c60248201527f4552433732313a20746f6b656e20616c7265616479206d696e746564000000006044820152606401610705565b6001600160a01b038216600081815260036020908152604080832080546001019055848352600290915280822080546001600160a01b0319168417905551839291907fddf252ad1be2c89b69c2b068fc378daa952ba7f163c4a11628f55a4df523b3ef908290a45050565b6040518060a001604052806005905b6060815260200190600190039081611cc95790505090565b6001600160e01b031981168114610f9457600080fd5b600060208284031215611d0957600080fd5b8135611d1481611ce1565b9392505050565b60005b83811015611d36578181015183820152602001611d1e565b50506000910152565b60008151808452611d57816020860160208601611d1b565b601f01601f19169290920160200192915050565b602081526000611d146020830184611d3f565b600060208284031215611d9057600080fd5b5035919050565b6001600160a01b0381168114610f9457600080fd5b60008060408385031215611dbf57600080fd5b8235611dca81611d97565b946020939093013593505050565b600060208284031215611dea57600080fd5b8135611d1481611d97565b600080600060608486031215611e0a57600080fd5b8335611e1581611d97565b92506020840135611e2581611d97565b929592945050506040919091013590565b60008060208385031215611e4957600080fd5b823567ffffffffffffffff80821115611e6157600080fd5b818501915085601f830112611e7557600080fd5b813581811115611e8457600080fd5b866020828501011115611e9657600080fd5b60209290920196919550909350505050565b60008060408385031215611ebb57600080fd5b8235611ec681611d97565b915060208301358015158114611edb57600080fd5b809150509250929050565b634e487b7160e01b600052604160045260246000fd5b60008060008060808587031215611f1257600080fd5b8435611f1d81611d97565b93506020850135611f2d81611d97565b925060408501359150606085013567ffffffffffffffff80821115611f5157600080fd5b818701915087601f830112611f6557600080fd5b813581811115611f7757611f77611ee6565b604051601f8201601f19908116603f01168101908382118183101715611f9f57611f9f611ee6565b816040528281528a6020848701011115611fb857600080fd5b82602086016020830137600060208483010152809550505050505092959194509250565b60008060408385031215611fef57600080fd5b8235611ffa81611d97565b91506020830135611edb81611d97565b600181811c9082168061201e57607f821691505b60208210810361203e57634e487b7160e01b600052602260045260246000fd5b50919050565b634e487b7160e01b600052601160045260246000fd5b60006001820161206c5761206c612044565b5060010190565b6020808252602d908201527f4552433732313a2063616c6c6572206973206e6f7420746f6b656e206f776e6560408201526c1c881bdc88185c1c1c9bdd9959609a1b606082015260800190565b808201808211156105d2576105d2612044565b634e487b7160e01b600052603260045260246000fd5b601f8211156107a657600081815260208120601f850160051c810160208610156121105750805b601f850160051c820191505b8181101561212f5782815560010161211c565b505050505050565b67ffffffffffffffff83111561214f5761214f611ee6565b6121638361215d835461200a565b836120e9565b6000601f841160018114612197576000851561217f5750838201355b600019600387901b1c1916600186901b17835561177e565b600083815260209020601f19861690835b828110156121c857868501358255602094850194600190920191016121a8565b50868210156121e55760001960f88860031b161c19848701351681555b505060018560011b0183555050505050565b80820281158282048414176105d2576105d2612044565b818103818111156105d2576105d2612044565b634e487b7160e01b600052601260045260246000fd5b60008261224657612246612221565b500490565b60008261225a5761225a612221565b500690565b6a02a34b6b2902632b33a1d160ad1b81526000845161228581600b850160208901611d1b565b61034160f51b600b9184019182015284516122a781600d840160208901611d1b565b61036960f51b600d929091019182015283516122ca81600f840160208801611d1b565b61039960f51b600f929091019182015260110195945050505050565b600084516122f8818460208901611d1b565b84519083019061230c818360208901611d1b565b845191019061231f818360208801611d1b565b0195945050505050565b7f646174613a696d6167652f7376672b786d6c3b6261736536342c00000000000081526000825161236181601a850160208701611d1b565b91909101601a0192915050565b727b226e616d65223a202244617970617373202360681b8152825160009061239d816013850160208801611d1b565b7f222c20226465736372697074696f6e223a202241204461797061737320666f7260139184019182015275103cb7bab91033b0b99116101134b6b0b3b2911d101160511b603382015283516123f9816049840160208801611d1b565b61227d60f01b60499290910191820152604b01949350505050565b7f646174613a6170706c69636174696f6e2f6a736f6e3b6261736536342c00000081526000825161244c81601d850160208701611d1b565b91909101601d0192915050565b60208082526025908201527f4552433732313a207472616e736665722066726f6d20696e636f72726563742060408201526437bbb732b960d91b606082015260800190565b60208082526032908201527f4552433732313a207472616e7366657220746f206e6f6e20455243373231526560408201527131b2b4bb32b91034b6b83632b6b2b73a32b960711b606082015260800190565b6001600160a01b038581168252841660208201526040810183905260806060820181905260009061252390830184611d3f565b9695505050505050565b60006020828403121561253f57600080fd5b8151611d1481611ce1565b634e487b7160e01b600052603160045260246000fdfe4142434445464748494a4b4c4d4e4f505152535455565758595a6162636465666768696a6b6c6d6e6f707172737475767778797a303132333435363738392b2f3c73766720786d6c6e733d22687474703a2f2f7777772e77332e6f72672f323030302f73766722207072657365727665417370656374526174696f3d22784d696e594d696e206d656574222076696577426f783d223020302033353020333530223e3c7374796c653e2e62617365207b2066696c6c3a20626c61636b3b20666f6e742d66616d696c793a2073657269663b20666f6e742d73697a653a20323470783b207d3c2f7374796c653e3c726563742077696474683d223130302522206865696768743d2231303025222066696c6c3d22776869746522202f3e3c7465787420783d223530252220793d223530252220636c6173733d22626173652220746578742d616e63686f723d226d6964646c65223ea2646970667358221220184d33fa63114cb078ba4f5554a6f9c936bcef3d8e3e201970349ae5e612cc6664736f6c6343000813003368747470733a2f2f676174657761792e70696e6174612e636c6f75642f697066732f516d50757835516779504866786a7543426631474c36626e6259526f44647a7768395547646e7a3255587835384460806040523480156200001157600080fd5b506040516200118738038062001187833981016040819052620000349162000225565b82620000403362000086565b6200004b81620000d6565b50600280546001600160a01b0319166001600160a01b03841617905580516200007c90600390602084019062000163565b5050505062000325565b600080546001600160a01b038381166001600160a01b0319831681178455604051919092169283917f8be0079c531659141344cd1fd0a4f28419497f9722a3daafe3b4186f6b6457e09190a35050565b620000e062000102565b600180546001600160a01b0319166001600160a01b0392909216919091179055565b6000546001600160a01b03163314620001615760405162461bcd60e51b815260206004820181905260248201527f4f776e61626c653a2063616c6c6572206973206e6f7420746865206f776e6572604482015260640160405180910390fd5b565b828054828255906000526020600020908101928215620001bb579160200282015b82811115620001bb57825182546001600160a01b0319166001600160a01b0390911617825560209092019160019091019062000184565b50620001c9929150620001cd565b5090565b5b80821115620001c95760008155600101620001ce565b6001600160a01b0381168114620001fa57600080fd5b50565b80516200020a81620001e4565b919050565b634e487b7160e01b600052604160045260246000fd5b6000806000606084860312156200023b57600080fd5b83516200024881620001e4565b809350506020808501516200025d81620001e4565b60408601519093506001600160401b03808211156200027b57600080fd5b818701915087601f8301126200029057600080fd5b815181811115620002a557620002a56200020f565b8060051b604051601f19603f83011681018181108582111715620002cd57620002cd6200020f565b60405291825284820192508381018501918a831115620002ec57600080fd5b938501935b8285101562000315576200030585620001fd565b84529385019392850192620002f1565b8096505050505050509250925092565b610e5280620003356000396000f3fe6080604052600436106100fe5760003560e01c8063b0d691fe11610095578063d0e30db011610064578063d0e30db014610280578063d97e0ada14610288578063eb4bd055146102a8578063f2fde38b146102c8578063f465c77e146102e857600080fd5b8063b0d691fe14610208578063bb9fe6bf14610228578063c23a5cea1461023d578063c399ec881461025d57600080fd5b8063715018a6116100d1578063715018a6146101955780638da5cb5b146101aa578063a0ac611b146101c8578063a9a23409146101e857600080fd5b80630396cb6014610103578063205c287814610118578063584465f21461013857806366c00cca14610158575b600080fd5b6101166101113660046109c8565b610316565b005b34801561012457600080fd5b50610116610133366004610a0a565b610385565b34801561014457600080fd5b50610116610153366004610a36565b6103db565b34801561016457600080fd5b50600254610178906001600160a01b031681565b6040516001600160a01b0390911681526020015b60405180910390f35b3480156101a157600080fd5b50610116610405565b3480156101b657600080fd5b506000546001600160a01b0316610178565b3480156101d457600080fd5b506101786101e3366004610a53565b610419565b3480156101f457600080fd5b50610116610203366004610a6c565b610443565b34801561021457600080fd5b50600154610178906001600160a01b031681565b34801561023457600080fd5b5061011661045d565b34801561024957600080fd5b50610116610258366004610a36565b6104c9565b34801561026957600080fd5b50610272610533565b60405190815260200161018c565b6101166105a5565b34801561029457600080fd5b506101166102a3366004610a36565b6105eb565b3480156102b457600080fd5b506101166102c3366004610b42565b610615565b3480156102d457600080fd5b506101166102e3366004610a36565b610634565b3480156102f457600080fd5b50610308610303366004610bf4565b6106b2565b60405161018c929190610c48565b61031e6107ec565b600154604051621cb65b60e51b815263ffffffff831660048201526001600160a01b0390911690630396cb609034906024016000604051808303818588803b15801561036957600080fd5b505af115801561037d573d6000803e3d6000fd5b505050505050565b61038d6107ec565b60015460405163040b850f60e31b81526001600160a01b038481166004830152602482018490529091169063205c287890604401600060405180830381600087803b15801561036957600080fd5b6103e36107ec565b600180546001600160a01b0319166001600160a01b0392909216919091179055565b61040d6107ec565b6104176000610846565b565b6003818154811061042957600080fd5b6000918252602090912001546001600160a01b0316905081565b61044b610896565b610457848484846108ad565b50505050565b6104656107ec565b600160009054906101000a90046001600160a01b03166001600160a01b031663bb9fe6bf6040518163ffffffff1660e01b8152600401600060405180830381600087803b1580156104b557600080fd5b505af1158015610457573d6000803e3d6000fd5b6104d16107ec565b60015460405163611d2e7560e11b81526001600160a01b0383811660048301529091169063c23a5cea90602401600060405180830381600087803b15801561051857600080fd5b505af115801561052c573d6000803e3d6000fd5b5050505050565b6001546040516370a0823160e01b81523060048201526000916001600160a01b0316906370a0823190602401602060405180830381865afa15801561057c573d6000803e3d6000fd5b505050506040513d601f19601f820116820180604052508101906105a09190610c9d565b905090565b60015460405163b760faf960e01b81523060048201526001600160a01b039091169063b760faf99034906024016000604051808303818588803b15801561051857600080fd5b6105f36107ec565b600280546001600160a01b0319166001600160a01b0392909216919091179055565b61061d6107ec565b805161063090600390602084019061094e565b5050565b61063c6107ec565b6001600160a01b0381166106a65760405162461bcd60e51b815260206004820152602660248201527f4f776e61626c653a206e6577206f776e657220697320746865207a65726f206160448201526564647265737360d01b60648201526084015b60405180910390fd5b6106af81610846565b50565b6002546060906000906001600160a01b031681816370a082316106d860208a018a610a36565b6040516001600160e01b031960e084901b1681526001600160a01b039091166004820152602401602060405180830381865afa15801561071c573d6000803e3d6000fd5b505050506040513d601f19601f820116820180604052508101906107409190610c9d565b90506000808061075360608b018b610cb6565b610761916004908290610d04565b81019061076e9190610d2e565b92509250925061077d836108e5565b6107a257600160405180602001604052806000815250909650965050505050506107e4565b83156107c957600060405180602001604052806000815250909650965050505050506107e4565b50506040805160208101909152600081529450600193505050505b935093915050565b6000546001600160a01b031633146104175760405162461bcd60e51b815260206004820181905260248201527f4f776e61626c653a2063616c6c6572206973206e6f7420746865206f776e6572604482015260640161069d565b600080546001600160a01b038381166001600160a01b0319831681178455604051919092169283917f8be0079c531659141344cd1fd0a4f28419497f9722a3daafe3b4186f6b6457e09190a35050565b6001546001600160a01b0316331461041757600080fd5b60405162461bcd60e51b815260206004820152600d60248201526c6d757374206f7665727269646560981b604482015260640161069d565b6000805b60035481101561094557826001600160a01b03166003828154811061091057610910610ddf565b6000918252602090912001546001600160a01b0316036109335750600192915050565b8061093d81610df5565b9150506108e9565b50600092915050565b8280548282559060005260206000209081019282156109a3579160200282015b828111156109a357825182546001600160a01b0319166001600160a01b0390911617825560209092019160019091019061096e565b506109af9291506109b3565b5090565b5b808211156109af57600081556001016109b4565b6000602082840312156109da57600080fd5b813563ffffffff811681146109ee57600080fd5b9392505050565b6001600160a01b03811681146106af57600080fd5b60008060408385031215610a1d57600080fd5b8235610a28816109f5565b946020939093013593505050565b600060208284031215610a4857600080fd5b81356109ee816109f5565b600060208284031215610a6557600080fd5b5035919050565b60008060008060608587031215610a8257600080fd5b843560038110610a9157600080fd5b9350602085013567ffffffffffffffff80821115610aae57600080fd5b818701915087601f830112610ac257600080fd5b813581811115610ad157600080fd5b886020828501011115610ae357600080fd5b95986020929092019750949560400135945092505050565b634e487b7160e01b600052604160045260246000fd5b604051601f8201601f1916810167ffffffffffffffff81118282101715610b3a57610b3a610afb565b604052919050565b60006020808385031215610b5557600080fd5b823567ffffffffffffffff80821115610b6d57600080fd5b818501915085601f830112610b8157600080fd5b813581811115610b9357610b93610afb565b8060051b9150610ba4848301610b11565b8181529183018401918481019088841115610bbe57600080fd5b938501935b83851015610be85784359250610bd8836109f5565b8282529385019390850190610bc3565b98975050505050505050565b600080600060608486031215610c0957600080fd5b833567ffffffffffffffff811115610c2057600080fd5b84016101608187031215610c3357600080fd5b95602085013595506040909401359392505050565b604081526000835180604084015260005b81811015610c765760208187018101516060868401015201610c59565b506000606082850101526060601f19601f8301168401019150508260208301529392505050565b600060208284031215610caf57600080fd5b5051919050565b6000808335601e19843603018112610ccd57600080fd5b83018035915067ffffffffffffffff821115610ce857600080fd5b602001915036819003821315610cfd57600080fd5b9250929050565b60008085851115610d1457600080fd5b83861115610d2157600080fd5b5050820193919092039150565b600080600060608486031215610d4357600080fd5b8335610d4e816109f5565b92506020848101359250604085013567ffffffffffffffff80821115610d7357600080fd5b818701915087601f830112610d8757600080fd5b813581811115610d9957610d99610afb565b610dab601f8201601f19168501610b11565b91508082528884828501011115610dc157600080fd5b80848401858401376000848284010152508093505050509250925092565b634e487b7160e01b600052603260045260246000fd5b600060018201610e1557634e487b7160e01b600052601160045260246000fd5b506001019056fea2646970667358221220038640141b1b096d80d059b2296f423858093bbac73ae6dd0508925028df9a1164736f6c63430008130033a264697066735822122056a9af5d665216b46be6cfbbb8cbec13b03921ddf91e5a1e34bf501065a779db64736f6c63430008130033",
    "linkReferences": {}
  },
  "methodIdentifiers": {
    "setupDaypass(address,address[])": "d5ff0506"
  },
  "id": 69
}