{
  "abi": [
    {
      "inputs": [
        {
          "internalType": "contract IEntryPoint",
          "name": "entryPoint",
          "type": "address"
        },
        {
          "internalType": "address[]",
          "name": "addresses",
          "type": "address[]"
        }
      ],
      "name": "setupDaypass",
      "outputs": [
        {
          "internalType": "contract Hackathon721",
          "name": "nftContract",
          "type": "address"
        },
        {
          "internalType": "contract HackathonPaymaster",
          "name": "paymasterContract",
          "type": "address"
        }
      ],
      "stateMutability": "payable",
      "type": "function"
    }
  ],
  "bytecode": {
    "object": "0x608060405234801561001057600080fd5b5061370a806100206000396000f3fe60806040526004361061001e5760003560e01c8063d5ff050614610023575b600080fd5b6100366100313660046102a0565b61005a565b604080516001600160a01b0393841681529290911660208301520160405180910390f35b60008060405161006990610248565b604051809103906000f080158015610085573d6000803e3d6000fd5b50915083828460405161009790610255565b6100a39392919061037a565b604051809103906000f0801580156100bf573d6000803e3d6000fd5b5090506001600160a01b03811663d0e30db06100dc6002346103dd565b6040518263ffffffff1660e01b81526004016000604051808303818588803b15801561010757600080fd5b505af115801561011b573d6000803e3d6000fd5b5050505050806001600160a01b0316630396cb6060023461013c91906103dd565b6040516001600160e01b031960e084901b1681526201518060048201526024016000604051808303818588803b15801561017557600080fd5b505af1158015610189573d6000803e3d6000fd5b505060405163f2fde38b60e01b81523360048201526001600160a01b038516935063f2fde38b92506024019050600060405180830381600087803b1580156101d057600080fd5b505af11580156101e4573d6000803e3d6000fd5b505060405163f2fde38b60e01b81523360048201526001600160a01b038516925063f2fde38b9150602401600060405180830381600087803b15801561022957600080fd5b505af115801561023d573d6000803e3d6000fd5b505050509250929050565b6121868061040083390190565b61114f8061258683390190565b6001600160a01b038116811461027757600080fd5b50565b634e487b7160e01b600052604160045260246000fd5b803561029b81610262565b919050565b600080604083850312156102b357600080fd5b82356102be81610262565b915060208381013567ffffffffffffffff808211156102dc57600080fd5b818601915086601f8301126102f057600080fd5b8135818111156103025761030261027a565b8060051b604051601f19603f830116810181811085821117156103275761032761027a565b60405291825284820192508381018501918983111561034557600080fd5b938501935b8285101561036a5761035b85610290565b8452938501939285019261034a565b8096505050505050509250929050565b60006060820160018060a01b03808716845260208187168186015260606040860152828651808552608087019150828801945060005b818110156103ce5785518516835294830194918301916001016103b0565b50909998505050505050505050565b6000826103fa57634e487b7160e01b600052601260045260246000fd5b50049056fe6000600b556006600c5561010060405260506080818152906200213660a039600e906200002d9082620001aa565b50604051806040016040528060078152602001664461797061737360c81b81525060405180604001604052806005815260200164445041535360d81b81525081600090816200007d9190620001aa565b5060016200008c8282620001aa565b505050620000a9620000a3620000af60201b60201c565b620000b3565b62000276565b3390565b600a80546001600160a01b038381166001600160a01b0319831681179093556040519116919082907f8be0079c531659141344cd1fd0a4f28419497f9722a3daafe3b4186f6b6457e090600090a35050565b634e487b7160e01b600052604160045260246000fd5b600181811c908216806200013057607f821691505b6020821081036200015157634e487b7160e01b600052602260045260246000fd5b50919050565b601f821115620001a557600081815260208120601f850160051c81016020861015620001805750805b601f850160051c820191505b81811015620001a1578281556001016200018c565b5050505b505050565b81516001600160401b03811115620001c657620001c662000105565b620001de81620001d784546200011b565b8462000157565b602080601f831160018114620002165760008415620001fd5750858301515b600019600386901b1c1916600185901b178555620001a1565b600085815260208120601f198616915b82811015620002475788860151825594840194600190910190840162000226565b5085821015620002665787850151600019600388901b60f8161c191681555b5050505050600190811b01905550565b611eb080620002866000396000f3fe6080604052600436106101cc5760003560e01c80636352211e116100f7578063b88d4fde11610095578063f1b0aa1511610064578063f1b0aa1514610534578063f2fde38b14610561578063f34341c714610581578063f51f96dd1461059757600080fd5b8063b88d4fde14610496578063c87b56dd146104b6578063e985e9c5146104d6578063eac989f81461051f57600080fd5b80638da5cb5b116100d15780638da5cb5b1461043057806395d89b411461044e578063a0712d6814610463578063a22cb4651461047657600080fd5b80636352211e146103db57806370a08231146103fb578063715018a61461041b57600080fd5b80631919fed71161016f57806342842e0e1161013e57806342842e0e1461035b57806348c6195d1461037b5780634f6ccce71461039b57806355f804b3146103bb57600080fd5b80631919fed7146102db57806323b872dd146102fb5780632f745c591461031b57806331b3eb941461033b57600080fd5b8063081812fc116101ab578063081812fc1461024c578063095ea7b31461028457806318160ddd146102a657806318dbe6b0146102bb57600080fd5b80629a9b7b146101d157806301ffc9a7146101fa57806306fdde031461022a575b600080fd5b3480156101dd57600080fd5b506101e7600d5481565b6040519081526020015b60405180910390f35b34801561020657600080fd5b5061021a610215366004611853565b6105ad565b60405190151581526020016101f1565b34801561023657600080fd5b5061023f6105d8565b6040516101f191906118bd565b34801561025857600080fd5b5061026c6102673660046118d0565b61066a565b6040516001600160a01b0390911681526020016101f1565b34801561029057600080fd5b506102a461029f3660046118fe565b610691565b005b3480156102b257600080fd5b506008546101e7565b3480156102c757600080fd5b5061021a6102d636600461192a565b6107ab565b3480156102e757600080fd5b506102a46102f63660046118d0565b610808565b34801561030757600080fd5b506102a4610316366004611947565b610815565b34801561032757600080fd5b506101e76103363660046118fe565b610846565b34801561034757600080fd5b506102a461035636600461192a565b6108dc565b34801561036757600080fd5b506102a4610376366004611947565b610958565b34801561038757600080fd5b5061021a6103963660046118d0565b610973565b3480156103a757600080fd5b506101e76103b63660046118d0565b6109a1565b3480156103c757600080fd5b506102a46103d6366004611988565b610a34565b3480156103e757600080fd5b5061026c6103f63660046118d0565b610a49565b34801561040757600080fd5b506101e761041636600461192a565b610aa9565b34801561042757600080fd5b506102a4610b2f565b34801561043c57600080fd5b50600a546001600160a01b031661026c565b34801561045a57600080fd5b5061023f610b43565b6102a46104713660046118d0565b610b52565b34801561048257600080fd5b506102a46104913660046119fa565b610bfc565b3480156104a257600080fd5b506102a46104b1366004611a4e565b610c0b565b3480156104c257600080fd5b5061023f6104d13660046118d0565b610c3d565b3480156104e257600080fd5b5061021a6104f1366004611b2e565b6001600160a01b03918216600090815260056020908152604080832093909416825291909152205460ff1690565b34801561052b57600080fd5b5061023f610cd1565b34801561054057600080fd5b506101e761054f3660046118d0565b600f6020526000908152604090205481565b34801561056d57600080fd5b506102a461057c36600461192a565b610d5f565b34801561058d57600080fd5b506101e7600c5481565b3480156105a357600080fd5b506101e7600b5481565b60006001600160e01b0319821663780e9d6360e01b14806105d257506105d282610dd8565b92915050565b6060600080546105e790611b5c565b80601f016020809104026020016040519081016040528092919081815260200182805461061390611b5c565b80156106605780601f1061063557610100808354040283529160200191610660565b820191906000526020600020905b81548152906001019060200180831161064357829003601f168201915b5050505050905090565b600061067582610e28565b506000908152600460205260409020546001600160a01b031690565b600061069c82610a49565b9050806001600160a01b0316836001600160a01b03160361070e5760405162461bcd60e51b815260206004820152602160248201527f4552433732313a20617070726f76616c20746f2063757272656e74206f776e656044820152603960f91b60648201526084015b60405180910390fd5b336001600160a01b038216148061072a575061072a81336104f1565b61079c5760405162461bcd60e51b815260206004820152603d60248201527f4552433732313a20617070726f76652063616c6c6572206973206e6f7420746f60448201527f6b656e206f776e6572206f7220617070726f76656420666f7220616c6c0000006064820152608401610705565b6107a68383610e87565b505050565b6000806107b783610aa9565b905060005b818110156107fe5760006107d08583610846565b90506107db81610973565b156107eb57506001949350505050565b50806107f681611bac565b9150506107bc565b5060009392505050565b610810610ef5565b600b55565b61081f3382610f4f565b61083b5760405162461bcd60e51b815260040161070590611bc5565b6107a6838383610fce565b600061085183610aa9565b82106108b35760405162461bcd60e51b815260206004820152602b60248201527f455243373231456e756d657261626c653a206f776e657220696e646578206f7560448201526a74206f6620626f756e647360a81b6064820152608401610705565b506001600160a01b03919091166000908152600660209081526040808320938352929052205490565b6108e4610ef5565b60405147906000906001600160a01b0384169083908381818185875af1925050503d8060008114610931576040519150601f19603f3d011682016040523d82523d6000602084013e610936565b606091505b50509050806107a65760405163d23a9e8960e01b815260040160405180910390fd5b6107a683838360405180602001604052806000815250610c0b565b6000818152600f60205260408120546203f4806109908183611c12565b4210156107fe575060019392505050565b60006109ac60085490565b8210610a0f5760405162461bcd60e51b815260206004820152602c60248201527f455243373231456e756d657261626c653a20676c6f62616c20696e646578206f60448201526b7574206f6620626f756e647360a01b6064820152608401610705565b60088281548110610a2257610a22611c25565b90600052602060002001549050919050565b610a3c610ef5565b600e6107a6828483611c89565b6000818152600260205260408120546001600160a01b0316806105d25760405162461bcd60e51b8152602060048201526018602482015277115490cdcc8c4e881a5b9d985b1a59081d1bdad95b88125160421b6044820152606401610705565b60006001600160a01b038216610b135760405162461bcd60e51b815260206004820152602960248201527f4552433732313a2061646472657373207a65726f206973206e6f7420612076616044820152683634b21037bbb732b960b91b6064820152608401610705565b506001600160a01b031660009081526003602052604090205490565b610b37610ef5565b610b41600061113f565b565b6060600180546105e790611b5c565b80600c54811115610b7657604051633a4733d960e11b815260040160405180910390fd5b813481600b54610b869190611d49565b14610ba457604051636956f2ab60e11b815260040160405180910390fd5b60005b83811015610bf657600d8054906000610bbf83611bac565b9190505550610bd033600d54611191565b600d546000908152600f6020526040902042905580610bee81611bac565b915050610ba7565b50505050565b610c073383836111ab565b5050565b610c153383610f4f565b610c315760405162461bcd60e51b815260040161070590611bc5565b610bf684848484611279565b6060600e8054610c4c90611b5c565b80601f0160208091040260200160405190810160405280929190818152602001828054610c7890611b5c565b8015610cc55780601f10610c9a57610100808354040283529160200191610cc5565b820191906000526020600020905b815481529060010190602001808311610ca857829003601f168201915b50505050509050919050565b600e8054610cde90611b5c565b80601f0160208091040260200160405190810160405280929190818152602001828054610d0a90611b5c565b8015610d575780601f10610d2c57610100808354040283529160200191610d57565b820191906000526020600020905b815481529060010190602001808311610d3a57829003601f168201915b505050505081565b610d67610ef5565b6001600160a01b038116610dcc5760405162461bcd60e51b815260206004820152602660248201527f4f776e61626c653a206e6577206f776e657220697320746865207a65726f206160448201526564647265737360d01b6064820152608401610705565b610dd58161113f565b50565b60006001600160e01b031982166380ac58cd60e01b1480610e0957506001600160e01b03198216635b5e139f60e01b145b806105d257506301ffc9a760e01b6001600160e01b03198316146105d2565b6000818152600260205260409020546001600160a01b0316610dd55760405162461bcd60e51b8152602060048201526018602482015277115490cdcc8c4e881a5b9d985b1a59081d1bdad95b88125160421b6044820152606401610705565b600081815260046020526040902080546001600160a01b0319166001600160a01b0384169081179091558190610ebc82610a49565b6001600160a01b03167f8c5be1e5ebec7d5bd14f71427d1e84f3dd0314c0f7b2291e5b200ac8c7c3b92560405160405180910390a45050565b600a546001600160a01b03163314610b415760405162461bcd60e51b815260206004820181905260248201527f4f776e61626c653a2063616c6c6572206973206e6f7420746865206f776e65726044820152606401610705565b600080610f5b83610a49565b9050806001600160a01b0316846001600160a01b03161480610fa257506001600160a01b0380821660009081526005602090815260408083209388168352929052205460ff165b80610fc65750836001600160a01b0316610fbb8461066a565b6001600160a01b0316145b949350505050565b826001600160a01b0316610fe182610a49565b6001600160a01b0316146110075760405162461bcd60e51b815260040161070590611d60565b6001600160a01b0382166110695760405162461bcd60e51b8152602060048201526024808201527f4552433732313a207472616e7366657220746f20746865207a65726f206164646044820152637265737360e01b6064820152608401610705565b61107683838360016112ac565b826001600160a01b031661108982610a49565b6001600160a01b0316146110af5760405162461bcd60e51b815260040161070590611d60565b600081815260046020908152604080832080546001600160a01b03199081169091556001600160a01b0387811680865260038552838620805460001901905590871680865283862080546001019055868652600290945282852080549092168417909155905184937fddf252ad1be2c89b69c2b068fc378daa952ba7f163c4a11628f55a4df523b3ef91a4505050565b600a80546001600160a01b038381166001600160a01b0319831681179093556040519116919082907f8be0079c531659141344cd1fd0a4f28419497f9722a3daafe3b4186f6b6457e090600090a35050565b610c078282604051806020016040528060008152506113e0565b816001600160a01b0316836001600160a01b03160361120c5760405162461bcd60e51b815260206004820152601960248201527f4552433732313a20617070726f766520746f2063616c6c6572000000000000006044820152606401610705565b6001600160a01b03838116600081815260056020908152604080832094871680845294825291829020805460ff191686151590811790915591519182527f17307eab39ab6107e8899845ad3d59bd9653f200f220920489ca2b5937696c31910160405180910390a3505050565b611284848484610fce565b61129084848484611413565b610bf65760405162461bcd60e51b815260040161070590611da5565b600181111561131b5760405162461bcd60e51b815260206004820152603560248201527f455243373231456e756d657261626c653a20636f6e7365637574697665207472604482015274185b9cd9995c9cc81b9bdd081cdd5c1c1bdc9d1959605a1b6064820152608401610705565b816001600160a01b0385166113775761137281600880546000838152600960205260408120829055600182018355919091527ff3f7a9fe364faab93b216da50a3214154f22a0a2b415b23a84c8169e8b636ee30155565b61139a565b836001600160a01b0316856001600160a01b03161461139a5761139a8582611514565b6001600160a01b0384166113b6576113b1816115b1565b6113d9565b846001600160a01b0316846001600160a01b0316146113d9576113d98482611660565b5050505050565b6113ea83836116a4565b6113f76000848484611413565b6107a65760405162461bcd60e51b815260040161070590611da5565b60006001600160a01b0384163b1561150957604051630a85bd0160e11b81526001600160a01b0385169063150b7a0290611457903390899088908890600401611df7565b6020604051808303816000875af1925050508015611492575060408051601f3d908101601f1916820190925261148f91810190611e34565b60015b6114ef573d8080156114c0576040519150601f19603f3d011682016040523d82523d6000602084013e6114c5565b606091505b5080516000036114e75760405162461bcd60e51b815260040161070590611da5565b805181602001fd5b6001600160e01b031916630a85bd0160e11b149050610fc6565b506001949350505050565b6000600161152184610aa9565b61152b9190611e51565b60008381526007602052604090205490915080821461157e576001600160a01b03841660009081526006602090815260408083208584528252808320548484528184208190558352600790915290208190555b5060009182526007602090815260408084208490556001600160a01b039094168352600681528383209183525290812055565b6008546000906115c390600190611e51565b600083815260096020526040812054600880549394509092849081106115eb576115eb611c25565b90600052602060002001549050806008838154811061160c5761160c611c25565b600091825260208083209091019290925582815260099091526040808220849055858252812055600880548061164457611644611e64565b6001900381819060005260206000200160009055905550505050565b600061166b83610aa9565b6001600160a01b039093166000908152600660209081526040808320868452825280832085905593825260079052919091209190915550565b6001600160a01b0382166116fa5760405162461bcd60e51b815260206004820181905260248201527f4552433732313a206d696e7420746f20746865207a65726f20616464726573736044820152606401610705565b6000818152600260205260409020546001600160a01b03161561175f5760405162461bcd60e51b815260206004820152601c60248201527f4552433732313a20746f6b656e20616c7265616479206d696e746564000000006044820152606401610705565b61176d6000838360016112ac565b6000818152600260205260409020546001600160a01b0316156117d25760405162461bcd60e51b815260206004820152601c60248201527f4552433732313a20746f6b656e20616c7265616479206d696e746564000000006044820152606401610705565b6001600160a01b038216600081815260036020908152604080832080546001019055848352600290915280822080546001600160a01b0319168417905551839291907fddf252ad1be2c89b69c2b068fc378daa952ba7f163c4a11628f55a4df523b3ef908290a45050565b6001600160e01b031981168114610dd557600080fd5b60006020828403121561186557600080fd5b81356118708161183d565b9392505050565b6000815180845260005b8181101561189d57602081850181015186830182015201611881565b506000602082860101526020601f19601f83011685010191505092915050565b6020815260006118706020830184611877565b6000602082840312156118e257600080fd5b5035919050565b6001600160a01b0381168114610dd557600080fd5b6000806040838503121561191157600080fd5b823561191c816118e9565b946020939093013593505050565b60006020828403121561193c57600080fd5b8135611870816118e9565b60008060006060848603121561195c57600080fd5b8335611967816118e9565b92506020840135611977816118e9565b929592945050506040919091013590565b6000806020838503121561199b57600080fd5b823567ffffffffffffffff808211156119b357600080fd5b818501915085601f8301126119c757600080fd5b8135818111156119d657600080fd5b8660208285010111156119e857600080fd5b60209290920196919550909350505050565b60008060408385031215611a0d57600080fd5b8235611a18816118e9565b915060208301358015158114611a2d57600080fd5b809150509250929050565b634e487b7160e01b600052604160045260246000fd5b60008060008060808587031215611a6457600080fd5b8435611a6f816118e9565b93506020850135611a7f816118e9565b925060408501359150606085013567ffffffffffffffff80821115611aa357600080fd5b818701915087601f830112611ab757600080fd5b813581811115611ac957611ac9611a38565b604051601f8201601f19908116603f01168101908382118183101715611af157611af1611a38565b816040528281528a6020848701011115611b0a57600080fd5b82602086016020830137600060208483010152809550505050505092959194509250565b60008060408385031215611b4157600080fd5b8235611b4c816118e9565b91506020830135611a2d816118e9565b600181811c90821680611b7057607f821691505b602082108103611b9057634e487b7160e01b600052602260045260246000fd5b50919050565b634e487b7160e01b600052601160045260246000fd5b600060018201611bbe57611bbe611b96565b5060010190565b6020808252602d908201527f4552433732313a2063616c6c6572206973206e6f7420746f6b656e206f776e6560408201526c1c881bdc88185c1c1c9bdd9959609a1b606082015260800190565b808201808211156105d2576105d2611b96565b634e487b7160e01b600052603260045260246000fd5b601f8211156107a657600081815260208120601f850160051c81016020861015611c625750805b601f850160051c820191505b81811015611c8157828155600101611c6e565b505050505050565b67ffffffffffffffff831115611ca157611ca1611a38565b611cb583611caf8354611b5c565b83611c3b565b6000601f841160018114611ce95760008515611cd15750838201355b600019600387901b1c1916600186901b1783556113d9565b600083815260209020601f19861690835b82811015611d1a5786850135825560209485019460019092019101611cfa565b5086821015611d375760001960f88860031b161c19848701351681555b505060018560011b0183555050505050565b80820281158282048414176105d2576105d2611b96565b60208082526025908201527f4552433732313a207472616e736665722066726f6d20696e636f72726563742060408201526437bbb732b960d91b606082015260800190565b60208082526032908201527f4552433732313a207472616e7366657220746f206e6f6e20455243373231526560408201527131b2b4bb32b91034b6b83632b6b2b73a32b960711b606082015260800190565b6001600160a01b0385811682528416602082015260408101839052608060608201819052600090611e2a90830184611877565b9695505050505050565b600060208284031215611e4657600080fd5b81516118708161183d565b818103818111156105d2576105d2611b96565b634e487b7160e01b600052603160045260246000fdfea264697066735822122095070128756b586b9bf2e4ff132ecc97c985fab1b09df9e279f83be1b30efb8b64736f6c6343000813003368747470733a2f2f676174657761792e70696e6174612e636c6f75642f697066732f516d50757835516779504866786a7543426631474c36626e6259526f44647a7768395547646e7a3255587835384460806040523480156200001157600080fd5b506040516200114f3803806200114f833981016040819052620000349162000225565b82620000403362000086565b6200004b81620000d6565b50600280546001600160a01b0319166001600160a01b03841617905580516200007c90600390602084019062000163565b5050505062000325565b600080546001600160a01b038381166001600160a01b0319831681178455604051919092169283917f8be0079c531659141344cd1fd0a4f28419497f9722a3daafe3b4186f6b6457e09190a35050565b620000e062000102565b600180546001600160a01b0319166001600160a01b0392909216919091179055565b6000546001600160a01b03163314620001615760405162461bcd60e51b815260206004820181905260248201527f4f776e61626c653a2063616c6c6572206973206e6f7420746865206f776e6572604482015260640160405180910390fd5b565b828054828255906000526020600020908101928215620001bb579160200282015b82811115620001bb57825182546001600160a01b0319166001600160a01b0390911617825560209092019160019091019062000184565b50620001c9929150620001cd565b5090565b5b80821115620001c95760008155600101620001ce565b6001600160a01b0381168114620001fa57600080fd5b50565b80516200020a81620001e4565b919050565b634e487b7160e01b600052604160045260246000fd5b6000806000606084860312156200023b57600080fd5b83516200024881620001e4565b809350506020808501516200025d81620001e4565b60408601519093506001600160401b03808211156200027b57600080fd5b818701915087601f8301126200029057600080fd5b815181811115620002a557620002a56200020f565b8060051b604051601f19603f83011681018181108582111715620002cd57620002cd6200020f565b60405291825284820192508381018501918a831115620002ec57600080fd5b938501935b8285101562000315576200030585620001fd565b84529385019392850192620002f1565b8096505050505050509250925092565b610e1a80620003356000396000f3fe6080604052600436106100fe5760003560e01c8063b0d691fe11610095578063d0e30db011610064578063d0e30db014610280578063d97e0ada14610288578063eb4bd055146102a8578063f2fde38b146102c8578063f465c77e146102e857600080fd5b8063b0d691fe14610208578063bb9fe6bf14610228578063c23a5cea1461023d578063c399ec881461025d57600080fd5b8063715018a6116100d1578063715018a6146101955780638da5cb5b146101aa578063a0ac611b146101c8578063a9a23409146101e857600080fd5b80630396cb6014610103578063205c287814610118578063584465f21461013857806366c00cca14610158575b600080fd5b6101166101113660046109ba565b610316565b005b34801561012457600080fd5b506101166101333660046109fc565b610385565b34801561014457600080fd5b50610116610153366004610a28565b6103db565b34801561016457600080fd5b50600254610178906001600160a01b031681565b6040516001600160a01b0390911681526020015b60405180910390f35b3480156101a157600080fd5b50610116610405565b3480156101b657600080fd5b506000546001600160a01b0316610178565b3480156101d457600080fd5b506101786101e3366004610a45565b610419565b3480156101f457600080fd5b50610116610203366004610a5e565b610443565b34801561021457600080fd5b50600154610178906001600160a01b031681565b34801561023457600080fd5b5061011661045d565b34801561024957600080fd5b50610116610258366004610a28565b6104c9565b34801561026957600080fd5b50610272610533565b60405190815260200161018c565b6101166105a5565b34801561029457600080fd5b506101166102a3366004610a28565b6105eb565b3480156102b457600080fd5b506101166102c3366004610b34565b610615565b3480156102d457600080fd5b506101166102e3366004610a28565b610634565b3480156102f457600080fd5b50610308610303366004610be6565b6106b2565b60405161018c929190610c3a565b61031e6107de565b600154604051621cb65b60e51b815263ffffffff831660048201526001600160a01b0390911690630396cb609034906024016000604051808303818588803b15801561036957600080fd5b505af115801561037d573d6000803e3d6000fd5b505050505050565b61038d6107de565b60015460405163040b850f60e31b81526001600160a01b038481166004830152602482018490529091169063205c287890604401600060405180830381600087803b15801561036957600080fd5b6103e36107de565b600180546001600160a01b0319166001600160a01b0392909216919091179055565b61040d6107de565b6104176000610838565b565b6003818154811061042957600080fd5b6000918252602090912001546001600160a01b0316905081565b61044b610888565b6104578484848461089f565b50505050565b6104656107de565b600160009054906101000a90046001600160a01b03166001600160a01b031663bb9fe6bf6040518163ffffffff1660e01b8152600401600060405180830381600087803b1580156104b557600080fd5b505af1158015610457573d6000803e3d6000fd5b6104d16107de565b60015460405163611d2e7560e11b81526001600160a01b0383811660048301529091169063c23a5cea90602401600060405180830381600087803b15801561051857600080fd5b505af115801561052c573d6000803e3d6000fd5b5050505050565b6001546040516370a0823160e01b81523060048201526000916001600160a01b0316906370a0823190602401602060405180830381865afa15801561057c573d6000803e3d6000fd5b505050506040513d601f19601f820116820180604052508101906105a09190610c8f565b905090565b60015460405163b760faf960e01b81523060048201526001600160a01b039091169063b760faf99034906024016000604051808303818588803b15801561051857600080fd5b6105f36107de565b600280546001600160a01b0319166001600160a01b0392909216919091179055565b61061d6107de565b8051610630906003906020840190610940565b5050565b61063c6107de565b6001600160a01b0381166106a65760405162461bcd60e51b815260206004820152602660248201527f4f776e61626c653a206e6577206f776e657220697320746865207a65726f206160448201526564647265737360d01b60648201526084015b60405180910390fd5b6106af81610838565b50565b6002546060906000906001600160a01b031681816370a082316106d860208a018a610a28565b6040516001600160e01b031960e084901b1681526001600160a01b039091166004820152602401602060405180830381865afa15801561071c573d6000803e3d6000fd5b505050506040513d601f19601f820116820180604052508101906107409190610c8f565b90506000808061075360608b018b610ca8565b8101906107609190610cf6565b92509250925061076f836108d7565b61079457600160405180602001604052806000815250909650965050505050506107d6565b83156107bb57600060405180602001604052806000815250909650965050505050506107d6565b50506040805160208101909152600081529450600193505050505b935093915050565b6000546001600160a01b031633146104175760405162461bcd60e51b815260206004820181905260248201527f4f776e61626c653a2063616c6c6572206973206e6f7420746865206f776e6572604482015260640161069d565b600080546001600160a01b038381166001600160a01b0319831681178455604051919092169283917f8be0079c531659141344cd1fd0a4f28419497f9722a3daafe3b4186f6b6457e09190a35050565b6001546001600160a01b0316331461041757600080fd5b60405162461bcd60e51b815260206004820152600d60248201526c6d757374206f7665727269646560981b604482015260640161069d565b6000805b60035481101561093757826001600160a01b03166003828154811061090257610902610da7565b6000918252602090912001546001600160a01b0316036109255750600192915050565b8061092f81610dbd565b9150506108db565b50600092915050565b828054828255906000526020600020908101928215610995579160200282015b8281111561099557825182546001600160a01b0319166001600160a01b03909116178255602090920191600190910190610960565b506109a19291506109a5565b5090565b5b808211156109a157600081556001016109a6565b6000602082840312156109cc57600080fd5b813563ffffffff811681146109e057600080fd5b9392505050565b6001600160a01b03811681146106af57600080fd5b60008060408385031215610a0f57600080fd5b8235610a1a816109e7565b946020939093013593505050565b600060208284031215610a3a57600080fd5b81356109e0816109e7565b600060208284031215610a5757600080fd5b5035919050565b60008060008060608587031215610a7457600080fd5b843560038110610a8357600080fd5b9350602085013567ffffffffffffffff80821115610aa057600080fd5b818701915087601f830112610ab457600080fd5b813581811115610ac357600080fd5b886020828501011115610ad557600080fd5b95986020929092019750949560400135945092505050565b634e487b7160e01b600052604160045260246000fd5b604051601f8201601f1916810167ffffffffffffffff81118282101715610b2c57610b2c610aed565b604052919050565b60006020808385031215610b4757600080fd5b823567ffffffffffffffff80821115610b5f57600080fd5b818501915085601f830112610b7357600080fd5b813581811115610b8557610b85610aed565b8060051b9150610b96848301610b03565b8181529183018401918481019088841115610bb057600080fd5b938501935b83851015610bda5784359250610bca836109e7565b8282529385019390850190610bb5565b98975050505050505050565b600080600060608486031215610bfb57600080fd5b833567ffffffffffffffff811115610c1257600080fd5b84016101608187031215610c2557600080fd5b95602085013595506040909401359392505050565b604081526000835180604084015260005b81811015610c685760208187018101516060868401015201610c4b565b506000606082850101526060601f19601f8301168401019150508260208301529392505050565b600060208284031215610ca157600080fd5b5051919050565b6000808335601e19843603018112610cbf57600080fd5b83018035915067ffffffffffffffff821115610cda57600080fd5b602001915036819003821315610cef57600080fd5b9250929050565b600080600060608486031215610d0b57600080fd5b8335610d16816109e7565b92506020848101359250604085013567ffffffffffffffff80821115610d3b57600080fd5b818701915087601f830112610d4f57600080fd5b813581811115610d6157610d61610aed565b610d73601f8201601f19168501610b03565b91508082528884828501011115610d8957600080fd5b80848401858401376000848284010152508093505050509250925092565b634e487b7160e01b600052603260045260246000fd5b600060018201610ddd57634e487b7160e01b600052601160045260246000fd5b506001019056fea2646970667358221220ab8c1b5af773a6959a83fe9f398c70d0d7678cebd02273aa66cb6203a0f7285864736f6c63430008130033a2646970667358221220e38448c77433a2729735e0d73f24ab48548b54e62ff12b2d3989b26b13831cd864736f6c63430008130033",
    "linkReferences": {}
  },
  "methodIdentifiers": {
    "setupDaypass(address,address[])": "d5ff0506"
  },
  "id": 38
}