{
  "abi": [
    {
      "anonymous": false,
      "inputs": [
        {
          "indexed": false,
          "internalType": "address",
          "name": "dayPass",
          "type": "address"
        },
        {
          "indexed": false,
          "internalType": "address",
          "name": "payMaster",
          "type": "address"
        }
      ],
      "name": "DaypassSetUp",
      "type": "event"
    },
    {
      "inputs": [
        {
          "internalType": "contract IEntryPoint",
          "name": "entryPoint",
          "type": "address"
        },
        {
          "internalType": "address[]",
          "name": "targetAddresses",
          "type": "address[]"
        },
        {
          "internalType": "bool",
          "name": "isDayPassTransferble",
          "type": "bool"
        },
        {
          "internalType": "uint256",
          "name": "gasLimitPerOperation",
          "type": "uint256"
        },
        {
          "internalType": "uint256",
          "name": "spendingLimitPerOperation",
          "type": "uint256"
        },
        {
          "internalType": "uint48",
          "name": "timeLimitInSecond",
          "type": "uint48"
        },
        {
          "internalType": "address[]",
          "name": "addresses",
          "type": "address[]"
        }
      ],
      "name": "setupDaypass",
      "outputs": [
        {
          "internalType": "contract Daypass",
          "name": "dayPassContract",
          "type": "address"
        },
        {
          "internalType": "contract DaypassPaymaster",
          "name": "paymasterContract",
          "type": "address"
        }
      ],
      "stateMutability": "payable",
      "type": "function"
    }
  ],
  "bytecode": {
    "object": "0x608060405234801561001057600080fd5b506140ff806100206000396000f3fe608060405260043610620000205760003560e01c806362a28dc71462000025575b600080fd5b6200003c62000036366004620004db565b62000060565b604080516001600160a01b0393841681529290911660208301520160405180910390f35b60008086846040516200007390620003b9565b6080808252600790820152664461797061737360c81b60a082015260c06020820181905260059082015264445041535360d81b60e0820152911515604083015265ffffffffffff16606082015261010001604051809103906000f080158015620000e1573d6000803e3d6000fd5b509150888289888888604051620000f890620003c7565b62000109969594939291906200059c565b604051809103906000f08015801562000126573d6000803e3d6000fd5b5090506001600160a01b03811663d0e30db0620001456002346200061d565b6040518263ffffffff1660e01b81526004016000604051808303818588803b1580156200017157600080fd5b505af115801562000186573d6000803e3d6000fd5b5050505050806001600160a01b0316630396cb60600234620001a991906200061d565b6040516001600160e01b031960e084901b1681526201518060048201526024016000604051808303818588803b158015620001e357600080fd5b505af1158015620001f8573d6000803e3d6000fd5b505050505060005b8351811015620002b257826001600160a01b031663b723b34e600186848151811062000230576200023062000640565b60200260200101516040518363ffffffff1660e01b8152600401620002689291909182526001600160a01b0316602082015260400190565b600060405180830381600087803b1580156200028357600080fd5b505af115801562000298573d6000803e3d6000fd5b505050508080620002a99062000656565b91505062000200565b5060405163f2fde38b60e01b81523360048201526001600160a01b0382169063f2fde38b90602401600060405180830381600087803b158015620002f557600080fd5b505af11580156200030a573d6000803e3d6000fd5b505060405163f2fde38b60e01b81523360048201526001600160a01b038516925063f2fde38b9150602401600060405180830381600087803b1580156200035057600080fd5b505af115801562000365573d6000803e3d6000fd5b5050604080516001600160a01b038087168252851660208201527fde97c42145f70c6341311d260a805c181687ed32f5f0ab42e6258bffe64ca619935001905060405180910390a197509795505050505050565b6126cd806200067f83390190565b61137e8062002d4c83390190565b6001600160a01b0381168114620003eb57600080fd5b50565b634e487b7160e01b600052604160045260246000fd5b80356200041181620003d5565b919050565b600082601f8301126200042857600080fd5b8135602067ffffffffffffffff80831115620004485762000448620003ee565b8260051b604051601f19603f83011681018181108482111715620004705762000470620003ee565b6040529384528581018301938381019250878511156200048f57600080fd5b83870191505b84821015620004b957620004a98262000404565b8352918301919083019062000495565b979650505050505050565b803565ffffffffffff811681146200041157600080fd5b600080600080600080600060e0888a031215620004f757600080fd5b87356200050481620003d5565b9650602088013567ffffffffffffffff808211156200052257600080fd5b620005308b838c0162000416565b975060408a0135915081151582146200054857600080fd5b81965060608a0135955060808a013594506200056760a08b01620004c4565b935060c08a01359150808211156200057e57600080fd5b506200058d8a828b0162000416565b91505092959891949750929550565b600060c0820160018060a01b03808a1684526020818a168186015260c0604086015282895180855260e087019150828b01945060005b81811015620005f2578551851683529483019491830191600101620005d2565b5050606086019890985250505050608081019290925265ffffffffffff1660a0909101529392505050565b6000826200063b57634e487b7160e01b600052601260045260246000fd5b500490565b634e487b7160e01b600052603260045260246000fd5b6000600182016200067757634e487b7160e01b600052601160045260246000fd5b506001019056fe6080604052604051620026cd380380620026cd8339810160408190526200002691620001b6565b83836000620000368382620002e7565b506001620000458282620002e7565b505050620000626200005c6200009b60201b60201c565b6200009f565b600c805492151566010000000000000266ffffffffffffff1990931665ffffffffffff9092169190911791909117905550620003b39050565b3390565b600a80546001600160a01b038381166001600160a01b0319831681179093556040519116919082907f8be0079c531659141344cd1fd0a4f28419497f9722a3daafe3b4186f6b6457e090600090a35050565b634e487b7160e01b600052604160045260246000fd5b600082601f8301126200011957600080fd5b81516001600160401b0380821115620001365762000136620000f1565b604051601f8301601f19908116603f01168101908282118183101715620001615762000161620000f1565b816040528381526020925086838588010111156200017e57600080fd5b600091505b83821015620001a2578582018301518183018401529082019062000183565b600093810190920192909252949350505050565b60008060008060808587031215620001cd57600080fd5b84516001600160401b0380821115620001e557600080fd5b620001f38883890162000107565b955060208701519150808211156200020a57600080fd5b50620002198782880162000107565b935050604085015180151581146200023057600080fd5b606086015190925065ffffffffffff811681146200024d57600080fd5b939692955090935050565b600181811c908216806200026d57607f821691505b6020821081036200028e57634e487b7160e01b600052602260045260246000fd5b50919050565b601f821115620002e257600081815260208120601f850160051c81016020861015620002bd5750805b601f850160051c820191505b81811015620002de57828155600101620002c9565b5050505b505050565b81516001600160401b03811115620003035762000303620000f1565b6200031b8162000314845462000258565b8462000294565b602080601f8311600181146200035357600084156200033a5750858301515b600019600386901b1c1916600185901b178555620002de565b600085815260208120601f198616915b82811015620003845788860151825594840194600190910190840162000363565b5085821015620003a35787850151600019600388901b60f8161c191681555b5050505050600190811b01905550565b61230a80620003c36000396000f3fe608060405234801561001057600080fd5b50600436106101725760003560e01c806342842e0e116100de57806395d89b4111610097578063b88d4fde11610071578063b88d4fde14610347578063c87b56dd1461035a578063e985e9c51461036d578063f2fde38b146103a957600080fd5b806395d89b4114610319578063a22cb46514610321578063b723b34e1461033457600080fd5b806342842e0e146102b45780634f6ccce7146102c75780636352211e146102da57806370a08231146102ed578063715018a6146103005780638da5cb5b1461030857600080fd5b80630fb5a6b4116101305780630fb5a6b41461024a57806318160ddd1461025c5780632121dc7514610264578063216213521461027b57806323b872dd1461028e5780632f745c59146102a157600080fd5b80629a9b7b1461017757806301ffc9a714610193578063059c95d4146101b657806306fdde03146101f5578063081812fc1461020a578063095ea7b314610235575b600080fd5b610180600b5481565b6040519081526020015b60405180910390f35b6101a66101a1366004611a0a565b6103bc565b604051901515815260200161018a565b6101de6101c4366004611a2e565b600d6020526000908152604090205465ffffffffffff1681565b60405165ffffffffffff909116815260200161018a565b6101fd6103e7565b60405161018a9190611a97565b61021d610218366004611a2e565b610479565b6040516001600160a01b03909116815260200161018a565b610248610243366004611ac6565b6104a0565b005b600c546101de9065ffffffffffff1681565b600854610180565b600c546101a6906601000000000000900460ff1681565b6101de610289366004611af0565b6105ba565b61024861029c366004611b0b565b610635565b6101806102af366004611ac6565b610666565b6102486102c2366004611b0b565b6106fc565b6101806102d5366004611a2e565b610717565b61021d6102e8366004611a2e565b6107aa565b6101806102fb366004611af0565b61080a565b610248610890565b600a546001600160a01b031661021d565b6101fd6108a4565b61024861032f366004611b47565b6108b3565b610248610342366004611b83565b6108c2565b610248610355366004611bc5565b6109a1565b6101fd610368366004611a2e565b6109d9565b6101a661037b366004611ca1565b6001600160a01b03918216600090815260056020908152604080832093909416825291909152205460ff1690565b6102486103b7366004611af0565b610c2f565b60006001600160e01b0319821663780e9d6360e01b14806103e157506103e182610ca8565b92915050565b6060600080546103f690611ccb565b80601f016020809104026020016040519081016040528092919081815260200182805461042290611ccb565b801561046f5780601f106104445761010080835404028352916020019161046f565b820191906000526020600020905b81548152906001019060200180831161045257829003601f168201915b5050505050905090565b600061048482610cf8565b506000908152600460205260409020546001600160a01b031690565b60006104ab826107aa565b9050806001600160a01b0316836001600160a01b03160361051d5760405162461bcd60e51b815260206004820152602160248201527f4552433732313a20617070726f76616c20746f2063757272656e74206f776e656044820152603960f91b60648201526084015b60405180910390fd5b336001600160a01b03821614806105395750610539813361037b565b6105ab5760405162461bcd60e51b815260206004820152603d60248201527f4552433732313a20617070726f76652063616c6c6572206973206e6f7420746f60448201527f6b656e206f776e6572206f7220617070726f76656420666f7220616c6c0000006064820152608401610514565b6105b58383610d57565b505050565b6000806105c68361080a565b905060006105d5600142611d1b565b905060005b8281101561062d5760006105ee8683610666565b6000818152600d602052604090205490915065ffffffffffff908116908416811115610618578093505b5050808061062590611d41565b9150506105da565b509392505050565b61063f3382610dc5565b61065b5760405162461bcd60e51b815260040161051490611d5a565b6105b5838383610e44565b60006106718361080a565b82106106d35760405162461bcd60e51b815260206004820152602b60248201527f455243373231456e756d657261626c653a206f776e657220696e646578206f7560448201526a74206f6620626f756e647360a81b6064820152608401610514565b506001600160a01b03919091166000908152600660209081526040808320938352929052205490565b6105b5838383604051806020016040528060008152506109a1565b600061072260085490565b82106107855760405162461bcd60e51b815260206004820152602c60248201527f455243373231456e756d657261626c653a20676c6f62616c20696e646578206f60448201526b7574206f6620626f756e647360a01b6064820152608401610514565b6008828154811061079857610798611da7565b90600052602060002001549050919050565b6000818152600260205260408120546001600160a01b0316806103e15760405162461bcd60e51b8152602060048201526018602482015277115490cdcc8c4e881a5b9d985b1a59081d1bdad95b88125160421b6044820152606401610514565b60006001600160a01b0382166108745760405162461bcd60e51b815260206004820152602960248201527f4552433732313a2061646472657373207a65726f206973206e6f7420612076616044820152683634b21037bbb732b960b91b6064820152608401610514565b506001600160a01b031660009081526003602052604090205490565b610898610fb5565b6108a2600061100f565b565b6060600180546103f690611ccb565b6108be338383611061565b5050565b6108ca610fb5565b60005b828110156105b557600b80549060006108e583611d41565b91905055506108f682600b5461112f565b306001600160a01b0316630fb5a6b46040518163ffffffff1660e01b8152600401602060405180830381865afa158015610934573d6000803e3d6000fd5b505050506040513d601f19601f820116820180604052508101906109589190611dbd565b6109629042611de5565b600b546000908152600d60205260409020805465ffffffffffff191665ffffffffffff929092169190911790558061099981611d41565b9150506108cd565b6109ab3383610dc5565b6109c75760405162461bcd60e51b815260040161051490611d5a565b6109d3848484846112c8565b50505050565b6000818152600260205260409020546060906001600160a01b0316610a585760405162461bcd60e51b815260206004820152602f60248201527f4552433732314d657461646174613a2055524920717565727920666f72206e6f60448201526e3732bc34b9ba32b73a103a37b5b2b760891b6064820152608401610514565b6000828152600d602052604081205465ffffffffffff16421015610a9f576000838152600d6020526040902054610a9890429065ffffffffffff16611e04565b9050610aa3565b5060005b6000610ab1610e1083611e2d565b90506000603c610ac3610e1085611e41565b610acd9190611e2d565b90506000610adc603c85611e41565b9050610ae66119cd565b60405180610140016040528061011481526020016121c161011491398152610b0d846112fb565b610b16846112fb565b610b1f846112fb565b604051602001610b3193929190611e55565b60408051601f19818403018152918152602083810192835281518083018352600d81526c1e17ba32bc3a1f1e17b9bb339f60991b81830152848301819052845193519251600094610b8794909390929101611edc565b60405160208183030381529060405290506000610ba38261138e565b9050600081604051602001610bb89190611f1f565b60405160208183030381529060405290506000610bfd610bd78c6112fb565b83604051602001610be9929190611f64565b60405160208183030381529060405261138e565b905080604051602001610c10919061200a565b6040516020818303038152906040529950505050505050505050919050565b610c37610fb5565b6001600160a01b038116610c9c5760405162461bcd60e51b815260206004820152602660248201527f4f776e61626c653a206e6577206f776e657220697320746865207a65726f206160448201526564647265737360d01b6064820152608401610514565b610ca58161100f565b50565b60006001600160e01b031982166380ac58cd60e01b1480610cd957506001600160e01b03198216635b5e139f60e01b145b806103e157506301ffc9a760e01b6001600160e01b03198316146103e1565b6000818152600260205260409020546001600160a01b0316610ca55760405162461bcd60e51b8152602060048201526018602482015277115490cdcc8c4e881a5b9d985b1a59081d1bdad95b88125160421b6044820152606401610514565b600081815260046020526040902080546001600160a01b0319166001600160a01b0384169081179091558190610d8c826107aa565b6001600160a01b03167f8c5be1e5ebec7d5bd14f71427d1e84f3dd0314c0f7b2291e5b200ac8c7c3b92560405160405180910390a45050565b600080610dd1836107aa565b9050806001600160a01b0316846001600160a01b03161480610e1857506001600160a01b0380821660009081526005602090815260408083209388168352929052205460ff165b80610e3c5750836001600160a01b0316610e3184610479565b6001600160a01b0316145b949350505050565b826001600160a01b0316610e57826107aa565b6001600160a01b031614610e7d5760405162461bcd60e51b81526004016105149061204f565b6001600160a01b038216610edf5760405162461bcd60e51b8152602060048201526024808201527f4552433732313a207472616e7366657220746f20746865207a65726f206164646044820152637265737360e01b6064820152608401610514565b610eec83838360016114e1565b826001600160a01b0316610eff826107aa565b6001600160a01b031614610f255760405162461bcd60e51b81526004016105149061204f565b600081815260046020908152604080832080546001600160a01b03199081169091556001600160a01b0387811680865260038552838620805460001901905590871680865283862080546001019055868652600290945282852080549092168417909155905184937fddf252ad1be2c89b69c2b068fc378daa952ba7f163c4a11628f55a4df523b3ef91a4505050565b600a546001600160a01b031633146108a25760405162461bcd60e51b815260206004820181905260248201527f4f776e61626c653a2063616c6c6572206973206e6f7420746865206f776e65726044820152606401610514565b600a80546001600160a01b038381166001600160a01b0319831681179093556040519116919082907f8be0079c531659141344cd1fd0a4f28419497f9722a3daafe3b4186f6b6457e090600090a35050565b816001600160a01b0316836001600160a01b0316036110c25760405162461bcd60e51b815260206004820152601960248201527f4552433732313a20617070726f766520746f2063616c6c6572000000000000006044820152606401610514565b6001600160a01b03838116600081815260056020908152604080832094871680845294825291829020805460ff191686151590811790915591519182527f17307eab39ab6107e8899845ad3d59bd9653f200f220920489ca2b5937696c31910160405180910390a3505050565b6001600160a01b0382166111855760405162461bcd60e51b815260206004820181905260248201527f4552433732313a206d696e7420746f20746865207a65726f20616464726573736044820152606401610514565b6000818152600260205260409020546001600160a01b0316156111ea5760405162461bcd60e51b815260206004820152601c60248201527f4552433732313a20746f6b656e20616c7265616479206d696e746564000000006044820152606401610514565b6111f86000838360016114e1565b6000818152600260205260409020546001600160a01b03161561125d5760405162461bcd60e51b815260206004820152601c60248201527f4552433732313a20746f6b656e20616c7265616479206d696e746564000000006044820152606401610514565b6001600160a01b038216600081815260036020908152604080832080546001019055848352600290915280822080546001600160a01b0319168417905551839291907fddf252ad1be2c89b69c2b068fc378daa952ba7f163c4a11628f55a4df523b3ef908290a45050565b6112d3848484610e44565b6112df84848484611530565b6109d35760405162461bcd60e51b815260040161051490612094565b6060600061130883611631565b600101905060008167ffffffffffffffff81111561132857611328611baf565b6040519080825280601f01601f191660200182016040528015611352576020820181803683370190505b5090508181016020015b600019016f181899199a1a9b1b9c1cb0b131b232b360811b600a86061a8153600a850494508461135c57509392505050565b606081516000036113ad57505060408051602081019091526000815290565b600060405180606001604052806040815260200161218160409139905060006003845160026113dc91906120e6565b6113e69190611e2d565b6113f19060046120f9565b67ffffffffffffffff81111561140957611409611baf565b6040519080825280601f01601f191660200182016040528015611433576020820181803683370190505b509050600182016020820185865187015b8082101561149f576003820191508151603f8160121c168501518453600184019350603f81600c1c168501518453600184019350603f8160061c168501518453600184019350603f8116850151845350600183019250611444565b50506003865106600181146114bb57600281146114ce576114d6565b603d6001830353603d60028303536114d6565b603d60018303535b509195945050505050565b6114ed84848484611709565b6001600160a01b038416158015906115125750600c546601000000000000900460ff16155b156109d35760405163dc8d8db760e01b815260040160405180910390fd5b60006001600160a01b0384163b1561162657604051630a85bd0160e11b81526001600160a01b0385169063150b7a0290611574903390899088908890600401612110565b6020604051808303816000875af19250505080156115af575060408051601f3d908101601f191682019092526115ac9181019061214d565b60015b61160c573d8080156115dd576040519150601f19603f3d011682016040523d82523d6000602084013e6115e2565b606091505b5080516000036116045760405162461bcd60e51b815260040161051490612094565b805181602001fd5b6001600160e01b031916630a85bd0160e11b149050610e3c565b506001949350505050565b60008072184f03e93ff9f4daa797ed6e38ed64bf6a1f0160401b83106116705772184f03e93ff9f4daa797ed6e38ed64bf6a1f0160401b830492506040015b6d04ee2d6d415b85acef8100000000831061169c576d04ee2d6d415b85acef8100000000830492506020015b662386f26fc1000083106116ba57662386f26fc10000830492506010015b6305f5e10083106116d2576305f5e100830492506008015b61271083106116e657612710830492506004015b606483106116f8576064830492506002015b600a83106103e15760010192915050565b60018111156117785760405162461bcd60e51b815260206004820152603560248201527f455243373231456e756d657261626c653a20636f6e7365637574697665207472604482015274185b9cd9995c9cc81b9bdd081cdd5c1c1bdc9d1959605a1b6064820152608401610514565b816001600160a01b0385166117d4576117cf81600880546000838152600960205260408120829055600182018355919091527ff3f7a9fe364faab93b216da50a3214154f22a0a2b415b23a84c8169e8b636ee30155565b6117f7565b836001600160a01b0316856001600160a01b0316146117f7576117f7858261183d565b6001600160a01b0384166118135761180e816118da565b611836565b846001600160a01b0316846001600160a01b031614611836576118368482611989565b5050505050565b6000600161184a8461080a565b6118549190611e04565b6000838152600760205260409020549091508082146118a7576001600160a01b03841660009081526006602090815260408083208584528252808320548484528184208190558352600790915290208190555b5060009182526007602090815260408084208490556001600160a01b039094168352600681528383209183525290812055565b6008546000906118ec90600190611e04565b6000838152600960205260408120546008805493945090928490811061191457611914611da7565b90600052602060002001549050806008838154811061193557611935611da7565b600091825260208083209091019290925582815260099091526040808220849055858252812055600880548061196d5761196d61216a565b6001900381819060005260206000200160009055905550505050565b60006119948361080a565b6001600160a01b039093166000908152600660209081526040808320868452825280832085905593825260079052919091209190915550565b6040518060a001604052806005905b60608152602001906001900390816119dc5790505090565b6001600160e01b031981168114610ca557600080fd5b600060208284031215611a1c57600080fd5b8135611a27816119f4565b9392505050565b600060208284031215611a4057600080fd5b5035919050565b60005b83811015611a62578181015183820152602001611a4a565b50506000910152565b60008151808452611a83816020860160208601611a47565b601f01601f19169290920160200192915050565b602081526000611a276020830184611a6b565b80356001600160a01b0381168114611ac157600080fd5b919050565b60008060408385031215611ad957600080fd5b611ae283611aaa565b946020939093013593505050565b600060208284031215611b0257600080fd5b611a2782611aaa565b600080600060608486031215611b2057600080fd5b611b2984611aaa565b9250611b3760208501611aaa565b9150604084013590509250925092565b60008060408385031215611b5a57600080fd5b611b6383611aaa565b915060208301358015158114611b7857600080fd5b809150509250929050565b60008060408385031215611b9657600080fd5b82359150611ba660208401611aaa565b90509250929050565b634e487b7160e01b600052604160045260246000fd5b60008060008060808587031215611bdb57600080fd5b611be485611aaa565b9350611bf260208601611aaa565b925060408501359150606085013567ffffffffffffffff80821115611c1657600080fd5b818701915087601f830112611c2a57600080fd5b813581811115611c3c57611c3c611baf565b604051601f8201601f19908116603f01168101908382118183101715611c6457611c64611baf565b816040528281528a6020848701011115611c7d57600080fd5b82602086016020830137600060208483010152809550505050505092959194509250565b60008060408385031215611cb457600080fd5b611cbd83611aaa565b9150611ba660208401611aaa565b600181811c90821680611cdf57607f821691505b602082108103611cff57634e487b7160e01b600052602260045260246000fd5b50919050565b634e487b7160e01b600052601160045260246000fd5b65ffffffffffff828116828216039080821115611d3a57611d3a611d05565b5092915050565b600060018201611d5357611d53611d05565b5060010190565b6020808252602d908201527f4552433732313a2063616c6c6572206973206e6f7420746f6b656e206f776e6560408201526c1c881bdc88185c1c1c9bdd9959609a1b606082015260800190565b634e487b7160e01b600052603260045260246000fd5b600060208284031215611dcf57600080fd5b815165ffffffffffff81168114611a2757600080fd5b65ffffffffffff818116838216019080821115611d3a57611d3a611d05565b818103818111156103e1576103e1611d05565b634e487b7160e01b600052601260045260246000fd5b600082611e3c57611e3c611e17565b500490565b600082611e5057611e50611e17565b500690565b6a02a34b6b2902632b33a1d160ad1b815260008451611e7b81600b850160208901611a47565b61034160f51b600b918401918201528451611e9d81600d840160208901611a47565b61036960f51b600d92909101918201528351611ec081600f840160208801611a47565b61039960f51b600f929091019182015260110195945050505050565b60008451611eee818460208901611a47565b845190830190611f02818360208901611a47565b8451910190611f15818360208801611a47565b0195945050505050565b7f646174613a696d6167652f7376672b786d6c3b6261736536342c000000000000815260008251611f5781601a850160208701611a47565b91909101601a0192915050565b727b226e616d65223a202244617970617373202360681b81528251600090611f93816013850160208801611a47565b7f222c20226465736372697074696f6e223a202241204461797061737320666f7260139184019182015275103cb7bab91033b0b99116101134b6b0b3b2911d101160511b60338201528351611fef816049840160208801611a47565b61227d60f01b60499290910191820152604b01949350505050565b7f646174613a6170706c69636174696f6e2f6a736f6e3b6261736536342c00000081526000825161204281601d850160208701611a47565b91909101601d0192915050565b60208082526025908201527f4552433732313a207472616e736665722066726f6d20696e636f72726563742060408201526437bbb732b960d91b606082015260800190565b60208082526032908201527f4552433732313a207472616e7366657220746f206e6f6e20455243373231526560408201527131b2b4bb32b91034b6b83632b6b2b73a32b960711b606082015260800190565b808201808211156103e1576103e1611d05565b80820281158282048414176103e1576103e1611d05565b6001600160a01b038581168252841660208201526040810183905260806060820181905260009061214390830184611a6b565b9695505050505050565b60006020828403121561215f57600080fd5b8151611a27816119f4565b634e487b7160e01b600052603160045260246000fdfe4142434445464748494a4b4c4d4e4f505152535455565758595a6162636465666768696a6b6c6d6e6f707172737475767778797a303132333435363738392b2f3c73766720786d6c6e733d22687474703a2f2f7777772e77332e6f72672f323030302f73766722207072657365727665417370656374526174696f3d22784d696e594d696e206d656574222076696577426f783d223020302033353020333530223e3c7374796c653e2e62617365207b2066696c6c3a20626c61636b3b20666f6e742d66616d696c793a2073657269663b20666f6e742d73697a653a20323470783b207d3c2f7374796c653e3c726563742077696474683d223130302522206865696768743d2231303025222066696c6c3d22776869746522202f3e3c7465787420783d223530252220793d223530252220636c6173733d22626173652220746578742d616e63686f723d226d6964646c65223ea2646970667358221220cdfcf0656722eb7b936080ca2fa02a4781b1f53ce8a1c97a288707fdf79d40ec64736f6c6343000813003360806040523480156200001157600080fd5b506040516200137e3803806200137e833981016040819052620000349162000232565b85620000403362000093565b6200004b81620000e3565b50600280546001600160a01b0319166001600160a01b03871617905583516200007c90600390602087019062000170565b50600492909255600555600655506200034e915050565b600080546001600160a01b038381166001600160a01b0319831681178455604051919092169283917f8be0079c531659141344cd1fd0a4f28419497f9722a3daafe3b4186f6b6457e09190a35050565b620000ed6200010f565b600180546001600160a01b0319166001600160a01b0392909216919091179055565b6000546001600160a01b031633146200016e5760405162461bcd60e51b815260206004820181905260248201527f4f776e61626c653a2063616c6c6572206973206e6f7420746865206f776e6572604482015260640160405180910390fd5b565b828054828255906000526020600020908101928215620001c8579160200282015b82811115620001c857825182546001600160a01b0319166001600160a01b0390911617825560209092019160019091019062000191565b50620001d6929150620001da565b5090565b5b80821115620001d65760008155600101620001db565b6001600160a01b03811681146200020757600080fd5b50565b80516200021781620001f1565b919050565b634e487b7160e01b600052604160045260246000fd5b60008060008060008060c087890312156200024c57600080fd5b86516200025981620001f1565b809650506020808801516200026e81620001f1565b60408901519096506001600160401b03808211156200028c57600080fd5b818a0191508a601f830112620002a157600080fd5b815181811115620002b657620002b66200021c565b8060051b604051601f19603f83011681018181108582111715620002de57620002de6200021c565b60405291825284820192508381018501918d831115620002fd57600080fd5b938501935b82851015620003265762000316856200020a565b8452938501939285019262000302565b809950505050505050606087015192506080870151915060a087015190509295509295509295565b611020806200035e6000396000f3fe60806040526004361061011f5760003560e01c8063b0d691fe116100a0578063d97e0ada11610064578063d97e0ada146102d5578063e17282db146102f5578063eb4bd0551461030b578063f2fde38b1461032b578063f465c77e1461034b57600080fd5b8063b0d691fe14610263578063bb9fe6bf14610283578063c23a5cea14610298578063c399ec88146102b8578063d0e30db0146102cd57600080fd5b8063715018a6116100e7578063715018a6146101da5780638c8e9379146101ef5780638da5cb5b14610205578063a0ac611b14610223578063a9a234091461024357600080fd5b80630396cb601461012457806318b9997b14610139578063205c287814610162578063584465f21461018257806366c00cca146101a2575b600080fd5b610137610132366004610b6e565b610379565b005b34801561014557600080fd5b5061014f60045481565b6040519081526020015b60405180910390f35b34801561016e57600080fd5b5061013761017d366004610bb0565b6103e8565b34801561018e57600080fd5b5061013761019d366004610bdc565b61043e565b3480156101ae57600080fd5b506002546101c2906001600160a01b031681565b6040516001600160a01b039091168152602001610159565b3480156101e657600080fd5b50610137610468565b3480156101fb57600080fd5b5061014f60055481565b34801561021157600080fd5b506000546001600160a01b03166101c2565b34801561022f57600080fd5b506101c261023e366004610bf9565b61047c565b34801561024f57600080fd5b5061013761025e366004610c12565b6104a6565b34801561026f57600080fd5b506001546101c2906001600160a01b031681565b34801561028f57600080fd5b506101376104c0565b3480156102a457600080fd5b506101376102b3366004610bdc565b61052c565b3480156102c457600080fd5b5061014f610596565b610137610608565b3480156102e157600080fd5b506101376102f0366004610bdc565b61064e565b34801561030157600080fd5b5061014f60065481565b34801561031757600080fd5b50610137610326366004610ce8565b610678565b34801561033757600080fd5b50610137610346366004610bdc565b610697565b34801561035757600080fd5b5061036b610366366004610d9a565b610715565b604051610159929190610dee565b610381610926565b600154604051621cb65b60e51b815263ffffffff831660048201526001600160a01b0390911690630396cb609034906024016000604051808303818588803b1580156103cc57600080fd5b505af11580156103e0573d6000803e3d6000fd5b505050505050565b6103f0610926565b60015460405163040b850f60e31b81526001600160a01b038481166004830152602482018490529091169063205c287890604401600060405180830381600087803b1580156103cc57600080fd5b610446610926565b600180546001600160a01b0319166001600160a01b0392909216919091179055565b610470610926565b61047a6000610980565b565b6003818154811061048c57600080fd5b6000918252602090912001546001600160a01b0316905081565b6104ae6109d0565b6104ba848484846109e7565b50505050565b6104c8610926565b600160009054906101000a90046001600160a01b03166001600160a01b031663bb9fe6bf6040518163ffffffff1660e01b8152600401600060405180830381600087803b15801561051857600080fd5b505af11580156104ba573d6000803e3d6000fd5b610534610926565b60015460405163611d2e7560e11b81526001600160a01b0383811660048301529091169063c23a5cea90602401600060405180830381600087803b15801561057b57600080fd5b505af115801561058f573d6000803e3d6000fd5b5050505050565b6001546040516370a0823160e01b81523060048201526000916001600160a01b0316906370a0823190602401602060405180830381865afa1580156105df573d6000803e3d6000fd5b505050506040513d601f19601f820116820180604052508101906106039190610e43565b905090565b60015460405163b760faf960e01b81523060048201526001600160a01b039091169063b760faf99034906024016000604051808303818588803b15801561057b57600080fd5b610656610926565b600280546001600160a01b0319166001600160a01b0392909216919091179055565b610680610926565b8051610693906003906020840190610af4565b5050565b61069f610926565b6001600160a01b0381166107095760405162461bcd60e51b815260206004820152602660248201527f4f776e61626c653a206e6577206f776e657220697320746865207a65726f206160448201526564647265737360d01b60648201526084015b60405180910390fd5b61071281610980565b50565b6060600080808061072888860189610e5c565b610736916004908290610eaa565b8101906107439190610ed4565b60025492955090935091506001600160a01b03166000816370a0823161076c60208d018d610bdc565b6040516001600160e01b031960e084901b1681526001600160a01b039091166004820152602401602060405180830381865afa1580156107b0573d6000803e3d6000fd5b505050506040513d601f19601f820116820180604052508101906107d49190610e43565b905060018110156107f8576040516374d31a5760e01b815260040160405180910390fd5b61080185610a1f565b61081e576040516315a9bc2760e11b815260040160405180910390fd5b61082b8a60800135610a88565b156108495760405163041828db60e11b815260040160405180910390fd5b61085288610aa4565b1561087057604051633b5d50c560e01b815260040160405180910390fd5b60006001600160a01b038316632162135261088e60208e018e610bdc565b6040516001600160e01b031960e084901b1681526001600160a01b039091166004820152602401602060405180830381865afa1580156108d2573d6000803e3d6000fd5b505050506040513d601f19601f820116820180604052508101906108f69190610f85565b90504261090560008383610abc565b6040805160208101909152600081529d909c509a5050505050505050505050565b6000546001600160a01b0316331461047a5760405162461bcd60e51b815260206004820181905260248201527f4f776e61626c653a2063616c6c6572206973206e6f7420746865206f776e65726044820152606401610700565b600080546001600160a01b038381166001600160a01b0319831681178455604051919092169283917f8be0079c531659141344cd1fd0a4f28419497f9722a3daafe3b4186f6b6457e09190a35050565b6001546001600160a01b0316331461047a57600080fd5b60405162461bcd60e51b815260206004820152600d60248201526c6d757374206f7665727269646560981b6044820152606401610700565b6000805b600354811015610a7f57826001600160a01b031660038281548110610a4a57610a4a610fad565b6000918252602090912001546001600160a01b031603610a6d5750600192915050565b80610a7781610fc3565b915050610a23565b50600092915050565b6000600454600014158015610a9e575060045482115b92915050565b6000600554600014158015610a9e5750506005541090565b600060d08265ffffffffffff16901b60a08465ffffffffffff16901b85610ae4576000610ae7565b60015b60ff161717949350505050565b828054828255906000526020600020908101928215610b49579160200282015b82811115610b4957825182546001600160a01b0319166001600160a01b03909116178255602090920191600190910190610b14565b50610b55929150610b59565b5090565b5b80821115610b555760008155600101610b5a565b600060208284031215610b8057600080fd5b813563ffffffff81168114610b9457600080fd5b9392505050565b6001600160a01b038116811461071257600080fd5b60008060408385031215610bc357600080fd5b8235610bce81610b9b565b946020939093013593505050565b600060208284031215610bee57600080fd5b8135610b9481610b9b565b600060208284031215610c0b57600080fd5b5035919050565b60008060008060608587031215610c2857600080fd5b843560038110610c3757600080fd5b9350602085013567ffffffffffffffff80821115610c5457600080fd5b818701915087601f830112610c6857600080fd5b813581811115610c7757600080fd5b886020828501011115610c8957600080fd5b95986020929092019750949560400135945092505050565b634e487b7160e01b600052604160045260246000fd5b604051601f8201601f1916810167ffffffffffffffff81118282101715610ce057610ce0610ca1565b604052919050565b60006020808385031215610cfb57600080fd5b823567ffffffffffffffff80821115610d1357600080fd5b818501915085601f830112610d2757600080fd5b813581811115610d3957610d39610ca1565b8060051b9150610d4a848301610cb7565b8181529183018401918481019088841115610d6457600080fd5b938501935b83851015610d8e5784359250610d7e83610b9b565b8282529385019390850190610d69565b98975050505050505050565b600080600060608486031215610daf57600080fd5b833567ffffffffffffffff811115610dc657600080fd5b84016101608187031215610dd957600080fd5b95602085013595506040909401359392505050565b604081526000835180604084015260005b81811015610e1c5760208187018101516060868401015201610dff565b506000606082850101526060601f19601f8301168401019150508260208301529392505050565b600060208284031215610e5557600080fd5b5051919050565b6000808335601e19843603018112610e7357600080fd5b83018035915067ffffffffffffffff821115610e8e57600080fd5b602001915036819003821315610ea357600080fd5b9250929050565b60008085851115610eba57600080fd5b83861115610ec757600080fd5b5050820193919092039150565b600080600060608486031215610ee957600080fd5b8335610ef481610b9b565b92506020848101359250604085013567ffffffffffffffff80821115610f1957600080fd5b818701915087601f830112610f2d57600080fd5b813581811115610f3f57610f3f610ca1565b610f51601f8201601f19168501610cb7565b91508082528884828501011115610f6757600080fd5b80848401858401376000848284010152508093505050509250925092565b600060208284031215610f9757600080fd5b815165ffffffffffff81168114610b9457600080fd5b634e487b7160e01b600052603260045260246000fd5b600060018201610fe357634e487b7160e01b600052601160045260246000fd5b506001019056fea2646970667358221220bfc8f4c349fd790399896ace4f61a9ecb9a734efc96c5ca93fffbed36627acef64736f6c63430008130033a2646970667358221220b5cfbca8cc01254a9686d66050fd022e1f7da92b7fd79bd4c402f44ccfb694f064736f6c63430008130033",
    "linkReferences": {}
  },
  "methodIdentifiers": {
    "setupDaypass(address,address[],bool,uint256,uint256,uint48,address[])": "62a28dc7"
  },
  "id": 71
}