{
  "abi": [
    {
      "anonymous": false,
      "inputs": [
        {
          "indexed": false,
          "internalType": "address",
          "name": "dayPass",
          "type": "address"
        },
        {
          "indexed": false,
          "internalType": "address",
          "name": "payMaster",
          "type": "address"
        }
      ],
      "name": "DaypassSetUp",
      "type": "event"
    },
    {
      "inputs": [
        {
          "internalType": "contract IEntryPoint",
          "name": "entryPoint",
          "type": "address"
        },
        {
          "internalType": "address[]",
          "name": "targetAddresses",
          "type": "address[]"
        },
        {
          "internalType": "bool",
          "name": "isDayPassTransferble",
          "type": "bool"
        },
        {
          "internalType": "uint256",
          "name": "gasLimitPerOperation",
          "type": "uint256"
        },
        {
          "internalType": "uint256",
          "name": "spendingLimitPerOperation",
          "type": "uint256"
        },
        {
          "internalType": "uint48",
          "name": "timeLimitInSecond",
          "type": "uint48"
        },
        {
          "internalType": "address[]",
          "name": "addresses",
          "type": "address[]"
        }
      ],
      "name": "setupDaypass",
      "outputs": [
        {
          "internalType": "contract Daypass",
          "name": "dayPassContract",
          "type": "address"
        },
        {
          "internalType": "contract DaypassPaymaster",
          "name": "paymasterContract",
          "type": "address"
        }
      ],
      "stateMutability": "payable",
      "type": "function"
    }
  ],
  "bytecode": {
    "object": "0x608060405234801561001057600080fd5b5061427b806100206000396000f3fe608060405260043610620000205760003560e01c806362a28dc71462000025575b600080fd5b6200003c62000036366004620004db565b62000060565b604080516001600160a01b0393841681529290911660208301520160405180910390f35b60008086846040516200007390620003b9565b6080808252600790820152664461797061737360c81b60a082015260c06020820181905260059082015264445041535360d81b60e0820152911515604083015265ffffffffffff16606082015261010001604051809103906000f080158015620000e1573d6000803e3d6000fd5b509150888289888888604051620000f890620003c7565b62000109969594939291906200059c565b604051809103906000f08015801562000126573d6000803e3d6000fd5b5090506001600160a01b03811663d0e30db0620001456002346200061d565b6040518263ffffffff1660e01b81526004016000604051808303818588803b1580156200017157600080fd5b505af115801562000186573d6000803e3d6000fd5b5050505050806001600160a01b0316630396cb60600234620001a991906200061d565b6040516001600160e01b031960e084901b1681526201518060048201526024016000604051808303818588803b158015620001e357600080fd5b505af1158015620001f8573d6000803e3d6000fd5b505050505060005b8351811015620002b257826001600160a01b031663b723b34e600186848151811062000230576200023062000640565b60200260200101516040518363ffffffff1660e01b8152600401620002689291909182526001600160a01b0316602082015260400190565b600060405180830381600087803b1580156200028357600080fd5b505af115801562000298573d6000803e3d6000fd5b505050508080620002a99062000656565b91505062000200565b5060405163f2fde38b60e01b81523360048201526001600160a01b0382169063f2fde38b90602401600060405180830381600087803b158015620002f557600080fd5b505af11580156200030a573d6000803e3d6000fd5b505060405163f2fde38b60e01b81523360048201526001600160a01b038516925063f2fde38b9150602401600060405180830381600087803b1580156200035057600080fd5b505af115801562000365573d6000803e3d6000fd5b5050604080516001600160a01b038087168252851660208201527fde97c42145f70c6341311d260a805c181687ed32f5f0ab42e6258bffe64ca619935001905060405180910390a197509795505050505050565b612849806200067f83390190565b61137e8062002ec883390190565b6001600160a01b0381168114620003eb57600080fd5b50565b634e487b7160e01b600052604160045260246000fd5b80356200041181620003d5565b919050565b600082601f8301126200042857600080fd5b8135602067ffffffffffffffff80831115620004485762000448620003ee565b8260051b604051601f19603f83011681018181108482111715620004705762000470620003ee565b6040529384528581018301938381019250878511156200048f57600080fd5b83870191505b84821015620004b957620004a98262000404565b8352918301919083019062000495565b979650505050505050565b803565ffffffffffff811681146200041157600080fd5b600080600080600080600060e0888a031215620004f757600080fd5b87356200050481620003d5565b9650602088013567ffffffffffffffff808211156200052257600080fd5b620005308b838c0162000416565b975060408a0135915081151582146200054857600080fd5b81965060608a0135955060808a013594506200056760a08b01620004c4565b935060c08a01359150808211156200057e57600080fd5b506200058d8a828b0162000416565b91505092959891949750929550565b600060c0820160018060a01b03808a1684526020818a168186015260c0604086015282895180855260e087019150828b01945060005b81811015620005f2578551851683529483019491830191600101620005d2565b5050606086019890985250505050608081019290925265ffffffffffff1660a0909101529392505050565b6000826200063b57634e487b7160e01b600052601260045260246000fd5b500490565b634e487b7160e01b600052603260045260246000fd5b6000600182016200067757634e487b7160e01b600052601160045260246000fd5b506001019056fe608060405260405162002849380380620028498339810160408190526200002691620001b6565b83836000620000368382620002e7565b506001620000458282620002e7565b505050620000626200005c6200009b60201b60201c565b6200009f565b600c805492151566010000000000000266ffffffffffffff1990931665ffffffffffff9092169190911791909117905550620003b39050565b3390565b600a80546001600160a01b038381166001600160a01b0319831681179093556040519116919082907f8be0079c531659141344cd1fd0a4f28419497f9722a3daafe3b4186f6b6457e090600090a35050565b634e487b7160e01b600052604160045260246000fd5b600082601f8301126200011957600080fd5b81516001600160401b0380821115620001365762000136620000f1565b604051601f8301601f19908116603f01168101908282118183101715620001615762000161620000f1565b816040528381526020925086838588010111156200017e57600080fd5b600091505b83821015620001a2578582018301518183018401529082019062000183565b600093810190920192909252949350505050565b60008060008060808587031215620001cd57600080fd5b84516001600160401b0380821115620001e557600080fd5b620001f38883890162000107565b955060208701519150808211156200020a57600080fd5b50620002198782880162000107565b935050604085015180151581146200023057600080fd5b606086015190925065ffffffffffff811681146200024d57600080fd5b939692955090935050565b600181811c908216806200026d57607f821691505b6020821081036200028e57634e487b7160e01b600052602260045260246000fd5b50919050565b601f821115620002e257600081815260208120601f850160051c81016020861015620002bd5750805b601f850160051c820191505b81811015620002de57828155600101620002c9565b5050505b505050565b81516001600160401b03811115620003035762000303620000f1565b6200031b8162000314845462000258565b8462000294565b602080601f8311600181146200035357600084156200033a5750858301515b600019600386901b1c1916600185901b178555620002de565b600085815260208120601f198616915b82811015620003845788860151825594840194600190910190840162000363565b5085821015620003a35787850151600019600388901b60f8161c191681555b5050505050600190811b01905550565b61248680620003c36000396000f3fe608060405234801561001057600080fd5b506004361061018d5760003560e01c80634f6ccce7116100de578063a22cb46511610097578063c87b56dd11610071578063c87b56dd14610375578063d67b06c114610388578063e985e9c51461039b578063f2fde38b146103d757600080fd5b8063a22cb4651461033c578063b723b34e1461034f578063b88d4fde1461036257600080fd5b80634f6ccce7146102e25780636352211e146102f557806370a0823114610308578063715018a61461031b5780638da5cb5b1461032357806395d89b411461033457600080fd5b80630fb5a6b41161014b5780632162135211610125578063216213521461029657806323b872dd146102a95780632f745c59146102bc57806342842e0e146102cf57600080fd5b80630fb5a6b41461026557806318160ddd146102775780632121dc751461027f57600080fd5b80629a9b7b1461019257806301ffc9a7146101ae578063059c95d4146101d157806306fdde0314610210578063081812fc14610225578063095ea7b314610250575b600080fd5b61019b600b5481565b6040519081526020015b60405180910390f35b6101c16101bc366004611b30565b6103ea565b60405190151581526020016101a5565b6101f96101df366004611b54565b600d6020526000908152604090205465ffffffffffff1681565b60405165ffffffffffff90911681526020016101a5565b610218610415565b6040516101a59190611bbd565b610238610233366004611b54565b6104a7565b6040516001600160a01b0390911681526020016101a5565b61026361025e366004611bec565b6104ce565b005b600c546101f99065ffffffffffff1681565b60085461019b565b600c546101c1906601000000000000900460ff1681565b6101f96102a4366004611c16565b6105e8565b6102636102b7366004611c31565b610656565b61019b6102ca366004611bec565b610687565b6102636102dd366004611c31565b61071d565b61019b6102f0366004611b54565b610738565b610238610303366004611b54565b6107cb565b61019b610316366004611c16565b61082b565b6102636108b1565b600a546001600160a01b0316610238565b6102186108c5565b61026361034a366004611c6d565b6108d4565b61026361035d366004611ca9565b6108e3565b610263610370366004611ceb565b6109c2565b610218610383366004611b54565b6109fa565b610263610396366004611dc7565b610c50565b6101c16103a9366004611e3c565b6001600160a01b03918216600090815260056020908152604080832093909416825291909152205460ff1690565b6102636103e5366004611c16565b610d55565b60006001600160e01b0319821663780e9d6360e01b148061040f575061040f82610dce565b92915050565b60606000805461042490611e66565b80601f016020809104026020016040519081016040528092919081815260200182805461045090611e66565b801561049d5780601f106104725761010080835404028352916020019161049d565b820191906000526020600020905b81548152906001019060200180831161048057829003601f168201915b5050505050905090565b60006104b282610e1e565b506000908152600460205260409020546001600160a01b031690565b60006104d9826107cb565b9050806001600160a01b0316836001600160a01b03160361054b5760405162461bcd60e51b815260206004820152602160248201527f4552433732313a20617070726f76616c20746f2063757272656e74206f776e656044820152603960f91b60648201526084015b60405180910390fd5b336001600160a01b0382161480610567575061056781336103a9565b6105d95760405162461bcd60e51b815260206004820152603d60248201527f4552433732313a20617070726f76652063616c6c6572206973206e6f7420746f60448201527f6b656e206f776e6572206f7220617070726f76656420666f7220616c6c0000006064820152608401610542565b6105e38383610e7d565b505050565b6000806105f48361082b565b9050600160005b8281101561064e57600061060f8683610687565b6000818152600d602052604090205490915065ffffffffffff908116908416811115610639578093505b5050808061064690611eb6565b9150506105fb565b509392505050565b6106603382610eeb565b61067c5760405162461bcd60e51b815260040161054290611ecf565b6105e3838383610f6a565b60006106928361082b565b82106106f45760405162461bcd60e51b815260206004820152602b60248201527f455243373231456e756d657261626c653a206f776e657220696e646578206f7560448201526a74206f6620626f756e647360a81b6064820152608401610542565b506001600160a01b03919091166000908152600660209081526040808320938352929052205490565b6105e3838383604051806020016040528060008152506109c2565b600061074360085490565b82106107a65760405162461bcd60e51b815260206004820152602c60248201527f455243373231456e756d657261626c653a20676c6f62616c20696e646578206f60448201526b7574206f6620626f756e647360a01b6064820152608401610542565b600882815481106107b9576107b9611f1c565b90600052602060002001549050919050565b6000818152600260205260408120546001600160a01b03168061040f5760405162461bcd60e51b8152602060048201526018602482015277115490cdcc8c4e881a5b9d985b1a59081d1bdad95b88125160421b6044820152606401610542565b60006001600160a01b0382166108955760405162461bcd60e51b815260206004820152602960248201527f4552433732313a2061646472657373207a65726f206973206e6f7420612076616044820152683634b21037bbb732b960b91b6064820152608401610542565b506001600160a01b031660009081526003602052604090205490565b6108b96110db565b6108c36000611135565b565b60606001805461042490611e66565b6108df338383611187565b5050565b6108eb6110db565b60005b828110156105e357600b805490600061090683611eb6565b919050555061091782600b54611255565b306001600160a01b0316630fb5a6b46040518163ffffffff1660e01b8152600401602060405180830381865afa158015610955573d6000803e3d6000fd5b505050506040513d601f19601f820116820180604052508101906109799190611f32565b6109839042611f5a565b600b546000908152600d60205260409020805465ffffffffffff191665ffffffffffff92909216919091179055806109ba81611eb6565b9150506108ee565b6109cc3383610eeb565b6109e85760405162461bcd60e51b815260040161054290611ecf565b6109f4848484846113ee565b50505050565b6000818152600260205260409020546060906001600160a01b0316610a795760405162461bcd60e51b815260206004820152602f60248201527f4552433732314d657461646174613a2055524920717565727920666f72206e6f60448201526e3732bc34b9ba32b73a103a37b5b2b760891b6064820152608401610542565b6000828152600d602052604081205465ffffffffffff16421015610ac0576000838152600d6020526040902054610ab990429065ffffffffffff16611f80565b9050610ac4565b5060005b6000610ad2610e1083611fa9565b90506000603c610ae4610e1085611fbd565b610aee9190611fa9565b90506000610afd603c85611fbd565b9050610b07611af3565b604051806101400160405280610114815260200161233d61011491398152610b2e84611421565b610b3784611421565b610b4084611421565b604051602001610b5293929190611fd1565b60408051601f19818403018152918152602083810192835281518083018352600d81526c1e17ba32bc3a1f1e17b9bb339f60991b81830152848301819052845193519251600094610ba894909390929101612058565b60405160208183030381529060405290506000610bc4826114b4565b9050600081604051602001610bd9919061209b565b60405160208183030381529060405290506000610c1e610bf88c611421565b83604051602001610c0a9291906120e0565b6040516020818303038152906040526114b4565b905080604051602001610c319190612186565b6040516020818303038152906040529950505050505050505050919050565b610c586110db565b60005b818110156105e357600b8054906000610c7383611eb6565b9190505550610caa838383818110610c8d57610c8d611f1c565b9050602002016020810190610ca29190611c16565b600b54611255565b306001600160a01b0316630fb5a6b46040518163ffffffff1660e01b8152600401602060405180830381865afa158015610ce8573d6000803e3d6000fd5b505050506040513d601f19601f82011682018060405250810190610d0c9190611f32565b610d169042611f5a565b600b546000908152600d60205260409020805465ffffffffffff191665ffffffffffff9290921691909117905580610d4d81611eb6565b915050610c5b565b610d5d6110db565b6001600160a01b038116610dc25760405162461bcd60e51b815260206004820152602660248201527f4f776e61626c653a206e6577206f776e657220697320746865207a65726f206160448201526564647265737360d01b6064820152608401610542565b610dcb81611135565b50565b60006001600160e01b031982166380ac58cd60e01b1480610dff57506001600160e01b03198216635b5e139f60e01b145b8061040f57506301ffc9a760e01b6001600160e01b031983161461040f565b6000818152600260205260409020546001600160a01b0316610dcb5760405162461bcd60e51b8152602060048201526018602482015277115490cdcc8c4e881a5b9d985b1a59081d1bdad95b88125160421b6044820152606401610542565b600081815260046020526040902080546001600160a01b0319166001600160a01b0384169081179091558190610eb2826107cb565b6001600160a01b03167f8c5be1e5ebec7d5bd14f71427d1e84f3dd0314c0f7b2291e5b200ac8c7c3b92560405160405180910390a45050565b600080610ef7836107cb565b9050806001600160a01b0316846001600160a01b03161480610f3e57506001600160a01b0380821660009081526005602090815260408083209388168352929052205460ff165b80610f625750836001600160a01b0316610f57846104a7565b6001600160a01b0316145b949350505050565b826001600160a01b0316610f7d826107cb565b6001600160a01b031614610fa35760405162461bcd60e51b8152600401610542906121cb565b6001600160a01b0382166110055760405162461bcd60e51b8152602060048201526024808201527f4552433732313a207472616e7366657220746f20746865207a65726f206164646044820152637265737360e01b6064820152608401610542565b6110128383836001611607565b826001600160a01b0316611025826107cb565b6001600160a01b03161461104b5760405162461bcd60e51b8152600401610542906121cb565b600081815260046020908152604080832080546001600160a01b03199081169091556001600160a01b0387811680865260038552838620805460001901905590871680865283862080546001019055868652600290945282852080549092168417909155905184937fddf252ad1be2c89b69c2b068fc378daa952ba7f163c4a11628f55a4df523b3ef91a4505050565b600a546001600160a01b031633146108c35760405162461bcd60e51b815260206004820181905260248201527f4f776e61626c653a2063616c6c6572206973206e6f7420746865206f776e65726044820152606401610542565b600a80546001600160a01b038381166001600160a01b0319831681179093556040519116919082907f8be0079c531659141344cd1fd0a4f28419497f9722a3daafe3b4186f6b6457e090600090a35050565b816001600160a01b0316836001600160a01b0316036111e85760405162461bcd60e51b815260206004820152601960248201527f4552433732313a20617070726f766520746f2063616c6c6572000000000000006044820152606401610542565b6001600160a01b03838116600081815260056020908152604080832094871680845294825291829020805460ff191686151590811790915591519182527f17307eab39ab6107e8899845ad3d59bd9653f200f220920489ca2b5937696c31910160405180910390a3505050565b6001600160a01b0382166112ab5760405162461bcd60e51b815260206004820181905260248201527f4552433732313a206d696e7420746f20746865207a65726f20616464726573736044820152606401610542565b6000818152600260205260409020546001600160a01b0316156113105760405162461bcd60e51b815260206004820152601c60248201527f4552433732313a20746f6b656e20616c7265616479206d696e746564000000006044820152606401610542565b61131e600083836001611607565b6000818152600260205260409020546001600160a01b0316156113835760405162461bcd60e51b815260206004820152601c60248201527f4552433732313a20746f6b656e20616c7265616479206d696e746564000000006044820152606401610542565b6001600160a01b038216600081815260036020908152604080832080546001019055848352600290915280822080546001600160a01b0319168417905551839291907fddf252ad1be2c89b69c2b068fc378daa952ba7f163c4a11628f55a4df523b3ef908290a45050565b6113f9848484610f6a565b61140584848484611656565b6109f45760405162461bcd60e51b815260040161054290612210565b6060600061142e83611757565b600101905060008167ffffffffffffffff81111561144e5761144e611cd5565b6040519080825280601f01601f191660200182016040528015611478576020820181803683370190505b5090508181016020015b600019016f181899199a1a9b1b9c1cb0b131b232b360811b600a86061a8153600a850494508461148257509392505050565b606081516000036114d357505060408051602081019091526000815290565b60006040518060600160405280604081526020016122fd60409139905060006003845160026115029190612262565b61150c9190611fa9565b611517906004612275565b67ffffffffffffffff81111561152f5761152f611cd5565b6040519080825280601f01601f191660200182016040528015611559576020820181803683370190505b509050600182016020820185865187015b808210156115c5576003820191508151603f8160121c168501518453600184019350603f81600c1c168501518453600184019350603f8160061c168501518453600184019350603f811685015184535060018301925061156a565b50506003865106600181146115e157600281146115f4576115fc565b603d6001830353603d60028303536115fc565b603d60018303535b509195945050505050565b6116138484848461182f565b6001600160a01b038416158015906116385750600c546601000000000000900460ff16155b156109f45760405163dc8d8db760e01b815260040160405180910390fd5b60006001600160a01b0384163b1561174c57604051630a85bd0160e11b81526001600160a01b0385169063150b7a029061169a90339089908890889060040161228c565b6020604051808303816000875af19250505080156116d5575060408051601f3d908101601f191682019092526116d2918101906122c9565b60015b611732573d808015611703576040519150601f19603f3d011682016040523d82523d6000602084013e611708565b606091505b50805160000361172a5760405162461bcd60e51b815260040161054290612210565b805181602001fd5b6001600160e01b031916630a85bd0160e11b149050610f62565b506001949350505050565b60008072184f03e93ff9f4daa797ed6e38ed64bf6a1f0160401b83106117965772184f03e93ff9f4daa797ed6e38ed64bf6a1f0160401b830492506040015b6d04ee2d6d415b85acef810000000083106117c2576d04ee2d6d415b85acef8100000000830492506020015b662386f26fc1000083106117e057662386f26fc10000830492506010015b6305f5e10083106117f8576305f5e100830492506008015b612710831061180c57612710830492506004015b6064831061181e576064830492506002015b600a831061040f5760010192915050565b600181111561189e5760405162461bcd60e51b815260206004820152603560248201527f455243373231456e756d657261626c653a20636f6e7365637574697665207472604482015274185b9cd9995c9cc81b9bdd081cdd5c1c1bdc9d1959605a1b6064820152608401610542565b816001600160a01b0385166118fa576118f581600880546000838152600960205260408120829055600182018355919091527ff3f7a9fe364faab93b216da50a3214154f22a0a2b415b23a84c8169e8b636ee30155565b61191d565b836001600160a01b0316856001600160a01b03161461191d5761191d8582611963565b6001600160a01b0384166119395761193481611a00565b61195c565b846001600160a01b0316846001600160a01b03161461195c5761195c8482611aaf565b5050505050565b600060016119708461082b565b61197a9190611f80565b6000838152600760205260409020549091508082146119cd576001600160a01b03841660009081526006602090815260408083208584528252808320548484528184208190558352600790915290208190555b5060009182526007602090815260408084208490556001600160a01b039094168352600681528383209183525290812055565b600854600090611a1290600190611f80565b60008381526009602052604081205460088054939450909284908110611a3a57611a3a611f1c565b906000526020600020015490508060088381548110611a5b57611a5b611f1c565b6000918252602080832090910192909255828152600990915260408082208490558582528120556008805480611a9357611a936122e6565b6001900381819060005260206000200160009055905550505050565b6000611aba8361082b565b6001600160a01b039093166000908152600660209081526040808320868452825280832085905593825260079052919091209190915550565b6040518060a001604052806005905b6060815260200190600190039081611b025790505090565b6001600160e01b031981168114610dcb57600080fd5b600060208284031215611b4257600080fd5b8135611b4d81611b1a565b9392505050565b600060208284031215611b6657600080fd5b5035919050565b60005b83811015611b88578181015183820152602001611b70565b50506000910152565b60008151808452611ba9816020860160208601611b6d565b601f01601f19169290920160200192915050565b602081526000611b4d6020830184611b91565b80356001600160a01b0381168114611be757600080fd5b919050565b60008060408385031215611bff57600080fd5b611c0883611bd0565b946020939093013593505050565b600060208284031215611c2857600080fd5b611b4d82611bd0565b600080600060608486031215611c4657600080fd5b611c4f84611bd0565b9250611c5d60208501611bd0565b9150604084013590509250925092565b60008060408385031215611c8057600080fd5b611c8983611bd0565b915060208301358015158114611c9e57600080fd5b809150509250929050565b60008060408385031215611cbc57600080fd5b82359150611ccc60208401611bd0565b90509250929050565b634e487b7160e01b600052604160045260246000fd5b60008060008060808587031215611d0157600080fd5b611d0a85611bd0565b9350611d1860208601611bd0565b925060408501359150606085013567ffffffffffffffff80821115611d3c57600080fd5b818701915087601f830112611d5057600080fd5b813581811115611d6257611d62611cd5565b604051601f8201601f19908116603f01168101908382118183101715611d8a57611d8a611cd5565b816040528281528a6020848701011115611da357600080fd5b82602086016020830137600060208483010152809550505050505092959194509250565b60008060208385031215611dda57600080fd5b823567ffffffffffffffff80821115611df257600080fd5b818501915085601f830112611e0657600080fd5b813581811115611e1557600080fd5b8660208260051b8501011115611e2a57600080fd5b60209290920196919550909350505050565b60008060408385031215611e4f57600080fd5b611e5883611bd0565b9150611ccc60208401611bd0565b600181811c90821680611e7a57607f821691505b602082108103611e9a57634e487b7160e01b600052602260045260246000fd5b50919050565b634e487b7160e01b600052601160045260246000fd5b600060018201611ec857611ec8611ea0565b5060010190565b6020808252602d908201527f4552433732313a2063616c6c6572206973206e6f7420746f6b656e206f776e6560408201526c1c881bdc88185c1c1c9bdd9959609a1b606082015260800190565b634e487b7160e01b600052603260045260246000fd5b600060208284031215611f4457600080fd5b815165ffffffffffff81168114611b4d57600080fd5b65ffffffffffff818116838216019080821115611f7957611f79611ea0565b5092915050565b8181038181111561040f5761040f611ea0565b634e487b7160e01b600052601260045260246000fd5b600082611fb857611fb8611f93565b500490565b600082611fcc57611fcc611f93565b500690565b6a02a34b6b2902632b33a1d160ad1b815260008451611ff781600b850160208901611b6d565b61034160f51b600b91840191820152845161201981600d840160208901611b6d565b61036960f51b600d9290910191820152835161203c81600f840160208801611b6d565b61039960f51b600f929091019182015260110195945050505050565b6000845161206a818460208901611b6d565b84519083019061207e818360208901611b6d565b8451910190612091818360208801611b6d565b0195945050505050565b7f646174613a696d6167652f7376672b786d6c3b6261736536342c0000000000008152600082516120d381601a850160208701611b6d565b91909101601a0192915050565b727b226e616d65223a202244617970617373202360681b8152825160009061210f816013850160208801611b6d565b7f222c20226465736372697074696f6e223a202241204461797061737320666f7260139184019182015275103cb7bab91033b0b99116101134b6b0b3b2911d101160511b6033820152835161216b816049840160208801611b6d565b61227d60f01b60499290910191820152604b01949350505050565b7f646174613a6170706c69636174696f6e2f6a736f6e3b6261736536342c0000008152600082516121be81601d850160208701611b6d565b91909101601d0192915050565b60208082526025908201527f4552433732313a207472616e736665722066726f6d20696e636f72726563742060408201526437bbb732b960d91b606082015260800190565b60208082526032908201527f4552433732313a207472616e7366657220746f206e6f6e20455243373231526560408201527131b2b4bb32b91034b6b83632b6b2b73a32b960711b606082015260800190565b8082018082111561040f5761040f611ea0565b808202811582820484141761040f5761040f611ea0565b6001600160a01b03858116825284166020820152604081018390526080606082018190526000906122bf90830184611b91565b9695505050505050565b6000602082840312156122db57600080fd5b8151611b4d81611b1a565b634e487b7160e01b600052603160045260246000fdfe4142434445464748494a4b4c4d4e4f505152535455565758595a6162636465666768696a6b6c6d6e6f707172737475767778797a303132333435363738392b2f3c73766720786d6c6e733d22687474703a2f2f7777772e77332e6f72672f323030302f73766722207072657365727665417370656374526174696f3d22784d696e594d696e206d656574222076696577426f783d223020302033353020333530223e3c7374796c653e2e62617365207b2066696c6c3a20626c61636b3b20666f6e742d66616d696c793a2073657269663b20666f6e742d73697a653a20323470783b207d3c2f7374796c653e3c726563742077696474683d223130302522206865696768743d2231303025222066696c6c3d22776869746522202f3e3c7465787420783d223530252220793d223530252220636c6173733d22626173652220746578742d616e63686f723d226d6964646c65223ea26469706673582212200405fdd070d3a0404f743830ede1c39d2362cecc676f874c459bcd69d5c1ea9264736f6c6343000813003360806040523480156200001157600080fd5b506040516200137e3803806200137e833981016040819052620000349162000232565b85620000403362000093565b6200004b81620000e3565b50600280546001600160a01b0319166001600160a01b03871617905583516200007c90600390602087019062000170565b50600492909255600555600655506200034e915050565b600080546001600160a01b038381166001600160a01b0319831681178455604051919092169283917f8be0079c531659141344cd1fd0a4f28419497f9722a3daafe3b4186f6b6457e09190a35050565b620000ed6200010f565b600180546001600160a01b0319166001600160a01b0392909216919091179055565b6000546001600160a01b031633146200016e5760405162461bcd60e51b815260206004820181905260248201527f4f776e61626c653a2063616c6c6572206973206e6f7420746865206f776e6572604482015260640160405180910390fd5b565b828054828255906000526020600020908101928215620001c8579160200282015b82811115620001c857825182546001600160a01b0319166001600160a01b0390911617825560209092019160019091019062000191565b50620001d6929150620001da565b5090565b5b80821115620001d65760008155600101620001db565b6001600160a01b03811681146200020757600080fd5b50565b80516200021781620001f1565b919050565b634e487b7160e01b600052604160045260246000fd5b60008060008060008060c087890312156200024c57600080fd5b86516200025981620001f1565b809650506020808801516200026e81620001f1565b60408901519096506001600160401b03808211156200028c57600080fd5b818a0191508a601f830112620002a157600080fd5b815181811115620002b657620002b66200021c565b8060051b604051601f19603f83011681018181108582111715620002de57620002de6200021c565b60405291825284820192508381018501918d831115620002fd57600080fd5b938501935b82851015620003265762000316856200020a565b8452938501939285019262000302565b809950505050505050606087015192506080870151915060a087015190509295509295509295565b611020806200035e6000396000f3fe60806040526004361061011f5760003560e01c8063b0d691fe116100a0578063d97e0ada11610064578063d97e0ada146102d5578063e17282db146102f5578063eb4bd0551461030b578063f2fde38b1461032b578063f465c77e1461034b57600080fd5b8063b0d691fe14610263578063bb9fe6bf14610283578063c23a5cea14610298578063c399ec88146102b8578063d0e30db0146102cd57600080fd5b8063715018a6116100e7578063715018a6146101da5780638c8e9379146101ef5780638da5cb5b14610205578063a0ac611b14610223578063a9a234091461024357600080fd5b80630396cb601461012457806318b9997b14610139578063205c287814610162578063584465f21461018257806366c00cca146101a2575b600080fd5b610137610132366004610b6e565b610379565b005b34801561014557600080fd5b5061014f60045481565b6040519081526020015b60405180910390f35b34801561016e57600080fd5b5061013761017d366004610bb0565b6103e8565b34801561018e57600080fd5b5061013761019d366004610bdc565b61043e565b3480156101ae57600080fd5b506002546101c2906001600160a01b031681565b6040516001600160a01b039091168152602001610159565b3480156101e657600080fd5b50610137610468565b3480156101fb57600080fd5b5061014f60055481565b34801561021157600080fd5b506000546001600160a01b03166101c2565b34801561022f57600080fd5b506101c261023e366004610bf9565b61047c565b34801561024f57600080fd5b5061013761025e366004610c12565b6104a6565b34801561026f57600080fd5b506001546101c2906001600160a01b031681565b34801561028f57600080fd5b506101376104c0565b3480156102a457600080fd5b506101376102b3366004610bdc565b61052c565b3480156102c457600080fd5b5061014f610596565b610137610608565b3480156102e157600080fd5b506101376102f0366004610bdc565b61064e565b34801561030157600080fd5b5061014f60065481565b34801561031757600080fd5b50610137610326366004610ce8565b610678565b34801561033757600080fd5b50610137610346366004610bdc565b610697565b34801561035757600080fd5b5061036b610366366004610d9a565b610715565b604051610159929190610dee565b610381610926565b600154604051621cb65b60e51b815263ffffffff831660048201526001600160a01b0390911690630396cb609034906024016000604051808303818588803b1580156103cc57600080fd5b505af11580156103e0573d6000803e3d6000fd5b505050505050565b6103f0610926565b60015460405163040b850f60e31b81526001600160a01b038481166004830152602482018490529091169063205c287890604401600060405180830381600087803b1580156103cc57600080fd5b610446610926565b600180546001600160a01b0319166001600160a01b0392909216919091179055565b610470610926565b61047a6000610980565b565b6003818154811061048c57600080fd5b6000918252602090912001546001600160a01b0316905081565b6104ae6109d0565b6104ba848484846109e7565b50505050565b6104c8610926565b600160009054906101000a90046001600160a01b03166001600160a01b031663bb9fe6bf6040518163ffffffff1660e01b8152600401600060405180830381600087803b15801561051857600080fd5b505af11580156104ba573d6000803e3d6000fd5b610534610926565b60015460405163611d2e7560e11b81526001600160a01b0383811660048301529091169063c23a5cea90602401600060405180830381600087803b15801561057b57600080fd5b505af115801561058f573d6000803e3d6000fd5b5050505050565b6001546040516370a0823160e01b81523060048201526000916001600160a01b0316906370a0823190602401602060405180830381865afa1580156105df573d6000803e3d6000fd5b505050506040513d601f19601f820116820180604052508101906106039190610e43565b905090565b60015460405163b760faf960e01b81523060048201526001600160a01b039091169063b760faf99034906024016000604051808303818588803b15801561057b57600080fd5b610656610926565b600280546001600160a01b0319166001600160a01b0392909216919091179055565b610680610926565b8051610693906003906020840190610af4565b5050565b61069f610926565b6001600160a01b0381166107095760405162461bcd60e51b815260206004820152602660248201527f4f776e61626c653a206e6577206f776e657220697320746865207a65726f206160448201526564647265737360d01b60648201526084015b60405180910390fd5b61071281610980565b50565b6060600080808061072888860189610e5c565b610736916004908290610eaa565b8101906107439190610ed4565b60025492955090935091506001600160a01b03166000816370a0823161076c60208d018d610bdc565b6040516001600160e01b031960e084901b1681526001600160a01b039091166004820152602401602060405180830381865afa1580156107b0573d6000803e3d6000fd5b505050506040513d601f19601f820116820180604052508101906107d49190610e43565b905060018110156107f8576040516374d31a5760e01b815260040160405180910390fd5b61080185610a1f565b61081e576040516315a9bc2760e11b815260040160405180910390fd5b61082b8a60800135610a88565b156108495760405163041828db60e11b815260040160405180910390fd5b61085288610aa4565b1561087057604051633b5d50c560e01b815260040160405180910390fd5b60006001600160a01b038316632162135261088e60208e018e610bdc565b6040516001600160e01b031960e084901b1681526001600160a01b039091166004820152602401602060405180830381865afa1580156108d2573d6000803e3d6000fd5b505050506040513d601f19601f820116820180604052508101906108f69190610f85565b90504261090560008383610abc565b6040805160208101909152600081529d909c509a5050505050505050505050565b6000546001600160a01b0316331461047a5760405162461bcd60e51b815260206004820181905260248201527f4f776e61626c653a2063616c6c6572206973206e6f7420746865206f776e65726044820152606401610700565b600080546001600160a01b038381166001600160a01b0319831681178455604051919092169283917f8be0079c531659141344cd1fd0a4f28419497f9722a3daafe3b4186f6b6457e09190a35050565b6001546001600160a01b0316331461047a57600080fd5b60405162461bcd60e51b815260206004820152600d60248201526c6d757374206f7665727269646560981b6044820152606401610700565b6000805b600354811015610a7f57826001600160a01b031660038281548110610a4a57610a4a610fad565b6000918252602090912001546001600160a01b031603610a6d5750600192915050565b80610a7781610fc3565b915050610a23565b50600092915050565b6000600454600014158015610a9e575060045482115b92915050565b6000600554600014158015610a9e5750506005541090565b600060d08265ffffffffffff16901b60a08465ffffffffffff16901b85610ae4576000610ae7565b60015b60ff161717949350505050565b828054828255906000526020600020908101928215610b49579160200282015b82811115610b4957825182546001600160a01b0319166001600160a01b03909116178255602090920191600190910190610b14565b50610b55929150610b59565b5090565b5b80821115610b555760008155600101610b5a565b600060208284031215610b8057600080fd5b813563ffffffff81168114610b9457600080fd5b9392505050565b6001600160a01b038116811461071257600080fd5b60008060408385031215610bc357600080fd5b8235610bce81610b9b565b946020939093013593505050565b600060208284031215610bee57600080fd5b8135610b9481610b9b565b600060208284031215610c0b57600080fd5b5035919050565b60008060008060608587031215610c2857600080fd5b843560038110610c3757600080fd5b9350602085013567ffffffffffffffff80821115610c5457600080fd5b818701915087601f830112610c6857600080fd5b813581811115610c7757600080fd5b886020828501011115610c8957600080fd5b95986020929092019750949560400135945092505050565b634e487b7160e01b600052604160045260246000fd5b604051601f8201601f1916810167ffffffffffffffff81118282101715610ce057610ce0610ca1565b604052919050565b60006020808385031215610cfb57600080fd5b823567ffffffffffffffff80821115610d1357600080fd5b818501915085601f830112610d2757600080fd5b813581811115610d3957610d39610ca1565b8060051b9150610d4a848301610cb7565b8181529183018401918481019088841115610d6457600080fd5b938501935b83851015610d8e5784359250610d7e83610b9b565b8282529385019390850190610d69565b98975050505050505050565b600080600060608486031215610daf57600080fd5b833567ffffffffffffffff811115610dc657600080fd5b84016101608187031215610dd957600080fd5b95602085013595506040909401359392505050565b604081526000835180604084015260005b81811015610e1c5760208187018101516060868401015201610dff565b506000606082850101526060601f19601f8301168401019150508260208301529392505050565b600060208284031215610e5557600080fd5b5051919050565b6000808335601e19843603018112610e7357600080fd5b83018035915067ffffffffffffffff821115610e8e57600080fd5b602001915036819003821315610ea357600080fd5b9250929050565b60008085851115610eba57600080fd5b83861115610ec757600080fd5b5050820193919092039150565b600080600060608486031215610ee957600080fd5b8335610ef481610b9b565b92506020848101359250604085013567ffffffffffffffff80821115610f1957600080fd5b818701915087601f830112610f2d57600080fd5b813581811115610f3f57610f3f610ca1565b610f51601f8201601f19168501610cb7565b91508082528884828501011115610f6757600080fd5b80848401858401376000848284010152508093505050509250925092565b600060208284031215610f9757600080fd5b815165ffffffffffff81168114610b9457600080fd5b634e487b7160e01b600052603260045260246000fd5b600060018201610fe357634e487b7160e01b600052601160045260246000fd5b506001019056fea264697066735822122032bc5ac0069804d679183ae5e2441c3ca9de736cfa4f6d21794c5f04c2913a6164736f6c63430008130033a264697066735822122044964fab22d87702b3f89b6b0e39ab98226cba07cfd50ae25c5f1cb92d8fa43264736f6c63430008130033",
    "linkReferences": {}
  },
  "methodIdentifiers": {
    "setupDaypass(address,address[],bool,uint256,uint256,uint48,address[])": "62a28dc7"
  },
  "id": 71
}