{
  "abi": [
    {
      "inputs": [],
      "stateMutability": "payable",
      "type": "constructor"
    },
    {
      "inputs": [],
      "name": "IncorrectValue",
      "type": "error"
    },
    {
      "inputs": [],
      "name": "TooManyTokens",
      "type": "error"
    },
    {
      "inputs": [],
      "name": "WithdrawTransfer",
      "type": "error"
    },
    {
      "anonymous": false,
      "inputs": [
        {
          "indexed": true,
          "internalType": "address",
          "name": "owner",
          "type": "address"
        },
        {
          "indexed": true,
          "internalType": "address",
          "name": "approved",
          "type": "address"
        },
        {
          "indexed": true,
          "internalType": "uint256",
          "name": "tokenId",
          "type": "uint256"
        }
      ],
      "name": "Approval",
      "type": "event"
    },
    {
      "anonymous": false,
      "inputs": [
        {
          "indexed": true,
          "internalType": "address",
          "name": "owner",
          "type": "address"
        },
        {
          "indexed": true,
          "internalType": "address",
          "name": "operator",
          "type": "address"
        },
        {
          "indexed": false,
          "internalType": "bool",
          "name": "approved",
          "type": "bool"
        }
      ],
      "name": "ApprovalForAll",
      "type": "event"
    },
    {
      "anonymous": false,
      "inputs": [
        {
          "indexed": true,
          "internalType": "address",
          "name": "previousOwner",
          "type": "address"
        },
        {
          "indexed": true,
          "internalType": "address",
          "name": "newOwner",
          "type": "address"
        }
      ],
      "name": "OwnershipTransferred",
      "type": "event"
    },
    {
      "anonymous": false,
      "inputs": [
        {
          "indexed": true,
          "internalType": "address",
          "name": "from",
          "type": "address"
        },
        {
          "indexed": true,
          "internalType": "address",
          "name": "to",
          "type": "address"
        },
        {
          "indexed": true,
          "internalType": "uint256",
          "name": "tokenId",
          "type": "uint256"
        }
      ],
      "name": "Transfer",
      "type": "event"
    },
    {
      "inputs": [
        {
          "internalType": "address",
          "name": "to",
          "type": "address"
        },
        {
          "internalType": "uint256",
          "name": "tokenId",
          "type": "uint256"
        }
      ],
      "name": "approve",
      "outputs": [],
      "stateMutability": "nonpayable",
      "type": "function"
    },
    {
      "inputs": [
        {
          "internalType": "address",
          "name": "owner",
          "type": "address"
        }
      ],
      "name": "balanceOf",
      "outputs": [
        {
          "internalType": "uint256",
          "name": "",
          "type": "uint256"
        }
      ],
      "stateMutability": "view",
      "type": "function"
    },
    {
      "inputs": [],
      "name": "currentTokenId",
      "outputs": [
        {
          "internalType": "uint256",
          "name": "",
          "type": "uint256"
        }
      ],
      "stateMutability": "view",
      "type": "function"
    },
    {
      "inputs": [
        {
          "internalType": "uint256",
          "name": "tokenId",
          "type": "uint256"
        }
      ],
      "name": "getApproved",
      "outputs": [
        {
          "internalType": "address",
          "name": "",
          "type": "address"
        }
      ],
      "stateMutability": "view",
      "type": "function"
    },
    {
      "inputs": [
        {
          "internalType": "address",
          "name": "owner",
          "type": "address"
        }
      ],
      "name": "hasValidPass",
      "outputs": [
        {
          "internalType": "bool",
          "name": "",
          "type": "bool"
        }
      ],
      "stateMutability": "view",
      "type": "function"
    },
    {
      "inputs": [
        {
          "internalType": "address",
          "name": "owner",
          "type": "address"
        },
        {
          "internalType": "address",
          "name": "operator",
          "type": "address"
        }
      ],
      "name": "isApprovedForAll",
      "outputs": [
        {
          "internalType": "bool",
          "name": "",
          "type": "bool"
        }
      ],
      "stateMutability": "view",
      "type": "function"
    },
    {
      "inputs": [
        {
          "internalType": "uint256",
          "name": "tokenId",
          "type": "uint256"
        }
      ],
      "name": "isPassValid",
      "outputs": [
        {
          "internalType": "bool",
          "name": "",
          "type": "bool"
        }
      ],
      "stateMutability": "view",
      "type": "function"
    },
    {
      "inputs": [],
      "name": "maxTokensPerTxn",
      "outputs": [
        {
          "internalType": "uint256",
          "name": "",
          "type": "uint256"
        }
      ],
      "stateMutability": "view",
      "type": "function"
    },
    {
      "inputs": [
        {
          "internalType": "uint256",
          "name": "quantity",
          "type": "uint256"
        }
      ],
      "name": "mint",
      "outputs": [],
      "stateMutability": "payable",
      "type": "function"
    },
    {
      "inputs": [
        {
          "internalType": "uint256",
          "name": "",
          "type": "uint256"
        }
      ],
      "name": "mintedAt",
      "outputs": [
        {
          "internalType": "uint256",
          "name": "",
          "type": "uint256"
        }
      ],
      "stateMutability": "view",
      "type": "function"
    },
    {
      "inputs": [],
      "name": "name",
      "outputs": [
        {
          "internalType": "string",
          "name": "",
          "type": "string"
        }
      ],
      "stateMutability": "view",
      "type": "function"
    },
    {
      "inputs": [],
      "name": "owner",
      "outputs": [
        {
          "internalType": "address",
          "name": "",
          "type": "address"
        }
      ],
      "stateMutability": "view",
      "type": "function"
    },
    {
      "inputs": [
        {
          "internalType": "uint256",
          "name": "tokenId",
          "type": "uint256"
        }
      ],
      "name": "ownerOf",
      "outputs": [
        {
          "internalType": "address",
          "name": "",
          "type": "address"
        }
      ],
      "stateMutability": "view",
      "type": "function"
    },
    {
      "inputs": [],
      "name": "renounceOwnership",
      "outputs": [],
      "stateMutability": "nonpayable",
      "type": "function"
    },
    {
      "inputs": [
        {
          "internalType": "address",
          "name": "from",
          "type": "address"
        },
        {
          "internalType": "address",
          "name": "to",
          "type": "address"
        },
        {
          "internalType": "uint256",
          "name": "tokenId",
          "type": "uint256"
        }
      ],
      "name": "safeTransferFrom",
      "outputs": [],
      "stateMutability": "nonpayable",
      "type": "function"
    },
    {
      "inputs": [
        {
          "internalType": "address",
          "name": "from",
          "type": "address"
        },
        {
          "internalType": "address",
          "name": "to",
          "type": "address"
        },
        {
          "internalType": "uint256",
          "name": "tokenId",
          "type": "uint256"
        },
        {
          "internalType": "bytes",
          "name": "data",
          "type": "bytes"
        }
      ],
      "name": "safeTransferFrom",
      "outputs": [],
      "stateMutability": "nonpayable",
      "type": "function"
    },
    {
      "inputs": [],
      "name": "salePrice",
      "outputs": [
        {
          "internalType": "uint256",
          "name": "",
          "type": "uint256"
        }
      ],
      "stateMutability": "view",
      "type": "function"
    },
    {
      "inputs": [
        {
          "internalType": "address",
          "name": "operator",
          "type": "address"
        },
        {
          "internalType": "bool",
          "name": "approved",
          "type": "bool"
        }
      ],
      "name": "setApprovalForAll",
      "outputs": [],
      "stateMutability": "nonpayable",
      "type": "function"
    },
    {
      "inputs": [
        {
          "internalType": "string",
          "name": "baseURI",
          "type": "string"
        }
      ],
      "name": "setBaseURI",
      "outputs": [],
      "stateMutability": "nonpayable",
      "type": "function"
    },
    {
      "inputs": [
        {
          "internalType": "uint256",
          "name": "price",
          "type": "uint256"
        }
      ],
      "name": "setSalePrice",
      "outputs": [],
      "stateMutability": "nonpayable",
      "type": "function"
    },
    {
      "inputs": [
        {
          "internalType": "bytes4",
          "name": "interfaceId",
          "type": "bytes4"
        }
      ],
      "name": "supportsInterface",
      "outputs": [
        {
          "internalType": "bool",
          "name": "",
          "type": "bool"
        }
      ],
      "stateMutability": "view",
      "type": "function"
    },
    {
      "inputs": [],
      "name": "symbol",
      "outputs": [
        {
          "internalType": "string",
          "name": "",
          "type": "string"
        }
      ],
      "stateMutability": "view",
      "type": "function"
    },
    {
      "inputs": [
        {
          "internalType": "uint256",
          "name": "index",
          "type": "uint256"
        }
      ],
      "name": "tokenByIndex",
      "outputs": [
        {
          "internalType": "uint256",
          "name": "",
          "type": "uint256"
        }
      ],
      "stateMutability": "view",
      "type": "function"
    },
    {
      "inputs": [
        {
          "internalType": "address",
          "name": "owner",
          "type": "address"
        },
        {
          "internalType": "uint256",
          "name": "index",
          "type": "uint256"
        }
      ],
      "name": "tokenOfOwnerByIndex",
      "outputs": [
        {
          "internalType": "uint256",
          "name": "",
          "type": "uint256"
        }
      ],
      "stateMutability": "view",
      "type": "function"
    },
    {
      "inputs": [
        {
          "internalType": "uint256",
          "name": "tokenId",
          "type": "uint256"
        }
      ],
      "name": "tokenURI",
      "outputs": [
        {
          "internalType": "string",
          "name": "",
          "type": "string"
        }
      ],
      "stateMutability": "view",
      "type": "function"
    },
    {
      "inputs": [],
      "name": "totalSupply",
      "outputs": [
        {
          "internalType": "uint256",
          "name": "",
          "type": "uint256"
        }
      ],
      "stateMutability": "view",
      "type": "function"
    },
    {
      "inputs": [
        {
          "internalType": "address",
          "name": "from",
          "type": "address"
        },
        {
          "internalType": "address",
          "name": "to",
          "type": "address"
        },
        {
          "internalType": "uint256",
          "name": "tokenId",
          "type": "uint256"
        }
      ],
      "name": "transferFrom",
      "outputs": [],
      "stateMutability": "nonpayable",
      "type": "function"
    },
    {
      "inputs": [
        {
          "internalType": "address",
          "name": "newOwner",
          "type": "address"
        }
      ],
      "name": "transferOwnership",
      "outputs": [],
      "stateMutability": "nonpayable",
      "type": "function"
    },
    {
      "inputs": [],
      "name": "uri",
      "outputs": [
        {
          "internalType": "string",
          "name": "",
          "type": "string"
        }
      ],
      "stateMutability": "view",
      "type": "function"
    },
    {
      "inputs": [
        {
          "internalType": "address payable",
          "name": "payee",
          "type": "address"
        }
      ],
      "name": "withdrawPayments",
      "outputs": [],
      "stateMutability": "nonpayable",
      "type": "function"
    }
  ],
  "bytecode": {
    "object": "0x6000600b556006600c5561010060405260506080818152906200213660a039600e906200002d9082620001aa565b50604051806040016040528060078152602001664461797061737360c81b81525060405180604001604052806005815260200164445041535360d81b81525081600090816200007d9190620001aa565b5060016200008c8282620001aa565b505050620000a9620000a3620000af60201b60201c565b620000b3565b62000276565b3390565b600a80546001600160a01b038381166001600160a01b0319831681179093556040519116919082907f8be0079c531659141344cd1fd0a4f28419497f9722a3daafe3b4186f6b6457e090600090a35050565b634e487b7160e01b600052604160045260246000fd5b600181811c908216806200013057607f821691505b6020821081036200015157634e487b7160e01b600052602260045260246000fd5b50919050565b601f821115620001a557600081815260208120601f850160051c81016020861015620001805750805b601f850160051c820191505b81811015620001a1578281556001016200018c565b5050505b505050565b81516001600160401b03811115620001c657620001c662000105565b620001de81620001d784546200011b565b8462000157565b602080601f831160018114620002165760008415620001fd5750858301515b600019600386901b1c1916600185901b178555620001a1565b600085815260208120601f198616915b82811015620002475788860151825594840194600190910190840162000226565b5085821015620002665787850151600019600388901b60f8161c191681555b5050505050600190811b01905550565b611eb080620002866000396000f3fe6080604052600436106101cc5760003560e01c80636352211e116100f7578063b88d4fde11610095578063f1b0aa1511610064578063f1b0aa1514610534578063f2fde38b14610561578063f34341c714610581578063f51f96dd1461059757600080fd5b8063b88d4fde14610496578063c87b56dd146104b6578063e985e9c5146104d6578063eac989f81461051f57600080fd5b80638da5cb5b116100d15780638da5cb5b1461043057806395d89b411461044e578063a0712d6814610463578063a22cb4651461047657600080fd5b80636352211e146103db57806370a08231146103fb578063715018a61461041b57600080fd5b80631919fed71161016f57806342842e0e1161013e57806342842e0e1461035b57806348c6195d1461037b5780634f6ccce71461039b57806355f804b3146103bb57600080fd5b80631919fed7146102db57806323b872dd146102fb5780632f745c591461031b57806331b3eb941461033b57600080fd5b8063081812fc116101ab578063081812fc1461024c578063095ea7b31461028457806318160ddd146102a657806318dbe6b0146102bb57600080fd5b80629a9b7b146101d157806301ffc9a7146101fa57806306fdde031461022a575b600080fd5b3480156101dd57600080fd5b506101e7600d5481565b6040519081526020015b60405180910390f35b34801561020657600080fd5b5061021a610215366004611853565b6105ad565b60405190151581526020016101f1565b34801561023657600080fd5b5061023f6105d8565b6040516101f191906118bd565b34801561025857600080fd5b5061026c6102673660046118d0565b61066a565b6040516001600160a01b0390911681526020016101f1565b34801561029057600080fd5b506102a461029f3660046118fe565b610691565b005b3480156102b257600080fd5b506008546101e7565b3480156102c757600080fd5b5061021a6102d636600461192a565b6107ab565b3480156102e757600080fd5b506102a46102f63660046118d0565b610808565b34801561030757600080fd5b506102a4610316366004611947565b610815565b34801561032757600080fd5b506101e76103363660046118fe565b610846565b34801561034757600080fd5b506102a461035636600461192a565b6108dc565b34801561036757600080fd5b506102a4610376366004611947565b610958565b34801561038757600080fd5b5061021a6103963660046118d0565b610973565b3480156103a757600080fd5b506101e76103b63660046118d0565b6109a1565b3480156103c757600080fd5b506102a46103d6366004611988565b610a34565b3480156103e757600080fd5b5061026c6103f63660046118d0565b610a49565b34801561040757600080fd5b506101e761041636600461192a565b610aa9565b34801561042757600080fd5b506102a4610b2f565b34801561043c57600080fd5b50600a546001600160a01b031661026c565b34801561045a57600080fd5b5061023f610b43565b6102a46104713660046118d0565b610b52565b34801561048257600080fd5b506102a46104913660046119fa565b610bfc565b3480156104a257600080fd5b506102a46104b1366004611a4e565b610c0b565b3480156104c257600080fd5b5061023f6104d13660046118d0565b610c3d565b3480156104e257600080fd5b5061021a6104f1366004611b2e565b6001600160a01b03918216600090815260056020908152604080832093909416825291909152205460ff1690565b34801561052b57600080fd5b5061023f610cd1565b34801561054057600080fd5b506101e761054f3660046118d0565b600f6020526000908152604090205481565b34801561056d57600080fd5b506102a461057c36600461192a565b610d5f565b34801561058d57600080fd5b506101e7600c5481565b3480156105a357600080fd5b506101e7600b5481565b60006001600160e01b0319821663780e9d6360e01b14806105d257506105d282610dd8565b92915050565b6060600080546105e790611b5c565b80601f016020809104026020016040519081016040528092919081815260200182805461061390611b5c565b80156106605780601f1061063557610100808354040283529160200191610660565b820191906000526020600020905b81548152906001019060200180831161064357829003601f168201915b5050505050905090565b600061067582610e28565b506000908152600460205260409020546001600160a01b031690565b600061069c82610a49565b9050806001600160a01b0316836001600160a01b03160361070e5760405162461bcd60e51b815260206004820152602160248201527f4552433732313a20617070726f76616c20746f2063757272656e74206f776e656044820152603960f91b60648201526084015b60405180910390fd5b336001600160a01b038216148061072a575061072a81336104f1565b61079c5760405162461bcd60e51b815260206004820152603d60248201527f4552433732313a20617070726f76652063616c6c6572206973206e6f7420746f60448201527f6b656e206f776e6572206f7220617070726f76656420666f7220616c6c0000006064820152608401610705565b6107a68383610e87565b505050565b6000806107b783610aa9565b905060005b818110156107fe5760006107d08583610846565b90506107db81610973565b156107eb57506001949350505050565b50806107f681611bac565b9150506107bc565b5060009392505050565b610810610ef5565b600b55565b61081f3382610f4f565b61083b5760405162461bcd60e51b815260040161070590611bc5565b6107a6838383610fce565b600061085183610aa9565b82106108b35760405162461bcd60e51b815260206004820152602b60248201527f455243373231456e756d657261626c653a206f776e657220696e646578206f7560448201526a74206f6620626f756e647360a81b6064820152608401610705565b506001600160a01b03919091166000908152600660209081526040808320938352929052205490565b6108e4610ef5565b60405147906000906001600160a01b0384169083908381818185875af1925050503d8060008114610931576040519150601f19603f3d011682016040523d82523d6000602084013e610936565b606091505b50509050806107a65760405163d23a9e8960e01b815260040160405180910390fd5b6107a683838360405180602001604052806000815250610c0b565b6000818152600f60205260408120546203f4806109908183611c12565b4210156107fe575060019392505050565b60006109ac60085490565b8210610a0f5760405162461bcd60e51b815260206004820152602c60248201527f455243373231456e756d657261626c653a20676c6f62616c20696e646578206f60448201526b7574206f6620626f756e647360a01b6064820152608401610705565b60088281548110610a2257610a22611c25565b90600052602060002001549050919050565b610a3c610ef5565b600e6107a6828483611c89565b6000818152600260205260408120546001600160a01b0316806105d25760405162461bcd60e51b8152602060048201526018602482015277115490cdcc8c4e881a5b9d985b1a59081d1bdad95b88125160421b6044820152606401610705565b60006001600160a01b038216610b135760405162461bcd60e51b815260206004820152602960248201527f4552433732313a2061646472657373207a65726f206973206e6f7420612076616044820152683634b21037bbb732b960b91b6064820152608401610705565b506001600160a01b031660009081526003602052604090205490565b610b37610ef5565b610b41600061113f565b565b6060600180546105e790611b5c565b80600c54811115610b7657604051633a4733d960e11b815260040160405180910390fd5b813481600b54610b869190611d49565b14610ba457604051636956f2ab60e11b815260040160405180910390fd5b60005b83811015610bf657600d8054906000610bbf83611bac565b9190505550610bd033600d54611191565b600d546000908152600f6020526040902042905580610bee81611bac565b915050610ba7565b50505050565b610c073383836111ab565b5050565b610c153383610f4f565b610c315760405162461bcd60e51b815260040161070590611bc5565b610bf684848484611279565b6060600e8054610c4c90611b5c565b80601f0160208091040260200160405190810160405280929190818152602001828054610c7890611b5c565b8015610cc55780601f10610c9a57610100808354040283529160200191610cc5565b820191906000526020600020905b815481529060010190602001808311610ca857829003601f168201915b50505050509050919050565b600e8054610cde90611b5c565b80601f0160208091040260200160405190810160405280929190818152602001828054610d0a90611b5c565b8015610d575780601f10610d2c57610100808354040283529160200191610d57565b820191906000526020600020905b815481529060010190602001808311610d3a57829003601f168201915b505050505081565b610d67610ef5565b6001600160a01b038116610dcc5760405162461bcd60e51b815260206004820152602660248201527f4f776e61626c653a206e6577206f776e657220697320746865207a65726f206160448201526564647265737360d01b6064820152608401610705565b610dd58161113f565b50565b60006001600160e01b031982166380ac58cd60e01b1480610e0957506001600160e01b03198216635b5e139f60e01b145b806105d257506301ffc9a760e01b6001600160e01b03198316146105d2565b6000818152600260205260409020546001600160a01b0316610dd55760405162461bcd60e51b8152602060048201526018602482015277115490cdcc8c4e881a5b9d985b1a59081d1bdad95b88125160421b6044820152606401610705565b600081815260046020526040902080546001600160a01b0319166001600160a01b0384169081179091558190610ebc82610a49565b6001600160a01b03167f8c5be1e5ebec7d5bd14f71427d1e84f3dd0314c0f7b2291e5b200ac8c7c3b92560405160405180910390a45050565b600a546001600160a01b03163314610b415760405162461bcd60e51b815260206004820181905260248201527f4f776e61626c653a2063616c6c6572206973206e6f7420746865206f776e65726044820152606401610705565b600080610f5b83610a49565b9050806001600160a01b0316846001600160a01b03161480610fa257506001600160a01b0380821660009081526005602090815260408083209388168352929052205460ff165b80610fc65750836001600160a01b0316610fbb8461066a565b6001600160a01b0316145b949350505050565b826001600160a01b0316610fe182610a49565b6001600160a01b0316146110075760405162461bcd60e51b815260040161070590611d60565b6001600160a01b0382166110695760405162461bcd60e51b8152602060048201526024808201527f4552433732313a207472616e7366657220746f20746865207a65726f206164646044820152637265737360e01b6064820152608401610705565b61107683838360016112ac565b826001600160a01b031661108982610a49565b6001600160a01b0316146110af5760405162461bcd60e51b815260040161070590611d60565b600081815260046020908152604080832080546001600160a01b03199081169091556001600160a01b0387811680865260038552838620805460001901905590871680865283862080546001019055868652600290945282852080549092168417909155905184937fddf252ad1be2c89b69c2b068fc378daa952ba7f163c4a11628f55a4df523b3ef91a4505050565b600a80546001600160a01b038381166001600160a01b0319831681179093556040519116919082907f8be0079c531659141344cd1fd0a4f28419497f9722a3daafe3b4186f6b6457e090600090a35050565b610c078282604051806020016040528060008152506113e0565b816001600160a01b0316836001600160a01b03160361120c5760405162461bcd60e51b815260206004820152601960248201527f4552433732313a20617070726f766520746f2063616c6c6572000000000000006044820152606401610705565b6001600160a01b03838116600081815260056020908152604080832094871680845294825291829020805460ff191686151590811790915591519182527f17307eab39ab6107e8899845ad3d59bd9653f200f220920489ca2b5937696c31910160405180910390a3505050565b611284848484610fce565b61129084848484611413565b610bf65760405162461bcd60e51b815260040161070590611da5565b600181111561131b5760405162461bcd60e51b815260206004820152603560248201527f455243373231456e756d657261626c653a20636f6e7365637574697665207472604482015274185b9cd9995c9cc81b9bdd081cdd5c1c1bdc9d1959605a1b6064820152608401610705565b816001600160a01b0385166113775761137281600880546000838152600960205260408120829055600182018355919091527ff3f7a9fe364faab93b216da50a3214154f22a0a2b415b23a84c8169e8b636ee30155565b61139a565b836001600160a01b0316856001600160a01b03161461139a5761139a8582611514565b6001600160a01b0384166113b6576113b1816115b1565b6113d9565b846001600160a01b0316846001600160a01b0316146113d9576113d98482611660565b5050505050565b6113ea83836116a4565b6113f76000848484611413565b6107a65760405162461bcd60e51b815260040161070590611da5565b60006001600160a01b0384163b1561150957604051630a85bd0160e11b81526001600160a01b0385169063150b7a0290611457903390899088908890600401611df7565b6020604051808303816000875af1925050508015611492575060408051601f3d908101601f1916820190925261148f91810190611e34565b60015b6114ef573d8080156114c0576040519150601f19603f3d011682016040523d82523d6000602084013e6114c5565b606091505b5080516000036114e75760405162461bcd60e51b815260040161070590611da5565b805181602001fd5b6001600160e01b031916630a85bd0160e11b149050610fc6565b506001949350505050565b6000600161152184610aa9565b61152b9190611e51565b60008381526007602052604090205490915080821461157e576001600160a01b03841660009081526006602090815260408083208584528252808320548484528184208190558352600790915290208190555b5060009182526007602090815260408084208490556001600160a01b039094168352600681528383209183525290812055565b6008546000906115c390600190611e51565b600083815260096020526040812054600880549394509092849081106115eb576115eb611c25565b90600052602060002001549050806008838154811061160c5761160c611c25565b600091825260208083209091019290925582815260099091526040808220849055858252812055600880548061164457611644611e64565b6001900381819060005260206000200160009055905550505050565b600061166b83610aa9565b6001600160a01b039093166000908152600660209081526040808320868452825280832085905593825260079052919091209190915550565b6001600160a01b0382166116fa5760405162461bcd60e51b815260206004820181905260248201527f4552433732313a206d696e7420746f20746865207a65726f20616464726573736044820152606401610705565b6000818152600260205260409020546001600160a01b03161561175f5760405162461bcd60e51b815260206004820152601c60248201527f4552433732313a20746f6b656e20616c7265616479206d696e746564000000006044820152606401610705565b61176d6000838360016112ac565b6000818152600260205260409020546001600160a01b0316156117d25760405162461bcd60e51b815260206004820152601c60248201527f4552433732313a20746f6b656e20616c7265616479206d696e746564000000006044820152606401610705565b6001600160a01b038216600081815260036020908152604080832080546001019055848352600290915280822080546001600160a01b0319168417905551839291907fddf252ad1be2c89b69c2b068fc378daa952ba7f163c4a11628f55a4df523b3ef908290a45050565b6001600160e01b031981168114610dd557600080fd5b60006020828403121561186557600080fd5b81356118708161183d565b9392505050565b6000815180845260005b8181101561189d57602081850181015186830182015201611881565b506000602082860101526020601f19601f83011685010191505092915050565b6020815260006118706020830184611877565b6000602082840312156118e257600080fd5b5035919050565b6001600160a01b0381168114610dd557600080fd5b6000806040838503121561191157600080fd5b823561191c816118e9565b946020939093013593505050565b60006020828403121561193c57600080fd5b8135611870816118e9565b60008060006060848603121561195c57600080fd5b8335611967816118e9565b92506020840135611977816118e9565b929592945050506040919091013590565b6000806020838503121561199b57600080fd5b823567ffffffffffffffff808211156119b357600080fd5b818501915085601f8301126119c757600080fd5b8135818111156119d657600080fd5b8660208285010111156119e857600080fd5b60209290920196919550909350505050565b60008060408385031215611a0d57600080fd5b8235611a18816118e9565b915060208301358015158114611a2d57600080fd5b809150509250929050565b634e487b7160e01b600052604160045260246000fd5b60008060008060808587031215611a6457600080fd5b8435611a6f816118e9565b93506020850135611a7f816118e9565b925060408501359150606085013567ffffffffffffffff80821115611aa357600080fd5b818701915087601f830112611ab757600080fd5b813581811115611ac957611ac9611a38565b604051601f8201601f19908116603f01168101908382118183101715611af157611af1611a38565b816040528281528a6020848701011115611b0a57600080fd5b82602086016020830137600060208483010152809550505050505092959194509250565b60008060408385031215611b4157600080fd5b8235611b4c816118e9565b91506020830135611a2d816118e9565b600181811c90821680611b7057607f821691505b602082108103611b9057634e487b7160e01b600052602260045260246000fd5b50919050565b634e487b7160e01b600052601160045260246000fd5b600060018201611bbe57611bbe611b96565b5060010190565b6020808252602d908201527f4552433732313a2063616c6c6572206973206e6f7420746f6b656e206f776e6560408201526c1c881bdc88185c1c1c9bdd9959609a1b606082015260800190565b808201808211156105d2576105d2611b96565b634e487b7160e01b600052603260045260246000fd5b601f8211156107a657600081815260208120601f850160051c81016020861015611c625750805b601f850160051c820191505b81811015611c8157828155600101611c6e565b505050505050565b67ffffffffffffffff831115611ca157611ca1611a38565b611cb583611caf8354611b5c565b83611c3b565b6000601f841160018114611ce95760008515611cd15750838201355b600019600387901b1c1916600186901b1783556113d9565b600083815260209020601f19861690835b82811015611d1a5786850135825560209485019460019092019101611cfa565b5086821015611d375760001960f88860031b161c19848701351681555b505060018560011b0183555050505050565b80820281158282048414176105d2576105d2611b96565b60208082526025908201527f4552433732313a207472616e736665722066726f6d20696e636f72726563742060408201526437bbb732b960d91b606082015260800190565b60208082526032908201527f4552433732313a207472616e7366657220746f206e6f6e20455243373231526560408201527131b2b4bb32b91034b6b83632b6b2b73a32b960711b606082015260800190565b6001600160a01b0385811682528416602082015260408101839052608060608201819052600090611e2a90830184611877565b9695505050505050565b600060208284031215611e4657600080fd5b81516118708161183d565b818103818111156105d2576105d2611b96565b634e487b7160e01b600052603160045260246000fdfea264697066735822122095070128756b586b9bf2e4ff132ecc97c985fab1b09df9e279f83be1b30efb8b64736f6c6343000813003368747470733a2f2f676174657761792e70696e6174612e636c6f75642f697066732f516d50757835516779504866786a7543426631474c36626e6259526f44647a7768395547646e7a32555878353844",
    "linkReferences": {}
  },
  "methodIdentifiers": {
    "approve(address,uint256)": "095ea7b3",
    "balanceOf(address)": "70a08231",
    "currentTokenId()": "009a9b7b",
    "getApproved(uint256)": "081812fc",
    "hasValidPass(address)": "18dbe6b0",
    "isApprovedForAll(address,address)": "e985e9c5",
    "isPassValid(uint256)": "48c6195d",
    "maxTokensPerTxn()": "f34341c7",
    "mint(uint256)": "a0712d68",
    "mintedAt(uint256)": "f1b0aa15",
    "name()": "06fdde03",
    "owner()": "8da5cb5b",
    "ownerOf(uint256)": "6352211e",
    "renounceOwnership()": "715018a6",
    "safeTransferFrom(address,address,uint256)": "42842e0e",
    "safeTransferFrom(address,address,uint256,bytes)": "b88d4fde",
    "salePrice()": "f51f96dd",
    "setApprovalForAll(address,bool)": "a22cb465",
    "setBaseURI(string)": "55f804b3",
    "setSalePrice(uint256)": "1919fed7",
    "supportsInterface(bytes4)": "01ffc9a7",
    "symbol()": "95d89b41",
    "tokenByIndex(uint256)": "4f6ccce7",
    "tokenOfOwnerByIndex(address,uint256)": "2f745c59",
    "tokenURI(uint256)": "c87b56dd",
    "totalSupply()": "18160ddd",
    "transferFrom(address,address,uint256)": "23b872dd",
    "transferOwnership(address)": "f2fde38b",
    "uri()": "eac989f8",
    "withdrawPayments(address)": "31b3eb94"
  },
  "id": 59
}