{
  "abi": [
    {
      "inputs": [
        {
          "internalType": "string",
          "name": "name",
          "type": "string"
        },
        {
          "internalType": "string",
          "name": "symbol",
          "type": "string"
        },
        {
          "internalType": "bool",
          "name": "_isTransferable",
          "type": "bool"
        }
      ],
      "stateMutability": "payable",
      "type": "constructor"
    },
    {
      "inputs": [],
      "name": "IncorrectValue",
      "type": "error"
    },
    {
      "inputs": [],
      "name": "NotTransferable",
      "type": "error"
    },
    {
      "inputs": [],
      "name": "TooManyTokens",
      "type": "error"
    },
    {
      "inputs": [],
      "name": "WithdrawTransfer",
      "type": "error"
    },
    {
      "anonymous": false,
      "inputs": [
        {
          "indexed": true,
          "internalType": "address",
          "name": "owner",
          "type": "address"
        },
        {
          "indexed": true,
          "internalType": "address",
          "name": "approved",
          "type": "address"
        },
        {
          "indexed": true,
          "internalType": "uint256",
          "name": "tokenId",
          "type": "uint256"
        }
      ],
      "name": "Approval",
      "type": "event"
    },
    {
      "anonymous": false,
      "inputs": [
        {
          "indexed": true,
          "internalType": "address",
          "name": "owner",
          "type": "address"
        },
        {
          "indexed": true,
          "internalType": "address",
          "name": "operator",
          "type": "address"
        },
        {
          "indexed": false,
          "internalType": "bool",
          "name": "approved",
          "type": "bool"
        }
      ],
      "name": "ApprovalForAll",
      "type": "event"
    },
    {
      "anonymous": false,
      "inputs": [
        {
          "indexed": true,
          "internalType": "address",
          "name": "previousOwner",
          "type": "address"
        },
        {
          "indexed": true,
          "internalType": "address",
          "name": "newOwner",
          "type": "address"
        }
      ],
      "name": "OwnershipTransferred",
      "type": "event"
    },
    {
      "anonymous": false,
      "inputs": [
        {
          "indexed": true,
          "internalType": "address",
          "name": "from",
          "type": "address"
        },
        {
          "indexed": true,
          "internalType": "address",
          "name": "to",
          "type": "address"
        },
        {
          "indexed": true,
          "internalType": "uint256",
          "name": "tokenId",
          "type": "uint256"
        }
      ],
      "name": "Transfer",
      "type": "event"
    },
    {
      "inputs": [
        {
          "internalType": "address",
          "name": "to",
          "type": "address"
        },
        {
          "internalType": "uint256",
          "name": "tokenId",
          "type": "uint256"
        }
      ],
      "name": "approve",
      "outputs": [],
      "stateMutability": "nonpayable",
      "type": "function"
    },
    {
      "inputs": [
        {
          "internalType": "address",
          "name": "owner",
          "type": "address"
        }
      ],
      "name": "balanceOf",
      "outputs": [
        {
          "internalType": "uint256",
          "name": "",
          "type": "uint256"
        }
      ],
      "stateMutability": "view",
      "type": "function"
    },
    {
      "inputs": [],
      "name": "currentTokenId",
      "outputs": [
        {
          "internalType": "uint256",
          "name": "",
          "type": "uint256"
        }
      ],
      "stateMutability": "view",
      "type": "function"
    },
    {
      "inputs": [
        {
          "internalType": "uint256",
          "name": "tokenId",
          "type": "uint256"
        }
      ],
      "name": "getApproved",
      "outputs": [
        {
          "internalType": "address",
          "name": "",
          "type": "address"
        }
      ],
      "stateMutability": "view",
      "type": "function"
    },
    {
      "inputs": [],
      "name": "getIsTransferable",
      "outputs": [
        {
          "internalType": "bool",
          "name": "",
          "type": "bool"
        }
      ],
      "stateMutability": "view",
      "type": "function"
    },
    {
      "inputs": [
        {
          "internalType": "uint256",
          "name": "tokenId",
          "type": "uint256"
        }
      ],
      "name": "getMintedAt",
      "outputs": [
        {
          "internalType": "uint256",
          "name": "",
          "type": "uint256"
        }
      ],
      "stateMutability": "view",
      "type": "function"
    },
    {
      "inputs": [
        {
          "internalType": "address",
          "name": "owner",
          "type": "address"
        }
      ],
      "name": "hasValidPass",
      "outputs": [
        {
          "internalType": "bool",
          "name": "",
          "type": "bool"
        }
      ],
      "stateMutability": "view",
      "type": "function"
    },
    {
      "inputs": [
        {
          "internalType": "address",
          "name": "owner",
          "type": "address"
        },
        {
          "internalType": "address",
          "name": "operator",
          "type": "address"
        }
      ],
      "name": "isApprovedForAll",
      "outputs": [
        {
          "internalType": "bool",
          "name": "",
          "type": "bool"
        }
      ],
      "stateMutability": "view",
      "type": "function"
    },
    {
      "inputs": [
        {
          "internalType": "uint256",
          "name": "tokenId",
          "type": "uint256"
        }
      ],
      "name": "isPassValid",
      "outputs": [
        {
          "internalType": "bool",
          "name": "",
          "type": "bool"
        }
      ],
      "stateMutability": "view",
      "type": "function"
    },
    {
      "inputs": [],
      "name": "maxTokensPerTxn",
      "outputs": [
        {
          "internalType": "uint256",
          "name": "",
          "type": "uint256"
        }
      ],
      "stateMutability": "view",
      "type": "function"
    },
    {
      "inputs": [
        {
          "internalType": "uint256",
          "name": "quantity",
          "type": "uint256"
        }
      ],
      "name": "mint",
      "outputs": [],
      "stateMutability": "payable",
      "type": "function"
    },
    {
      "inputs": [
        {
          "internalType": "uint256",
          "name": "quantity",
          "type": "uint256"
        },
        {
          "internalType": "address",
          "name": "recipient",
          "type": "address"
        }
      ],
      "name": "mintTo",
      "outputs": [],
      "stateMutability": "payable",
      "type": "function"
    },
    {
      "inputs": [
        {
          "internalType": "uint256",
          "name": "",
          "type": "uint256"
        }
      ],
      "name": "mintedAt",
      "outputs": [
        {
          "internalType": "uint256",
          "name": "",
          "type": "uint256"
        }
      ],
      "stateMutability": "view",
      "type": "function"
    },
    {
      "inputs": [],
      "name": "name",
      "outputs": [
        {
          "internalType": "string",
          "name": "",
          "type": "string"
        }
      ],
      "stateMutability": "view",
      "type": "function"
    },
    {
      "inputs": [],
      "name": "owner",
      "outputs": [
        {
          "internalType": "address",
          "name": "",
          "type": "address"
        }
      ],
      "stateMutability": "view",
      "type": "function"
    },
    {
      "inputs": [
        {
          "internalType": "uint256",
          "name": "tokenId",
          "type": "uint256"
        }
      ],
      "name": "ownerOf",
      "outputs": [
        {
          "internalType": "address",
          "name": "",
          "type": "address"
        }
      ],
      "stateMutability": "view",
      "type": "function"
    },
    {
      "inputs": [],
      "name": "renounceOwnership",
      "outputs": [],
      "stateMutability": "nonpayable",
      "type": "function"
    },
    {
      "inputs": [
        {
          "internalType": "address",
          "name": "from",
          "type": "address"
        },
        {
          "internalType": "address",
          "name": "to",
          "type": "address"
        },
        {
          "internalType": "uint256",
          "name": "tokenId",
          "type": "uint256"
        }
      ],
      "name": "safeTransferFrom",
      "outputs": [],
      "stateMutability": "nonpayable",
      "type": "function"
    },
    {
      "inputs": [
        {
          "internalType": "address",
          "name": "from",
          "type": "address"
        },
        {
          "internalType": "address",
          "name": "to",
          "type": "address"
        },
        {
          "internalType": "uint256",
          "name": "tokenId",
          "type": "uint256"
        },
        {
          "internalType": "bytes",
          "name": "data",
          "type": "bytes"
        }
      ],
      "name": "safeTransferFrom",
      "outputs": [],
      "stateMutability": "nonpayable",
      "type": "function"
    },
    {
      "inputs": [],
      "name": "salePrice",
      "outputs": [
        {
          "internalType": "uint256",
          "name": "",
          "type": "uint256"
        }
      ],
      "stateMutability": "view",
      "type": "function"
    },
    {
      "inputs": [
        {
          "internalType": "address",
          "name": "operator",
          "type": "address"
        },
        {
          "internalType": "bool",
          "name": "approved",
          "type": "bool"
        }
      ],
      "name": "setApprovalForAll",
      "outputs": [],
      "stateMutability": "nonpayable",
      "type": "function"
    },
    {
      "inputs": [
        {
          "internalType": "string",
          "name": "baseURI",
          "type": "string"
        }
      ],
      "name": "setBaseURI",
      "outputs": [],
      "stateMutability": "nonpayable",
      "type": "function"
    },
    {
      "inputs": [
        {
          "internalType": "uint256",
          "name": "price",
          "type": "uint256"
        }
      ],
      "name": "setSalePrice",
      "outputs": [],
      "stateMutability": "nonpayable",
      "type": "function"
    },
    {
      "inputs": [
        {
          "internalType": "bytes4",
          "name": "interfaceId",
          "type": "bytes4"
        }
      ],
      "name": "supportsInterface",
      "outputs": [
        {
          "internalType": "bool",
          "name": "",
          "type": "bool"
        }
      ],
      "stateMutability": "view",
      "type": "function"
    },
    {
      "inputs": [],
      "name": "symbol",
      "outputs": [
        {
          "internalType": "string",
          "name": "",
          "type": "string"
        }
      ],
      "stateMutability": "view",
      "type": "function"
    },
    {
      "inputs": [
        {
          "internalType": "uint256",
          "name": "index",
          "type": "uint256"
        }
      ],
      "name": "tokenByIndex",
      "outputs": [
        {
          "internalType": "uint256",
          "name": "",
          "type": "uint256"
        }
      ],
      "stateMutability": "view",
      "type": "function"
    },
    {
      "inputs": [
        {
          "internalType": "address",
          "name": "owner",
          "type": "address"
        },
        {
          "internalType": "uint256",
          "name": "index",
          "type": "uint256"
        }
      ],
      "name": "tokenOfOwnerByIndex",
      "outputs": [
        {
          "internalType": "uint256",
          "name": "",
          "type": "uint256"
        }
      ],
      "stateMutability": "view",
      "type": "function"
    },
    {
      "inputs": [
        {
          "internalType": "uint256",
          "name": "tokenId",
          "type": "uint256"
        }
      ],
      "name": "tokenURI",
      "outputs": [
        {
          "internalType": "string",
          "name": "",
          "type": "string"
        }
      ],
      "stateMutability": "view",
      "type": "function"
    },
    {
      "inputs": [],
      "name": "totalSupply",
      "outputs": [
        {
          "internalType": "uint256",
          "name": "",
          "type": "uint256"
        }
      ],
      "stateMutability": "view",
      "type": "function"
    },
    {
      "inputs": [
        {
          "internalType": "address",
          "name": "from",
          "type": "address"
        },
        {
          "internalType": "address",
          "name": "to",
          "type": "address"
        },
        {
          "internalType": "uint256",
          "name": "tokenId",
          "type": "uint256"
        }
      ],
      "name": "transferFrom",
      "outputs": [],
      "stateMutability": "nonpayable",
      "type": "function"
    },
    {
      "inputs": [
        {
          "internalType": "address",
          "name": "newOwner",
          "type": "address"
        }
      ],
      "name": "transferOwnership",
      "outputs": [],
      "stateMutability": "nonpayable",
      "type": "function"
    },
    {
      "inputs": [],
      "name": "uri",
      "outputs": [
        {
          "internalType": "string",
          "name": "",
          "type": "string"
        }
      ],
      "stateMutability": "view",
      "type": "function"
    },
    {
      "inputs": [
        {
          "internalType": "address payable",
          "name": "payee",
          "type": "address"
        }
      ],
      "name": "withdrawPayments",
      "outputs": [],
      "stateMutability": "nonpayable",
      "type": "function"
    }
  ],
  "bytecode": {
    "object": "0x6000600b556006600c55610100604052605060808181529062002b9660a039600e906200002d9082620001a1565b5060405162002be638038062002be683398101604081905262000050916200031c565b82826000620000608382620001a1565b5060016200006f8282620001a1565b5050506200008c62000086620000a660201b60201c565b620000aa565b600f805460ff191691151591909117905550620003a09050565b3390565b600a80546001600160a01b038381166001600160a01b0319831681179093556040519116919082907f8be0079c531659141344cd1fd0a4f28419497f9722a3daafe3b4186f6b6457e090600090a35050565b634e487b7160e01b600052604160045260246000fd5b600181811c908216806200012757607f821691505b6020821081036200014857634e487b7160e01b600052602260045260246000fd5b50919050565b601f8211156200019c57600081815260208120601f850160051c81016020861015620001775750805b601f850160051c820191505b81811015620001985782815560010162000183565b5050505b505050565b81516001600160401b03811115620001bd57620001bd620000fc565b620001d581620001ce845462000112565b846200014e565b602080601f8311600181146200020d5760008415620001f45750858301515b600019600386901b1c1916600185901b17855562000198565b600085815260208120601f198616915b828110156200023e578886015182559484019460019091019084016200021d565b50858210156200025d5787850151600019600388901b60f8161c191681555b5050505050600190811b01905550565b600082601f8301126200027f57600080fd5b81516001600160401b03808211156200029c576200029c620000fc565b604051601f8301601f19908116603f01168101908282118183101715620002c757620002c7620000fc565b81604052838152602092508683858801011115620002e457600080fd5b600091505b83821015620003085785820183015181830184015290820190620002e9565b600093810190920192909252949350505050565b6000806000606084860312156200033257600080fd5b83516001600160401b03808211156200034a57600080fd5b62000358878388016200026d565b945060208601519150808211156200036f57600080fd5b506200037e868287016200026d565b925050604084015180151581146200039557600080fd5b809150509250925092565b6127e680620003b06000396000f3fe6080604052600436106101ed5760003560e01c806370a082311161010d578063c87b56dd116100a0578063f1b0aa151161006f578063f1b0aa1514610580578063f2fde38b146105ad578063f34341c7146105cd578063f449b34a146105e3578063f51f96dd1461061057600080fd5b8063c87b56dd146104ea578063da16e3581461050a578063e985e9c514610522578063eac989f81461056b57600080fd5b8063a0712d68116100dc578063a0712d6814610484578063a22cb46514610497578063b723b34e146104b7578063b88d4fde146104ca57600080fd5b806370a082311461041c578063715018a61461043c5780638da5cb5b1461045157806395d89b411461046f57600080fd5b806323b872dd1161018557806348c6195d1161015457806348c6195d1461039c5780634f6ccce7146103bc57806355f804b3146103dc5780636352211e146103fc57600080fd5b806323b872dd1461031c5780632f745c591461033c57806331b3eb941461035c57806342842e0e1461037c57600080fd5b8063095ea7b3116101c1578063095ea7b3146102a557806318160ddd146102c757806318dbe6b0146102dc5780631919fed7146102fc57600080fd5b80629a9b7b146101f257806301ffc9a71461021b57806306fdde031461024b578063081812fc1461026d575b600080fd5b3480156101fe57600080fd5b50610208600d5481565b6040519081526020015b60405180910390f35b34801561022757600080fd5b5061023b610236366004611dce565b610626565b6040519015158152602001610212565b34801561025757600080fd5b50610260610651565b6040516102129190611e42565b34801561027957600080fd5b5061028d610288366004611e55565b6106e3565b6040516001600160a01b039091168152602001610212565b3480156102b157600080fd5b506102c56102c0366004611e83565b61070a565b005b3480156102d357600080fd5b50600854610208565b3480156102e857600080fd5b5061023b6102f7366004611eaf565b610824565b34801561030857600080fd5b506102c5610317366004611e55565b610881565b34801561032857600080fd5b506102c5610337366004611ecc565b61088e565b34801561034857600080fd5b50610208610357366004611e83565b6108bf565b34801561036857600080fd5b506102c5610377366004611eaf565b610955565b34801561038857600080fd5b506102c5610397366004611ecc565b6109d1565b3480156103a857600080fd5b5061023b6103b7366004611e55565b6109ec565b3480156103c857600080fd5b506102086103d7366004611e55565b610a1a565b3480156103e857600080fd5b506102c56103f7366004611f0d565b610aad565b34801561040857600080fd5b5061028d610417366004611e55565b610ac2565b34801561042857600080fd5b50610208610437366004611eaf565b610b22565b34801561044857600080fd5b506102c5610ba8565b34801561045d57600080fd5b50600a546001600160a01b031661028d565b34801561047b57600080fd5b50610260610bbc565b6102c5610492366004611e55565b610bcb565b3480156104a357600080fd5b506102c56104b2366004611f7f565b610c27565b6102c56104c5366004611fbd565b610c36565b3480156104d657600080fd5b506102c56104e5366004611ff8565b610c98565b3480156104f657600080fd5b50610260610505366004611e55565b610cca565b34801561051657600080fd5b50600f5460ff1661023b565b34801561052e57600080fd5b5061023b61053d3660046120d8565b6001600160a01b03918216600090815260056020908152604080832093909416825291909152205460ff1690565b34801561057757600080fd5b50610260610f1d565b34801561058c57600080fd5b5061020861059b366004611e55565b60106020526000908152604090205481565b3480156105b957600080fd5b506102c56105c8366004611eaf565b610fab565b3480156105d957600080fd5b50610208600c5481565b3480156105ef57600080fd5b506102086105fe366004611e55565b60009081526010602052604090205490565b34801561061c57600080fd5b50610208600b5481565b60006001600160e01b0319821663780e9d6360e01b148061064b575061064b82611024565b92915050565b60606000805461066090612106565b80601f016020809104026020016040519081016040528092919081815260200182805461068c90612106565b80156106d95780601f106106ae576101008083540402835291602001916106d9565b820191906000526020600020905b8154815290600101906020018083116106bc57829003601f168201915b5050505050905090565b60006106ee82611074565b506000908152600460205260409020546001600160a01b031690565b600061071582610ac2565b9050806001600160a01b0316836001600160a01b0316036107875760405162461bcd60e51b815260206004820152602160248201527f4552433732313a20617070726f76616c20746f2063757272656e74206f776e656044820152603960f91b60648201526084015b60405180910390fd5b336001600160a01b03821614806107a357506107a3813361053d565b6108155760405162461bcd60e51b815260206004820152603d60248201527f4552433732313a20617070726f76652063616c6c6572206973206e6f7420746f60448201527f6b656e206f776e6572206f7220617070726f76656420666f7220616c6c000000606482015260840161077e565b61081f83836110d3565b505050565b60008061083083610b22565b905060005b8181101561087757600061084985836108bf565b9050610854816109ec565b1561086457506001949350505050565b508061086f81612156565b915050610835565b5060009392505050565b610889611141565b600b55565b610898338261119b565b6108b45760405162461bcd60e51b815260040161077e9061216f565b61081f83838361121a565b60006108ca83610b22565b821061092c5760405162461bcd60e51b815260206004820152602b60248201527f455243373231456e756d657261626c653a206f776e657220696e646578206f7560448201526a74206f6620626f756e647360a81b606482015260840161077e565b506001600160a01b03919091166000908152600660209081526040808320938352929052205490565b61095d611141565b60405147906000906001600160a01b0384169083908381818185875af1925050503d80600081146109aa576040519150601f19603f3d011682016040523d82523d6000602084013e6109af565b606091505b505090508061081f5760405163d23a9e8960e01b815260040160405180910390fd5b61081f83838360405180602001604052806000815250610c98565b6000818152601060205260408120546203f480610a0981836121bc565b421015610877575060019392505050565b6000610a2560085490565b8210610a885760405162461bcd60e51b815260206004820152602c60248201527f455243373231456e756d657261626c653a20676c6f62616c20696e646578206f60448201526b7574206f6620626f756e647360a01b606482015260840161077e565b60088281548110610a9b57610a9b6121cf565b90600052602060002001549050919050565b610ab5611141565b600e61081f828483612233565b6000818152600260205260408120546001600160a01b03168061064b5760405162461bcd60e51b8152602060048201526018602482015277115490cdcc8c4e881a5b9d985b1a59081d1bdad95b88125160421b604482015260640161077e565b60006001600160a01b038216610b8c5760405162461bcd60e51b815260206004820152602960248201527f4552433732313a2061646472657373207a65726f206973206e6f7420612076616044820152683634b21037bbb732b960b91b606482015260840161077e565b506001600160a01b031660009081526003602052604090205490565b610bb0611141565b610bba600061138b565b565b60606001805461066090612106565b80600c54811115610bef57604051633a4733d960e11b815260040160405180910390fd5b813481600b54610bff91906122f3565b14610c1d57604051636956f2ab60e11b815260040160405180910390fd5b61081f83336113dd565b610c3233838361142f565b5050565b81600c54811115610c5a57604051633a4733d960e11b815260040160405180910390fd5b823481600b54610c6a91906122f3565b14610c8857604051636956f2ab60e11b815260040160405180910390fd5b610c9284846113dd565b50505050565b610ca2338361119b565b610cbe5760405162461bcd60e51b815260040161077e9061216f565b610c92848484846114fd565b6000818152600260205260409020546060906001600160a01b0316610d495760405162461bcd60e51b815260206004820152602f60248201527f4552433732314d657461646174613a2055524920717565727920666f72206e6f60448201526e3732bc34b9ba32b73a103a37b5b2b760891b606482015260840161077e565b600082815260106020526040812054906203f48090610d6882846121bc565b421015610d8b5742610d7a83856121bc565b610d84919061230a565b9050610d8f565b5060005b6000610d9d610e1083612333565b90506000603c610daf610e1085612347565b610db99190612333565b90506000610dc8603c85612347565b9050610dd2611d91565b604051806101400160405280610114815260200161269d61011491398152610df984611530565b610e0284611530565b610e0b84611530565b604051602001610e1d9392919061235b565b60408051601f19818403018152918152602083810192835281518083018352600d81526c1e17ba32bc3a1f1e17b9bb339f60991b81830152848301819052845193519251600094610e73949093909291016123e2565b60405160208183030381529060405290506000610e8f826115c3565b9050600081604051602001610ea49190612425565b60405160208183030381529060405290506000610ee9610ec38e611530565b83604051602001610ed592919061246a565b6040516020818303038152906040526115c3565b905080604051602001610efc9190612510565b6040516020818303038152906040529b505050505050505050505050919050565b600e8054610f2a90612106565b80601f0160208091040260200160405190810160405280929190818152602001828054610f5690612106565b8015610fa35780601f10610f7857610100808354040283529160200191610fa3565b820191906000526020600020905b815481529060010190602001808311610f8657829003601f168201915b505050505081565b610fb3611141565b6001600160a01b0381166110185760405162461bcd60e51b815260206004820152602660248201527f4f776e61626c653a206e6577206f776e657220697320746865207a65726f206160448201526564647265737360d01b606482015260840161077e565b6110218161138b565b50565b60006001600160e01b031982166380ac58cd60e01b148061105557506001600160e01b03198216635b5e139f60e01b145b8061064b57506301ffc9a760e01b6001600160e01b031983161461064b565b6000818152600260205260409020546001600160a01b03166110215760405162461bcd60e51b8152602060048201526018602482015277115490cdcc8c4e881a5b9d985b1a59081d1bdad95b88125160421b604482015260640161077e565b600081815260046020526040902080546001600160a01b0319166001600160a01b038416908117909155819061110882610ac2565b6001600160a01b03167f8c5be1e5ebec7d5bd14f71427d1e84f3dd0314c0f7b2291e5b200ac8c7c3b92560405160405180910390a45050565b600a546001600160a01b03163314610bba5760405162461bcd60e51b815260206004820181905260248201527f4f776e61626c653a2063616c6c6572206973206e6f7420746865206f776e6572604482015260640161077e565b6000806111a783610ac2565b9050806001600160a01b0316846001600160a01b031614806111ee57506001600160a01b0380821660009081526005602090815260408083209388168352929052205460ff165b806112125750836001600160a01b0316611207846106e3565b6001600160a01b0316145b949350505050565b826001600160a01b031661122d82610ac2565b6001600160a01b0316146112535760405162461bcd60e51b815260040161077e90612555565b6001600160a01b0382166112b55760405162461bcd60e51b8152602060048201526024808201527f4552433732313a207472616e7366657220746f20746865207a65726f206164646044820152637265737360e01b606482015260840161077e565b6112c28383836001611716565b826001600160a01b03166112d582610ac2565b6001600160a01b0316146112fb5760405162461bcd60e51b815260040161077e90612555565b600081815260046020908152604080832080546001600160a01b03199081169091556001600160a01b0387811680865260038552838620805460001901905590871680865283862080546001019055868652600290945282852080549092168417909155905184937fddf252ad1be2c89b69c2b068fc378daa952ba7f163c4a11628f55a4df523b3ef91a4505050565b600a80546001600160a01b038381166001600160a01b0319831681179093556040519116919082907f8be0079c531659141344cd1fd0a4f28419497f9722a3daafe3b4186f6b6457e090600090a35050565b60005b8281101561081f57600d80549060006113f883612156565b919050555061140982600d5461175b565b600d5460009081526010602052604090204290558061142781612156565b9150506113e0565b816001600160a01b0316836001600160a01b0316036114905760405162461bcd60e51b815260206004820152601960248201527f4552433732313a20617070726f766520746f2063616c6c657200000000000000604482015260640161077e565b6001600160a01b03838116600081815260056020908152604080832094871680845294825291829020805460ff191686151590811790915591519182527f17307eab39ab6107e8899845ad3d59bd9653f200f220920489ca2b5937696c31910160405180910390a3505050565b61150884848461121a565b611514848484846118f4565b610c925760405162461bcd60e51b815260040161077e9061259a565b6060600061153d836119f5565b600101905060008167ffffffffffffffff81111561155d5761155d611fe2565b6040519080825280601f01601f191660200182016040528015611587576020820181803683370190505b5090508181016020015b600019016f181899199a1a9b1b9c1cb0b131b232b360811b600a86061a8153600a850494508461159157509392505050565b606081516000036115e257505060408051602081019091526000815290565b600060405180606001604052806040815260200161265d604091399050600060038451600261161191906121bc565b61161b9190612333565b6116269060046122f3565b67ffffffffffffffff81111561163e5761163e611fe2565b6040519080825280601f01601f191660200182016040528015611668576020820181803683370190505b509050600182016020820185865187015b808210156116d4576003820191508151603f8160121c168501518453600184019350603f81600c1c168501518453600184019350603f8160061c168501518453600184019350603f8116850151845350600183019250611679565b50506003865106600181146116f057600281146117035761170b565b603d6001830353603d600283035361170b565b603d60018303535b509195945050505050565b61172284848484611acd565b6001600160a01b0384161580159061173d5750600f5460ff16155b15610c925760405163dc8d8db760e01b815260040160405180910390fd5b6001600160a01b0382166117b15760405162461bcd60e51b815260206004820181905260248201527f4552433732313a206d696e7420746f20746865207a65726f2061646472657373604482015260640161077e565b6000818152600260205260409020546001600160a01b0316156118165760405162461bcd60e51b815260206004820152601c60248201527f4552433732313a20746f6b656e20616c7265616479206d696e74656400000000604482015260640161077e565b611824600083836001611716565b6000818152600260205260409020546001600160a01b0316156118895760405162461bcd60e51b815260206004820152601c60248201527f4552433732313a20746f6b656e20616c7265616479206d696e74656400000000604482015260640161077e565b6001600160a01b038216600081815260036020908152604080832080546001019055848352600290915280822080546001600160a01b0319168417905551839291907fddf252ad1be2c89b69c2b068fc378daa952ba7f163c4a11628f55a4df523b3ef908290a45050565b60006001600160a01b0384163b156119ea57604051630a85bd0160e11b81526001600160a01b0385169063150b7a02906119389033908990889088906004016125ec565b6020604051808303816000875af1925050508015611973575060408051601f3d908101601f1916820190925261197091810190612629565b60015b6119d0573d8080156119a1576040519150601f19603f3d011682016040523d82523d6000602084013e6119a6565b606091505b5080516000036119c85760405162461bcd60e51b815260040161077e9061259a565b805181602001fd5b6001600160e01b031916630a85bd0160e11b149050611212565b506001949350505050565b60008072184f03e93ff9f4daa797ed6e38ed64bf6a1f0160401b8310611a345772184f03e93ff9f4daa797ed6e38ed64bf6a1f0160401b830492506040015b6d04ee2d6d415b85acef81000000008310611a60576d04ee2d6d415b85acef8100000000830492506020015b662386f26fc100008310611a7e57662386f26fc10000830492506010015b6305f5e1008310611a96576305f5e100830492506008015b6127108310611aaa57612710830492506004015b60648310611abc576064830492506002015b600a831061064b5760010192915050565b6001811115611b3c5760405162461bcd60e51b815260206004820152603560248201527f455243373231456e756d657261626c653a20636f6e7365637574697665207472604482015274185b9cd9995c9cc81b9bdd081cdd5c1c1bdc9d1959605a1b606482015260840161077e565b816001600160a01b038516611b9857611b9381600880546000838152600960205260408120829055600182018355919091527ff3f7a9fe364faab93b216da50a3214154f22a0a2b415b23a84c8169e8b636ee30155565b611bbb565b836001600160a01b0316856001600160a01b031614611bbb57611bbb8582611c01565b6001600160a01b038416611bd757611bd281611c9e565b611bfa565b846001600160a01b0316846001600160a01b031614611bfa57611bfa8482611d4d565b5050505050565b60006001611c0e84610b22565b611c18919061230a565b600083815260076020526040902054909150808214611c6b576001600160a01b03841660009081526006602090815260408083208584528252808320548484528184208190558352600790915290208190555b5060009182526007602090815260408084208490556001600160a01b039094168352600681528383209183525290812055565b600854600090611cb09060019061230a565b60008381526009602052604081205460088054939450909284908110611cd857611cd86121cf565b906000526020600020015490508060088381548110611cf957611cf96121cf565b6000918252602080832090910192909255828152600990915260408082208490558582528120556008805480611d3157611d31612646565b6001900381819060005260206000200160009055905550505050565b6000611d5883610b22565b6001600160a01b039093166000908152600660209081526040808320868452825280832085905593825260079052919091209190915550565b6040518060a001604052806005905b6060815260200190600190039081611da05790505090565b6001600160e01b03198116811461102157600080fd5b600060208284031215611de057600080fd5b8135611deb81611db8565b9392505050565b60005b83811015611e0d578181015183820152602001611df5565b50506000910152565b60008151808452611e2e816020860160208601611df2565b601f01601f19169290920160200192915050565b602081526000611deb6020830184611e16565b600060208284031215611e6757600080fd5b5035919050565b6001600160a01b038116811461102157600080fd5b60008060408385031215611e9657600080fd5b8235611ea181611e6e565b946020939093013593505050565b600060208284031215611ec157600080fd5b8135611deb81611e6e565b600080600060608486031215611ee157600080fd5b8335611eec81611e6e565b92506020840135611efc81611e6e565b929592945050506040919091013590565b60008060208385031215611f2057600080fd5b823567ffffffffffffffff80821115611f3857600080fd5b818501915085601f830112611f4c57600080fd5b813581811115611f5b57600080fd5b866020828501011115611f6d57600080fd5b60209290920196919550909350505050565b60008060408385031215611f9257600080fd5b8235611f9d81611e6e565b915060208301358015158114611fb257600080fd5b809150509250929050565b60008060408385031215611fd057600080fd5b823591506020830135611fb281611e6e565b634e487b7160e01b600052604160045260246000fd5b6000806000806080858703121561200e57600080fd5b843561201981611e6e565b9350602085013561202981611e6e565b925060408501359150606085013567ffffffffffffffff8082111561204d57600080fd5b818701915087601f83011261206157600080fd5b81358181111561207357612073611fe2565b604051601f8201601f19908116603f0116810190838211818310171561209b5761209b611fe2565b816040528281528a60208487010111156120b457600080fd5b82602086016020830137600060208483010152809550505050505092959194509250565b600080604083850312156120eb57600080fd5b82356120f681611e6e565b91506020830135611fb281611e6e565b600181811c9082168061211a57607f821691505b60208210810361213a57634e487b7160e01b600052602260045260246000fd5b50919050565b634e487b7160e01b600052601160045260246000fd5b60006001820161216857612168612140565b5060010190565b6020808252602d908201527f4552433732313a2063616c6c6572206973206e6f7420746f6b656e206f776e6560408201526c1c881bdc88185c1c1c9bdd9959609a1b606082015260800190565b8082018082111561064b5761064b612140565b634e487b7160e01b600052603260045260246000fd5b601f82111561081f57600081815260208120601f850160051c8101602086101561220c5750805b601f850160051c820191505b8181101561222b57828155600101612218565b505050505050565b67ffffffffffffffff83111561224b5761224b611fe2565b61225f836122598354612106565b836121e5565b6000601f841160018114612293576000851561227b5750838201355b600019600387901b1c1916600186901b178355611bfa565b600083815260209020601f19861690835b828110156122c457868501358255602094850194600190920191016122a4565b50868210156122e15760001960f88860031b161c19848701351681555b505060018560011b0183555050505050565b808202811582820484141761064b5761064b612140565b8181038181111561064b5761064b612140565b634e487b7160e01b600052601260045260246000fd5b6000826123425761234261231d565b500490565b6000826123565761235661231d565b500690565b6a02a34b6b2902632b33a1d160ad1b81526000845161238181600b850160208901611df2565b61034160f51b600b9184019182015284516123a381600d840160208901611df2565b61036960f51b600d929091019182015283516123c681600f840160208801611df2565b61039960f51b600f929091019182015260110195945050505050565b600084516123f4818460208901611df2565b845190830190612408818360208901611df2565b845191019061241b818360208801611df2565b0195945050505050565b7f646174613a696d6167652f7376672b786d6c3b6261736536342c00000000000081526000825161245d81601a850160208701611df2565b91909101601a0192915050565b727b226e616d65223a202244617970617373202360681b81528251600090612499816013850160208801611df2565b7f222c20226465736372697074696f6e223a202241204461797061737320666f7260139184019182015275103cb7bab91033b0b99116101134b6b0b3b2911d101160511b603382015283516124f5816049840160208801611df2565b61227d60f01b60499290910191820152604b01949350505050565b7f646174613a6170706c69636174696f6e2f6a736f6e3b6261736536342c00000081526000825161254881601d850160208701611df2565b91909101601d0192915050565b60208082526025908201527f4552433732313a207472616e736665722066726f6d20696e636f72726563742060408201526437bbb732b960d91b606082015260800190565b60208082526032908201527f4552433732313a207472616e7366657220746f206e6f6e20455243373231526560408201527131b2b4bb32b91034b6b83632b6b2b73a32b960711b606082015260800190565b6001600160a01b038581168252841660208201526040810183905260806060820181905260009061261f90830184611e16565b9695505050505050565b60006020828403121561263b57600080fd5b8151611deb81611db8565b634e487b7160e01b600052603160045260246000fdfe4142434445464748494a4b4c4d4e4f505152535455565758595a6162636465666768696a6b6c6d6e6f707172737475767778797a303132333435363738392b2f3c73766720786d6c6e733d22687474703a2f2f7777772e77332e6f72672f323030302f73766722207072657365727665417370656374526174696f3d22784d696e594d696e206d656574222076696577426f783d223020302033353020333530223e3c7374796c653e2e62617365207b2066696c6c3a20626c61636b3b20666f6e742d66616d696c793a2073657269663b20666f6e742d73697a653a20323470783b207d3c2f7374796c653e3c726563742077696474683d223130302522206865696768743d2231303025222066696c6c3d22776869746522202f3e3c7465787420783d223530252220793d223530252220636c6173733d22626173652220746578742d616e63686f723d226d6964646c65223ea2646970667358221220f145f30a53800d5e5d3b2ca7c9b4d59b32c46c9bd0113b169befffaaabf49f2064736f6c6343000813003368747470733a2f2f676174657761792e70696e6174612e636c6f75642f697066732f516d50757835516779504866786a7543426631474c36626e6259526f44647a7768395547646e7a32555878353844",
    "linkReferences": {}
  },
  "methodIdentifiers": {
    "approve(address,uint256)": "095ea7b3",
    "balanceOf(address)": "70a08231",
    "currentTokenId()": "009a9b7b",
    "getApproved(uint256)": "081812fc",
    "getIsTransferable()": "da16e358",
    "getMintedAt(uint256)": "f449b34a",
    "hasValidPass(address)": "18dbe6b0",
    "isApprovedForAll(address,address)": "e985e9c5",
    "isPassValid(uint256)": "48c6195d",
    "maxTokensPerTxn()": "f34341c7",
    "mint(uint256)": "a0712d68",
    "mintTo(uint256,address)": "b723b34e",
    "mintedAt(uint256)": "f1b0aa15",
    "name()": "06fdde03",
    "owner()": "8da5cb5b",
    "ownerOf(uint256)": "6352211e",
    "renounceOwnership()": "715018a6",
    "safeTransferFrom(address,address,uint256)": "42842e0e",
    "safeTransferFrom(address,address,uint256,bytes)": "b88d4fde",
    "salePrice()": "f51f96dd",
    "setApprovalForAll(address,bool)": "a22cb465",
    "setBaseURI(string)": "55f804b3",
    "setSalePrice(uint256)": "1919fed7",
    "supportsInterface(bytes4)": "01ffc9a7",
    "symbol()": "95d89b41",
    "tokenByIndex(uint256)": "4f6ccce7",
    "tokenOfOwnerByIndex(address,uint256)": "2f745c59",
    "tokenURI(uint256)": "c87b56dd",
    "totalSupply()": "18160ddd",
    "transferFrom(address,address,uint256)": "23b872dd",
    "transferOwnership(address)": "f2fde38b",
    "uri()": "eac989f8",
    "withdrawPayments(address)": "31b3eb94"
  },
  "id": 65
}