{
  "abi": [
    {
      "inputs": [],
      "stateMutability": "payable",
      "type": "constructor"
    },
    {
      "inputs": [],
      "name": "IncorrectValue",
      "type": "error"
    },
    {
      "inputs": [],
      "name": "TooManyTokens",
      "type": "error"
    },
    {
      "inputs": [],
      "name": "WithdrawTransfer",
      "type": "error"
    },
    {
      "anonymous": false,
      "inputs": [
        {
          "indexed": true,
          "internalType": "address",
          "name": "owner",
          "type": "address"
        },
        {
          "indexed": true,
          "internalType": "address",
          "name": "approved",
          "type": "address"
        },
        {
          "indexed": true,
          "internalType": "uint256",
          "name": "tokenId",
          "type": "uint256"
        }
      ],
      "name": "Approval",
      "type": "event"
    },
    {
      "anonymous": false,
      "inputs": [
        {
          "indexed": true,
          "internalType": "address",
          "name": "owner",
          "type": "address"
        },
        {
          "indexed": true,
          "internalType": "address",
          "name": "operator",
          "type": "address"
        },
        {
          "indexed": false,
          "internalType": "bool",
          "name": "approved",
          "type": "bool"
        }
      ],
      "name": "ApprovalForAll",
      "type": "event"
    },
    {
      "anonymous": false,
      "inputs": [
        {
          "indexed": true,
          "internalType": "address",
          "name": "previousOwner",
          "type": "address"
        },
        {
          "indexed": true,
          "internalType": "address",
          "name": "newOwner",
          "type": "address"
        }
      ],
      "name": "OwnershipTransferred",
      "type": "event"
    },
    {
      "anonymous": false,
      "inputs": [
        {
          "indexed": true,
          "internalType": "address",
          "name": "from",
          "type": "address"
        },
        {
          "indexed": true,
          "internalType": "address",
          "name": "to",
          "type": "address"
        },
        {
          "indexed": true,
          "internalType": "uint256",
          "name": "tokenId",
          "type": "uint256"
        }
      ],
      "name": "Transfer",
      "type": "event"
    },
    {
      "inputs": [
        {
          "internalType": "address",
          "name": "to",
          "type": "address"
        },
        {
          "internalType": "uint256",
          "name": "tokenId",
          "type": "uint256"
        }
      ],
      "name": "approve",
      "outputs": [],
      "stateMutability": "nonpayable",
      "type": "function"
    },
    {
      "inputs": [
        {
          "internalType": "address",
          "name": "owner",
          "type": "address"
        }
      ],
      "name": "balanceOf",
      "outputs": [
        {
          "internalType": "uint256",
          "name": "",
          "type": "uint256"
        }
      ],
      "stateMutability": "view",
      "type": "function"
    },
    {
      "inputs": [],
      "name": "currentTokenId",
      "outputs": [
        {
          "internalType": "uint256",
          "name": "",
          "type": "uint256"
        }
      ],
      "stateMutability": "view",
      "type": "function"
    },
    {
      "inputs": [
        {
          "internalType": "uint256",
          "name": "tokenId",
          "type": "uint256"
        }
      ],
      "name": "getApproved",
      "outputs": [
        {
          "internalType": "address",
          "name": "",
          "type": "address"
        }
      ],
      "stateMutability": "view",
      "type": "function"
    },
    {
      "inputs": [
        {
          "internalType": "uint256",
          "name": "tokenId",
          "type": "uint256"
        }
      ],
      "name": "getMintedAt",
      "outputs": [
        {
          "internalType": "uint256",
          "name": "",
          "type": "uint256"
        }
      ],
      "stateMutability": "view",
      "type": "function"
    },
    {
      "inputs": [
        {
          "internalType": "uint256",
          "name": "tokenId",
          "type": "uint256"
        }
      ],
      "name": "getValidPeriod",
      "outputs": [
        {
          "internalType": "uint256",
          "name": "",
          "type": "uint256"
        }
      ],
      "stateMutability": "view",
      "type": "function"
    },
    {
      "inputs": [
        {
          "internalType": "address",
          "name": "owner",
          "type": "address"
        },
        {
          "internalType": "address",
          "name": "operator",
          "type": "address"
        }
      ],
      "name": "isApprovedForAll",
      "outputs": [
        {
          "internalType": "bool",
          "name": "",
          "type": "bool"
        }
      ],
      "stateMutability": "view",
      "type": "function"
    },
    {
      "inputs": [],
      "name": "maxTokensPerTxn",
      "outputs": [
        {
          "internalType": "uint256",
          "name": "",
          "type": "uint256"
        }
      ],
      "stateMutability": "view",
      "type": "function"
    },
    {
      "inputs": [
        {
          "internalType": "uint256",
          "name": "quantity",
          "type": "uint256"
        }
      ],
      "name": "mint",
      "outputs": [],
      "stateMutability": "payable",
      "type": "function"
    },
    {
      "inputs": [
        {
          "internalType": "uint256",
          "name": "quantity",
          "type": "uint256"
        },
        {
          "internalType": "uint256",
          "name": "period",
          "type": "uint256"
        }
      ],
      "name": "mintWithPeriod",
      "outputs": [],
      "stateMutability": "payable",
      "type": "function"
    },
    {
      "inputs": [
        {
          "internalType": "uint256",
          "name": "",
          "type": "uint256"
        }
      ],
      "name": "mintedAt",
      "outputs": [
        {
          "internalType": "uint256",
          "name": "",
          "type": "uint256"
        }
      ],
      "stateMutability": "view",
      "type": "function"
    },
    {
      "inputs": [],
      "name": "name",
      "outputs": [
        {
          "internalType": "string",
          "name": "",
          "type": "string"
        }
      ],
      "stateMutability": "view",
      "type": "function"
    },
    {
      "inputs": [],
      "name": "owner",
      "outputs": [
        {
          "internalType": "address",
          "name": "",
          "type": "address"
        }
      ],
      "stateMutability": "view",
      "type": "function"
    },
    {
      "inputs": [
        {
          "internalType": "uint256",
          "name": "tokenId",
          "type": "uint256"
        }
      ],
      "name": "ownerOf",
      "outputs": [
        {
          "internalType": "address",
          "name": "",
          "type": "address"
        }
      ],
      "stateMutability": "view",
      "type": "function"
    },
    {
      "inputs": [],
      "name": "renounceOwnership",
      "outputs": [],
      "stateMutability": "nonpayable",
      "type": "function"
    },
    {
      "inputs": [
        {
          "internalType": "address",
          "name": "from",
          "type": "address"
        },
        {
          "internalType": "address",
          "name": "to",
          "type": "address"
        },
        {
          "internalType": "uint256",
          "name": "tokenId",
          "type": "uint256"
        }
      ],
      "name": "safeTransferFrom",
      "outputs": [],
      "stateMutability": "nonpayable",
      "type": "function"
    },
    {
      "inputs": [
        {
          "internalType": "address",
          "name": "from",
          "type": "address"
        },
        {
          "internalType": "address",
          "name": "to",
          "type": "address"
        },
        {
          "internalType": "uint256",
          "name": "tokenId",
          "type": "uint256"
        },
        {
          "internalType": "bytes",
          "name": "data",
          "type": "bytes"
        }
      ],
      "name": "safeTransferFrom",
      "outputs": [],
      "stateMutability": "nonpayable",
      "type": "function"
    },
    {
      "inputs": [],
      "name": "salePrice",
      "outputs": [
        {
          "internalType": "uint256",
          "name": "",
          "type": "uint256"
        }
      ],
      "stateMutability": "view",
      "type": "function"
    },
    {
      "inputs": [
        {
          "internalType": "address",
          "name": "operator",
          "type": "address"
        },
        {
          "internalType": "bool",
          "name": "approved",
          "type": "bool"
        }
      ],
      "name": "setApprovalForAll",
      "outputs": [],
      "stateMutability": "nonpayable",
      "type": "function"
    },
    {
      "inputs": [
        {
          "internalType": "string",
          "name": "baseURI",
          "type": "string"
        }
      ],
      "name": "setBaseURI",
      "outputs": [],
      "stateMutability": "nonpayable",
      "type": "function"
    },
    {
      "inputs": [
        {
          "internalType": "uint256",
          "name": "price",
          "type": "uint256"
        }
      ],
      "name": "setSalePrice",
      "outputs": [],
      "stateMutability": "nonpayable",
      "type": "function"
    },
    {
      "inputs": [
        {
          "internalType": "bytes4",
          "name": "interfaceId",
          "type": "bytes4"
        }
      ],
      "name": "supportsInterface",
      "outputs": [
        {
          "internalType": "bool",
          "name": "",
          "type": "bool"
        }
      ],
      "stateMutability": "view",
      "type": "function"
    },
    {
      "inputs": [],
      "name": "symbol",
      "outputs": [
        {
          "internalType": "string",
          "name": "",
          "type": "string"
        }
      ],
      "stateMutability": "view",
      "type": "function"
    },
    {
      "inputs": [
        {
          "internalType": "uint256",
          "name": "index",
          "type": "uint256"
        }
      ],
      "name": "tokenByIndex",
      "outputs": [
        {
          "internalType": "uint256",
          "name": "",
          "type": "uint256"
        }
      ],
      "stateMutability": "view",
      "type": "function"
    },
    {
      "inputs": [
        {
          "internalType": "address",
          "name": "owner",
          "type": "address"
        },
        {
          "internalType": "uint256",
          "name": "index",
          "type": "uint256"
        }
      ],
      "name": "tokenOfOwnerByIndex",
      "outputs": [
        {
          "internalType": "uint256",
          "name": "",
          "type": "uint256"
        }
      ],
      "stateMutability": "view",
      "type": "function"
    },
    {
      "inputs": [
        {
          "internalType": "uint256",
          "name": "tokenId",
          "type": "uint256"
        }
      ],
      "name": "tokenURI",
      "outputs": [
        {
          "internalType": "string",
          "name": "",
          "type": "string"
        }
      ],
      "stateMutability": "view",
      "type": "function"
    },
    {
      "inputs": [],
      "name": "totalSupply",
      "outputs": [
        {
          "internalType": "uint256",
          "name": "",
          "type": "uint256"
        }
      ],
      "stateMutability": "view",
      "type": "function"
    },
    {
      "inputs": [
        {
          "internalType": "address",
          "name": "from",
          "type": "address"
        },
        {
          "internalType": "address",
          "name": "to",
          "type": "address"
        },
        {
          "internalType": "uint256",
          "name": "tokenId",
          "type": "uint256"
        }
      ],
      "name": "transferFrom",
      "outputs": [],
      "stateMutability": "nonpayable",
      "type": "function"
    },
    {
      "inputs": [
        {
          "internalType": "address",
          "name": "newOwner",
          "type": "address"
        }
      ],
      "name": "transferOwnership",
      "outputs": [],
      "stateMutability": "nonpayable",
      "type": "function"
    },
    {
      "inputs": [],
      "name": "uri",
      "outputs": [
        {
          "internalType": "string",
          "name": "",
          "type": "string"
        }
      ],
      "stateMutability": "view",
      "type": "function"
    },
    {
      "inputs": [
        {
          "internalType": "uint256",
          "name": "",
          "type": "uint256"
        }
      ],
      "name": "validPeriod",
      "outputs": [
        {
          "internalType": "uint256",
          "name": "",
          "type": "uint256"
        }
      ],
      "stateMutability": "view",
      "type": "function"
    },
    {
      "inputs": [
        {
          "internalType": "address payable",
          "name": "payee",
          "type": "address"
        }
      ],
      "name": "withdrawPayments",
      "outputs": [],
      "stateMutability": "nonpayable",
      "type": "function"
    }
  ],
  "bytecode": {
    "object": "0x6000600b556006600c556101006040526050608081815290620021a160a039600e906200002d9082620001aa565b50604051806040016040528060078152602001664461797061737360c81b81525060405180604001604052806005815260200164445041535360d81b81525081600090816200007d9190620001aa565b5060016200008c8282620001aa565b505050620000a9620000a3620000af60201b60201c565b620000b3565b62000276565b3390565b600a80546001600160a01b038381166001600160a01b0319831681179093556040519116919082907f8be0079c531659141344cd1fd0a4f28419497f9722a3daafe3b4186f6b6457e090600090a35050565b634e487b7160e01b600052604160045260246000fd5b600181811c908216806200013057607f821691505b6020821081036200015157634e487b7160e01b600052602260045260246000fd5b50919050565b601f821115620001a557600081815260208120601f850160051c81016020861015620001805750805b601f850160051c820191505b81811015620001a1578281556001016200018c565b5050505b505050565b81516001600160401b03811115620001c657620001c662000105565b620001de81620001d784546200011b565b8462000157565b602080601f831160018114620002165760008415620001fd5750858301515b600019600386901b1c1916600185901b178555620001a1565b600085815260208120601f198616915b82811015620002475788860151825594840194600190910190840162000226565b5085821015620002665787850151600019600388901b60f8161c191681555b5050505050600190811b01905550565b611f1b80620002866000396000f3fe6080604052600436106101e25760003560e01c806370a0823111610102578063c87b56dd11610095578063f2fde38b11610064578063f2fde38b146105a4578063f34341c7146105c4578063f449b34a146105da578063f51f96dd1461060757600080fd5b8063c87b56dd146104f9578063e985e9c514610519578063eac989f814610562578063f1b0aa151461057757600080fd5b806395d89b41116100d157806395d89b4114610491578063a0712d68146104a6578063a22cb465146104b9578063b88d4fde146104d957600080fd5b806370a082311461042b578063715018a61461044b5780638d3521c0146104605780638da5cb5b1461047357600080fd5b80632f745c591161017a578063516b9a6c11610149578063516b9a6c1461039157806355f804b3146103be578063604b2251146103de5780636352211e1461040b57600080fd5b80632f745c591461031157806331b3eb941461033157806342842e0e146103515780634f6ccce71461037157600080fd5b8063095ea7b3116101b6578063095ea7b31461029a57806318160ddd146102bc5780631919fed7146102d157806323b872dd146102f157600080fd5b80629a9b7b146101e757806301ffc9a71461021057806306fdde0314610240578063081812fc14610262575b600080fd5b3480156101f357600080fd5b506101fd600d5481565b6040519081526020015b60405180910390f35b34801561021c57600080fd5b5061023061022b3660046118af565b61061d565b6040519015158152602001610207565b34801561024c57600080fd5b50610255610648565b6040516102079190611919565b34801561026e57600080fd5b5061028261027d36600461192c565b6106da565b6040516001600160a01b039091168152602001610207565b3480156102a657600080fd5b506102ba6102b536600461195a565b610701565b005b3480156102c857600080fd5b506008546101fd565b3480156102dd57600080fd5b506102ba6102ec36600461192c565b61081b565b3480156102fd57600080fd5b506102ba61030c366004611986565b610828565b34801561031d57600080fd5b506101fd61032c36600461195a565b610859565b34801561033d57600080fd5b506102ba61034c3660046119c7565b6108ef565b34801561035d57600080fd5b506102ba61036c366004611986565b61096b565b34801561037d57600080fd5b506101fd61038c36600461192c565b610986565b34801561039d57600080fd5b506101fd6103ac36600461192c565b60106020526000908152604090205481565b3480156103ca57600080fd5b506102ba6103d93660046119e4565b610a19565b3480156103ea57600080fd5b506101fd6103f936600461192c565b60009081526010602052604090205490565b34801561041757600080fd5b5061028261042636600461192c565b610a2e565b34801561043757600080fd5b506101fd6104463660046119c7565b610a8e565b34801561045757600080fd5b506102ba610b14565b6102ba61046e366004611a56565b610b28565b34801561047f57600080fd5b50600a546001600160a01b0316610282565b34801561049d57600080fd5b50610255610b8a565b6102ba6104b436600461192c565b610b99565b3480156104c557600080fd5b506102ba6104d4366004611a78565b610bf6565b3480156104e557600080fd5b506102ba6104f4366004611acc565b610c05565b34801561050557600080fd5b5061025561051436600461192c565b610c37565b34801561052557600080fd5b50610230610534366004611bac565b6001600160a01b03918216600090815260056020908152604080832093909416825291909152205460ff1690565b34801561056e57600080fd5b50610255610ccb565b34801561058357600080fd5b506101fd61059236600461192c565b600f6020526000908152604090205481565b3480156105b057600080fd5b506102ba6105bf3660046119c7565b610d59565b3480156105d057600080fd5b506101fd600c5481565b3480156105e657600080fd5b506101fd6105f536600461192c565b6000908152600f602052604090205490565b34801561061357600080fd5b506101fd600b5481565b60006001600160e01b0319821663780e9d6360e01b1480610642575061064282610dd2565b92915050565b60606000805461065790611bda565b80601f016020809104026020016040519081016040528092919081815260200182805461068390611bda565b80156106d05780601f106106a5576101008083540402835291602001916106d0565b820191906000526020600020905b8154815290600101906020018083116106b357829003601f168201915b5050505050905090565b60006106e582610e22565b506000908152600460205260409020546001600160a01b031690565b600061070c82610a2e565b9050806001600160a01b0316836001600160a01b03160361077e5760405162461bcd60e51b815260206004820152602160248201527f4552433732313a20617070726f76616c20746f2063757272656e74206f776e656044820152603960f91b60648201526084015b60405180910390fd5b336001600160a01b038216148061079a575061079a8133610534565b61080c5760405162461bcd60e51b815260206004820152603d60248201527f4552433732313a20617070726f76652063616c6c6572206973206e6f7420746f60448201527f6b656e206f776e6572206f7220617070726f76656420666f7220616c6c0000006064820152608401610775565b6108168383610e81565b505050565b610823610eef565b600b55565b6108323382610f49565b61084e5760405162461bcd60e51b815260040161077590611c14565b610816838383610fc8565b600061086483610a8e565b82106108c65760405162461bcd60e51b815260206004820152602b60248201527f455243373231456e756d657261626c653a206f776e657220696e646578206f7560448201526a74206f6620626f756e647360a81b6064820152608401610775565b506001600160a01b03919091166000908152600660209081526040808320938352929052205490565b6108f7610eef565b60405147906000906001600160a01b0384169083908381818185875af1925050503d8060008114610944576040519150601f19603f3d011682016040523d82523d6000602084013e610949565b606091505b50509050806108165760405163d23a9e8960e01b815260040160405180910390fd5b61081683838360405180602001604052806000815250610c05565b600061099160085490565b82106109f45760405162461bcd60e51b815260206004820152602c60248201527f455243373231456e756d657261626c653a20676c6f62616c20696e646578206f60448201526b7574206f6620626f756e647360a01b6064820152608401610775565b60088281548110610a0757610a07611c61565b90600052602060002001549050919050565b610a21610eef565b600e610816828483611cc5565b6000818152600260205260408120546001600160a01b0316806106425760405162461bcd60e51b8152602060048201526018602482015277115490cdcc8c4e881a5b9d985b1a59081d1bdad95b88125160421b6044820152606401610775565b60006001600160a01b038216610af85760405162461bcd60e51b815260206004820152602960248201527f4552433732313a2061646472657373207a65726f206973206e6f7420612076616044820152683634b21037bbb732b960b91b6064820152608401610775565b506001600160a01b031660009081526003602052604090205490565b610b1c610eef565b610b266000611139565b565b81600c54811115610b4c57604051633a4733d960e11b815260040160405180910390fd5b823481600b54610b5c9190611d9b565b14610b7a57604051636956f2ab60e11b815260040160405180910390fd5b610b84848461118b565b50505050565b60606001805461065790611bda565b80600c54811115610bbd57604051633a4733d960e11b815260040160405180910390fd5b813481600b54610bcd9190611d9b565b14610beb57604051636956f2ab60e11b815260040160405180910390fd5b61081683600061118b565b610c013383836111ed565b5050565b610c0f3383610f49565b610c2b5760405162461bcd60e51b815260040161077590611c14565b610b84848484846112bb565b6060600e8054610c4690611bda565b80601f0160208091040260200160405190810160405280929190818152602001828054610c7290611bda565b8015610cbf5780601f10610c9457610100808354040283529160200191610cbf565b820191906000526020600020905b815481529060010190602001808311610ca257829003601f168201915b50505050509050919050565b600e8054610cd890611bda565b80601f0160208091040260200160405190810160405280929190818152602001828054610d0490611bda565b8015610d515780601f10610d2657610100808354040283529160200191610d51565b820191906000526020600020905b815481529060010190602001808311610d3457829003601f168201915b505050505081565b610d61610eef565b6001600160a01b038116610dc65760405162461bcd60e51b815260206004820152602660248201527f4f776e61626c653a206e6577206f776e657220697320746865207a65726f206160448201526564647265737360d01b6064820152608401610775565b610dcf81611139565b50565b60006001600160e01b031982166380ac58cd60e01b1480610e0357506001600160e01b03198216635b5e139f60e01b145b8061064257506301ffc9a760e01b6001600160e01b0319831614610642565b6000818152600260205260409020546001600160a01b0316610dcf5760405162461bcd60e51b8152602060048201526018602482015277115490cdcc8c4e881a5b9d985b1a59081d1bdad95b88125160421b6044820152606401610775565b600081815260046020526040902080546001600160a01b0319166001600160a01b0384169081179091558190610eb682610a2e565b6001600160a01b03167f8c5be1e5ebec7d5bd14f71427d1e84f3dd0314c0f7b2291e5b200ac8c7c3b92560405160405180910390a45050565b600a546001600160a01b03163314610b265760405162461bcd60e51b815260206004820181905260248201527f4f776e61626c653a2063616c6c6572206973206e6f7420746865206f776e65726044820152606401610775565b600080610f5583610a2e565b9050806001600160a01b0316846001600160a01b03161480610f9c57506001600160a01b0380821660009081526005602090815260408083209388168352929052205460ff165b80610fc05750836001600160a01b0316610fb5846106da565b6001600160a01b0316145b949350505050565b826001600160a01b0316610fdb82610a2e565b6001600160a01b0316146110015760405162461bcd60e51b815260040161077590611db2565b6001600160a01b0382166110635760405162461bcd60e51b8152602060048201526024808201527f4552433732313a207472616e7366657220746f20746865207a65726f206164646044820152637265737360e01b6064820152608401610775565b61107083838360016112ee565b826001600160a01b031661108382610a2e565b6001600160a01b0316146110a95760405162461bcd60e51b815260040161077590611db2565b600081815260046020908152604080832080546001600160a01b03199081169091556001600160a01b0387811680865260038552838620805460001901905590871680865283862080546001019055868652600290945282852080549092168417909155905184937fddf252ad1be2c89b69c2b068fc378daa952ba7f163c4a11628f55a4df523b3ef91a4505050565b600a80546001600160a01b038381166001600160a01b0319831681179093556040519116919082907f8be0079c531659141344cd1fd0a4f28419497f9722a3daafe3b4186f6b6457e090600090a35050565b60005b8281101561081657600d80549060006111a683611df7565b91905055506111b733600d54611422565b600d80546000908152600f60209081526040808320429055925482526010905220829055806111e581611df7565b91505061118e565b816001600160a01b0316836001600160a01b03160361124e5760405162461bcd60e51b815260206004820152601960248201527f4552433732313a20617070726f766520746f2063616c6c6572000000000000006044820152606401610775565b6001600160a01b03838116600081815260056020908152604080832094871680845294825291829020805460ff191686151590811790915591519182527f17307eab39ab6107e8899845ad3d59bd9653f200f220920489ca2b5937696c31910160405180910390a3505050565b6112c6848484610fc8565b6112d28484848461143c565b610b845760405162461bcd60e51b815260040161077590611e10565b600181111561135d5760405162461bcd60e51b815260206004820152603560248201527f455243373231456e756d657261626c653a20636f6e7365637574697665207472604482015274185b9cd9995c9cc81b9bdd081cdd5c1c1bdc9d1959605a1b6064820152608401610775565b816001600160a01b0385166113b9576113b481600880546000838152600960205260408120829055600182018355919091527ff3f7a9fe364faab93b216da50a3214154f22a0a2b415b23a84c8169e8b636ee30155565b6113dc565b836001600160a01b0316856001600160a01b0316146113dc576113dc858261153d565b6001600160a01b0384166113f8576113f3816115da565b61141b565b846001600160a01b0316846001600160a01b03161461141b5761141b8482611689565b5050505050565b610c018282604051806020016040528060008152506116cd565b60006001600160a01b0384163b1561153257604051630a85bd0160e11b81526001600160a01b0385169063150b7a0290611480903390899088908890600401611e62565b6020604051808303816000875af19250505080156114bb575060408051601f3d908101601f191682019092526114b891810190611e9f565b60015b611518573d8080156114e9576040519150601f19603f3d011682016040523d82523d6000602084013e6114ee565b606091505b5080516000036115105760405162461bcd60e51b815260040161077590611e10565b805181602001fd5b6001600160e01b031916630a85bd0160e11b149050610fc0565b506001949350505050565b6000600161154a84610a8e565b6115549190611ebc565b6000838152600760205260409020549091508082146115a7576001600160a01b03841660009081526006602090815260408083208584528252808320548484528184208190558352600790915290208190555b5060009182526007602090815260408084208490556001600160a01b039094168352600681528383209183525290812055565b6008546000906115ec90600190611ebc565b6000838152600960205260408120546008805493945090928490811061161457611614611c61565b90600052602060002001549050806008838154811061163557611635611c61565b600091825260208083209091019290925582815260099091526040808220849055858252812055600880548061166d5761166d611ecf565b6001900381819060005260206000200160009055905550505050565b600061169483610a8e565b6001600160a01b039093166000908152600660209081526040808320868452825280832085905593825260079052919091209190915550565b6116d78383611700565b6116e4600084848461143c565b6108165760405162461bcd60e51b815260040161077590611e10565b6001600160a01b0382166117565760405162461bcd60e51b815260206004820181905260248201527f4552433732313a206d696e7420746f20746865207a65726f20616464726573736044820152606401610775565b6000818152600260205260409020546001600160a01b0316156117bb5760405162461bcd60e51b815260206004820152601c60248201527f4552433732313a20746f6b656e20616c7265616479206d696e746564000000006044820152606401610775565b6117c96000838360016112ee565b6000818152600260205260409020546001600160a01b03161561182e5760405162461bcd60e51b815260206004820152601c60248201527f4552433732313a20746f6b656e20616c7265616479206d696e746564000000006044820152606401610775565b6001600160a01b038216600081815260036020908152604080832080546001019055848352600290915280822080546001600160a01b0319168417905551839291907fddf252ad1be2c89b69c2b068fc378daa952ba7f163c4a11628f55a4df523b3ef908290a45050565b6001600160e01b031981168114610dcf57600080fd5b6000602082840312156118c157600080fd5b81356118cc81611899565b9392505050565b6000815180845260005b818110156118f9576020818501810151868301820152016118dd565b506000602082860101526020601f19601f83011685010191505092915050565b6020815260006118cc60208301846118d3565b60006020828403121561193e57600080fd5b5035919050565b6001600160a01b0381168114610dcf57600080fd5b6000806040838503121561196d57600080fd5b823561197881611945565b946020939093013593505050565b60008060006060848603121561199b57600080fd5b83356119a681611945565b925060208401356119b681611945565b929592945050506040919091013590565b6000602082840312156119d957600080fd5b81356118cc81611945565b600080602083850312156119f757600080fd5b823567ffffffffffffffff80821115611a0f57600080fd5b818501915085601f830112611a2357600080fd5b813581811115611a3257600080fd5b866020828501011115611a4457600080fd5b60209290920196919550909350505050565b60008060408385031215611a6957600080fd5b50508035926020909101359150565b60008060408385031215611a8b57600080fd5b8235611a9681611945565b915060208301358015158114611aab57600080fd5b809150509250929050565b634e487b7160e01b600052604160045260246000fd5b60008060008060808587031215611ae257600080fd5b8435611aed81611945565b93506020850135611afd81611945565b925060408501359150606085013567ffffffffffffffff80821115611b2157600080fd5b818701915087601f830112611b3557600080fd5b813581811115611b4757611b47611ab6565b604051601f8201601f19908116603f01168101908382118183101715611b6f57611b6f611ab6565b816040528281528a6020848701011115611b8857600080fd5b82602086016020830137600060208483010152809550505050505092959194509250565b60008060408385031215611bbf57600080fd5b8235611bca81611945565b91506020830135611aab81611945565b600181811c90821680611bee57607f821691505b602082108103611c0e57634e487b7160e01b600052602260045260246000fd5b50919050565b6020808252602d908201527f4552433732313a2063616c6c6572206973206e6f7420746f6b656e206f776e6560408201526c1c881bdc88185c1c1c9bdd9959609a1b606082015260800190565b634e487b7160e01b600052603260045260246000fd5b601f82111561081657600081815260208120601f850160051c81016020861015611c9e5750805b601f850160051c820191505b81811015611cbd57828155600101611caa565b505050505050565b67ffffffffffffffff831115611cdd57611cdd611ab6565b611cf183611ceb8354611bda565b83611c77565b6000601f841160018114611d255760008515611d0d5750838201355b600019600387901b1c1916600186901b17835561141b565b600083815260209020601f19861690835b82811015611d565786850135825560209485019460019092019101611d36565b5086821015611d735760001960f88860031b161c19848701351681555b505060018560011b0183555050505050565b634e487b7160e01b600052601160045260246000fd5b808202811582820484141761064257610642611d85565b60208082526025908201527f4552433732313a207472616e736665722066726f6d20696e636f72726563742060408201526437bbb732b960d91b606082015260800190565b600060018201611e0957611e09611d85565b5060010190565b60208082526032908201527f4552433732313a207472616e7366657220746f206e6f6e20455243373231526560408201527131b2b4bb32b91034b6b83632b6b2b73a32b960711b606082015260800190565b6001600160a01b0385811682528416602082015260408101839052608060608201819052600090611e95908301846118d3565b9695505050505050565b600060208284031215611eb157600080fd5b81516118cc81611899565b8181038181111561064257610642611d85565b634e487b7160e01b600052603160045260246000fdfea264697066735822122083c818550f90a1d6c1e215ea92f5ab39ce98da7143d007cb23049e581a1e3fb164736f6c6343000813003368747470733a2f2f676174657761792e70696e6174612e636c6f75642f697066732f516d50757835516779504866786a7543426631474c36626e6259526f44647a7768395547646e7a32555878353844",
    "linkReferences": {}
  },
  "methodIdentifiers": {
    "approve(address,uint256)": "095ea7b3",
    "balanceOf(address)": "70a08231",
    "currentTokenId()": "009a9b7b",
    "getApproved(uint256)": "081812fc",
    "getMintedAt(uint256)": "f449b34a",
    "getValidPeriod(uint256)": "604b2251",
    "isApprovedForAll(address,address)": "e985e9c5",
    "maxTokensPerTxn()": "f34341c7",
    "mint(uint256)": "a0712d68",
    "mintWithPeriod(uint256,uint256)": "8d3521c0",
    "mintedAt(uint256)": "f1b0aa15",
    "name()": "06fdde03",
    "owner()": "8da5cb5b",
    "ownerOf(uint256)": "6352211e",
    "renounceOwnership()": "715018a6",
    "safeTransferFrom(address,address,uint256)": "42842e0e",
    "safeTransferFrom(address,address,uint256,bytes)": "b88d4fde",
    "salePrice()": "f51f96dd",
    "setApprovalForAll(address,bool)": "a22cb465",
    "setBaseURI(string)": "55f804b3",
    "setSalePrice(uint256)": "1919fed7",
    "supportsInterface(bytes4)": "01ffc9a7",
    "symbol()": "95d89b41",
    "tokenByIndex(uint256)": "4f6ccce7",
    "tokenOfOwnerByIndex(address,uint256)": "2f745c59",
    "tokenURI(uint256)": "c87b56dd",
    "totalSupply()": "18160ddd",
    "transferFrom(address,address,uint256)": "23b872dd",
    "transferOwnership(address)": "f2fde38b",
    "uri()": "eac989f8",
    "validPeriod(uint256)": "516b9a6c",
    "withdrawPayments(address)": "31b3eb94"
  },
  "id": 63
}