{
  "abi": [
    {
      "inputs": [],
      "stateMutability": "payable",
      "type": "constructor"
    },
    {
      "inputs": [],
      "name": "IncorrectValue",
      "type": "error"
    },
    {
      "inputs": [],
      "name": "TooManyTokens",
      "type": "error"
    },
    {
      "inputs": [],
      "name": "WithdrawTransfer",
      "type": "error"
    },
    {
      "anonymous": false,
      "inputs": [
        {
          "indexed": true,
          "internalType": "address",
          "name": "owner",
          "type": "address"
        },
        {
          "indexed": true,
          "internalType": "address",
          "name": "approved",
          "type": "address"
        },
        {
          "indexed": true,
          "internalType": "uint256",
          "name": "tokenId",
          "type": "uint256"
        }
      ],
      "name": "Approval",
      "type": "event"
    },
    {
      "anonymous": false,
      "inputs": [
        {
          "indexed": true,
          "internalType": "address",
          "name": "owner",
          "type": "address"
        },
        {
          "indexed": true,
          "internalType": "address",
          "name": "operator",
          "type": "address"
        },
        {
          "indexed": false,
          "internalType": "bool",
          "name": "approved",
          "type": "bool"
        }
      ],
      "name": "ApprovalForAll",
      "type": "event"
    },
    {
      "anonymous": false,
      "inputs": [
        {
          "indexed": true,
          "internalType": "address",
          "name": "previousOwner",
          "type": "address"
        },
        {
          "indexed": true,
          "internalType": "address",
          "name": "newOwner",
          "type": "address"
        }
      ],
      "name": "OwnershipTransferred",
      "type": "event"
    },
    {
      "anonymous": false,
      "inputs": [
        {
          "indexed": true,
          "internalType": "address",
          "name": "from",
          "type": "address"
        },
        {
          "indexed": true,
          "internalType": "address",
          "name": "to",
          "type": "address"
        },
        {
          "indexed": true,
          "internalType": "uint256",
          "name": "tokenId",
          "type": "uint256"
        }
      ],
      "name": "Transfer",
      "type": "event"
    },
    {
      "inputs": [
        {
          "internalType": "address",
          "name": "to",
          "type": "address"
        },
        {
          "internalType": "uint256",
          "name": "tokenId",
          "type": "uint256"
        }
      ],
      "name": "approve",
      "outputs": [],
      "stateMutability": "nonpayable",
      "type": "function"
    },
    {
      "inputs": [
        {
          "internalType": "address",
          "name": "owner",
          "type": "address"
        }
      ],
      "name": "balanceOf",
      "outputs": [
        {
          "internalType": "uint256",
          "name": "",
          "type": "uint256"
        }
      ],
      "stateMutability": "view",
      "type": "function"
    },
    {
      "inputs": [],
      "name": "currentTokenId",
      "outputs": [
        {
          "internalType": "uint256",
          "name": "",
          "type": "uint256"
        }
      ],
      "stateMutability": "view",
      "type": "function"
    },
    {
      "inputs": [
        {
          "internalType": "uint256",
          "name": "tokenId",
          "type": "uint256"
        }
      ],
      "name": "getApproved",
      "outputs": [
        {
          "internalType": "address",
          "name": "",
          "type": "address"
        }
      ],
      "stateMutability": "view",
      "type": "function"
    },
    {
      "inputs": [
        {
          "internalType": "address",
          "name": "owner",
          "type": "address"
        },
        {
          "internalType": "address",
          "name": "operator",
          "type": "address"
        }
      ],
      "name": "isApprovedForAll",
      "outputs": [
        {
          "internalType": "bool",
          "name": "",
          "type": "bool"
        }
      ],
      "stateMutability": "view",
      "type": "function"
    },
    {
      "inputs": [],
      "name": "maxTokensPerTxn",
      "outputs": [
        {
          "internalType": "uint256",
          "name": "",
          "type": "uint256"
        }
      ],
      "stateMutability": "view",
      "type": "function"
    },
    {
      "inputs": [
        {
          "internalType": "uint256",
          "name": "quantity",
          "type": "uint256"
        }
      ],
      "name": "mint",
      "outputs": [],
      "stateMutability": "payable",
      "type": "function"
    },
    {
      "inputs": [],
      "name": "name",
      "outputs": [
        {
          "internalType": "string",
          "name": "",
          "type": "string"
        }
      ],
      "stateMutability": "view",
      "type": "function"
    },
    {
      "inputs": [],
      "name": "owner",
      "outputs": [
        {
          "internalType": "address",
          "name": "",
          "type": "address"
        }
      ],
      "stateMutability": "view",
      "type": "function"
    },
    {
      "inputs": [
        {
          "internalType": "uint256",
          "name": "tokenId",
          "type": "uint256"
        }
      ],
      "name": "ownerOf",
      "outputs": [
        {
          "internalType": "address",
          "name": "",
          "type": "address"
        }
      ],
      "stateMutability": "view",
      "type": "function"
    },
    {
      "inputs": [],
      "name": "renounceOwnership",
      "outputs": [],
      "stateMutability": "nonpayable",
      "type": "function"
    },
    {
      "inputs": [
        {
          "internalType": "address",
          "name": "from",
          "type": "address"
        },
        {
          "internalType": "address",
          "name": "to",
          "type": "address"
        },
        {
          "internalType": "uint256",
          "name": "tokenId",
          "type": "uint256"
        }
      ],
      "name": "safeTransferFrom",
      "outputs": [],
      "stateMutability": "nonpayable",
      "type": "function"
    },
    {
      "inputs": [
        {
          "internalType": "address",
          "name": "from",
          "type": "address"
        },
        {
          "internalType": "address",
          "name": "to",
          "type": "address"
        },
        {
          "internalType": "uint256",
          "name": "tokenId",
          "type": "uint256"
        },
        {
          "internalType": "bytes",
          "name": "data",
          "type": "bytes"
        }
      ],
      "name": "safeTransferFrom",
      "outputs": [],
      "stateMutability": "nonpayable",
      "type": "function"
    },
    {
      "inputs": [],
      "name": "salePrice",
      "outputs": [
        {
          "internalType": "uint256",
          "name": "",
          "type": "uint256"
        }
      ],
      "stateMutability": "view",
      "type": "function"
    },
    {
      "inputs": [
        {
          "internalType": "address",
          "name": "operator",
          "type": "address"
        },
        {
          "internalType": "bool",
          "name": "approved",
          "type": "bool"
        }
      ],
      "name": "setApprovalForAll",
      "outputs": [],
      "stateMutability": "nonpayable",
      "type": "function"
    },
    {
      "inputs": [
        {
          "internalType": "string",
          "name": "baseURI",
          "type": "string"
        }
      ],
      "name": "setBaseURI",
      "outputs": [],
      "stateMutability": "nonpayable",
      "type": "function"
    },
    {
      "inputs": [
        {
          "internalType": "uint256",
          "name": "price",
          "type": "uint256"
        }
      ],
      "name": "setSalePrice",
      "outputs": [],
      "stateMutability": "nonpayable",
      "type": "function"
    },
    {
      "inputs": [
        {
          "internalType": "bytes4",
          "name": "interfaceId",
          "type": "bytes4"
        }
      ],
      "name": "supportsInterface",
      "outputs": [
        {
          "internalType": "bool",
          "name": "",
          "type": "bool"
        }
      ],
      "stateMutability": "view",
      "type": "function"
    },
    {
      "inputs": [],
      "name": "symbol",
      "outputs": [
        {
          "internalType": "string",
          "name": "",
          "type": "string"
        }
      ],
      "stateMutability": "view",
      "type": "function"
    },
    {
      "inputs": [
        {
          "internalType": "uint256",
          "name": "tokenId",
          "type": "uint256"
        }
      ],
      "name": "tokenURI",
      "outputs": [
        {
          "internalType": "string",
          "name": "",
          "type": "string"
        }
      ],
      "stateMutability": "view",
      "type": "function"
    },
    {
      "inputs": [
        {
          "internalType": "address",
          "name": "from",
          "type": "address"
        },
        {
          "internalType": "address",
          "name": "to",
          "type": "address"
        },
        {
          "internalType": "uint256",
          "name": "tokenId",
          "type": "uint256"
        }
      ],
      "name": "transferFrom",
      "outputs": [],
      "stateMutability": "nonpayable",
      "type": "function"
    },
    {
      "inputs": [
        {
          "internalType": "address",
          "name": "newOwner",
          "type": "address"
        }
      ],
      "name": "transferOwnership",
      "outputs": [],
      "stateMutability": "nonpayable",
      "type": "function"
    },
    {
      "inputs": [],
      "name": "uri",
      "outputs": [
        {
          "internalType": "string",
          "name": "",
          "type": "string"
        }
      ],
      "stateMutability": "view",
      "type": "function"
    },
    {
      "inputs": [
        {
          "internalType": "address payable",
          "name": "payee",
          "type": "address"
        }
      ],
      "name": "withdrawPayments",
      "outputs": [],
      "stateMutability": "nonpayable",
      "type": "function"
    }
  ],
  "bytecode": {
    "object": "0x60006007556006600855610100604052605060808181529062001ab660a039600a906200002d9082620001ae565b506040518060400160405280600a81526020016914da5b5c1b194813919560b21b8152506040518060400160405280600681526020016553494d504c4560d01b8152508160009081620000819190620001ae565b506001620000908282620001ae565b505050620000ad620000a7620000b360201b60201c565b620000b7565b6200027a565b3390565b600680546001600160a01b038381166001600160a01b0319831681179093556040519116919082907f8be0079c531659141344cd1fd0a4f28419497f9722a3daafe3b4186f6b6457e090600090a35050565b634e487b7160e01b600052604160045260246000fd5b600181811c908216806200013457607f821691505b6020821081036200015557634e487b7160e01b600052602260045260246000fd5b50919050565b601f821115620001a957600081815260208120601f850160051c81016020861015620001845750805b601f850160051c820191505b81811015620001a55782815560010162000190565b5050505b505050565b81516001600160401b03811115620001ca57620001ca62000109565b620001e281620001db84546200011f565b846200015b565b602080601f8311600181146200021a5760008415620002015750858301515b600019600386901b1c1916600185901b178555620001a5565b600085815260208120601f198616915b828110156200024b578886015182559484019460019091019084016200022a565b50858210156200026a5787850151600019600388901b60f8161c191681555b5050505050600190811b01905550565b61182c806200028a6000396000f3fe60806040526004361061014a5760003560e01c8063715018a6116100b6578063c87b56dd1161006f578063c87b56dd1461039f578063e985e9c5146103bf578063eac989f8146103df578063f2fde38b146103f4578063f34341c714610414578063f51f96dd1461042a57600080fd5b8063715018a6146103045780638da5cb5b1461031957806395d89b4114610337578063a0712d681461034c578063a22cb4651461035f578063b88d4fde1461037f57600080fd5b806323b872dd1161010857806323b872dd1461024457806331b3eb941461026457806342842e0e1461028457806355f804b3146102a45780636352211e146102c457806370a08231146102e457600080fd5b80629a9b7b1461014f57806301ffc9a71461017857806306fdde03146101a8578063081812fc146101ca578063095ea7b3146102025780631919fed714610224575b600080fd5b34801561015b57600080fd5b5061016560095481565b6040519081526020015b60405180910390f35b34801561018457600080fd5b50610198610193366004611220565b610440565b604051901515815260200161016f565b3480156101b457600080fd5b506101bd610492565b60405161016f919061128a565b3480156101d657600080fd5b506101ea6101e536600461129d565b610524565b6040516001600160a01b03909116815260200161016f565b34801561020e57600080fd5b5061022261021d3660046112cb565b61054b565b005b34801561023057600080fd5b5061022261023f36600461129d565b610665565b34801561025057600080fd5b5061022261025f3660046112f7565b610672565b34801561027057600080fd5b5061022261027f366004611338565b6106a3565b34801561029057600080fd5b5061022261029f3660046112f7565b61071f565b3480156102b057600080fd5b506102226102bf366004611355565b61073a565b3480156102d057600080fd5b506101ea6102df36600461129d565b61074f565b3480156102f057600080fd5b506101656102ff366004611338565b6107af565b34801561031057600080fd5b50610222610835565b34801561032557600080fd5b506006546001600160a01b03166101ea565b34801561034357600080fd5b506101bd610849565b61022261035a36600461129d565b610858565b34801561036b57600080fd5b5061022261037a3660046113c7565b6108ea565b34801561038b57600080fd5b5061022261039a36600461141b565b6108f9565b3480156103ab57600080fd5b506101bd6103ba36600461129d565b61092b565b3480156103cb57600080fd5b506101986103da3660046114fb565b6109bf565b3480156103eb57600080fd5b506101bd6109ed565b34801561040057600080fd5b5061022261040f366004611338565b610a7b565b34801561042057600080fd5b5061016560085481565b34801561043657600080fd5b5061016560075481565b60006001600160e01b031982166380ac58cd60e01b148061047157506001600160e01b03198216635b5e139f60e01b145b8061048c57506301ffc9a760e01b6001600160e01b03198316145b92915050565b6060600080546104a190611529565b80601f01602080910402602001604051908101604052809291908181526020018280546104cd90611529565b801561051a5780601f106104ef5761010080835404028352916020019161051a565b820191906000526020600020905b8154815290600101906020018083116104fd57829003601f168201915b5050505050905090565b600061052f82610af4565b506000908152600460205260409020546001600160a01b031690565b60006105568261074f565b9050806001600160a01b0316836001600160a01b0316036105c85760405162461bcd60e51b815260206004820152602160248201527f4552433732313a20617070726f76616c20746f2063757272656e74206f776e656044820152603960f91b60648201526084015b60405180910390fd5b336001600160a01b03821614806105e457506105e481336109bf565b6106565760405162461bcd60e51b815260206004820152603d60248201527f4552433732313a20617070726f76652063616c6c6572206973206e6f7420746f60448201527f6b656e206f776e6572206f7220617070726f76656420666f7220616c6c00000060648201526084016105bf565b6106608383610b53565b505050565b61066d610bc1565b600755565b61067c3382610c1b565b6106985760405162461bcd60e51b81526004016105bf90611563565b610660838383610c7a565b6106ab610bc1565b60405147906000906001600160a01b0384169083908381818185875af1925050503d80600081146106f8576040519150601f19603f3d011682016040523d82523d6000602084013e6106fd565b606091505b50509050806106605760405163d23a9e8960e01b815260040160405180910390fd5b610660838383604051806020016040528060008152506108f9565b610742610bc1565b600a6106608284836115fe565b6000818152600260205260408120546001600160a01b03168061048c5760405162461bcd60e51b8152602060048201526018602482015277115490cdcc8c4e881a5b9d985b1a59081d1bdad95b88125160421b60448201526064016105bf565b60006001600160a01b0382166108195760405162461bcd60e51b815260206004820152602960248201527f4552433732313a2061646472657373207a65726f206973206e6f7420612076616044820152683634b21037bbb732b960b91b60648201526084016105bf565b506001600160a01b031660009081526003602052604090205490565b61083d610bc1565b6108476000610dde565b565b6060600180546104a190611529565b8060085481111561087c57604051633a4733d960e11b815260040160405180910390fd5b81348160075461088c91906116d5565b146108aa57604051636956f2ab60e11b815260040160405180910390fd5b60005b838110156108e4576108d2336009600081546108c8906116ec565b9182905550610e30565b806108dc816116ec565b9150506108ad565b50505050565b6108f5338383610e4a565b5050565b6109033383610c1b565b61091f5760405162461bcd60e51b81526004016105bf90611563565b6108e484848484610f18565b6060600a805461093a90611529565b80601f016020809104026020016040519081016040528092919081815260200182805461096690611529565b80156109b35780601f10610988576101008083540402835291602001916109b3565b820191906000526020600020905b81548152906001019060200180831161099657829003601f168201915b50505050509050919050565b6001600160a01b03918216600090815260056020908152604080832093909416825291909152205460ff1690565b600a80546109fa90611529565b80601f0160208091040260200160405190810160405280929190818152602001828054610a2690611529565b8015610a735780601f10610a4857610100808354040283529160200191610a73565b820191906000526020600020905b815481529060010190602001808311610a5657829003601f168201915b505050505081565b610a83610bc1565b6001600160a01b038116610ae85760405162461bcd60e51b815260206004820152602660248201527f4f776e61626c653a206e6577206f776e657220697320746865207a65726f206160448201526564647265737360d01b60648201526084016105bf565b610af181610dde565b50565b6000818152600260205260409020546001600160a01b0316610af15760405162461bcd60e51b8152602060048201526018602482015277115490cdcc8c4e881a5b9d985b1a59081d1bdad95b88125160421b60448201526064016105bf565b600081815260046020526040902080546001600160a01b0319166001600160a01b0384169081179091558190610b888261074f565b6001600160a01b03167f8c5be1e5ebec7d5bd14f71427d1e84f3dd0314c0f7b2291e5b200ac8c7c3b92560405160405180910390a45050565b6006546001600160a01b031633146108475760405162461bcd60e51b815260206004820181905260248201527f4f776e61626c653a2063616c6c6572206973206e6f7420746865206f776e657260448201526064016105bf565b600080610c278361074f565b9050806001600160a01b0316846001600160a01b03161480610c4e5750610c4e81856109bf565b80610c725750836001600160a01b0316610c6784610524565b6001600160a01b0316145b949350505050565b826001600160a01b0316610c8d8261074f565b6001600160a01b031614610cb35760405162461bcd60e51b81526004016105bf90611705565b6001600160a01b038216610d155760405162461bcd60e51b8152602060048201526024808201527f4552433732313a207472616e7366657220746f20746865207a65726f206164646044820152637265737360e01b60648201526084016105bf565b826001600160a01b0316610d288261074f565b6001600160a01b031614610d4e5760405162461bcd60e51b81526004016105bf90611705565b600081815260046020908152604080832080546001600160a01b03199081169091556001600160a01b0387811680865260038552838620805460001901905590871680865283862080546001019055868652600290945282852080549092168417909155905184937fddf252ad1be2c89b69c2b068fc378daa952ba7f163c4a11628f55a4df523b3ef91a4505050565b600680546001600160a01b038381166001600160a01b0319831681179093556040519116919082907f8be0079c531659141344cd1fd0a4f28419497f9722a3daafe3b4186f6b6457e090600090a35050565b6108f5828260405180602001604052806000815250610f4b565b816001600160a01b0316836001600160a01b031603610eab5760405162461bcd60e51b815260206004820152601960248201527f4552433732313a20617070726f766520746f2063616c6c65720000000000000060448201526064016105bf565b6001600160a01b03838116600081815260056020908152604080832094871680845294825291829020805460ff191686151590811790915591519182527f17307eab39ab6107e8899845ad3d59bd9653f200f220920489ca2b5937696c31910160405180910390a3505050565b610f23848484610c7a565b610f2f84848484610f7e565b6108e45760405162461bcd60e51b81526004016105bf9061174a565b610f55838361107f565b610f626000848484610f7e565b6106605760405162461bcd60e51b81526004016105bf9061174a565b60006001600160a01b0384163b1561107457604051630a85bd0160e11b81526001600160a01b0385169063150b7a0290610fc290339089908890889060040161179c565b6020604051808303816000875af1925050508015610ffd575060408051601f3d908101601f19168201909252610ffa918101906117d9565b60015b61105a573d80801561102b576040519150601f19603f3d011682016040523d82523d6000602084013e611030565b606091505b5080516000036110525760405162461bcd60e51b81526004016105bf9061174a565b805181602001fd5b6001600160e01b031916630a85bd0160e11b149050610c72565b506001949350505050565b6001600160a01b0382166110d55760405162461bcd60e51b815260206004820181905260248201527f4552433732313a206d696e7420746f20746865207a65726f206164647265737360448201526064016105bf565b6000818152600260205260409020546001600160a01b03161561113a5760405162461bcd60e51b815260206004820152601c60248201527f4552433732313a20746f6b656e20616c7265616479206d696e7465640000000060448201526064016105bf565b6000818152600260205260409020546001600160a01b03161561119f5760405162461bcd60e51b815260206004820152601c60248201527f4552433732313a20746f6b656e20616c7265616479206d696e7465640000000060448201526064016105bf565b6001600160a01b038216600081815260036020908152604080832080546001019055848352600290915280822080546001600160a01b0319168417905551839291907fddf252ad1be2c89b69c2b068fc378daa952ba7f163c4a11628f55a4df523b3ef908290a45050565b6001600160e01b031981168114610af157600080fd5b60006020828403121561123257600080fd5b813561123d8161120a565b9392505050565b6000815180845260005b8181101561126a5760208185018101518683018201520161124e565b506000602082860101526020601f19601f83011685010191505092915050565b60208152600061123d6020830184611244565b6000602082840312156112af57600080fd5b5035919050565b6001600160a01b0381168114610af157600080fd5b600080604083850312156112de57600080fd5b82356112e9816112b6565b946020939093013593505050565b60008060006060848603121561130c57600080fd5b8335611317816112b6565b92506020840135611327816112b6565b929592945050506040919091013590565b60006020828403121561134a57600080fd5b813561123d816112b6565b6000806020838503121561136857600080fd5b823567ffffffffffffffff8082111561138057600080fd5b818501915085601f83011261139457600080fd5b8135818111156113a357600080fd5b8660208285010111156113b557600080fd5b60209290920196919550909350505050565b600080604083850312156113da57600080fd5b82356113e5816112b6565b9150602083013580151581146113fa57600080fd5b809150509250929050565b634e487b7160e01b600052604160045260246000fd5b6000806000806080858703121561143157600080fd5b843561143c816112b6565b9350602085013561144c816112b6565b925060408501359150606085013567ffffffffffffffff8082111561147057600080fd5b818701915087601f83011261148457600080fd5b81358181111561149657611496611405565b604051601f8201601f19908116603f011681019083821181831017156114be576114be611405565b816040528281528a60208487010111156114d757600080fd5b82602086016020830137600060208483010152809550505050505092959194509250565b6000806040838503121561150e57600080fd5b8235611519816112b6565b915060208301356113fa816112b6565b600181811c9082168061153d57607f821691505b60208210810361155d57634e487b7160e01b600052602260045260246000fd5b50919050565b6020808252602d908201527f4552433732313a2063616c6c6572206973206e6f7420746f6b656e206f776e6560408201526c1c881bdc88185c1c1c9bdd9959609a1b606082015260800190565b601f82111561066057600081815260208120601f850160051c810160208610156115d75750805b601f850160051c820191505b818110156115f6578281556001016115e3565b505050505050565b67ffffffffffffffff83111561161657611616611405565b61162a836116248354611529565b836115b0565b6000601f84116001811461165e57600085156116465750838201355b600019600387901b1c1916600186901b1783556116b8565b600083815260209020601f19861690835b8281101561168f578685013582556020948501946001909201910161166f565b50868210156116ac5760001960f88860031b161c19848701351681555b505060018560011b0183555b5050505050565b634e487b7160e01b600052601160045260246000fd5b808202811582820484141761048c5761048c6116bf565b6000600182016116fe576116fe6116bf565b5060010190565b60208082526025908201527f4552433732313a207472616e736665722066726f6d20696e636f72726563742060408201526437bbb732b960d91b606082015260800190565b60208082526032908201527f4552433732313a207472616e7366657220746f206e6f6e20455243373231526560408201527131b2b4bb32b91034b6b83632b6b2b73a32b960711b606082015260800190565b6001600160a01b03858116825284166020820152604081018390526080606082018190526000906117cf90830184611244565b9695505050505050565b6000602082840312156117eb57600080fd5b815161123d8161120a56fea26469706673582212202cb35b09178f8d5e9bdf5533757f367d60ae744a34af81b38b1d77f395f1238264736f6c6343000813003368747470733a2f2f676174657761792e70696e6174612e636c6f75642f697066732f516d50757835516779504866786a7543426631474c36626e6259526f44647a7768395547646e7a32555878353844",
    "linkReferences": {}
  },
  "methodIdentifiers": {
    "approve(address,uint256)": "095ea7b3",
    "balanceOf(address)": "70a08231",
    "currentTokenId()": "009a9b7b",
    "getApproved(uint256)": "081812fc",
    "isApprovedForAll(address,address)": "e985e9c5",
    "maxTokensPerTxn()": "f34341c7",
    "mint(uint256)": "a0712d68",
    "name()": "06fdde03",
    "owner()": "8da5cb5b",
    "ownerOf(uint256)": "6352211e",
    "renounceOwnership()": "715018a6",
    "safeTransferFrom(address,address,uint256)": "42842e0e",
    "safeTransferFrom(address,address,uint256,bytes)": "b88d4fde",
    "salePrice()": "f51f96dd",
    "setApprovalForAll(address,bool)": "a22cb465",
    "setBaseURI(string)": "55f804b3",
    "setSalePrice(uint256)": "1919fed7",
    "supportsInterface(bytes4)": "01ffc9a7",
    "symbol()": "95d89b41",
    "tokenURI(uint256)": "c87b56dd",
    "transferFrom(address,address,uint256)": "23b872dd",
    "transferOwnership(address)": "f2fde38b",
    "uri()": "eac989f8",
    "withdrawPayments(address)": "31b3eb94"
  },
  "id": 67
}