{
  "abi": [
    {
      "inputs": [
        {
          "internalType": "contract IEntryPoint",
          "name": "_entryPoint",
          "type": "address"
        },
        {
          "internalType": "address",
          "name": "_nftPassAddress",
          "type": "address"
        },
        {
          "internalType": "address[]",
          "name": "addresses",
          "type": "address[]"
        }
      ],
      "stateMutability": "nonpayable",
      "type": "constructor"
    },
    {
      "anonymous": false,
      "inputs": [
        {
          "indexed": true,
          "internalType": "address",
          "name": "previousOwner",
          "type": "address"
        },
        {
          "indexed": true,
          "internalType": "address",
          "name": "newOwner",
          "type": "address"
        }
      ],
      "name": "OwnershipTransferred",
      "type": "event"
    },
    {
      "inputs": [
        {
          "internalType": "uint32",
          "name": "unstakeDelaySec",
          "type": "uint32"
        }
      ],
      "name": "addStake",
      "outputs": [],
      "stateMutability": "payable",
      "type": "function"
    },
    {
      "inputs": [],
      "name": "deposit",
      "outputs": [],
      "stateMutability": "payable",
      "type": "function"
    },
    {
      "inputs": [],
      "name": "entryPoint",
      "outputs": [
        {
          "internalType": "contract IEntryPoint",
          "name": "",
          "type": "address"
        }
      ],
      "stateMutability": "view",
      "type": "function"
    },
    {
      "inputs": [],
      "name": "getDeposit",
      "outputs": [
        {
          "internalType": "uint256",
          "name": "",
          "type": "uint256"
        }
      ],
      "stateMutability": "view",
      "type": "function"
    },
    {
      "inputs": [],
      "name": "nftPassAddress",
      "outputs": [
        {
          "internalType": "address",
          "name": "",
          "type": "address"
        }
      ],
      "stateMutability": "view",
      "type": "function"
    },
    {
      "inputs": [],
      "name": "owner",
      "outputs": [
        {
          "internalType": "address",
          "name": "",
          "type": "address"
        }
      ],
      "stateMutability": "view",
      "type": "function"
    },
    {
      "inputs": [
        {
          "internalType": "enum IPaymaster.PostOpMode",
          "name": "mode",
          "type": "uint8"
        },
        {
          "internalType": "bytes",
          "name": "context",
          "type": "bytes"
        },
        {
          "internalType": "uint256",
          "name": "actualGasCost",
          "type": "uint256"
        }
      ],
      "name": "postOp",
      "outputs": [],
      "stateMutability": "nonpayable",
      "type": "function"
    },
    {
      "inputs": [],
      "name": "renounceOwnership",
      "outputs": [],
      "stateMutability": "nonpayable",
      "type": "function"
    },
    {
      "inputs": [
        {
          "internalType": "contract IEntryPoint",
          "name": "_entryPoint",
          "type": "address"
        }
      ],
      "name": "setEntryPoint",
      "outputs": [],
      "stateMutability": "nonpayable",
      "type": "function"
    },
    {
      "inputs": [
        {
          "internalType": "address",
          "name": "newNftPassAddress",
          "type": "address"
        }
      ],
      "name": "setNftPassAddress",
      "outputs": [],
      "stateMutability": "nonpayable",
      "type": "function"
    },
    {
      "inputs": [
        {
          "internalType": "address[]",
          "name": "addresses",
          "type": "address[]"
        }
      ],
      "name": "setWhiteAddresses",
      "outputs": [],
      "stateMutability": "nonpayable",
      "type": "function"
    },
    {
      "inputs": [
        {
          "internalType": "address",
          "name": "newOwner",
          "type": "address"
        }
      ],
      "name": "transferOwnership",
      "outputs": [],
      "stateMutability": "nonpayable",
      "type": "function"
    },
    {
      "inputs": [],
      "name": "unlockStake",
      "outputs": [],
      "stateMutability": "nonpayable",
      "type": "function"
    },
    {
      "inputs": [
        {
          "components": [
            {
              "internalType": "address",
              "name": "sender",
              "type": "address"
            },
            {
              "internalType": "uint256",
              "name": "nonce",
              "type": "uint256"
            },
            {
              "internalType": "bytes",
              "name": "initCode",
              "type": "bytes"
            },
            {
              "internalType": "bytes",
              "name": "callData",
              "type": "bytes"
            },
            {
              "internalType": "uint256",
              "name": "callGasLimit",
              "type": "uint256"
            },
            {
              "internalType": "uint256",
              "name": "verificationGasLimit",
              "type": "uint256"
            },
            {
              "internalType": "uint256",
              "name": "preVerificationGas",
              "type": "uint256"
            },
            {
              "internalType": "uint256",
              "name": "maxFeePerGas",
              "type": "uint256"
            },
            {
              "internalType": "uint256",
              "name": "maxPriorityFeePerGas",
              "type": "uint256"
            },
            {
              "internalType": "bytes",
              "name": "paymasterAndData",
              "type": "bytes"
            },
            {
              "internalType": "bytes",
              "name": "signature",
              "type": "bytes"
            }
          ],
          "internalType": "struct UserOperation",
          "name": "userOp",
          "type": "tuple"
        },
        {
          "internalType": "bytes32",
          "name": "userOpHash",
          "type": "bytes32"
        },
        {
          "internalType": "uint256",
          "name": "maxCost",
          "type": "uint256"
        }
      ],
      "name": "validatePaymasterUserOp",
      "outputs": [
        {
          "internalType": "bytes",
          "name": "context",
          "type": "bytes"
        },
        {
          "internalType": "uint256",
          "name": "deadline",
          "type": "uint256"
        }
      ],
      "stateMutability": "view",
      "type": "function"
    },
    {
      "inputs": [
        {
          "internalType": "uint256",
          "name": "",
          "type": "uint256"
        }
      ],
      "name": "whiteAddresses",
      "outputs": [
        {
          "internalType": "address",
          "name": "",
          "type": "address"
        }
      ],
      "stateMutability": "view",
      "type": "function"
    },
    {
      "inputs": [
        {
          "internalType": "address payable",
          "name": "withdrawAddress",
          "type": "address"
        }
      ],
      "name": "withdrawStake",
      "outputs": [],
      "stateMutability": "nonpayable",
      "type": "function"
    },
    {
      "inputs": [
        {
          "internalType": "address payable",
          "name": "withdrawAddress",
          "type": "address"
        },
        {
          "internalType": "uint256",
          "name": "amount",
          "type": "uint256"
        }
      ],
      "name": "withdrawTo",
      "outputs": [],
      "stateMutability": "nonpayable",
      "type": "function"
    }
  ],
  "bytecode": {
    "object": "0x60806040523480156200001157600080fd5b506040516200118738038062001187833981016040819052620000349162000225565b82620000403362000086565b6200004b81620000d6565b50600280546001600160a01b0319166001600160a01b03841617905580516200007c90600390602084019062000163565b5050505062000325565b600080546001600160a01b038381166001600160a01b0319831681178455604051919092169283917f8be0079c531659141344cd1fd0a4f28419497f9722a3daafe3b4186f6b6457e09190a35050565b620000e062000102565b600180546001600160a01b0319166001600160a01b0392909216919091179055565b6000546001600160a01b03163314620001615760405162461bcd60e51b815260206004820181905260248201527f4f776e61626c653a2063616c6c6572206973206e6f7420746865206f776e6572604482015260640160405180910390fd5b565b828054828255906000526020600020908101928215620001bb579160200282015b82811115620001bb57825182546001600160a01b0319166001600160a01b0390911617825560209092019160019091019062000184565b50620001c9929150620001cd565b5090565b5b80821115620001c95760008155600101620001ce565b6001600160a01b0381168114620001fa57600080fd5b50565b80516200020a81620001e4565b919050565b634e487b7160e01b600052604160045260246000fd5b6000806000606084860312156200023b57600080fd5b83516200024881620001e4565b809350506020808501516200025d81620001e4565b60408601519093506001600160401b03808211156200027b57600080fd5b818701915087601f8301126200029057600080fd5b815181811115620002a557620002a56200020f565b8060051b604051601f19603f83011681018181108582111715620002cd57620002cd6200020f565b60405291825284820192508381018501918a831115620002ec57600080fd5b938501935b8285101562000315576200030585620001fd565b84529385019392850192620002f1565b8096505050505050509250925092565b610e5280620003356000396000f3fe6080604052600436106100fe5760003560e01c8063b0d691fe11610095578063d0e30db011610064578063d0e30db014610280578063d97e0ada14610288578063eb4bd055146102a8578063f2fde38b146102c8578063f465c77e146102e857600080fd5b8063b0d691fe14610208578063bb9fe6bf14610228578063c23a5cea1461023d578063c399ec881461025d57600080fd5b8063715018a6116100d1578063715018a6146101955780638da5cb5b146101aa578063a0ac611b146101c8578063a9a23409146101e857600080fd5b80630396cb6014610103578063205c287814610118578063584465f21461013857806366c00cca14610158575b600080fd5b6101166101113660046109c8565b610316565b005b34801561012457600080fd5b50610116610133366004610a0a565b610385565b34801561014457600080fd5b50610116610153366004610a36565b6103db565b34801561016457600080fd5b50600254610178906001600160a01b031681565b6040516001600160a01b0390911681526020015b60405180910390f35b3480156101a157600080fd5b50610116610405565b3480156101b657600080fd5b506000546001600160a01b0316610178565b3480156101d457600080fd5b506101786101e3366004610a53565b610419565b3480156101f457600080fd5b50610116610203366004610a6c565b610443565b34801561021457600080fd5b50600154610178906001600160a01b031681565b34801561023457600080fd5b5061011661045d565b34801561024957600080fd5b50610116610258366004610a36565b6104c9565b34801561026957600080fd5b50610272610533565b60405190815260200161018c565b6101166105a5565b34801561029457600080fd5b506101166102a3366004610a36565b6105eb565b3480156102b457600080fd5b506101166102c3366004610b42565b610615565b3480156102d457600080fd5b506101166102e3366004610a36565b610634565b3480156102f457600080fd5b50610308610303366004610bf4565b6106b2565b60405161018c929190610c48565b61031e6107ec565b600154604051621cb65b60e51b815263ffffffff831660048201526001600160a01b0390911690630396cb609034906024016000604051808303818588803b15801561036957600080fd5b505af115801561037d573d6000803e3d6000fd5b505050505050565b61038d6107ec565b60015460405163040b850f60e31b81526001600160a01b038481166004830152602482018490529091169063205c287890604401600060405180830381600087803b15801561036957600080fd5b6103e36107ec565b600180546001600160a01b0319166001600160a01b0392909216919091179055565b61040d6107ec565b6104176000610846565b565b6003818154811061042957600080fd5b6000918252602090912001546001600160a01b0316905081565b61044b610896565b610457848484846108ad565b50505050565b6104656107ec565b600160009054906101000a90046001600160a01b03166001600160a01b031663bb9fe6bf6040518163ffffffff1660e01b8152600401600060405180830381600087803b1580156104b557600080fd5b505af1158015610457573d6000803e3d6000fd5b6104d16107ec565b60015460405163611d2e7560e11b81526001600160a01b0383811660048301529091169063c23a5cea90602401600060405180830381600087803b15801561051857600080fd5b505af115801561052c573d6000803e3d6000fd5b5050505050565b6001546040516370a0823160e01b81523060048201526000916001600160a01b0316906370a0823190602401602060405180830381865afa15801561057c573d6000803e3d6000fd5b505050506040513d601f19601f820116820180604052508101906105a09190610c9d565b905090565b60015460405163b760faf960e01b81523060048201526001600160a01b039091169063b760faf99034906024016000604051808303818588803b15801561051857600080fd5b6105f36107ec565b600280546001600160a01b0319166001600160a01b0392909216919091179055565b61061d6107ec565b805161063090600390602084019061094e565b5050565b61063c6107ec565b6001600160a01b0381166106a65760405162461bcd60e51b815260206004820152602660248201527f4f776e61626c653a206e6577206f776e657220697320746865207a65726f206160448201526564647265737360d01b60648201526084015b60405180910390fd5b6106af81610846565b50565b6002546060906000906001600160a01b031681816370a082316106d860208a018a610a36565b6040516001600160e01b031960e084901b1681526001600160a01b039091166004820152602401602060405180830381865afa15801561071c573d6000803e3d6000fd5b505050506040513d601f19601f820116820180604052508101906107409190610c9d565b90506000808061075360608b018b610cb6565b610761916004908290610d04565b81019061076e9190610d2e565b92509250925061077d836108e5565b6107a257600160405180602001604052806000815250909650965050505050506107e4565b83156107c957600060405180602001604052806000815250909650965050505050506107e4565b50506040805160208101909152600081529450600193505050505b935093915050565b6000546001600160a01b031633146104175760405162461bcd60e51b815260206004820181905260248201527f4f776e61626c653a2063616c6c6572206973206e6f7420746865206f776e6572604482015260640161069d565b600080546001600160a01b038381166001600160a01b0319831681178455604051919092169283917f8be0079c531659141344cd1fd0a4f28419497f9722a3daafe3b4186f6b6457e09190a35050565b6001546001600160a01b0316331461041757600080fd5b60405162461bcd60e51b815260206004820152600d60248201526c6d757374206f7665727269646560981b604482015260640161069d565b6000805b60035481101561094557826001600160a01b03166003828154811061091057610910610ddf565b6000918252602090912001546001600160a01b0316036109335750600192915050565b8061093d81610df5565b9150506108e9565b50600092915050565b8280548282559060005260206000209081019282156109a3579160200282015b828111156109a357825182546001600160a01b0319166001600160a01b0390911617825560209092019160019091019061096e565b506109af9291506109b3565b5090565b5b808211156109af57600081556001016109b4565b6000602082840312156109da57600080fd5b813563ffffffff811681146109ee57600080fd5b9392505050565b6001600160a01b03811681146106af57600080fd5b60008060408385031215610a1d57600080fd5b8235610a28816109f5565b946020939093013593505050565b600060208284031215610a4857600080fd5b81356109ee816109f5565b600060208284031215610a6557600080fd5b5035919050565b60008060008060608587031215610a8257600080fd5b843560038110610a9157600080fd5b9350602085013567ffffffffffffffff80821115610aae57600080fd5b818701915087601f830112610ac257600080fd5b813581811115610ad157600080fd5b886020828501011115610ae357600080fd5b95986020929092019750949560400135945092505050565b634e487b7160e01b600052604160045260246000fd5b604051601f8201601f1916810167ffffffffffffffff81118282101715610b3a57610b3a610afb565b604052919050565b60006020808385031215610b5557600080fd5b823567ffffffffffffffff80821115610b6d57600080fd5b818501915085601f830112610b8157600080fd5b813581811115610b9357610b93610afb565b8060051b9150610ba4848301610b11565b8181529183018401918481019088841115610bbe57600080fd5b938501935b83851015610be85784359250610bd8836109f5565b8282529385019390850190610bc3565b98975050505050505050565b600080600060608486031215610c0957600080fd5b833567ffffffffffffffff811115610c2057600080fd5b84016101608187031215610c3357600080fd5b95602085013595506040909401359392505050565b604081526000835180604084015260005b81811015610c765760208187018101516060868401015201610c59565b506000606082850101526060601f19601f8301168401019150508260208301529392505050565b600060208284031215610caf57600080fd5b5051919050565b6000808335601e19843603018112610ccd57600080fd5b83018035915067ffffffffffffffff821115610ce857600080fd5b602001915036819003821315610cfd57600080fd5b9250929050565b60008085851115610d1457600080fd5b83861115610d2157600080fd5b5050820193919092039150565b600080600060608486031215610d4357600080fd5b8335610d4e816109f5565b92506020848101359250604085013567ffffffffffffffff80821115610d7357600080fd5b818701915087601f830112610d8757600080fd5b813581811115610d9957610d99610afb565b610dab601f8201601f19168501610b11565b91508082528884828501011115610dc157600080fd5b80848401858401376000848284010152508093505050509250925092565b634e487b7160e01b600052603260045260246000fd5b600060018201610e1557634e487b7160e01b600052601160045260246000fd5b506001019056fea2646970667358221220038640141b1b096d80d059b2296f423858093bbac73ae6dd0508925028df9a1164736f6c63430008130033",
    "linkReferences": {}
  },
  "methodIdentifiers": {
    "addStake(uint32)": "0396cb60",
    "deposit()": "d0e30db0",
    "entryPoint()": "b0d691fe",
    "getDeposit()": "c399ec88",
    "nftPassAddress()": "66c00cca",
    "owner()": "8da5cb5b",
    "postOp(uint8,bytes,uint256)": "a9a23409",
    "renounceOwnership()": "715018a6",
    "setEntryPoint(address)": "584465f2",
    "setNftPassAddress(address)": "d97e0ada",
    "setWhiteAddresses(address[])": "eb4bd055",
    "transferOwnership(address)": "f2fde38b",
    "unlockStake()": "bb9fe6bf",
    "validatePaymasterUserOp((address,uint256,bytes,bytes,uint256,uint256,uint256,uint256,uint256,bytes,bytes),bytes32,uint256)": "f465c77e",
    "whiteAddresses(uint256)": "a0ac611b",
    "withdrawStake(address)": "c23a5cea",
    "withdrawTo(address,uint256)": "205c2878"
  },
  "id": 68
}