{
  "abi": [
    {
      "inputs": [
        {
          "internalType": "contract IEntryPoint",
          "name": "_entryPoint",
          "type": "address"
        },
        {
          "internalType": "address",
          "name": "nftPassAddress",
          "type": "address"
        },
        {
          "internalType": "address[]",
          "name": "addresses",
          "type": "address[]"
        }
      ],
      "stateMutability": "nonpayable",
      "type": "constructor"
    },
    {
      "anonymous": false,
      "inputs": [
        {
          "indexed": true,
          "internalType": "address",
          "name": "previousOwner",
          "type": "address"
        },
        {
          "indexed": true,
          "internalType": "address",
          "name": "newOwner",
          "type": "address"
        }
      ],
      "name": "OwnershipTransferred",
      "type": "event"
    },
    {
      "inputs": [
        {
          "internalType": "uint32",
          "name": "unstakeDelaySec",
          "type": "uint32"
        }
      ],
      "name": "addStake",
      "outputs": [],
      "stateMutability": "payable",
      "type": "function"
    },
    {
      "inputs": [],
      "name": "deposit",
      "outputs": [],
      "stateMutability": "payable",
      "type": "function"
    },
    {
      "inputs": [],
      "name": "entryPoint",
      "outputs": [
        {
          "internalType": "contract IEntryPoint",
          "name": "",
          "type": "address"
        }
      ],
      "stateMutability": "view",
      "type": "function"
    },
    {
      "inputs": [],
      "name": "getDeposit",
      "outputs": [
        {
          "internalType": "uint256",
          "name": "",
          "type": "uint256"
        }
      ],
      "stateMutability": "view",
      "type": "function"
    },
    {
      "inputs": [],
      "name": "nftPassAddress",
      "outputs": [
        {
          "internalType": "address",
          "name": "",
          "type": "address"
        }
      ],
      "stateMutability": "view",
      "type": "function"
    },
    {
      "inputs": [],
      "name": "owner",
      "outputs": [
        {
          "internalType": "address",
          "name": "",
          "type": "address"
        }
      ],
      "stateMutability": "view",
      "type": "function"
    },
    {
      "inputs": [
        {
          "internalType": "enum IPaymaster.PostOpMode",
          "name": "mode",
          "type": "uint8"
        },
        {
          "internalType": "bytes",
          "name": "context",
          "type": "bytes"
        },
        {
          "internalType": "uint256",
          "name": "actualGasCost",
          "type": "uint256"
        }
      ],
      "name": "postOp",
      "outputs": [],
      "stateMutability": "nonpayable",
      "type": "function"
    },
    {
      "inputs": [],
      "name": "renounceOwnership",
      "outputs": [],
      "stateMutability": "nonpayable",
      "type": "function"
    },
    {
      "inputs": [
        {
          "internalType": "contract IEntryPoint",
          "name": "_entryPoint",
          "type": "address"
        }
      ],
      "name": "setEntryPoint",
      "outputs": [],
      "stateMutability": "nonpayable",
      "type": "function"
    },
    {
      "inputs": [
        {
          "internalType": "address",
          "name": "newNftPassAddress",
          "type": "address"
        }
      ],
      "name": "setNftPassAddress",
      "outputs": [],
      "stateMutability": "nonpayable",
      "type": "function"
    },
    {
      "inputs": [
        {
          "internalType": "address[]",
          "name": "addresses",
          "type": "address[]"
        }
      ],
      "name": "setWhiteAddresses",
      "outputs": [],
      "stateMutability": "nonpayable",
      "type": "function"
    },
    {
      "inputs": [
        {
          "internalType": "address",
          "name": "newOwner",
          "type": "address"
        }
      ],
      "name": "transferOwnership",
      "outputs": [],
      "stateMutability": "nonpayable",
      "type": "function"
    },
    {
      "inputs": [],
      "name": "unlockStake",
      "outputs": [],
      "stateMutability": "nonpayable",
      "type": "function"
    },
    {
      "inputs": [
        {
          "components": [
            {
              "internalType": "address",
              "name": "sender",
              "type": "address"
            },
            {
              "internalType": "uint256",
              "name": "nonce",
              "type": "uint256"
            },
            {
              "internalType": "bytes",
              "name": "initCode",
              "type": "bytes"
            },
            {
              "internalType": "bytes",
              "name": "callData",
              "type": "bytes"
            },
            {
              "internalType": "uint256",
              "name": "callGasLimit",
              "type": "uint256"
            },
            {
              "internalType": "uint256",
              "name": "verificationGasLimit",
              "type": "uint256"
            },
            {
              "internalType": "uint256",
              "name": "preVerificationGas",
              "type": "uint256"
            },
            {
              "internalType": "uint256",
              "name": "maxFeePerGas",
              "type": "uint256"
            },
            {
              "internalType": "uint256",
              "name": "maxPriorityFeePerGas",
              "type": "uint256"
            },
            {
              "internalType": "bytes",
              "name": "paymasterAndData",
              "type": "bytes"
            },
            {
              "internalType": "bytes",
              "name": "signature",
              "type": "bytes"
            }
          ],
          "internalType": "struct UserOperation",
          "name": "userOp",
          "type": "tuple"
        },
        {
          "internalType": "bytes32",
          "name": "userOpHash",
          "type": "bytes32"
        },
        {
          "internalType": "uint256",
          "name": "maxCost",
          "type": "uint256"
        }
      ],
      "name": "validatePaymasterUserOp",
      "outputs": [
        {
          "internalType": "bytes",
          "name": "context",
          "type": "bytes"
        },
        {
          "internalType": "uint256",
          "name": "deadline",
          "type": "uint256"
        }
      ],
      "stateMutability": "view",
      "type": "function"
    },
    {
      "inputs": [
        {
          "internalType": "uint256",
          "name": "",
          "type": "uint256"
        }
      ],
      "name": "whiteAddresses",
      "outputs": [
        {
          "internalType": "address",
          "name": "",
          "type": "address"
        }
      ],
      "stateMutability": "view",
      "type": "function"
    },
    {
      "inputs": [
        {
          "internalType": "address payable",
          "name": "withdrawAddress",
          "type": "address"
        }
      ],
      "name": "withdrawStake",
      "outputs": [],
      "stateMutability": "nonpayable",
      "type": "function"
    },
    {
      "inputs": [
        {
          "internalType": "address payable",
          "name": "withdrawAddress",
          "type": "address"
        },
        {
          "internalType": "uint256",
          "name": "amount",
          "type": "uint256"
        }
      ],
      "name": "withdrawTo",
      "outputs": [],
      "stateMutability": "nonpayable",
      "type": "function"
    }
  ],
  "bytecode": {
    "object": "0x60806040523480156200001157600080fd5b50604051620011343803806200113483398101604081905262000034916200020a565b8262000040336200006b565b6200004b81620000bb565b5080516200006190600390602084019062000148565b505050506200030a565b600080546001600160a01b038381166001600160a01b0319831681178455604051919092169283917f8be0079c531659141344cd1fd0a4f28419497f9722a3daafe3b4186f6b6457e09190a35050565b620000c5620000e7565b600180546001600160a01b0319166001600160a01b0392909216919091179055565b6000546001600160a01b03163314620001465760405162461bcd60e51b815260206004820181905260248201527f4f776e61626c653a2063616c6c6572206973206e6f7420746865206f776e6572604482015260640160405180910390fd5b565b828054828255906000526020600020908101928215620001a0579160200282015b82811115620001a057825182546001600160a01b0319166001600160a01b0390911617825560209092019160019091019062000169565b50620001ae929150620001b2565b5090565b5b80821115620001ae5760008155600101620001b3565b6001600160a01b0381168114620001df57600080fd5b50565b8051620001ef81620001c9565b919050565b634e487b7160e01b600052604160045260246000fd5b6000806000606084860312156200022057600080fd5b83516200022d81620001c9565b809350506020808501516200024281620001c9565b60408601519093506001600160401b03808211156200026057600080fd5b818701915087601f8301126200027557600080fd5b8151818111156200028a576200028a620001f4565b8060051b604051601f19603f83011681018181108582111715620002b257620002b2620001f4565b60405291825284820192508381018501918a831115620002d157600080fd5b938501935b82851015620002fa57620002ea85620001e2565b84529385019392850192620002d6565b8096505050505050509250925092565b610e1a806200031a6000396000f3fe6080604052600436106100fe5760003560e01c8063b0d691fe11610095578063d0e30db011610064578063d0e30db014610280578063d97e0ada14610288578063eb4bd055146102a8578063f2fde38b146102c8578063f465c77e146102e857600080fd5b8063b0d691fe14610208578063bb9fe6bf14610228578063c23a5cea1461023d578063c399ec881461025d57600080fd5b8063715018a6116100d1578063715018a6146101955780638da5cb5b146101aa578063a0ac611b146101c8578063a9a23409146101e857600080fd5b80630396cb6014610103578063205c287814610118578063584465f21461013857806366c00cca14610158575b600080fd5b6101166101113660046109ba565b610316565b005b34801561012457600080fd5b506101166101333660046109fc565b610385565b34801561014457600080fd5b50610116610153366004610a28565b6103db565b34801561016457600080fd5b50600254610178906001600160a01b031681565b6040516001600160a01b0390911681526020015b60405180910390f35b3480156101a157600080fd5b50610116610405565b3480156101b657600080fd5b506000546001600160a01b0316610178565b3480156101d457600080fd5b506101786101e3366004610a45565b610419565b3480156101f457600080fd5b50610116610203366004610a5e565b610443565b34801561021457600080fd5b50600154610178906001600160a01b031681565b34801561023457600080fd5b5061011661045d565b34801561024957600080fd5b50610116610258366004610a28565b6104c9565b34801561026957600080fd5b50610272610533565b60405190815260200161018c565b6101166105a5565b34801561029457600080fd5b506101166102a3366004610a28565b6105eb565b3480156102b457600080fd5b506101166102c3366004610b34565b610615565b3480156102d457600080fd5b506101166102e3366004610a28565b610634565b3480156102f457600080fd5b50610308610303366004610be6565b6106b2565b60405161018c929190610c3a565b61031e6107de565b600154604051621cb65b60e51b815263ffffffff831660048201526001600160a01b0390911690630396cb609034906024016000604051808303818588803b15801561036957600080fd5b505af115801561037d573d6000803e3d6000fd5b505050505050565b61038d6107de565b60015460405163040b850f60e31b81526001600160a01b038481166004830152602482018490529091169063205c287890604401600060405180830381600087803b15801561036957600080fd5b6103e36107de565b600180546001600160a01b0319166001600160a01b0392909216919091179055565b61040d6107de565b6104176000610838565b565b6003818154811061042957600080fd5b6000918252602090912001546001600160a01b0316905081565b61044b610888565b6104578484848461089f565b50505050565b6104656107de565b600160009054906101000a90046001600160a01b03166001600160a01b031663bb9fe6bf6040518163ffffffff1660e01b8152600401600060405180830381600087803b1580156104b557600080fd5b505af1158015610457573d6000803e3d6000fd5b6104d16107de565b60015460405163611d2e7560e11b81526001600160a01b0383811660048301529091169063c23a5cea90602401600060405180830381600087803b15801561051857600080fd5b505af115801561052c573d6000803e3d6000fd5b5050505050565b6001546040516370a0823160e01b81523060048201526000916001600160a01b0316906370a0823190602401602060405180830381865afa15801561057c573d6000803e3d6000fd5b505050506040513d601f19601f820116820180604052508101906105a09190610c8f565b905090565b60015460405163b760faf960e01b81523060048201526001600160a01b039091169063b760faf99034906024016000604051808303818588803b15801561051857600080fd5b6105f36107de565b600280546001600160a01b0319166001600160a01b0392909216919091179055565b61061d6107de565b8051610630906003906020840190610940565b5050565b61063c6107de565b6001600160a01b0381166106a65760405162461bcd60e51b815260206004820152602660248201527f4f776e61626c653a206e6577206f776e657220697320746865207a65726f206160448201526564647265737360d01b60648201526084015b60405180910390fd5b6106af81610838565b50565b6002546060906000906001600160a01b031681816370a082316106d860208a018a610a28565b6040516001600160e01b031960e084901b1681526001600160a01b039091166004820152602401602060405180830381865afa15801561071c573d6000803e3d6000fd5b505050506040513d601f19601f820116820180604052508101906107409190610c8f565b90506000808061075360608b018b610ca8565b8101906107609190610cf6565b92509250925061076f836108d7565b61079457600160405180602001604052806000815250909650965050505050506107d6565b83156107bb57600060405180602001604052806000815250909650965050505050506107d6565b50506040805160208101909152600081529450600193505050505b935093915050565b6000546001600160a01b031633146104175760405162461bcd60e51b815260206004820181905260248201527f4f776e61626c653a2063616c6c6572206973206e6f7420746865206f776e6572604482015260640161069d565b600080546001600160a01b038381166001600160a01b0319831681178455604051919092169283917f8be0079c531659141344cd1fd0a4f28419497f9722a3daafe3b4186f6b6457e09190a35050565b6001546001600160a01b0316331461041757600080fd5b60405162461bcd60e51b815260206004820152600d60248201526c6d757374206f7665727269646560981b604482015260640161069d565b6000805b60035481101561093757826001600160a01b03166003828154811061090257610902610da7565b6000918252602090912001546001600160a01b0316036109255750600192915050565b8061092f81610dbd565b9150506108db565b50600092915050565b828054828255906000526020600020908101928215610995579160200282015b8281111561099557825182546001600160a01b0319166001600160a01b03909116178255602090920191600190910190610960565b506109a19291506109a5565b5090565b5b808211156109a157600081556001016109a6565b6000602082840312156109cc57600080fd5b813563ffffffff811681146109e057600080fd5b9392505050565b6001600160a01b03811681146106af57600080fd5b60008060408385031215610a0f57600080fd5b8235610a1a816109e7565b946020939093013593505050565b600060208284031215610a3a57600080fd5b81356109e0816109e7565b600060208284031215610a5757600080fd5b5035919050565b60008060008060608587031215610a7457600080fd5b843560038110610a8357600080fd5b9350602085013567ffffffffffffffff80821115610aa057600080fd5b818701915087601f830112610ab457600080fd5b813581811115610ac357600080fd5b886020828501011115610ad557600080fd5b95986020929092019750949560400135945092505050565b634e487b7160e01b600052604160045260246000fd5b604051601f8201601f1916810167ffffffffffffffff81118282101715610b2c57610b2c610aed565b604052919050565b60006020808385031215610b4757600080fd5b823567ffffffffffffffff80821115610b5f57600080fd5b818501915085601f830112610b7357600080fd5b813581811115610b8557610b85610aed565b8060051b9150610b96848301610b03565b8181529183018401918481019088841115610bb057600080fd5b938501935b83851015610bda5784359250610bca836109e7565b8282529385019390850190610bb5565b98975050505050505050565b600080600060608486031215610bfb57600080fd5b833567ffffffffffffffff811115610c1257600080fd5b84016101608187031215610c2557600080fd5b95602085013595506040909401359392505050565b604081526000835180604084015260005b81811015610c685760208187018101516060868401015201610c4b565b506000606082850101526060601f19601f8301168401019150508260208301529392505050565b600060208284031215610ca157600080fd5b5051919050565b6000808335601e19843603018112610cbf57600080fd5b83018035915067ffffffffffffffff821115610cda57600080fd5b602001915036819003821315610cef57600080fd5b9250929050565b600080600060608486031215610d0b57600080fd5b8335610d16816109e7565b92506020848101359250604085013567ffffffffffffffff80821115610d3b57600080fd5b818701915087601f830112610d4f57600080fd5b813581811115610d6157610d61610aed565b610d73601f8201601f19168501610b03565b91508082528884828501011115610d8957600080fd5b80848401858401376000848284010152508093505050509250925092565b634e487b7160e01b600052603260045260246000fd5b600060018201610ddd57634e487b7160e01b600052601160045260246000fd5b506001019056fea26469706673582212209802d5d75d827956fc201a0fca31ea46231785c92da1b3970979fdb7f4e50a5a64736f6c63430008130033",
    "linkReferences": {}
  },
  "methodIdentifiers": {
    "addStake(uint32)": "0396cb60",
    "deposit()": "d0e30db0",
    "entryPoint()": "b0d691fe",
    "getDeposit()": "c399ec88",
    "nftPassAddress()": "66c00cca",
    "owner()": "8da5cb5b",
    "postOp(uint8,bytes,uint256)": "a9a23409",
    "renounceOwnership()": "715018a6",
    "setEntryPoint(address)": "584465f2",
    "setNftPassAddress(address)": "d97e0ada",
    "setWhiteAddresses(address[])": "eb4bd055",
    "transferOwnership(address)": "f2fde38b",
    "unlockStake()": "bb9fe6bf",
    "validatePaymasterUserOp((address,uint256,bytes,bytes,uint256,uint256,uint256,uint256,uint256,bytes,bytes),bytes32,uint256)": "f465c77e",
    "whiteAddresses(uint256)": "a0ac611b",
    "withdrawStake(address)": "c23a5cea",
    "withdrawTo(address,uint256)": "205c2878"
  },
  "id": 10
}