{
  "abi": [
    {
      "inputs": [
        {
          "internalType": "contract IEntryPoint",
          "name": "_entryPoint",
          "type": "address"
        },
        {
          "internalType": "address",
          "name": "_nftPassAddress",
          "type": "address"
        },
        {
          "internalType": "address[]",
          "name": "addresses",
          "type": "address[]"
        },
        {
          "internalType": "uint256",
          "name": "_gasLimitPerOperation",
          "type": "uint256"
        },
        {
          "internalType": "uint256",
          "name": "_spendingLimitPerOperation",
          "type": "uint256"
        },
        {
          "internalType": "uint256",
          "name": "_timeLimitInSecond",
          "type": "uint256"
        }
      ],
      "stateMutability": "nonpayable",
      "type": "constructor"
    },
    {
      "inputs": [],
      "name": "ExceedingGasLimit",
      "type": "error"
    },
    {
      "anonymous": false,
      "inputs": [
        {
          "indexed": true,
          "internalType": "address",
          "name": "previousOwner",
          "type": "address"
        },
        {
          "indexed": true,
          "internalType": "address",
          "name": "newOwner",
          "type": "address"
        }
      ],
      "name": "OwnershipTransferred",
      "type": "event"
    },
    {
      "inputs": [
        {
          "internalType": "uint32",
          "name": "unstakeDelaySec",
          "type": "uint32"
        }
      ],
      "name": "addStake",
      "outputs": [],
      "stateMutability": "payable",
      "type": "function"
    },
    {
      "inputs": [],
      "name": "deposit",
      "outputs": [],
      "stateMutability": "payable",
      "type": "function"
    },
    {
      "inputs": [],
      "name": "entryPoint",
      "outputs": [
        {
          "internalType": "contract IEntryPoint",
          "name": "",
          "type": "address"
        }
      ],
      "stateMutability": "view",
      "type": "function"
    },
    {
      "inputs": [],
      "name": "gasLimitPerOperation",
      "outputs": [
        {
          "internalType": "uint256",
          "name": "",
          "type": "uint256"
        }
      ],
      "stateMutability": "view",
      "type": "function"
    },
    {
      "inputs": [],
      "name": "getDeposit",
      "outputs": [
        {
          "internalType": "uint256",
          "name": "",
          "type": "uint256"
        }
      ],
      "stateMutability": "view",
      "type": "function"
    },
    {
      "inputs": [],
      "name": "nftPassAddress",
      "outputs": [
        {
          "internalType": "address",
          "name": "",
          "type": "address"
        }
      ],
      "stateMutability": "view",
      "type": "function"
    },
    {
      "inputs": [],
      "name": "owner",
      "outputs": [
        {
          "internalType": "address",
          "name": "",
          "type": "address"
        }
      ],
      "stateMutability": "view",
      "type": "function"
    },
    {
      "inputs": [
        {
          "internalType": "enum IPaymaster.PostOpMode",
          "name": "mode",
          "type": "uint8"
        },
        {
          "internalType": "bytes",
          "name": "context",
          "type": "bytes"
        },
        {
          "internalType": "uint256",
          "name": "actualGasCost",
          "type": "uint256"
        }
      ],
      "name": "postOp",
      "outputs": [],
      "stateMutability": "nonpayable",
      "type": "function"
    },
    {
      "inputs": [],
      "name": "renounceOwnership",
      "outputs": [],
      "stateMutability": "nonpayable",
      "type": "function"
    },
    {
      "inputs": [
        {
          "internalType": "contract IEntryPoint",
          "name": "_entryPoint",
          "type": "address"
        }
      ],
      "name": "setEntryPoint",
      "outputs": [],
      "stateMutability": "nonpayable",
      "type": "function"
    },
    {
      "inputs": [
        {
          "internalType": "address",
          "name": "newNftPassAddress",
          "type": "address"
        }
      ],
      "name": "setNftPassAddress",
      "outputs": [],
      "stateMutability": "nonpayable",
      "type": "function"
    },
    {
      "inputs": [
        {
          "internalType": "address[]",
          "name": "addresses",
          "type": "address[]"
        }
      ],
      "name": "setWhiteAddresses",
      "outputs": [],
      "stateMutability": "nonpayable",
      "type": "function"
    },
    {
      "inputs": [],
      "name": "spendingLimitPerOperation",
      "outputs": [
        {
          "internalType": "uint256",
          "name": "",
          "type": "uint256"
        }
      ],
      "stateMutability": "view",
      "type": "function"
    },
    {
      "inputs": [],
      "name": "timeLimitInSecond",
      "outputs": [
        {
          "internalType": "uint256",
          "name": "",
          "type": "uint256"
        }
      ],
      "stateMutability": "view",
      "type": "function"
    },
    {
      "inputs": [
        {
          "internalType": "address",
          "name": "newOwner",
          "type": "address"
        }
      ],
      "name": "transferOwnership",
      "outputs": [],
      "stateMutability": "nonpayable",
      "type": "function"
    },
    {
      "inputs": [],
      "name": "unlockStake",
      "outputs": [],
      "stateMutability": "nonpayable",
      "type": "function"
    },
    {
      "inputs": [
        {
          "components": [
            {
              "internalType": "address",
              "name": "sender",
              "type": "address"
            },
            {
              "internalType": "uint256",
              "name": "nonce",
              "type": "uint256"
            },
            {
              "internalType": "bytes",
              "name": "initCode",
              "type": "bytes"
            },
            {
              "internalType": "bytes",
              "name": "callData",
              "type": "bytes"
            },
            {
              "internalType": "uint256",
              "name": "callGasLimit",
              "type": "uint256"
            },
            {
              "internalType": "uint256",
              "name": "verificationGasLimit",
              "type": "uint256"
            },
            {
              "internalType": "uint256",
              "name": "preVerificationGas",
              "type": "uint256"
            },
            {
              "internalType": "uint256",
              "name": "maxFeePerGas",
              "type": "uint256"
            },
            {
              "internalType": "uint256",
              "name": "maxPriorityFeePerGas",
              "type": "uint256"
            },
            {
              "internalType": "bytes",
              "name": "paymasterAndData",
              "type": "bytes"
            },
            {
              "internalType": "bytes",
              "name": "signature",
              "type": "bytes"
            }
          ],
          "internalType": "struct UserOperation",
          "name": "userOp",
          "type": "tuple"
        },
        {
          "internalType": "bytes32",
          "name": "userOpHash",
          "type": "bytes32"
        },
        {
          "internalType": "uint256",
          "name": "maxCost",
          "type": "uint256"
        }
      ],
      "name": "validatePaymasterUserOp",
      "outputs": [
        {
          "internalType": "bytes",
          "name": "context",
          "type": "bytes"
        },
        {
          "internalType": "uint256",
          "name": "deadline",
          "type": "uint256"
        }
      ],
      "stateMutability": "view",
      "type": "function"
    },
    {
      "inputs": [
        {
          "internalType": "uint256",
          "name": "",
          "type": "uint256"
        }
      ],
      "name": "whiteAddresses",
      "outputs": [
        {
          "internalType": "address",
          "name": "",
          "type": "address"
        }
      ],
      "stateMutability": "view",
      "type": "function"
    },
    {
      "inputs": [
        {
          "internalType": "address payable",
          "name": "withdrawAddress",
          "type": "address"
        }
      ],
      "name": "withdrawStake",
      "outputs": [],
      "stateMutability": "nonpayable",
      "type": "function"
    },
    {
      "inputs": [
        {
          "internalType": "address payable",
          "name": "withdrawAddress",
          "type": "address"
        },
        {
          "internalType": "uint256",
          "name": "amount",
          "type": "uint256"
        }
      ],
      "name": "withdrawTo",
      "outputs": [],
      "stateMutability": "nonpayable",
      "type": "function"
    }
  ],
  "bytecode": {
    "object": "0x60806040523480156200001157600080fd5b506040516200115c3803806200115c833981016040819052620000349162000232565b85620000403362000093565b6200004b81620000e3565b50600280546001600160a01b0319166001600160a01b03871617905583516200007c90600390602087019062000170565b50600492909255600555600655506200034e915050565b600080546001600160a01b038381166001600160a01b0319831681178455604051919092169283917f8be0079c531659141344cd1fd0a4f28419497f9722a3daafe3b4186f6b6457e09190a35050565b620000ed6200010f565b600180546001600160a01b0319166001600160a01b0392909216919091179055565b6000546001600160a01b031633146200016e5760405162461bcd60e51b815260206004820181905260248201527f4f776e61626c653a2063616c6c6572206973206e6f7420746865206f776e6572604482015260640160405180910390fd5b565b828054828255906000526020600020908101928215620001c8579160200282015b82811115620001c857825182546001600160a01b0319166001600160a01b0390911617825560209092019160019091019062000191565b50620001d6929150620001da565b5090565b5b80821115620001d65760008155600101620001db565b6001600160a01b03811681146200020757600080fd5b50565b80516200021781620001f1565b919050565b634e487b7160e01b600052604160045260246000fd5b60008060008060008060c087890312156200024c57600080fd5b86516200025981620001f1565b809650506020808801516200026e81620001f1565b60408901519096506001600160401b03808211156200028c57600080fd5b818a0191508a601f830112620002a157600080fd5b815181811115620002b657620002b66200021c565b8060051b604051601f19603f83011681018181108582111715620002de57620002de6200021c565b60405291825284820192508381018501918d831115620002fd57600080fd5b938501935b82851015620003265762000316856200020a565b8452938501939285019262000302565b809950505050505050606087015192506080870151915060a087015190509295509295509295565b610dfe806200035e6000396000f3fe60806040526004361061011f5760003560e01c8063b0d691fe116100a0578063d97e0ada11610064578063d97e0ada146102d5578063e17282db146102f5578063eb4bd0551461030b578063f2fde38b1461032b578063f465c77e1461034b57600080fd5b8063b0d691fe14610263578063bb9fe6bf14610283578063c23a5cea14610298578063c399ec88146102b8578063d0e30db0146102cd57600080fd5b8063715018a6116100e7578063715018a6146101da5780638c8e9379146101ef5780638da5cb5b14610205578063a0ac611b14610223578063a9a234091461024357600080fd5b80630396cb601461012457806318b9997b14610139578063205c287814610162578063584465f21461018257806366c00cca146101a2575b600080fd5b610137610132366004610974565b610379565b005b34801561014557600080fd5b5061014f60045481565b6040519081526020015b60405180910390f35b34801561016e57600080fd5b5061013761017d3660046109b6565b6103e8565b34801561018e57600080fd5b5061013761019d3660046109e2565b61043e565b3480156101ae57600080fd5b506002546101c2906001600160a01b031681565b6040516001600160a01b039091168152602001610159565b3480156101e657600080fd5b50610137610468565b3480156101fb57600080fd5b5061014f60055481565b34801561021157600080fd5b506000546001600160a01b03166101c2565b34801561022f57600080fd5b506101c261023e3660046109ff565b61047c565b34801561024f57600080fd5b5061013761025e366004610a18565b6104a6565b34801561026f57600080fd5b506001546101c2906001600160a01b031681565b34801561028f57600080fd5b506101376104c0565b3480156102a457600080fd5b506101376102b33660046109e2565b61052c565b3480156102c457600080fd5b5061014f610596565b610137610608565b3480156102e157600080fd5b506101376102f03660046109e2565b61064e565b34801561030157600080fd5b5061014f60065481565b34801561031757600080fd5b50610137610326366004610aee565b610678565b34801561033757600080fd5b506101376103463660046109e2565b610697565b34801561035757600080fd5b5061036b610366366004610ba0565b610715565b604051610159929190610bf4565b610381610798565b600154604051621cb65b60e51b815263ffffffff831660048201526001600160a01b0390911690630396cb609034906024016000604051808303818588803b1580156103cc57600080fd5b505af11580156103e0573d6000803e3d6000fd5b505050505050565b6103f0610798565b60015460405163040b850f60e31b81526001600160a01b038481166004830152602482018490529091169063205c287890604401600060405180830381600087803b1580156103cc57600080fd5b610446610798565b600180546001600160a01b0319166001600160a01b0392909216919091179055565b610470610798565b61047a60006107f2565b565b6003818154811061048c57600080fd5b6000918252602090912001546001600160a01b0316905081565b6104ae610842565b6104ba84848484610859565b50505050565b6104c8610798565b600160009054906101000a90046001600160a01b03166001600160a01b031663bb9fe6bf6040518163ffffffff1660e01b8152600401600060405180830381600087803b15801561051857600080fd5b505af11580156104ba573d6000803e3d6000fd5b610534610798565b60015460405163611d2e7560e11b81526001600160a01b0383811660048301529091169063c23a5cea90602401600060405180830381600087803b15801561057b57600080fd5b505af115801561058f573d6000803e3d6000fd5b5050505050565b6001546040516370a0823160e01b81523060048201526000916001600160a01b0316906370a0823190602401602060405180830381865afa1580156105df573d6000803e3d6000fd5b505050506040513d601f19601f820116820180604052508101906106039190610c49565b905090565b60015460405163b760faf960e01b81523060048201526001600160a01b039091169063b760faf99034906024016000604051808303818588803b15801561057b57600080fd5b610656610798565b600280546001600160a01b0319166001600160a01b0392909216919091179055565b610680610798565b80516106939060039060208401906108fa565b5050565b61069f610798565b6001600160a01b0381166107095760405162461bcd60e51b815260206004820152602660248201527f4f776e61626c653a206e6577206f776e657220697320746865207a65726f206160448201526564647265737360d01b60648201526084015b60405180910390fd5b610712816107f2565b50565b6060600080808061072888860189610c62565b610736916004908290610cb0565b8101906107439190610cda565b92509250925061075283610891565b610775576001604051806020016040528060008152509094509450505050610790565b60006040518060200160405280600081525090945094505050505b935093915050565b6000546001600160a01b0316331461047a5760405162461bcd60e51b815260206004820181905260248201527f4f776e61626c653a2063616c6c6572206973206e6f7420746865206f776e65726044820152606401610700565b600080546001600160a01b038381166001600160a01b0319831681178455604051919092169283917f8be0079c531659141344cd1fd0a4f28419497f9722a3daafe3b4186f6b6457e09190a35050565b6001546001600160a01b0316331461047a57600080fd5b60405162461bcd60e51b815260206004820152600d60248201526c6d757374206f7665727269646560981b6044820152606401610700565b6000805b6003548110156108f157826001600160a01b0316600382815481106108bc576108bc610d8b565b6000918252602090912001546001600160a01b0316036108df5750600192915050565b806108e981610da1565b915050610895565b50600092915050565b82805482825590600052602060002090810192821561094f579160200282015b8281111561094f57825182546001600160a01b0319166001600160a01b0390911617825560209092019160019091019061091a565b5061095b92915061095f565b5090565b5b8082111561095b5760008155600101610960565b60006020828403121561098657600080fd5b813563ffffffff8116811461099a57600080fd5b9392505050565b6001600160a01b038116811461071257600080fd5b600080604083850312156109c957600080fd5b82356109d4816109a1565b946020939093013593505050565b6000602082840312156109f457600080fd5b813561099a816109a1565b600060208284031215610a1157600080fd5b5035919050565b60008060008060608587031215610a2e57600080fd5b843560038110610a3d57600080fd5b9350602085013567ffffffffffffffff80821115610a5a57600080fd5b818701915087601f830112610a6e57600080fd5b813581811115610a7d57600080fd5b886020828501011115610a8f57600080fd5b95986020929092019750949560400135945092505050565b634e487b7160e01b600052604160045260246000fd5b604051601f8201601f1916810167ffffffffffffffff81118282101715610ae657610ae6610aa7565b604052919050565b60006020808385031215610b0157600080fd5b823567ffffffffffffffff80821115610b1957600080fd5b818501915085601f830112610b2d57600080fd5b813581811115610b3f57610b3f610aa7565b8060051b9150610b50848301610abd565b8181529183018401918481019088841115610b6a57600080fd5b938501935b83851015610b945784359250610b84836109a1565b8282529385019390850190610b6f565b98975050505050505050565b600080600060608486031215610bb557600080fd5b833567ffffffffffffffff811115610bcc57600080fd5b84016101608187031215610bdf57600080fd5b95602085013595506040909401359392505050565b604081526000835180604084015260005b81811015610c225760208187018101516060868401015201610c05565b506000606082850101526060601f19601f8301168401019150508260208301529392505050565b600060208284031215610c5b57600080fd5b5051919050565b6000808335601e19843603018112610c7957600080fd5b83018035915067ffffffffffffffff821115610c9457600080fd5b602001915036819003821315610ca957600080fd5b9250929050565b60008085851115610cc057600080fd5b83861115610ccd57600080fd5b5050820193919092039150565b600080600060608486031215610cef57600080fd5b8335610cfa816109a1565b92506020848101359250604085013567ffffffffffffffff80821115610d1f57600080fd5b818701915087601f830112610d3357600080fd5b813581811115610d4557610d45610aa7565b610d57601f8201601f19168501610abd565b91508082528884828501011115610d6d57600080fd5b80848401858401376000848284010152508093505050509250925092565b634e487b7160e01b600052603260045260246000fd5b600060018201610dc157634e487b7160e01b600052601160045260246000fd5b506001019056fea264697066735822122057f730370fd52863c6f760c128081ab8705dce724890ffeca0a3d68ef6537dd564736f6c63430008130033",
    "linkReferences": {}
  },
  "methodIdentifiers": {
    "addStake(uint32)": "0396cb60",
    "deposit()": "d0e30db0",
    "entryPoint()": "b0d691fe",
    "gasLimitPerOperation()": "18b9997b",
    "getDeposit()": "c399ec88",
    "nftPassAddress()": "66c00cca",
    "owner()": "8da5cb5b",
    "postOp(uint8,bytes,uint256)": "a9a23409",
    "renounceOwnership()": "715018a6",
    "setEntryPoint(address)": "584465f2",
    "setNftPassAddress(address)": "d97e0ada",
    "setWhiteAddresses(address[])": "eb4bd055",
    "spendingLimitPerOperation()": "8c8e9379",
    "timeLimitInSecond()": "e17282db",
    "transferOwnership(address)": "f2fde38b",
    "unlockStake()": "bb9fe6bf",
    "validatePaymasterUserOp((address,uint256,bytes,bytes,uint256,uint256,uint256,uint256,uint256,bytes,bytes),bytes32,uint256)": "f465c77e",
    "whiteAddresses(uint256)": "a0ac611b",
    "withdrawStake(address)": "c23a5cea",
    "withdrawTo(address,uint256)": "205c2878"
  },
  "id": 68
}