{
  "abi": [
    {
      "inputs": [
        {
          "internalType": "contract IEntryPoint",
          "name": "_entryPoint",
          "type": "address"
        },
        {
          "internalType": "address",
          "name": "_nftPassAddress",
          "type": "address"
        },
        {
          "internalType": "address[]",
          "name": "addresses",
          "type": "address[]"
        },
        {
          "internalType": "uint256",
          "name": "_gasLimitPerOperation",
          "type": "uint256"
        },
        {
          "internalType": "uint256",
          "name": "_spendingLimitPerOperation",
          "type": "uint256"
        },
        {
          "internalType": "uint256",
          "name": "_timeLimitInSecond",
          "type": "uint256"
        }
      ],
      "stateMutability": "nonpayable",
      "type": "constructor"
    },
    {
      "anonymous": false,
      "inputs": [
        {
          "indexed": true,
          "internalType": "address",
          "name": "previousOwner",
          "type": "address"
        },
        {
          "indexed": true,
          "internalType": "address",
          "name": "newOwner",
          "type": "address"
        }
      ],
      "name": "OwnershipTransferred",
      "type": "event"
    },
    {
      "inputs": [
        {
          "internalType": "uint32",
          "name": "unstakeDelaySec",
          "type": "uint32"
        }
      ],
      "name": "addStake",
      "outputs": [],
      "stateMutability": "payable",
      "type": "function"
    },
    {
      "inputs": [],
      "name": "deposit",
      "outputs": [],
      "stateMutability": "payable",
      "type": "function"
    },
    {
      "inputs": [],
      "name": "entryPoint",
      "outputs": [
        {
          "internalType": "contract IEntryPoint",
          "name": "",
          "type": "address"
        }
      ],
      "stateMutability": "view",
      "type": "function"
    },
    {
      "inputs": [],
      "name": "gasLimitPerOperation",
      "outputs": [
        {
          "internalType": "uint256",
          "name": "",
          "type": "uint256"
        }
      ],
      "stateMutability": "view",
      "type": "function"
    },
    {
      "inputs": [],
      "name": "getDeposit",
      "outputs": [
        {
          "internalType": "uint256",
          "name": "",
          "type": "uint256"
        }
      ],
      "stateMutability": "view",
      "type": "function"
    },
    {
      "inputs": [],
      "name": "nftPassAddress",
      "outputs": [
        {
          "internalType": "address",
          "name": "",
          "type": "address"
        }
      ],
      "stateMutability": "view",
      "type": "function"
    },
    {
      "inputs": [],
      "name": "owner",
      "outputs": [
        {
          "internalType": "address",
          "name": "",
          "type": "address"
        }
      ],
      "stateMutability": "view",
      "type": "function"
    },
    {
      "inputs": [
        {
          "internalType": "enum IPaymaster.PostOpMode",
          "name": "mode",
          "type": "uint8"
        },
        {
          "internalType": "bytes",
          "name": "context",
          "type": "bytes"
        },
        {
          "internalType": "uint256",
          "name": "actualGasCost",
          "type": "uint256"
        }
      ],
      "name": "postOp",
      "outputs": [],
      "stateMutability": "nonpayable",
      "type": "function"
    },
    {
      "inputs": [],
      "name": "renounceOwnership",
      "outputs": [],
      "stateMutability": "nonpayable",
      "type": "function"
    },
    {
      "inputs": [
        {
          "internalType": "contract IEntryPoint",
          "name": "_entryPoint",
          "type": "address"
        }
      ],
      "name": "setEntryPoint",
      "outputs": [],
      "stateMutability": "nonpayable",
      "type": "function"
    },
    {
      "inputs": [
        {
          "internalType": "address",
          "name": "newNftPassAddress",
          "type": "address"
        }
      ],
      "name": "setNftPassAddress",
      "outputs": [],
      "stateMutability": "nonpayable",
      "type": "function"
    },
    {
      "inputs": [
        {
          "internalType": "address[]",
          "name": "addresses",
          "type": "address[]"
        }
      ],
      "name": "setWhiteAddresses",
      "outputs": [],
      "stateMutability": "nonpayable",
      "type": "function"
    },
    {
      "inputs": [],
      "name": "spendingLimitPerOperation",
      "outputs": [
        {
          "internalType": "uint256",
          "name": "",
          "type": "uint256"
        }
      ],
      "stateMutability": "view",
      "type": "function"
    },
    {
      "inputs": [],
      "name": "timeLimitInSecond",
      "outputs": [
        {
          "internalType": "uint256",
          "name": "",
          "type": "uint256"
        }
      ],
      "stateMutability": "view",
      "type": "function"
    },
    {
      "inputs": [
        {
          "internalType": "address",
          "name": "newOwner",
          "type": "address"
        }
      ],
      "name": "transferOwnership",
      "outputs": [],
      "stateMutability": "nonpayable",
      "type": "function"
    },
    {
      "inputs": [],
      "name": "unlockStake",
      "outputs": [],
      "stateMutability": "nonpayable",
      "type": "function"
    },
    {
      "inputs": [
        {
          "components": [
            {
              "internalType": "address",
              "name": "sender",
              "type": "address"
            },
            {
              "internalType": "uint256",
              "name": "nonce",
              "type": "uint256"
            },
            {
              "internalType": "bytes",
              "name": "initCode",
              "type": "bytes"
            },
            {
              "internalType": "bytes",
              "name": "callData",
              "type": "bytes"
            },
            {
              "internalType": "uint256",
              "name": "callGasLimit",
              "type": "uint256"
            },
            {
              "internalType": "uint256",
              "name": "verificationGasLimit",
              "type": "uint256"
            },
            {
              "internalType": "uint256",
              "name": "preVerificationGas",
              "type": "uint256"
            },
            {
              "internalType": "uint256",
              "name": "maxFeePerGas",
              "type": "uint256"
            },
            {
              "internalType": "uint256",
              "name": "maxPriorityFeePerGas",
              "type": "uint256"
            },
            {
              "internalType": "bytes",
              "name": "paymasterAndData",
              "type": "bytes"
            },
            {
              "internalType": "bytes",
              "name": "signature",
              "type": "bytes"
            }
          ],
          "internalType": "struct UserOperation",
          "name": "userOp",
          "type": "tuple"
        },
        {
          "internalType": "bytes32",
          "name": "userOpHash",
          "type": "bytes32"
        },
        {
          "internalType": "uint256",
          "name": "maxCost",
          "type": "uint256"
        }
      ],
      "name": "validatePaymasterUserOp",
      "outputs": [
        {
          "internalType": "bytes",
          "name": "context",
          "type": "bytes"
        },
        {
          "internalType": "uint256",
          "name": "deadline",
          "type": "uint256"
        }
      ],
      "stateMutability": "view",
      "type": "function"
    },
    {
      "inputs": [
        {
          "internalType": "uint256",
          "name": "",
          "type": "uint256"
        }
      ],
      "name": "whiteAddresses",
      "outputs": [
        {
          "internalType": "address",
          "name": "",
          "type": "address"
        }
      ],
      "stateMutability": "view",
      "type": "function"
    },
    {
      "inputs": [
        {
          "internalType": "address payable",
          "name": "withdrawAddress",
          "type": "address"
        }
      ],
      "name": "withdrawStake",
      "outputs": [],
      "stateMutability": "nonpayable",
      "type": "function"
    },
    {
      "inputs": [
        {
          "internalType": "address payable",
          "name": "withdrawAddress",
          "type": "address"
        },
        {
          "internalType": "uint256",
          "name": "amount",
          "type": "uint256"
        }
      ],
      "name": "withdrawTo",
      "outputs": [],
      "stateMutability": "nonpayable",
      "type": "function"
    }
  ],
  "bytecode": {
    "object": "0x60806040523480156200001157600080fd5b506040516200140638038062001406833981016040819052620000349162000232565b85620000403362000093565b6200004b81620000e3565b50600280546001600160a01b0319166001600160a01b03871617905583516200007c90600390602087019062000170565b50600492909255600555600655506200034e915050565b600080546001600160a01b038381166001600160a01b0319831681178455604051919092169283917f8be0079c531659141344cd1fd0a4f28419497f9722a3daafe3b4186f6b6457e09190a35050565b620000ed6200010f565b600180546001600160a01b0319166001600160a01b0392909216919091179055565b6000546001600160a01b031633146200016e5760405162461bcd60e51b815260206004820181905260248201527f4f776e61626c653a2063616c6c6572206973206e6f7420746865206f776e6572604482015260640160405180910390fd5b565b828054828255906000526020600020908101928215620001c8579160200282015b82811115620001c857825182546001600160a01b0319166001600160a01b0390911617825560209092019160019091019062000191565b50620001d6929150620001da565b5090565b5b80821115620001d65760008155600101620001db565b6001600160a01b03811681146200020757600080fd5b50565b80516200021781620001f1565b919050565b634e487b7160e01b600052604160045260246000fd5b60008060008060008060c087890312156200024c57600080fd5b86516200025981620001f1565b809650506020808801516200026e81620001f1565b60408901519096506001600160401b03808211156200028c57600080fd5b818a0191508a601f830112620002a157600080fd5b815181811115620002b657620002b66200021c565b8060051b604051601f19603f83011681018181108582111715620002de57620002de6200021c565b60405291825284820192508381018501918d831115620002fd57600080fd5b938501935b82851015620003265762000316856200020a565b8452938501939285019262000302565b809950505050505050606087015192506080870151915060a087015190509295509295509295565b6110a8806200035e6000396000f3fe60806040526004361061011f5760003560e01c8063b0d691fe116100a0578063d97e0ada11610064578063d97e0ada146102d5578063e17282db146102f5578063eb4bd0551461030b578063f2fde38b1461032b578063f465c77e1461034b57600080fd5b8063b0d691fe14610263578063bb9fe6bf14610283578063c23a5cea14610298578063c399ec88146102b8578063d0e30db0146102cd57600080fd5b8063715018a6116100e7578063715018a6146101da5780638c8e9379146101ef5780638da5cb5b14610205578063a0ac611b14610223578063a9a234091461024357600080fd5b80630396cb601461012457806318b9997b14610139578063205c287814610162578063584465f21461018257806366c00cca146101a2575b600080fd5b610137610132366004610bf6565b610379565b005b34801561014557600080fd5b5061014f60045481565b6040519081526020015b60405180910390f35b34801561016e57600080fd5b5061013761017d366004610c38565b6103e8565b34801561018e57600080fd5b5061013761019d366004610c64565b61043e565b3480156101ae57600080fd5b506002546101c2906001600160a01b031681565b6040516001600160a01b039091168152602001610159565b3480156101e657600080fd5b50610137610468565b3480156101fb57600080fd5b5061014f60055481565b34801561021157600080fd5b506000546001600160a01b03166101c2565b34801561022f57600080fd5b506101c261023e366004610c81565b61047c565b34801561024f57600080fd5b5061013761025e366004610c9a565b6104a6565b34801561026f57600080fd5b506001546101c2906001600160a01b031681565b34801561028f57600080fd5b506101376104c0565b3480156102a457600080fd5b506101376102b3366004610c64565b61052c565b3480156102c457600080fd5b5061014f610596565b610137610608565b3480156102e157600080fd5b506101376102f0366004610c64565b61064e565b34801561030157600080fd5b5061014f60065481565b34801561031757600080fd5b50610137610326366004610d70565b610678565b34801561033757600080fd5b50610137610346366004610c64565b610697565b34801561035757600080fd5b5061036b610366366004610e22565b610715565b604051610159929190610e76565b6103816109ae565b600154604051621cb65b60e51b815263ffffffff831660048201526001600160a01b0390911690630396cb609034906024016000604051808303818588803b1580156103cc57600080fd5b505af11580156103e0573d6000803e3d6000fd5b505050505050565b6103f06109ae565b60015460405163040b850f60e31b81526001600160a01b038481166004830152602482018490529091169063205c287890604401600060405180830381600087803b1580156103cc57600080fd5b6104466109ae565b600180546001600160a01b0319166001600160a01b0392909216919091179055565b6104706109ae565b61047a6000610a08565b565b6003818154811061048c57600080fd5b6000918252602090912001546001600160a01b0316905081565b6104ae610a58565b6104ba84848484610a6f565b50505050565b6104c86109ae565b600160009054906101000a90046001600160a01b03166001600160a01b031663bb9fe6bf6040518163ffffffff1660e01b8152600401600060405180830381600087803b15801561051857600080fd5b505af11580156104ba573d6000803e3d6000fd5b6105346109ae565b60015460405163611d2e7560e11b81526001600160a01b0383811660048301529091169063c23a5cea90602401600060405180830381600087803b15801561057b57600080fd5b505af115801561058f573d6000803e3d6000fd5b5050505050565b6001546040516370a0823160e01b81523060048201526000916001600160a01b0316906370a0823190602401602060405180830381865afa1580156105df573d6000803e3d6000fd5b505050506040513d601f19601f820116820180604052508101906106039190610ecb565b905090565b60015460405163b760faf960e01b81523060048201526001600160a01b039091169063b760faf99034906024016000604051808303818588803b15801561057b57600080fd5b6106566109ae565b600280546001600160a01b0319166001600160a01b0392909216919091179055565b6106806109ae565b8051610693906003906020840190610b7c565b5050565b61069f6109ae565b6001600160a01b0381166107095760405162461bcd60e51b815260206004820152602660248201527f4f776e61626c653a206e6577206f776e657220697320746865207a65726f206160448201526564647265737360d01b60648201526084015b60405180910390fd5b61071281610a08565b50565b6060600080808061072888860189610ee4565b610736916004908290610f32565b8101906107439190610f5c565b60025492955090935091506001600160a01b03166000816370a0823161076c60208d018d610c64565b6040516001600160e01b031960e084901b1681526001600160a01b039091166004820152602401602060405180830381865afa1580156107b0573d6000803e3d6000fd5b505050506040513d601f19601f820116820180604052508101906107d49190610ecb565b905060018110156108145760405162461bcd60e51b815260206004820152600a6024820152696e6f206461797061737360b01b6044820152606401610700565b61081d85610aa7565b61085f5760405162461bcd60e51b81526020600482015260136024820152721859191c995cdcc81b9bdd08185b1b1bddd959606a1b6044820152606401610700565b61086c8a60800135610b10565b156108ae5760405162461bcd60e51b81526020600482015260126024820152710cec2e640d8d2dad2e840e8dede40d0d2ced60731b6044820152606401610700565b6108b788610b2c565b156108f85760405162461bcd60e51b81526020600482015260116024820152700dac2f040c6dee6e840e8dede40d0d2ced607b1b6044820152606401610700565b60006001600160a01b038316632162135261091660208e018e610c64565b6040516001600160e01b031960e084901b1681526001600160a01b039091166004820152602401602060405180830381865afa15801561095a573d6000803e3d6000fd5b505050506040513d601f19601f8201168201806040525081019061097e919061100d565b90504261098d60008383610b44565b6040805160208101909152600081529d909c509a5050505050505050505050565b6000546001600160a01b0316331461047a5760405162461bcd60e51b815260206004820181905260248201527f4f776e61626c653a2063616c6c6572206973206e6f7420746865206f776e65726044820152606401610700565b600080546001600160a01b038381166001600160a01b0319831681178455604051919092169283917f8be0079c531659141344cd1fd0a4f28419497f9722a3daafe3b4186f6b6457e09190a35050565b6001546001600160a01b0316331461047a57600080fd5b60405162461bcd60e51b815260206004820152600d60248201526c6d757374206f7665727269646560981b6044820152606401610700565b6000805b600354811015610b0757826001600160a01b031660038281548110610ad257610ad2611035565b6000918252602090912001546001600160a01b031603610af55750600192915050565b80610aff8161104b565b915050610aab565b50600092915050565b6000600454600014158015610b26575060045482115b92915050565b6000600554600014158015610b265750506005541090565b600060d08265ffffffffffff16901b60a08465ffffffffffff16901b85610b6c576000610b6f565b60015b60ff161717949350505050565b828054828255906000526020600020908101928215610bd1579160200282015b82811115610bd157825182546001600160a01b0319166001600160a01b03909116178255602090920191600190910190610b9c565b50610bdd929150610be1565b5090565b5b80821115610bdd5760008155600101610be2565b600060208284031215610c0857600080fd5b813563ffffffff81168114610c1c57600080fd5b9392505050565b6001600160a01b038116811461071257600080fd5b60008060408385031215610c4b57600080fd5b8235610c5681610c23565b946020939093013593505050565b600060208284031215610c7657600080fd5b8135610c1c81610c23565b600060208284031215610c9357600080fd5b5035919050565b60008060008060608587031215610cb057600080fd5b843560038110610cbf57600080fd5b9350602085013567ffffffffffffffff80821115610cdc57600080fd5b818701915087601f830112610cf057600080fd5b813581811115610cff57600080fd5b886020828501011115610d1157600080fd5b95986020929092019750949560400135945092505050565b634e487b7160e01b600052604160045260246000fd5b604051601f8201601f1916810167ffffffffffffffff81118282101715610d6857610d68610d29565b604052919050565b60006020808385031215610d8357600080fd5b823567ffffffffffffffff80821115610d9b57600080fd5b818501915085601f830112610daf57600080fd5b813581811115610dc157610dc1610d29565b8060051b9150610dd2848301610d3f565b8181529183018401918481019088841115610dec57600080fd5b938501935b83851015610e165784359250610e0683610c23565b8282529385019390850190610df1565b98975050505050505050565b600080600060608486031215610e3757600080fd5b833567ffffffffffffffff811115610e4e57600080fd5b84016101608187031215610e6157600080fd5b95602085013595506040909401359392505050565b604081526000835180604084015260005b81811015610ea45760208187018101516060868401015201610e87565b506000606082850101526060601f19601f8301168401019150508260208301529392505050565b600060208284031215610edd57600080fd5b5051919050565b6000808335601e19843603018112610efb57600080fd5b83018035915067ffffffffffffffff821115610f1657600080fd5b602001915036819003821315610f2b57600080fd5b9250929050565b60008085851115610f4257600080fd5b83861115610f4f57600080fd5b5050820193919092039150565b600080600060608486031215610f7157600080fd5b8335610f7c81610c23565b92506020848101359250604085013567ffffffffffffffff80821115610fa157600080fd5b818701915087601f830112610fb557600080fd5b813581811115610fc757610fc7610d29565b610fd9601f8201601f19168501610d3f565b91508082528884828501011115610fef57600080fd5b80848401858401376000848284010152508093505050509250925092565b60006020828403121561101f57600080fd5b815165ffffffffffff81168114610c1c57600080fd5b634e487b7160e01b600052603260045260246000fd5b60006001820161106b57634e487b7160e01b600052601160045260246000fd5b506001019056fea2646970667358221220f152ebb76c491dc5ca504a5dee10a9f91b0c88c5138179ba69f08ffea07a9caa64736f6c63430008130033",
    "linkReferences": {}
  },
  "methodIdentifiers": {
    "addStake(uint32)": "0396cb60",
    "deposit()": "d0e30db0",
    "entryPoint()": "b0d691fe",
    "gasLimitPerOperation()": "18b9997b",
    "getDeposit()": "c399ec88",
    "nftPassAddress()": "66c00cca",
    "owner()": "8da5cb5b",
    "postOp(uint8,bytes,uint256)": "a9a23409",
    "renounceOwnership()": "715018a6",
    "setEntryPoint(address)": "584465f2",
    "setNftPassAddress(address)": "d97e0ada",
    "setWhiteAddresses(address[])": "eb4bd055",
    "spendingLimitPerOperation()": "8c8e9379",
    "timeLimitInSecond()": "e17282db",
    "transferOwnership(address)": "f2fde38b",
    "unlockStake()": "bb9fe6bf",
    "validatePaymasterUserOp((address,uint256,bytes,bytes,uint256,uint256,uint256,uint256,uint256,bytes,bytes),bytes32,uint256)": "f465c77e",
    "whiteAddresses(uint256)": "a0ac611b",
    "withdrawStake(address)": "c23a5cea",
    "withdrawTo(address,uint256)": "205c2878"
  },
  "id": 70
}