{
  "abi": [
    {
      "inputs": [],
      "stateMutability": "payable",
      "type": "constructor"
    },
    {
      "inputs": [],
      "name": "IncorrectValue",
      "type": "error"
    },
    {
      "inputs": [],
      "name": "TooManyTokens",
      "type": "error"
    },
    {
      "inputs": [],
      "name": "WithdrawTransfer",
      "type": "error"
    },
    {
      "anonymous": false,
      "inputs": [
        {
          "indexed": true,
          "internalType": "address",
          "name": "owner",
          "type": "address"
        },
        {
          "indexed": true,
          "internalType": "address",
          "name": "operator",
          "type": "address"
        },
        {
          "indexed": false,
          "internalType": "bool",
          "name": "approved",
          "type": "bool"
        }
      ],
      "name": "ApprovalForAll",
      "type": "event"
    },
    {
      "anonymous": false,
      "inputs": [
        {
          "indexed": true,
          "internalType": "address",
          "name": "previousOwner",
          "type": "address"
        },
        {
          "indexed": true,
          "internalType": "address",
          "name": "newOwner",
          "type": "address"
        }
      ],
      "name": "OwnershipTransferred",
      "type": "event"
    },
    {
      "anonymous": false,
      "inputs": [
        {
          "indexed": true,
          "internalType": "address",
          "name": "operator",
          "type": "address"
        },
        {
          "indexed": true,
          "internalType": "address",
          "name": "from",
          "type": "address"
        },
        {
          "indexed": true,
          "internalType": "address",
          "name": "to",
          "type": "address"
        },
        {
          "indexed": false,
          "internalType": "uint256[]",
          "name": "ids",
          "type": "uint256[]"
        },
        {
          "indexed": false,
          "internalType": "uint256[]",
          "name": "amounts",
          "type": "uint256[]"
        }
      ],
      "name": "TransferBatch",
      "type": "event"
    },
    {
      "anonymous": false,
      "inputs": [
        {
          "indexed": true,
          "internalType": "address",
          "name": "operator",
          "type": "address"
        },
        {
          "indexed": true,
          "internalType": "address",
          "name": "from",
          "type": "address"
        },
        {
          "indexed": true,
          "internalType": "address",
          "name": "to",
          "type": "address"
        },
        {
          "indexed": false,
          "internalType": "uint256",
          "name": "id",
          "type": "uint256"
        },
        {
          "indexed": false,
          "internalType": "uint256",
          "name": "amount",
          "type": "uint256"
        }
      ],
      "name": "TransferSingle",
      "type": "event"
    },
    {
      "anonymous": false,
      "inputs": [
        {
          "indexed": false,
          "internalType": "string",
          "name": "value",
          "type": "string"
        },
        {
          "indexed": true,
          "internalType": "uint256",
          "name": "id",
          "type": "uint256"
        }
      ],
      "name": "URI",
      "type": "event"
    },
    {
      "inputs": [
        {
          "internalType": "address",
          "name": "",
          "type": "address"
        },
        {
          "internalType": "uint256",
          "name": "",
          "type": "uint256"
        }
      ],
      "name": "balanceOf",
      "outputs": [
        {
          "internalType": "uint256",
          "name": "",
          "type": "uint256"
        }
      ],
      "stateMutability": "view",
      "type": "function"
    },
    {
      "inputs": [
        {
          "internalType": "address[]",
          "name": "owners",
          "type": "address[]"
        },
        {
          "internalType": "uint256[]",
          "name": "ids",
          "type": "uint256[]"
        }
      ],
      "name": "balanceOfBatch",
      "outputs": [
        {
          "internalType": "uint256[]",
          "name": "balances",
          "type": "uint256[]"
        }
      ],
      "stateMutability": "view",
      "type": "function"
    },
    {
      "inputs": [
        {
          "internalType": "address",
          "name": "",
          "type": "address"
        },
        {
          "internalType": "address",
          "name": "",
          "type": "address"
        }
      ],
      "name": "isApprovedForAll",
      "outputs": [
        {
          "internalType": "bool",
          "name": "",
          "type": "bool"
        }
      ],
      "stateMutability": "view",
      "type": "function"
    },
    {
      "inputs": [],
      "name": "maxTokensPerTxn",
      "outputs": [
        {
          "internalType": "uint256",
          "name": "",
          "type": "uint256"
        }
      ],
      "stateMutability": "view",
      "type": "function"
    },
    {
      "inputs": [
        {
          "internalType": "uint256",
          "name": "quantity",
          "type": "uint256"
        },
        {
          "internalType": "uint256",
          "name": "id",
          "type": "uint256"
        }
      ],
      "name": "mint",
      "outputs": [],
      "stateMutability": "payable",
      "type": "function"
    },
    {
      "inputs": [],
      "name": "owner",
      "outputs": [
        {
          "internalType": "address",
          "name": "",
          "type": "address"
        }
      ],
      "stateMutability": "view",
      "type": "function"
    },
    {
      "inputs": [],
      "name": "renounceOwnership",
      "outputs": [],
      "stateMutability": "nonpayable",
      "type": "function"
    },
    {
      "inputs": [
        {
          "internalType": "address",
          "name": "from",
          "type": "address"
        },
        {
          "internalType": "address",
          "name": "to",
          "type": "address"
        },
        {
          "internalType": "uint256[]",
          "name": "ids",
          "type": "uint256[]"
        },
        {
          "internalType": "uint256[]",
          "name": "amounts",
          "type": "uint256[]"
        },
        {
          "internalType": "bytes",
          "name": "data",
          "type": "bytes"
        }
      ],
      "name": "safeBatchTransferFrom",
      "outputs": [],
      "stateMutability": "nonpayable",
      "type": "function"
    },
    {
      "inputs": [
        {
          "internalType": "address",
          "name": "from",
          "type": "address"
        },
        {
          "internalType": "address",
          "name": "to",
          "type": "address"
        },
        {
          "internalType": "uint256",
          "name": "id",
          "type": "uint256"
        },
        {
          "internalType": "uint256",
          "name": "amount",
          "type": "uint256"
        },
        {
          "internalType": "bytes",
          "name": "data",
          "type": "bytes"
        }
      ],
      "name": "safeTransferFrom",
      "outputs": [],
      "stateMutability": "nonpayable",
      "type": "function"
    },
    {
      "inputs": [],
      "name": "salePrice",
      "outputs": [
        {
          "internalType": "uint256",
          "name": "",
          "type": "uint256"
        }
      ],
      "stateMutability": "view",
      "type": "function"
    },
    {
      "inputs": [
        {
          "internalType": "address",
          "name": "operator",
          "type": "address"
        },
        {
          "internalType": "bool",
          "name": "approved",
          "type": "bool"
        }
      ],
      "name": "setApprovalForAll",
      "outputs": [],
      "stateMutability": "nonpayable",
      "type": "function"
    },
    {
      "inputs": [
        {
          "internalType": "string",
          "name": "baseURI",
          "type": "string"
        }
      ],
      "name": "setBaseURI",
      "outputs": [],
      "stateMutability": "nonpayable",
      "type": "function"
    },
    {
      "inputs": [
        {
          "internalType": "uint256",
          "name": "price",
          "type": "uint256"
        }
      ],
      "name": "setSalePrice",
      "outputs": [],
      "stateMutability": "nonpayable",
      "type": "function"
    },
    {
      "inputs": [],
      "name": "simpleURI",
      "outputs": [
        {
          "internalType": "string",
          "name": "",
          "type": "string"
        }
      ],
      "stateMutability": "view",
      "type": "function"
    },
    {
      "inputs": [
        {
          "internalType": "bytes4",
          "name": "interfaceId",
          "type": "bytes4"
        }
      ],
      "name": "supportsInterface",
      "outputs": [
        {
          "internalType": "bool",
          "name": "",
          "type": "bool"
        }
      ],
      "stateMutability": "view",
      "type": "function"
    },
    {
      "inputs": [
        {
          "internalType": "address",
          "name": "newOwner",
          "type": "address"
        }
      ],
      "name": "transferOwnership",
      "outputs": [],
      "stateMutability": "nonpayable",
      "type": "function"
    },
    {
      "inputs": [
        {
          "internalType": "uint256",
          "name": "id",
          "type": "uint256"
        }
      ],
      "name": "uri",
      "outputs": [
        {
          "internalType": "string",
          "name": "",
          "type": "string"
        }
      ],
      "stateMutability": "view",
      "type": "function"
    },
    {
      "inputs": [
        {
          "internalType": "address payable",
          "name": "payee",
          "type": "address"
        }
      ],
      "name": "withdrawPayments",
      "outputs": [],
      "stateMutability": "nonpayable",
      "type": "function"
    }
  ],
  "bytecode": {
    "object": "0x655af3107a400060035560066004556101006040526050608081815290620018ee60a0396005906200003290826200013b565b506200003e3362000044565b62000207565b600280546001600160a01b038381166001600160a01b0319831681179093556040519116919082907f8be0079c531659141344cd1fd0a4f28419497f9722a3daafe3b4186f6b6457e090600090a35050565b634e487b7160e01b600052604160045260246000fd5b600181811c90821680620000c157607f821691505b602082108103620000e257634e487b7160e01b600052602260045260246000fd5b50919050565b601f8211156200013657600081815260208120601f850160051c81016020861015620001115750805b601f850160051c820191505b8181101562000132578281556001016200011d565b5050505b505050565b81516001600160401b0381111562000157576200015762000096565b6200016f81620001688454620000ac565b84620000e8565b602080601f831160018114620001a757600084156200018e5750858301515b600019600386901b1c1916600185901b17855562000132565b600085815260208120601f198616915b82811015620001d857888601518255948401946001909101908401620001b7565b5085821015620001f75787850151600019600388901b60f8161c191681555b5050505050600190811b01905550565b6116d780620002176000396000f3fe6080604052600436106101085760003560e01c806355f804b311610095578063e985e9c511610064578063e985e9c5146102e6578063f242432a14610321578063f2fde38b14610341578063f34341c714610361578063f51f96dd1461037757600080fd5b806355f804b314610269578063715018a6146102895780638da5cb5b1461029e578063a22cb465146102c657600080fd5b80631919fed7116100dc5780631919fed7146101c75780631b2ef1ca146101e95780632eb2c2d6146101fc57806331b3eb941461021c5780634e1273f41461023c57600080fd5b8062fdd58e1461010d57806301ffc9a7146101555780630e14f4bb146101855780630e89341c146101a7575b600080fd5b34801561011957600080fd5b50610142610128366004610eea565b600060208181529281526040808220909352908152205481565b6040519081526020015b60405180910390f35b34801561016157600080fd5b50610175610170366004610f2c565b61038d565b604051901515815260200161014c565b34801561019157600080fd5b5061019a6103df565b60405161014c9190610f96565b3480156101b357600080fd5b5061019a6101c2366004610fa9565b61046d565b3480156101d357600080fd5b506101e76101e2366004610fa9565b610501565b005b6101e76101f7366004610fc2565b61050e565b34801561020857600080fd5b506101e7610217366004611072565b610581565b34801561022857600080fd5b506101e7610237366004611131565b610829565b34801561024857600080fd5b5061025c61025736600461114e565b6108aa565b60405161014c91906111ba565b34801561027557600080fd5b506101e76102843660046111fe565b6109df565b34801561029557600080fd5b506101e76109f4565b3480156102aa57600080fd5b506002546040516001600160a01b03909116815260200161014c565b3480156102d257600080fd5b506101e76102e1366004611240565b610a08565b3480156102f257600080fd5b5061017561030136600461127e565b600160209081526000928352604080842090915290825290205460ff1681565b34801561032d57600080fd5b506101e761033c3660046112ac565b610a74565b34801561034d57600080fd5b506101e761035c366004611131565b610c6e565b34801561036d57600080fd5b5061014260045481565b34801561038357600080fd5b5061014260035481565b60006301ffc9a760e01b6001600160e01b0319831614806103be5750636cdb3d1360e11b6001600160e01b03198316145b806103d957506303a24d0760e21b6001600160e01b03198316145b92915050565b600580546103ec90611328565b80601f016020809104026020016040519081016040528092919081815260200182805461041890611328565b80156104655780601f1061043a57610100808354040283529160200191610465565b820191906000526020600020905b81548152906001019060200180831161044857829003601f168201915b505050505081565b60606005805461047c90611328565b80601f01602080910402602001604051908101604052809291908181526020018280546104a890611328565b80156104f55780601f106104ca576101008083540402835291602001916104f5565b820191906000526020600020905b8154815290600101906020018083116104d857829003601f168201915b50505050509050919050565b610509610ce7565b600355565b8160045481111561053257604051633a4733d960e11b815260040160405180910390fd5b8234816003546105429190611378565b1461056057604051636956f2ab60e11b815260040160405180910390fd5b61057b33848660405180602001604052806000815250610d41565b50505050565b8483146105c75760405162461bcd60e51b815260206004820152600f60248201526e0988a9c8ea890be9a92a69a82a8869608b1b60448201526064015b60405180910390fd5b336001600160a01b038916148061060157506001600160a01b038816600090815260016020908152604080832033845290915290205460ff165b61063e5760405162461bcd60e51b815260206004820152600e60248201526d1393d517d055551213d49256915160921b60448201526064016105be565b60008060005b878110156106f95788888281811061065e5761065e61138f565b9050602002013592508686828181106106795761067961138f565b6001600160a01b038e16600090815260208181526040808320898452825282208054939091029490940135955085939250906106b69084906113a5565b90915550506001600160a01b038a16600090815260208181526040808320868452909152812080548492906106ec9084906113b8565b9091555050600101610644565b50886001600160a01b03168a6001600160a01b0316336001600160a01b03167f4a39dc06d4c0dbc64b70af90fd698a233a518aa5d07e595d983b8c0526c8f7fb8b8b8b8b60405161074d94939291906113fd565b60405180910390a46001600160a01b0389163b156107f45760405163bc197c8160e01b808252906001600160a01b038b169063bc197c81906107a19033908f908e908e908e908e908e908e90600401611458565b6020604051808303816000875af11580156107c0573d6000803e3d6000fd5b505050506040513d601f19601f820116820180604052508101906107e491906114bc565b6001600160e01b03191614610801565b6001600160a01b03891615155b61081d5760405162461bcd60e51b81526004016105be906114d9565b50505050505050505050565b610831610ce7565b60405147906000906001600160a01b0384169083908381818185875af1925050503d806000811461087e576040519150601f19603f3d011682016040523d82523d6000602084013e610883565b606091505b50509050806108a55760405163d23a9e8960e01b815260040160405180910390fd5b505050565b60608382146108ed5760405162461bcd60e51b815260206004820152600f60248201526e0988a9c8ea890be9a92a69a82a8869608b1b60448201526064016105be565b8367ffffffffffffffff81111561090657610906611503565b60405190808252806020026020018201604052801561092f578160200160208202803683370190505b50905060005b848110156109d6576000808787848181106109525761095261138f565b90506020020160208101906109679190611131565b6001600160a01b03166001600160a01b03168152602001908152602001600020600085858481811061099b5761099b61138f565b905060200201358152602001908152602001600020548282815181106109c3576109c361138f565b6020908102919091010152600101610935565b50949350505050565b6109e7610ce7565b60056108a582848361155f565b6109fc610ce7565b610a066000610e83565b565b3360008181526001602090815260408083206001600160a01b03871680855290835292819020805460ff191686151590811790915590519081529192917f17307eab39ab6107e8899845ad3d59bd9653f200f220920489ca2b5937696c31910160405180910390a35050565b336001600160a01b0387161480610aae57506001600160a01b038616600090815260016020908152604080832033845290915290205460ff165b610aeb5760405162461bcd60e51b815260206004820152600e60248201526d1393d517d055551213d49256915160921b60448201526064016105be565b6001600160a01b03861660009081526020818152604080832087845290915281208054859290610b1c9084906113a5565b90915550506001600160a01b03851660009081526020818152604080832087845290915281208054859290610b529084906113b8565b909155505060408051858152602081018590526001600160a01b03808816929089169133917fc3d58168c5ae7397731d063d5bbf3d657854427343f4c083240f7aacaa2d0f62910160405180910390a46001600160a01b0385163b15610c3d5760405163f23a6e6160e01b808252906001600160a01b0387169063f23a6e6190610bea9033908b908a908a908a908a90600401611620565b6020604051808303816000875af1158015610c09573d6000803e3d6000fd5b505050506040513d601f19601f82011682018060405250810190610c2d91906114bc565b6001600160e01b03191614610c4a565b6001600160a01b03851615155b610c665760405162461bcd60e51b81526004016105be906114d9565b505050505050565b610c76610ce7565b6001600160a01b038116610cdb5760405162461bcd60e51b815260206004820152602660248201527f4f776e61626c653a206e6577206f776e657220697320746865207a65726f206160448201526564647265737360d01b60648201526084016105be565b610ce481610e83565b50565b6002546001600160a01b03163314610a065760405162461bcd60e51b815260206004820181905260248201527f4f776e61626c653a2063616c6c6572206973206e6f7420746865206f776e657260448201526064016105be565b6001600160a01b03841660009081526020818152604080832086845290915281208054849290610d729084906113b8565b909155505060408051848152602081018490526001600160a01b0386169160009133917fc3d58168c5ae7397731d063d5bbf3d657854427343f4c083240f7aacaa2d0f62910160405180910390a46001600160a01b0384163b15610e5a5760405163f23a6e6160e01b808252906001600160a01b0386169063f23a6e6190610e07903390600090899089908990600401611667565b6020604051808303816000875af1158015610e26573d6000803e3d6000fd5b505050506040513d601f19601f82011682018060405250810190610e4a91906114bc565b6001600160e01b03191614610e67565b6001600160a01b03841615155b61057b5760405162461bcd60e51b81526004016105be906114d9565b600280546001600160a01b038381166001600160a01b0319831681179093556040519116919082907f8be0079c531659141344cd1fd0a4f28419497f9722a3daafe3b4186f6b6457e090600090a35050565b6001600160a01b0381168114610ce457600080fd5b60008060408385031215610efd57600080fd5b8235610f0881610ed5565b946020939093013593505050565b6001600160e01b031981168114610ce457600080fd5b600060208284031215610f3e57600080fd5b8135610f4981610f16565b9392505050565b6000815180845260005b81811015610f7657602081850181015186830182015201610f5a565b506000602082860101526020601f19601f83011685010191505092915050565b602081526000610f496020830184610f50565b600060208284031215610fbb57600080fd5b5035919050565b60008060408385031215610fd557600080fd5b50508035926020909101359150565b60008083601f840112610ff657600080fd5b50813567ffffffffffffffff81111561100e57600080fd5b6020830191508360208260051b850101111561102957600080fd5b9250929050565b60008083601f84011261104257600080fd5b50813567ffffffffffffffff81111561105a57600080fd5b60208301915083602082850101111561102957600080fd5b60008060008060008060008060a0898b03121561108e57600080fd5b883561109981610ed5565b975060208901356110a981610ed5565b9650604089013567ffffffffffffffff808211156110c657600080fd5b6110d28c838d01610fe4565b909850965060608b01359150808211156110eb57600080fd5b6110f78c838d01610fe4565b909650945060808b013591508082111561111057600080fd5b5061111d8b828c01611030565b999c989b5096995094979396929594505050565b60006020828403121561114357600080fd5b8135610f4981610ed5565b6000806000806040858703121561116457600080fd5b843567ffffffffffffffff8082111561117c57600080fd5b61118888838901610fe4565b909650945060208701359150808211156111a157600080fd5b506111ae87828801610fe4565b95989497509550505050565b6020808252825182820181905260009190848201906040850190845b818110156111f2578351835292840192918401916001016111d6565b50909695505050505050565b6000806020838503121561121157600080fd5b823567ffffffffffffffff81111561122857600080fd5b61123485828601611030565b90969095509350505050565b6000806040838503121561125357600080fd5b823561125e81610ed5565b91506020830135801515811461127357600080fd5b809150509250929050565b6000806040838503121561129157600080fd5b823561129c81610ed5565b9150602083013561127381610ed5565b60008060008060008060a087890312156112c557600080fd5b86356112d081610ed5565b955060208701356112e081610ed5565b94506040870135935060608701359250608087013567ffffffffffffffff81111561130a57600080fd5b61131689828a01611030565b979a9699509497509295939492505050565b600181811c9082168061133c57607f821691505b60208210810361135c57634e487b7160e01b600052602260045260246000fd5b50919050565b634e487b7160e01b600052601160045260246000fd5b80820281158282048414176103d9576103d9611362565b634e487b7160e01b600052603260045260246000fd5b818103818111156103d9576103d9611362565b808201808211156103d9576103d9611362565b81835260006001600160fb1b038311156113e457600080fd5b8260051b80836020870137939093016020019392505050565b6040815260006114116040830186886113cb565b82810360208401526114248185876113cb565b979650505050505050565b81835281816020850137506000828201602090810191909152601f909101601f19169091010190565b6001600160a01b0389811682528816602082015260a060408201819052600090611485908301888a6113cb565b82810360608401526114988187896113cb565b905082810360808401526114ad81858761142f565b9b9a5050505050505050505050565b6000602082840312156114ce57600080fd5b8151610f4981610f16565b60208082526010908201526f155394d0519157d49150d2541251539560821b604082015260600190565b634e487b7160e01b600052604160045260246000fd5b601f8211156108a557600081815260208120601f850160051c810160208610156115405750805b601f850160051c820191505b81811015610c665782815560010161154c565b67ffffffffffffffff83111561157757611577611503565b61158b836115858354611328565b83611519565b6000601f8411600181146115bf57600085156115a75750838201355b600019600387901b1c1916600186901b178355611619565b600083815260209020601f19861690835b828110156115f057868501358255602094850194600190920191016115d0565b508682101561160d5760001960f88860031b161c19848701351681555b505060018560011b0183555b5050505050565b6001600160a01b03878116825286166020820152604081018590526060810184905260a06080820181905260009061165b908301848661142f565b98975050505050505050565b6001600160a01b03868116825285166020820152604081018490526060810183905260a06080820181905260009061142490830184610f5056fea2646970667358221220b8696f90f453c53048ec3dc1339cf527df037959a5e8f2ac9f6bc2a7d2c9ea8964736f6c6343000813003368747470733a2f2f676174657761792e70696e6174612e636c6f75642f697066732f516d50757835516779504866786a7543426631474c36626e6259526f44647a7768395547646e7a32555878353844",
    "linkReferences": {}
  },
  "methodIdentifiers": {
    "balanceOf(address,uint256)": "00fdd58e",
    "balanceOfBatch(address[],uint256[])": "4e1273f4",
    "isApprovedForAll(address,address)": "e985e9c5",
    "maxTokensPerTxn()": "f34341c7",
    "mint(uint256,uint256)": "1b2ef1ca",
    "owner()": "8da5cb5b",
    "renounceOwnership()": "715018a6",
    "safeBatchTransferFrom(address,address,uint256[],uint256[],bytes)": "2eb2c2d6",
    "safeTransferFrom(address,address,uint256,uint256,bytes)": "f242432a",
    "salePrice()": "f51f96dd",
    "setApprovalForAll(address,bool)": "a22cb465",
    "setBaseURI(string)": "55f804b3",
    "setSalePrice(uint256)": "1919fed7",
    "simpleURI()": "0e14f4bb",
    "supportsInterface(bytes4)": "01ffc9a7",
    "transferOwnership(address)": "f2fde38b",
    "uri(uint256)": "0e89341c",
    "withdrawPayments(address)": "31b3eb94"
  },
  "id": 21
}