{
  "abi": [
    {
      "inputs": [
        {
          "internalType": "string",
          "name": "name",
          "type": "string"
        },
        {
          "internalType": "string",
          "name": "symbol",
          "type": "string"
        },
        {
          "internalType": "bool",
          "name": "_isTransferable",
          "type": "bool"
        },
        {
          "internalType": "uint48",
          "name": "_duration",
          "type": "uint48"
        }
      ],
      "stateMutability": "payable",
      "type": "constructor"
    },
    {
      "inputs": [],
      "name": "NotTransferable",
      "type": "error"
    },
    {
      "anonymous": false,
      "inputs": [
        {
          "indexed": true,
          "internalType": "address",
          "name": "owner",
          "type": "address"
        },
        {
          "indexed": true,
          "internalType": "address",
          "name": "approved",
          "type": "address"
        },
        {
          "indexed": true,
          "internalType": "uint256",
          "name": "tokenId",
          "type": "uint256"
        }
      ],
      "name": "Approval",
      "type": "event"
    },
    {
      "anonymous": false,
      "inputs": [
        {
          "indexed": true,
          "internalType": "address",
          "name": "owner",
          "type": "address"
        },
        {
          "indexed": true,
          "internalType": "address",
          "name": "operator",
          "type": "address"
        },
        {
          "indexed": false,
          "internalType": "bool",
          "name": "approved",
          "type": "bool"
        }
      ],
      "name": "ApprovalForAll",
      "type": "event"
    },
    {
      "anonymous": false,
      "inputs": [
        {
          "indexed": true,
          "internalType": "address",
          "name": "previousOwner",
          "type": "address"
        },
        {
          "indexed": true,
          "internalType": "address",
          "name": "newOwner",
          "type": "address"
        }
      ],
      "name": "OwnershipTransferred",
      "type": "event"
    },
    {
      "anonymous": false,
      "inputs": [
        {
          "indexed": true,
          "internalType": "address",
          "name": "from",
          "type": "address"
        },
        {
          "indexed": true,
          "internalType": "address",
          "name": "to",
          "type": "address"
        },
        {
          "indexed": true,
          "internalType": "uint256",
          "name": "tokenId",
          "type": "uint256"
        }
      ],
      "name": "Transfer",
      "type": "event"
    },
    {
      "inputs": [
        {
          "internalType": "address",
          "name": "to",
          "type": "address"
        },
        {
          "internalType": "uint256",
          "name": "tokenId",
          "type": "uint256"
        }
      ],
      "name": "approve",
      "outputs": [],
      "stateMutability": "nonpayable",
      "type": "function"
    },
    {
      "inputs": [
        {
          "internalType": "address",
          "name": "owner",
          "type": "address"
        }
      ],
      "name": "balanceOf",
      "outputs": [
        {
          "internalType": "uint256",
          "name": "",
          "type": "uint256"
        }
      ],
      "stateMutability": "view",
      "type": "function"
    },
    {
      "inputs": [],
      "name": "currentTokenId",
      "outputs": [
        {
          "internalType": "uint256",
          "name": "",
          "type": "uint256"
        }
      ],
      "stateMutability": "view",
      "type": "function"
    },
    {
      "inputs": [],
      "name": "duration",
      "outputs": [
        {
          "internalType": "uint48",
          "name": "",
          "type": "uint48"
        }
      ],
      "stateMutability": "view",
      "type": "function"
    },
    {
      "inputs": [
        {
          "internalType": "uint256",
          "name": "tokenId",
          "type": "uint256"
        }
      ],
      "name": "getApproved",
      "outputs": [
        {
          "internalType": "address",
          "name": "",
          "type": "address"
        }
      ],
      "stateMutability": "view",
      "type": "function"
    },
    {
      "inputs": [
        {
          "internalType": "address",
          "name": "user",
          "type": "address"
        }
      ],
      "name": "hasGasCoveredUntil",
      "outputs": [
        {
          "internalType": "uint48",
          "name": "",
          "type": "uint48"
        }
      ],
      "stateMutability": "view",
      "type": "function"
    },
    {
      "inputs": [
        {
          "internalType": "address",
          "name": "owner",
          "type": "address"
        },
        {
          "internalType": "address",
          "name": "operator",
          "type": "address"
        }
      ],
      "name": "isApprovedForAll",
      "outputs": [
        {
          "internalType": "bool",
          "name": "",
          "type": "bool"
        }
      ],
      "stateMutability": "view",
      "type": "function"
    },
    {
      "inputs": [],
      "name": "isTransferable",
      "outputs": [
        {
          "internalType": "bool",
          "name": "",
          "type": "bool"
        }
      ],
      "stateMutability": "view",
      "type": "function"
    },
    {
      "inputs": [
        {
          "internalType": "uint256",
          "name": "quantity",
          "type": "uint256"
        },
        {
          "internalType": "address",
          "name": "recipient",
          "type": "address"
        }
      ],
      "name": "mintTo",
      "outputs": [],
      "stateMutability": "nonpayable",
      "type": "function"
    },
    {
      "inputs": [],
      "name": "name",
      "outputs": [
        {
          "internalType": "string",
          "name": "",
          "type": "string"
        }
      ],
      "stateMutability": "view",
      "type": "function"
    },
    {
      "inputs": [],
      "name": "owner",
      "outputs": [
        {
          "internalType": "address",
          "name": "",
          "type": "address"
        }
      ],
      "stateMutability": "view",
      "type": "function"
    },
    {
      "inputs": [
        {
          "internalType": "uint256",
          "name": "tokenId",
          "type": "uint256"
        }
      ],
      "name": "ownerOf",
      "outputs": [
        {
          "internalType": "address",
          "name": "",
          "type": "address"
        }
      ],
      "stateMutability": "view",
      "type": "function"
    },
    {
      "inputs": [],
      "name": "renounceOwnership",
      "outputs": [],
      "stateMutability": "nonpayable",
      "type": "function"
    },
    {
      "inputs": [
        {
          "internalType": "address",
          "name": "from",
          "type": "address"
        },
        {
          "internalType": "address",
          "name": "to",
          "type": "address"
        },
        {
          "internalType": "uint256",
          "name": "tokenId",
          "type": "uint256"
        }
      ],
      "name": "safeTransferFrom",
      "outputs": [],
      "stateMutability": "nonpayable",
      "type": "function"
    },
    {
      "inputs": [
        {
          "internalType": "address",
          "name": "from",
          "type": "address"
        },
        {
          "internalType": "address",
          "name": "to",
          "type": "address"
        },
        {
          "internalType": "uint256",
          "name": "tokenId",
          "type": "uint256"
        },
        {
          "internalType": "bytes",
          "name": "data",
          "type": "bytes"
        }
      ],
      "name": "safeTransferFrom",
      "outputs": [],
      "stateMutability": "nonpayable",
      "type": "function"
    },
    {
      "inputs": [
        {
          "internalType": "address",
          "name": "operator",
          "type": "address"
        },
        {
          "internalType": "bool",
          "name": "approved",
          "type": "bool"
        }
      ],
      "name": "setApprovalForAll",
      "outputs": [],
      "stateMutability": "nonpayable",
      "type": "function"
    },
    {
      "inputs": [
        {
          "internalType": "bytes4",
          "name": "interfaceId",
          "type": "bytes4"
        }
      ],
      "name": "supportsInterface",
      "outputs": [
        {
          "internalType": "bool",
          "name": "",
          "type": "bool"
        }
      ],
      "stateMutability": "view",
      "type": "function"
    },
    {
      "inputs": [],
      "name": "symbol",
      "outputs": [
        {
          "internalType": "string",
          "name": "",
          "type": "string"
        }
      ],
      "stateMutability": "view",
      "type": "function"
    },
    {
      "inputs": [
        {
          "internalType": "uint256",
          "name": "index",
          "type": "uint256"
        }
      ],
      "name": "tokenByIndex",
      "outputs": [
        {
          "internalType": "uint256",
          "name": "",
          "type": "uint256"
        }
      ],
      "stateMutability": "view",
      "type": "function"
    },
    {
      "inputs": [
        {
          "internalType": "address",
          "name": "owner",
          "type": "address"
        },
        {
          "internalType": "uint256",
          "name": "index",
          "type": "uint256"
        }
      ],
      "name": "tokenOfOwnerByIndex",
      "outputs": [
        {
          "internalType": "uint256",
          "name": "",
          "type": "uint256"
        }
      ],
      "stateMutability": "view",
      "type": "function"
    },
    {
      "inputs": [
        {
          "internalType": "uint256",
          "name": "tokenId",
          "type": "uint256"
        }
      ],
      "name": "tokenURI",
      "outputs": [
        {
          "internalType": "string",
          "name": "",
          "type": "string"
        }
      ],
      "stateMutability": "view",
      "type": "function"
    },
    {
      "inputs": [],
      "name": "totalSupply",
      "outputs": [
        {
          "internalType": "uint256",
          "name": "",
          "type": "uint256"
        }
      ],
      "stateMutability": "view",
      "type": "function"
    },
    {
      "inputs": [
        {
          "internalType": "address",
          "name": "from",
          "type": "address"
        },
        {
          "internalType": "address",
          "name": "to",
          "type": "address"
        },
        {
          "internalType": "uint256",
          "name": "tokenId",
          "type": "uint256"
        }
      ],
      "name": "transferFrom",
      "outputs": [],
      "stateMutability": "nonpayable",
      "type": "function"
    },
    {
      "inputs": [
        {
          "internalType": "address",
          "name": "newOwner",
          "type": "address"
        }
      ],
      "name": "transferOwnership",
      "outputs": [],
      "stateMutability": "nonpayable",
      "type": "function"
    },
    {
      "inputs": [
        {
          "internalType": "uint256",
          "name": "",
          "type": "uint256"
        }
      ],
      "name": "validUntil",
      "outputs": [
        {
          "internalType": "uint48",
          "name": "",
          "type": "uint48"
        }
      ],
      "stateMutability": "view",
      "type": "function"
    }
  ],
  "bytecode": {
    "object": "0x6080604052604051620026a1380380620026a18339810160408190526200002691620001b6565b83836000620000368382620002e7565b506001620000458282620002e7565b505050620000626200005c6200009b60201b60201c565b6200009f565b600c805492151566010000000000000266ffffffffffffff1990931665ffffffffffff9092169190911791909117905550620003b39050565b3390565b600a80546001600160a01b038381166001600160a01b0319831681179093556040519116919082907f8be0079c531659141344cd1fd0a4f28419497f9722a3daafe3b4186f6b6457e090600090a35050565b634e487b7160e01b600052604160045260246000fd5b600082601f8301126200011957600080fd5b81516001600160401b0380821115620001365762000136620000f1565b604051601f8301601f19908116603f01168101908282118183101715620001615762000161620000f1565b816040528381526020925086838588010111156200017e57600080fd5b600091505b83821015620001a2578582018301518183018401529082019062000183565b600093810190920192909252949350505050565b60008060008060808587031215620001cd57600080fd5b84516001600160401b0380821115620001e557600080fd5b620001f38883890162000107565b955060208701519150808211156200020a57600080fd5b50620002198782880162000107565b935050604085015180151581146200023057600080fd5b606086015190925065ffffffffffff811681146200024d57600080fd5b939692955090935050565b600181811c908216806200026d57607f821691505b6020821081036200028e57634e487b7160e01b600052602260045260246000fd5b50919050565b601f821115620002e257600081815260208120601f850160051c81016020861015620002bd5750805b601f850160051c820191505b81811015620002de57828155600101620002c9565b5050505b505050565b81516001600160401b03811115620003035762000303620000f1565b6200031b8162000314845462000258565b8462000294565b602080601f8311600181146200035357600084156200033a5750858301515b600019600386901b1c1916600185901b178555620002de565b600085815260208120601f198616915b82811015620003845788860151825594840194600190910190840162000363565b5085821015620003a35787850151600019600388901b60f8161c191681555b5050505050600190811b01905550565b6122de80620003c36000396000f3fe608060405234801561001057600080fd5b50600436106101725760003560e01c806342842e0e116100de57806395d89b4111610097578063b88d4fde11610071578063b88d4fde14610347578063c87b56dd1461035a578063e985e9c51461036d578063f2fde38b146103a957600080fd5b806395d89b4114610319578063a22cb46514610321578063b723b34e1461033457600080fd5b806342842e0e146102b45780634f6ccce7146102c75780636352211e146102da57806370a08231146102ed578063715018a6146103005780638da5cb5b1461030857600080fd5b80630fb5a6b4116101305780630fb5a6b41461024a57806318160ddd1461025c5780632121dc7514610264578063216213521461027b57806323b872dd1461028e5780632f745c59146102a157600080fd5b80629a9b7b1461017757806301ffc9a714610193578063059c95d4146101b657806306fdde03146101f5578063081812fc1461020a578063095ea7b314610235575b600080fd5b610180600b5481565b6040519081526020015b60405180910390f35b6101a66101a13660046119fd565b6103bc565b604051901515815260200161018a565b6101de6101c4366004611a21565b600d6020526000908152604090205465ffffffffffff1681565b60405165ffffffffffff909116815260200161018a565b6101fd6103e7565b60405161018a9190611a8a565b61021d610218366004611a21565b610479565b6040516001600160a01b03909116815260200161018a565b610248610243366004611ab9565b6104a0565b005b600c546101de9065ffffffffffff1681565b600854610180565b600c546101a6906601000000000000900460ff1681565b6101de610289366004611ae3565b6105ba565b61024861029c366004611afe565b610628565b6101806102af366004611ab9565b610659565b6102486102c2366004611afe565b6106ef565b6101806102d5366004611a21565b61070a565b61021d6102e8366004611a21565b61079d565b6101806102fb366004611ae3565b6107fd565b610248610883565b600a546001600160a01b031661021d565b6101fd610897565b61024861032f366004611b3a565b6108a6565b610248610342366004611b76565b6108b5565b610248610355366004611bb8565b610994565b6101fd610368366004611a21565b6109cc565b6101a661037b366004611c94565b6001600160a01b03918216600090815260056020908152604080832093909416825291909152205460ff1690565b6102486103b7366004611ae3565b610c22565b60006001600160e01b0319821663780e9d6360e01b14806103e157506103e182610c9b565b92915050565b6060600080546103f690611cbe565b80601f016020809104026020016040519081016040528092919081815260200182805461042290611cbe565b801561046f5780601f106104445761010080835404028352916020019161046f565b820191906000526020600020905b81548152906001019060200180831161045257829003601f168201915b5050505050905090565b600061048482610ceb565b506000908152600460205260409020546001600160a01b031690565b60006104ab8261079d565b9050806001600160a01b0316836001600160a01b03160361051d5760405162461bcd60e51b815260206004820152602160248201527f4552433732313a20617070726f76616c20746f2063757272656e74206f776e656044820152603960f91b60648201526084015b60405180910390fd5b336001600160a01b03821614806105395750610539813361037b565b6105ab5760405162461bcd60e51b815260206004820152603d60248201527f4552433732313a20617070726f76652063616c6c6572206973206e6f7420746f60448201527f6b656e206f776e6572206f7220617070726f76656420666f7220616c6c0000006064820152608401610514565b6105b58383610d4a565b505050565b6000806105c6836107fd565b9050600160005b828110156106205760006105e18683610659565b6000818152600d602052604090205490915065ffffffffffff90811690841681111561060b578093505b5050808061061890611d0e565b9150506105cd565b509392505050565b6106323382610db8565b61064e5760405162461bcd60e51b815260040161051490611d27565b6105b5838383610e37565b6000610664836107fd565b82106106c65760405162461bcd60e51b815260206004820152602b60248201527f455243373231456e756d657261626c653a206f776e657220696e646578206f7560448201526a74206f6620626f756e647360a81b6064820152608401610514565b506001600160a01b03919091166000908152600660209081526040808320938352929052205490565b6105b583838360405180602001604052806000815250610994565b600061071560085490565b82106107785760405162461bcd60e51b815260206004820152602c60248201527f455243373231456e756d657261626c653a20676c6f62616c20696e646578206f60448201526b7574206f6620626f756e647360a01b6064820152608401610514565b6008828154811061078b5761078b611d74565b90600052602060002001549050919050565b6000818152600260205260408120546001600160a01b0316806103e15760405162461bcd60e51b8152602060048201526018602482015277115490cdcc8c4e881a5b9d985b1a59081d1bdad95b88125160421b6044820152606401610514565b60006001600160a01b0382166108675760405162461bcd60e51b815260206004820152602960248201527f4552433732313a2061646472657373207a65726f206973206e6f7420612076616044820152683634b21037bbb732b960b91b6064820152608401610514565b506001600160a01b031660009081526003602052604090205490565b61088b610fa8565b6108956000611002565b565b6060600180546103f690611cbe565b6108b1338383611054565b5050565b6108bd610fa8565b60005b828110156105b557600b80549060006108d883611d0e565b91905055506108e982600b54611122565b306001600160a01b0316630fb5a6b46040518163ffffffff1660e01b8152600401602060405180830381865afa158015610927573d6000803e3d6000fd5b505050506040513d601f19601f8201168201806040525081019061094b9190611d8a565b6109559042611db2565b600b546000908152600d60205260409020805465ffffffffffff191665ffffffffffff929092169190911790558061098c81611d0e565b9150506108c0565b61099e3383610db8565b6109ba5760405162461bcd60e51b815260040161051490611d27565b6109c6848484846112bb565b50505050565b6000818152600260205260409020546060906001600160a01b0316610a4b5760405162461bcd60e51b815260206004820152602f60248201527f4552433732314d657461646174613a2055524920717565727920666f72206e6f60448201526e3732bc34b9ba32b73a103a37b5b2b760891b6064820152608401610514565b6000828152600d602052604081205465ffffffffffff16421015610a92576000838152600d6020526040902054610a8b90429065ffffffffffff16611dd8565b9050610a96565b5060005b6000610aa4610e1083611e01565b90506000603c610ab6610e1085611e15565b610ac09190611e01565b90506000610acf603c85611e15565b9050610ad96119c0565b604051806101400160405280610114815260200161219561011491398152610b00846112ee565b610b09846112ee565b610b12846112ee565b604051602001610b2493929190611e29565b60408051601f19818403018152918152602083810192835281518083018352600d81526c1e17ba32bc3a1f1e17b9bb339f60991b81830152848301819052845193519251600094610b7a94909390929101611eb0565b60405160208183030381529060405290506000610b9682611381565b9050600081604051602001610bab9190611ef3565b60405160208183030381529060405290506000610bf0610bca8c6112ee565b83604051602001610bdc929190611f38565b604051602081830303815290604052611381565b905080604051602001610c039190611fde565b6040516020818303038152906040529950505050505050505050919050565b610c2a610fa8565b6001600160a01b038116610c8f5760405162461bcd60e51b815260206004820152602660248201527f4f776e61626c653a206e6577206f776e657220697320746865207a65726f206160448201526564647265737360d01b6064820152608401610514565b610c9881611002565b50565b60006001600160e01b031982166380ac58cd60e01b1480610ccc57506001600160e01b03198216635b5e139f60e01b145b806103e157506301ffc9a760e01b6001600160e01b03198316146103e1565b6000818152600260205260409020546001600160a01b0316610c985760405162461bcd60e51b8152602060048201526018602482015277115490cdcc8c4e881a5b9d985b1a59081d1bdad95b88125160421b6044820152606401610514565b600081815260046020526040902080546001600160a01b0319166001600160a01b0384169081179091558190610d7f8261079d565b6001600160a01b03167f8c5be1e5ebec7d5bd14f71427d1e84f3dd0314c0f7b2291e5b200ac8c7c3b92560405160405180910390a45050565b600080610dc48361079d565b9050806001600160a01b0316846001600160a01b03161480610e0b57506001600160a01b0380821660009081526005602090815260408083209388168352929052205460ff165b80610e2f5750836001600160a01b0316610e2484610479565b6001600160a01b0316145b949350505050565b826001600160a01b0316610e4a8261079d565b6001600160a01b031614610e705760405162461bcd60e51b815260040161051490612023565b6001600160a01b038216610ed25760405162461bcd60e51b8152602060048201526024808201527f4552433732313a207472616e7366657220746f20746865207a65726f206164646044820152637265737360e01b6064820152608401610514565b610edf83838360016114d4565b826001600160a01b0316610ef28261079d565b6001600160a01b031614610f185760405162461bcd60e51b815260040161051490612023565b600081815260046020908152604080832080546001600160a01b03199081169091556001600160a01b0387811680865260038552838620805460001901905590871680865283862080546001019055868652600290945282852080549092168417909155905184937fddf252ad1be2c89b69c2b068fc378daa952ba7f163c4a11628f55a4df523b3ef91a4505050565b600a546001600160a01b031633146108955760405162461bcd60e51b815260206004820181905260248201527f4f776e61626c653a2063616c6c6572206973206e6f7420746865206f776e65726044820152606401610514565b600a80546001600160a01b038381166001600160a01b0319831681179093556040519116919082907f8be0079c531659141344cd1fd0a4f28419497f9722a3daafe3b4186f6b6457e090600090a35050565b816001600160a01b0316836001600160a01b0316036110b55760405162461bcd60e51b815260206004820152601960248201527f4552433732313a20617070726f766520746f2063616c6c6572000000000000006044820152606401610514565b6001600160a01b03838116600081815260056020908152604080832094871680845294825291829020805460ff191686151590811790915591519182527f17307eab39ab6107e8899845ad3d59bd9653f200f220920489ca2b5937696c31910160405180910390a3505050565b6001600160a01b0382166111785760405162461bcd60e51b815260206004820181905260248201527f4552433732313a206d696e7420746f20746865207a65726f20616464726573736044820152606401610514565b6000818152600260205260409020546001600160a01b0316156111dd5760405162461bcd60e51b815260206004820152601c60248201527f4552433732313a20746f6b656e20616c7265616479206d696e746564000000006044820152606401610514565b6111eb6000838360016114d4565b6000818152600260205260409020546001600160a01b0316156112505760405162461bcd60e51b815260206004820152601c60248201527f4552433732313a20746f6b656e20616c7265616479206d696e746564000000006044820152606401610514565b6001600160a01b038216600081815260036020908152604080832080546001019055848352600290915280822080546001600160a01b0319168417905551839291907fddf252ad1be2c89b69c2b068fc378daa952ba7f163c4a11628f55a4df523b3ef908290a45050565b6112c6848484610e37565b6112d284848484611523565b6109c65760405162461bcd60e51b815260040161051490612068565b606060006112fb83611624565b600101905060008167ffffffffffffffff81111561131b5761131b611ba2565b6040519080825280601f01601f191660200182016040528015611345576020820181803683370190505b5090508181016020015b600019016f181899199a1a9b1b9c1cb0b131b232b360811b600a86061a8153600a850494508461134f57509392505050565b606081516000036113a057505060408051602081019091526000815290565b600060405180606001604052806040815260200161215560409139905060006003845160026113cf91906120ba565b6113d99190611e01565b6113e49060046120cd565b67ffffffffffffffff8111156113fc576113fc611ba2565b6040519080825280601f01601f191660200182016040528015611426576020820181803683370190505b509050600182016020820185865187015b80821015611492576003820191508151603f8160121c168501518453600184019350603f81600c1c168501518453600184019350603f8160061c168501518453600184019350603f8116850151845350600183019250611437565b50506003865106600181146114ae57600281146114c1576114c9565b603d6001830353603d60028303536114c9565b603d60018303535b509195945050505050565b6114e0848484846116fc565b6001600160a01b038416158015906115055750600c546601000000000000900460ff16155b156109c65760405163dc8d8db760e01b815260040160405180910390fd5b60006001600160a01b0384163b1561161957604051630a85bd0160e11b81526001600160a01b0385169063150b7a02906115679033908990889088906004016120e4565b6020604051808303816000875af19250505080156115a2575060408051601f3d908101601f1916820190925261159f91810190612121565b60015b6115ff573d8080156115d0576040519150601f19603f3d011682016040523d82523d6000602084013e6115d5565b606091505b5080516000036115f75760405162461bcd60e51b815260040161051490612068565b805181602001fd5b6001600160e01b031916630a85bd0160e11b149050610e2f565b506001949350505050565b60008072184f03e93ff9f4daa797ed6e38ed64bf6a1f0160401b83106116635772184f03e93ff9f4daa797ed6e38ed64bf6a1f0160401b830492506040015b6d04ee2d6d415b85acef8100000000831061168f576d04ee2d6d415b85acef8100000000830492506020015b662386f26fc1000083106116ad57662386f26fc10000830492506010015b6305f5e10083106116c5576305f5e100830492506008015b61271083106116d957612710830492506004015b606483106116eb576064830492506002015b600a83106103e15760010192915050565b600181111561176b5760405162461bcd60e51b815260206004820152603560248201527f455243373231456e756d657261626c653a20636f6e7365637574697665207472604482015274185b9cd9995c9cc81b9bdd081cdd5c1c1bdc9d1959605a1b6064820152608401610514565b816001600160a01b0385166117c7576117c281600880546000838152600960205260408120829055600182018355919091527ff3f7a9fe364faab93b216da50a3214154f22a0a2b415b23a84c8169e8b636ee30155565b6117ea565b836001600160a01b0316856001600160a01b0316146117ea576117ea8582611830565b6001600160a01b03841661180657611801816118cd565b611829565b846001600160a01b0316846001600160a01b03161461182957611829848261197c565b5050505050565b6000600161183d846107fd565b6118479190611dd8565b60008381526007602052604090205490915080821461189a576001600160a01b03841660009081526006602090815260408083208584528252808320548484528184208190558352600790915290208190555b5060009182526007602090815260408084208490556001600160a01b039094168352600681528383209183525290812055565b6008546000906118df90600190611dd8565b6000838152600960205260408120546008805493945090928490811061190757611907611d74565b90600052602060002001549050806008838154811061192857611928611d74565b60009182526020808320909101929092558281526009909152604080822084905585825281205560088054806119605761196061213e565b6001900381819060005260206000200160009055905550505050565b6000611987836107fd565b6001600160a01b039093166000908152600660209081526040808320868452825280832085905593825260079052919091209190915550565b6040518060a001604052806005905b60608152602001906001900390816119cf5790505090565b6001600160e01b031981168114610c9857600080fd5b600060208284031215611a0f57600080fd5b8135611a1a816119e7565b9392505050565b600060208284031215611a3357600080fd5b5035919050565b60005b83811015611a55578181015183820152602001611a3d565b50506000910152565b60008151808452611a76816020860160208601611a3a565b601f01601f19169290920160200192915050565b602081526000611a1a6020830184611a5e565b80356001600160a01b0381168114611ab457600080fd5b919050565b60008060408385031215611acc57600080fd5b611ad583611a9d565b946020939093013593505050565b600060208284031215611af557600080fd5b611a1a82611a9d565b600080600060608486031215611b1357600080fd5b611b1c84611a9d565b9250611b2a60208501611a9d565b9150604084013590509250925092565b60008060408385031215611b4d57600080fd5b611b5683611a9d565b915060208301358015158114611b6b57600080fd5b809150509250929050565b60008060408385031215611b8957600080fd5b82359150611b9960208401611a9d565b90509250929050565b634e487b7160e01b600052604160045260246000fd5b60008060008060808587031215611bce57600080fd5b611bd785611a9d565b9350611be560208601611a9d565b925060408501359150606085013567ffffffffffffffff80821115611c0957600080fd5b818701915087601f830112611c1d57600080fd5b813581811115611c2f57611c2f611ba2565b604051601f8201601f19908116603f01168101908382118183101715611c5757611c57611ba2565b816040528281528a6020848701011115611c7057600080fd5b82602086016020830137600060208483010152809550505050505092959194509250565b60008060408385031215611ca757600080fd5b611cb083611a9d565b9150611b9960208401611a9d565b600181811c90821680611cd257607f821691505b602082108103611cf257634e487b7160e01b600052602260045260246000fd5b50919050565b634e487b7160e01b600052601160045260246000fd5b600060018201611d2057611d20611cf8565b5060010190565b6020808252602d908201527f4552433732313a2063616c6c6572206973206e6f7420746f6b656e206f776e6560408201526c1c881bdc88185c1c1c9bdd9959609a1b606082015260800190565b634e487b7160e01b600052603260045260246000fd5b600060208284031215611d9c57600080fd5b815165ffffffffffff81168114611a1a57600080fd5b65ffffffffffff818116838216019080821115611dd157611dd1611cf8565b5092915050565b818103818111156103e1576103e1611cf8565b634e487b7160e01b600052601260045260246000fd5b600082611e1057611e10611deb565b500490565b600082611e2457611e24611deb565b500690565b6a02a34b6b2902632b33a1d160ad1b815260008451611e4f81600b850160208901611a3a565b61034160f51b600b918401918201528451611e7181600d840160208901611a3a565b61036960f51b600d92909101918201528351611e9481600f840160208801611a3a565b61039960f51b600f929091019182015260110195945050505050565b60008451611ec2818460208901611a3a565b845190830190611ed6818360208901611a3a565b8451910190611ee9818360208801611a3a565b0195945050505050565b7f646174613a696d6167652f7376672b786d6c3b6261736536342c000000000000815260008251611f2b81601a850160208701611a3a565b91909101601a0192915050565b727b226e616d65223a202244617970617373202360681b81528251600090611f67816013850160208801611a3a565b7f222c20226465736372697074696f6e223a202241204461797061737320666f7260139184019182015275103cb7bab91033b0b99116101134b6b0b3b2911d101160511b60338201528351611fc3816049840160208801611a3a565b61227d60f01b60499290910191820152604b01949350505050565b7f646174613a6170706c69636174696f6e2f6a736f6e3b6261736536342c00000081526000825161201681601d850160208701611a3a565b91909101601d0192915050565b60208082526025908201527f4552433732313a207472616e736665722066726f6d20696e636f72726563742060408201526437bbb732b960d91b606082015260800190565b60208082526032908201527f4552433732313a207472616e7366657220746f206e6f6e20455243373231526560408201527131b2b4bb32b91034b6b83632b6b2b73a32b960711b606082015260800190565b808201808211156103e1576103e1611cf8565b80820281158282048414176103e1576103e1611cf8565b6001600160a01b038581168252841660208201526040810183905260806060820181905260009061211790830184611a5e565b9695505050505050565b60006020828403121561213357600080fd5b8151611a1a816119e7565b634e487b7160e01b600052603160045260246000fdfe4142434445464748494a4b4c4d4e4f505152535455565758595a6162636465666768696a6b6c6d6e6f707172737475767778797a303132333435363738392b2f3c73766720786d6c6e733d22687474703a2f2f7777772e77332e6f72672f323030302f73766722207072657365727665417370656374526174696f3d22784d696e594d696e206d656574222076696577426f783d223020302033353020333530223e3c7374796c653e2e62617365207b2066696c6c3a20626c61636b3b20666f6e742d66616d696c793a2073657269663b20666f6e742d73697a653a20323470783b207d3c2f7374796c653e3c726563742077696474683d223130302522206865696768743d2231303025222066696c6c3d22776869746522202f3e3c7465787420783d223530252220793d223530252220636c6173733d22626173652220746578742d616e63686f723d226d6964646c65223ea26469706673582212204ac5dae033e331b7f6600a06d0965cbad2ae9b82b3ddf94b830d648b5d965aff64736f6c63430008130033",
    "linkReferences": {}
  },
  "methodIdentifiers": {
    "approve(address,uint256)": "095ea7b3",
    "balanceOf(address)": "70a08231",
    "currentTokenId()": "009a9b7b",
    "duration()": "0fb5a6b4",
    "getApproved(uint256)": "081812fc",
    "hasGasCoveredUntil(address)": "21621352",
    "isApprovedForAll(address,address)": "e985e9c5",
    "isTransferable()": "2121dc75",
    "mintTo(uint256,address)": "b723b34e",
    "name()": "06fdde03",
    "owner()": "8da5cb5b",
    "ownerOf(uint256)": "6352211e",
    "renounceOwnership()": "715018a6",
    "safeTransferFrom(address,address,uint256)": "42842e0e",
    "safeTransferFrom(address,address,uint256,bytes)": "b88d4fde",
    "setApprovalForAll(address,bool)": "a22cb465",
    "supportsInterface(bytes4)": "01ffc9a7",
    "symbol()": "95d89b41",
    "tokenByIndex(uint256)": "4f6ccce7",
    "tokenOfOwnerByIndex(address,uint256)": "2f745c59",
    "tokenURI(uint256)": "c87b56dd",
    "totalSupply()": "18160ddd",
    "transferFrom(address,address,uint256)": "23b872dd",
    "transferOwnership(address)": "f2fde38b",
    "validUntil(uint256)": "059c95d4"
  },
  "id": 69
}