{
  "abi": [
    {
      "inputs": [
        {
          "internalType": "string",
          "name": "name",
          "type": "string"
        },
        {
          "internalType": "string",
          "name": "symbol",
          "type": "string"
        },
        {
          "internalType": "bool",
          "name": "_isTransferable",
          "type": "bool"
        }
      ],
      "stateMutability": "payable",
      "type": "constructor"
    },
    {
      "inputs": [],
      "name": "NotTransferable",
      "type": "error"
    },
    {
      "anonymous": false,
      "inputs": [
        {
          "indexed": true,
          "internalType": "address",
          "name": "owner",
          "type": "address"
        },
        {
          "indexed": true,
          "internalType": "address",
          "name": "approved",
          "type": "address"
        },
        {
          "indexed": true,
          "internalType": "uint256",
          "name": "tokenId",
          "type": "uint256"
        }
      ],
      "name": "Approval",
      "type": "event"
    },
    {
      "anonymous": false,
      "inputs": [
        {
          "indexed": true,
          "internalType": "address",
          "name": "owner",
          "type": "address"
        },
        {
          "indexed": true,
          "internalType": "address",
          "name": "operator",
          "type": "address"
        },
        {
          "indexed": false,
          "internalType": "bool",
          "name": "approved",
          "type": "bool"
        }
      ],
      "name": "ApprovalForAll",
      "type": "event"
    },
    {
      "anonymous": false,
      "inputs": [
        {
          "indexed": true,
          "internalType": "address",
          "name": "previousOwner",
          "type": "address"
        },
        {
          "indexed": true,
          "internalType": "address",
          "name": "newOwner",
          "type": "address"
        }
      ],
      "name": "OwnershipTransferred",
      "type": "event"
    },
    {
      "anonymous": false,
      "inputs": [
        {
          "indexed": true,
          "internalType": "address",
          "name": "from",
          "type": "address"
        },
        {
          "indexed": true,
          "internalType": "address",
          "name": "to",
          "type": "address"
        },
        {
          "indexed": true,
          "internalType": "uint256",
          "name": "tokenId",
          "type": "uint256"
        }
      ],
      "name": "Transfer",
      "type": "event"
    },
    {
      "inputs": [
        {
          "internalType": "address",
          "name": "to",
          "type": "address"
        },
        {
          "internalType": "uint256",
          "name": "tokenId",
          "type": "uint256"
        }
      ],
      "name": "approve",
      "outputs": [],
      "stateMutability": "nonpayable",
      "type": "function"
    },
    {
      "inputs": [
        {
          "internalType": "address",
          "name": "owner",
          "type": "address"
        }
      ],
      "name": "balanceOf",
      "outputs": [
        {
          "internalType": "uint256",
          "name": "",
          "type": "uint256"
        }
      ],
      "stateMutability": "view",
      "type": "function"
    },
    {
      "inputs": [],
      "name": "currentTokenId",
      "outputs": [
        {
          "internalType": "uint256",
          "name": "",
          "type": "uint256"
        }
      ],
      "stateMutability": "view",
      "type": "function"
    },
    {
      "inputs": [
        {
          "internalType": "uint256",
          "name": "tokenId",
          "type": "uint256"
        }
      ],
      "name": "getApproved",
      "outputs": [
        {
          "internalType": "address",
          "name": "",
          "type": "address"
        }
      ],
      "stateMutability": "view",
      "type": "function"
    },
    {
      "inputs": [],
      "name": "getIsTransferable",
      "outputs": [
        {
          "internalType": "bool",
          "name": "",
          "type": "bool"
        }
      ],
      "stateMutability": "view",
      "type": "function"
    },
    {
      "inputs": [
        {
          "internalType": "uint256",
          "name": "tokenId",
          "type": "uint256"
        }
      ],
      "name": "getMintedAt",
      "outputs": [
        {
          "internalType": "uint256",
          "name": "",
          "type": "uint256"
        }
      ],
      "stateMutability": "view",
      "type": "function"
    },
    {
      "inputs": [
        {
          "internalType": "address",
          "name": "owner",
          "type": "address"
        }
      ],
      "name": "hasValidPass",
      "outputs": [
        {
          "internalType": "bool",
          "name": "",
          "type": "bool"
        }
      ],
      "stateMutability": "view",
      "type": "function"
    },
    {
      "inputs": [
        {
          "internalType": "address",
          "name": "owner",
          "type": "address"
        },
        {
          "internalType": "address",
          "name": "operator",
          "type": "address"
        }
      ],
      "name": "isApprovedForAll",
      "outputs": [
        {
          "internalType": "bool",
          "name": "",
          "type": "bool"
        }
      ],
      "stateMutability": "view",
      "type": "function"
    },
    {
      "inputs": [
        {
          "internalType": "uint256",
          "name": "tokenId",
          "type": "uint256"
        }
      ],
      "name": "isPassValid",
      "outputs": [
        {
          "internalType": "bool",
          "name": "",
          "type": "bool"
        }
      ],
      "stateMutability": "view",
      "type": "function"
    },
    {
      "inputs": [
        {
          "internalType": "uint256",
          "name": "quantity",
          "type": "uint256"
        },
        {
          "internalType": "address",
          "name": "recipient",
          "type": "address"
        }
      ],
      "name": "mintTo",
      "outputs": [],
      "stateMutability": "nonpayable",
      "type": "function"
    },
    {
      "inputs": [
        {
          "internalType": "uint256",
          "name": "",
          "type": "uint256"
        }
      ],
      "name": "mintedAt",
      "outputs": [
        {
          "internalType": "uint256",
          "name": "",
          "type": "uint256"
        }
      ],
      "stateMutability": "view",
      "type": "function"
    },
    {
      "inputs": [],
      "name": "name",
      "outputs": [
        {
          "internalType": "string",
          "name": "",
          "type": "string"
        }
      ],
      "stateMutability": "view",
      "type": "function"
    },
    {
      "inputs": [],
      "name": "owner",
      "outputs": [
        {
          "internalType": "address",
          "name": "",
          "type": "address"
        }
      ],
      "stateMutability": "view",
      "type": "function"
    },
    {
      "inputs": [
        {
          "internalType": "uint256",
          "name": "tokenId",
          "type": "uint256"
        }
      ],
      "name": "ownerOf",
      "outputs": [
        {
          "internalType": "address",
          "name": "",
          "type": "address"
        }
      ],
      "stateMutability": "view",
      "type": "function"
    },
    {
      "inputs": [],
      "name": "renounceOwnership",
      "outputs": [],
      "stateMutability": "nonpayable",
      "type": "function"
    },
    {
      "inputs": [
        {
          "internalType": "address",
          "name": "from",
          "type": "address"
        },
        {
          "internalType": "address",
          "name": "to",
          "type": "address"
        },
        {
          "internalType": "uint256",
          "name": "tokenId",
          "type": "uint256"
        }
      ],
      "name": "safeTransferFrom",
      "outputs": [],
      "stateMutability": "nonpayable",
      "type": "function"
    },
    {
      "inputs": [
        {
          "internalType": "address",
          "name": "from",
          "type": "address"
        },
        {
          "internalType": "address",
          "name": "to",
          "type": "address"
        },
        {
          "internalType": "uint256",
          "name": "tokenId",
          "type": "uint256"
        },
        {
          "internalType": "bytes",
          "name": "data",
          "type": "bytes"
        }
      ],
      "name": "safeTransferFrom",
      "outputs": [],
      "stateMutability": "nonpayable",
      "type": "function"
    },
    {
      "inputs": [
        {
          "internalType": "address",
          "name": "operator",
          "type": "address"
        },
        {
          "internalType": "bool",
          "name": "approved",
          "type": "bool"
        }
      ],
      "name": "setApprovalForAll",
      "outputs": [],
      "stateMutability": "nonpayable",
      "type": "function"
    },
    {
      "inputs": [
        {
          "internalType": "bytes4",
          "name": "interfaceId",
          "type": "bytes4"
        }
      ],
      "name": "supportsInterface",
      "outputs": [
        {
          "internalType": "bool",
          "name": "",
          "type": "bool"
        }
      ],
      "stateMutability": "view",
      "type": "function"
    },
    {
      "inputs": [],
      "name": "symbol",
      "outputs": [
        {
          "internalType": "string",
          "name": "",
          "type": "string"
        }
      ],
      "stateMutability": "view",
      "type": "function"
    },
    {
      "inputs": [
        {
          "internalType": "uint256",
          "name": "index",
          "type": "uint256"
        }
      ],
      "name": "tokenByIndex",
      "outputs": [
        {
          "internalType": "uint256",
          "name": "",
          "type": "uint256"
        }
      ],
      "stateMutability": "view",
      "type": "function"
    },
    {
      "inputs": [
        {
          "internalType": "address",
          "name": "owner",
          "type": "address"
        },
        {
          "internalType": "uint256",
          "name": "index",
          "type": "uint256"
        }
      ],
      "name": "tokenOfOwnerByIndex",
      "outputs": [
        {
          "internalType": "uint256",
          "name": "",
          "type": "uint256"
        }
      ],
      "stateMutability": "view",
      "type": "function"
    },
    {
      "inputs": [
        {
          "internalType": "uint256",
          "name": "tokenId",
          "type": "uint256"
        }
      ],
      "name": "tokenURI",
      "outputs": [
        {
          "internalType": "string",
          "name": "",
          "type": "string"
        }
      ],
      "stateMutability": "view",
      "type": "function"
    },
    {
      "inputs": [],
      "name": "totalSupply",
      "outputs": [
        {
          "internalType": "uint256",
          "name": "",
          "type": "uint256"
        }
      ],
      "stateMutability": "view",
      "type": "function"
    },
    {
      "inputs": [
        {
          "internalType": "address",
          "name": "from",
          "type": "address"
        },
        {
          "internalType": "address",
          "name": "to",
          "type": "address"
        },
        {
          "internalType": "uint256",
          "name": "tokenId",
          "type": "uint256"
        }
      ],
      "name": "transferFrom",
      "outputs": [],
      "stateMutability": "nonpayable",
      "type": "function"
    },
    {
      "inputs": [
        {
          "internalType": "address",
          "name": "newOwner",
          "type": "address"
        }
      ],
      "name": "transferOwnership",
      "outputs": [],
      "stateMutability": "nonpayable",
      "type": "function"
    }
  ],
  "bytecode": {
    "object": "0x6080604052604051620025bc380380620025bc833981016040819052620000269162000197565b82826000620000368382620002aa565b506001620000458282620002aa565b505050620000626200005c6200007c60201b60201c565b62000080565b600c805460ff191691151591909117905550620003769050565b3390565b600a80546001600160a01b038381166001600160a01b0319831681179093556040519116919082907f8be0079c531659141344cd1fd0a4f28419497f9722a3daafe3b4186f6b6457e090600090a35050565b634e487b7160e01b600052604160045260246000fd5b600082601f830112620000fa57600080fd5b81516001600160401b0380821115620001175762000117620000d2565b604051601f8301601f19908116603f01168101908282118183101715620001425762000142620000d2565b816040528381526020925086838588010111156200015f57600080fd5b600091505b8382101562000183578582018301518183018401529082019062000164565b600093810190920192909252949350505050565b600080600060608486031215620001ad57600080fd5b83516001600160401b0380821115620001c557600080fd5b620001d387838801620000e8565b94506020860151915080821115620001ea57600080fd5b50620001f986828701620000e8565b925050604084015180151581146200021057600080fd5b809150509250925092565b600181811c908216806200023057607f821691505b6020821081036200025157634e487b7160e01b600052602260045260246000fd5b50919050565b601f821115620002a557600081815260208120601f850160051c81016020861015620002805750805b601f850160051c820191505b81811015620002a1578281556001016200028c565b5050505b505050565b81516001600160401b03811115620002c657620002c6620000d2565b620002de81620002d784546200021b565b8462000257565b602080601f831160018114620003165760008415620002fd5750858301515b600019600386901b1c1916600185901b178555620002a1565b600085815260208120601f198616915b82811015620003475788860151825594840194600190910190840162000326565b5085821015620003665787850151600019600388901b60f8161c191681555b5050505050600190811b01905550565b61223680620003866000396000f3fe608060405234801561001057600080fd5b506004361061018d5760003560e01c806370a08231116100de578063b88d4fde11610097578063e985e9c511610071578063e985e9c51461033e578063f1b0aa151461037a578063f2fde38b1461039a578063f449b34a146103ad57600080fd5b8063b88d4fde1461030d578063c87b56dd14610320578063da16e3581461033357600080fd5b806370a08231146102b3578063715018a6146102c65780638da5cb5b146102ce57806395d89b41146102df578063a22cb465146102e7578063b723b34e146102fa57600080fd5b806318dbe6b01161014b57806342842e0e1161012557806342842e0e1461026757806348c6195d1461027a5780634f6ccce71461028d5780636352211e146102a057600080fd5b806318dbe6b01461022e57806323b872dd146102415780632f745c591461025457600080fd5b80629a9b7b1461019257806301ffc9a7146101ae57806306fdde03146101d1578063081812fc146101e6578063095ea7b31461021157806318160ddd14610226575b600080fd5b61019b600b5481565b6040519081526020015b60405180910390f35b6101c16101bc3660046119a3565b6103cd565b60405190151581526020016101a5565b6101d96103f8565b6040516101a59190611a17565b6101f96101f4366004611a2a565b61048a565b6040516001600160a01b0390911681526020016101a5565b61022461021f366004611a5f565b6104b1565b005b60085461019b565b6101c161023c366004611a89565b6105cb565b61022461024f366004611aa4565b610628565b61019b610262366004611a5f565b610659565b610224610275366004611aa4565b6106ef565b6101c1610288366004611a2a565b61070a565b61019b61029b366004611a2a565b610738565b6101f96102ae366004611a2a565b6107cb565b61019b6102c1366004611a89565b61082b565b6102246108b1565b600a546001600160a01b03166101f9565b6101d96108c5565b6102246102f5366004611ae0565b6108d4565b610224610308366004611b1c565b6108e3565b61022461031b366004611b5e565b6108f5565b6101d961032e366004611a2a565b61092d565b600c5460ff166101c1565b6101c161034c366004611c3a565b6001600160a01b03918216600090815260056020908152604080832093909416825291909152205460ff1690565b61019b610388366004611a2a565b600d6020526000908152604090205481565b6102246103a8366004611a89565b610b80565b61019b6103bb366004611a2a565b6000908152600d602052604090205490565b60006001600160e01b0319821663780e9d6360e01b14806103f257506103f282610bf9565b92915050565b60606000805461040790611c64565b80601f016020809104026020016040519081016040528092919081815260200182805461043390611c64565b80156104805780601f1061045557610100808354040283529160200191610480565b820191906000526020600020905b81548152906001019060200180831161046357829003601f168201915b5050505050905090565b600061049582610c49565b506000908152600460205260409020546001600160a01b031690565b60006104bc826107cb565b9050806001600160a01b0316836001600160a01b03160361052e5760405162461bcd60e51b815260206004820152602160248201527f4552433732313a20617070726f76616c20746f2063757272656e74206f776e656044820152603960f91b60648201526084015b60405180910390fd5b336001600160a01b038216148061054a575061054a813361034c565b6105bc5760405162461bcd60e51b815260206004820152603d60248201527f4552433732313a20617070726f76652063616c6c6572206973206e6f7420746f60448201527f6b656e206f776e6572206f7220617070726f76656420666f7220616c6c0000006064820152608401610525565b6105c68383610ca8565b505050565b6000806105d78361082b565b905060005b8181101561061e5760006105f08583610659565b90506105fb8161070a565b1561060b57506001949350505050565b508061061681611cb4565b9150506105dc565b5060009392505050565b6106323382610d16565b61064e5760405162461bcd60e51b815260040161052590611ccd565b6105c6838383610d95565b60006106648361082b565b82106106c65760405162461bcd60e51b815260206004820152602b60248201527f455243373231456e756d657261626c653a206f776e657220696e646578206f7560448201526a74206f6620626f756e647360a81b6064820152608401610525565b506001600160a01b03919091166000908152600660209081526040808320938352929052205490565b6105c6838383604051806020016040528060008152506108f5565b6000818152600d60205260408120546203f4806107278183611d1a565b42101561061e575060019392505050565b600061074360085490565b82106107a65760405162461bcd60e51b815260206004820152602c60248201527f455243373231456e756d657261626c653a20676c6f62616c20696e646578206f60448201526b7574206f6620626f756e647360a01b6064820152608401610525565b600882815481106107b9576107b9611d2d565b90600052602060002001549050919050565b6000818152600260205260408120546001600160a01b0316806103f25760405162461bcd60e51b8152602060048201526018602482015277115490cdcc8c4e881a5b9d985b1a59081d1bdad95b88125160421b6044820152606401610525565b60006001600160a01b0382166108955760405162461bcd60e51b815260206004820152602960248201527f4552433732313a2061646472657373207a65726f206973206e6f7420612076616044820152683634b21037bbb732b960b91b6064820152608401610525565b506001600160a01b031660009081526003602052604090205490565b6108b9610f06565b6108c36000610f60565b565b60606001805461040790611c64565b6108df338383610fb2565b5050565b6108eb610f06565b6108df8282611080565b6108ff3383610d16565b61091b5760405162461bcd60e51b815260040161052590611ccd565b610927848484846110d2565b50505050565b6000818152600260205260409020546060906001600160a01b03166109ac5760405162461bcd60e51b815260206004820152602f60248201527f4552433732314d657461646174613a2055524920717565727920666f72206e6f60448201526e3732bc34b9ba32b73a103a37b5b2b760891b6064820152608401610525565b6000828152600d6020526040812054906203f480906109cb8284611d1a565b4210156109ee57426109dd8385611d1a565b6109e79190611d43565b90506109f2565b5060005b6000610a00610e1083611d6c565b90506000603c610a12610e1085611d80565b610a1c9190611d6c565b90506000610a2b603c85611d80565b9050610a35611966565b60405180610140016040528061011481526020016120ed61011491398152610a5c84611105565b610a6584611105565b610a6e84611105565b604051602001610a8093929190611d94565b60408051601f19818403018152918152602083810192835281518083018352600d81526c1e17ba32bc3a1f1e17b9bb339f60991b81830152848301819052845193519251600094610ad694909390929101611e1b565b60405160208183030381529060405290506000610af282611198565b9050600081604051602001610b079190611e5e565b60405160208183030381529060405290506000610b4c610b268e611105565b83604051602001610b38929190611ea3565b604051602081830303815290604052611198565b905080604051602001610b5f9190611f49565b6040516020818303038152906040529b505050505050505050505050919050565b610b88610f06565b6001600160a01b038116610bed5760405162461bcd60e51b815260206004820152602660248201527f4f776e61626c653a206e6577206f776e657220697320746865207a65726f206160448201526564647265737360d01b6064820152608401610525565b610bf681610f60565b50565b60006001600160e01b031982166380ac58cd60e01b1480610c2a57506001600160e01b03198216635b5e139f60e01b145b806103f257506301ffc9a760e01b6001600160e01b03198316146103f2565b6000818152600260205260409020546001600160a01b0316610bf65760405162461bcd60e51b8152602060048201526018602482015277115490cdcc8c4e881a5b9d985b1a59081d1bdad95b88125160421b6044820152606401610525565b600081815260046020526040902080546001600160a01b0319166001600160a01b0384169081179091558190610cdd826107cb565b6001600160a01b03167f8c5be1e5ebec7d5bd14f71427d1e84f3dd0314c0f7b2291e5b200ac8c7c3b92560405160405180910390a45050565b600080610d22836107cb565b9050806001600160a01b0316846001600160a01b03161480610d6957506001600160a01b0380821660009081526005602090815260408083209388168352929052205460ff165b80610d8d5750836001600160a01b0316610d828461048a565b6001600160a01b0316145b949350505050565b826001600160a01b0316610da8826107cb565b6001600160a01b031614610dce5760405162461bcd60e51b815260040161052590611f8e565b6001600160a01b038216610e305760405162461bcd60e51b8152602060048201526024808201527f4552433732313a207472616e7366657220746f20746865207a65726f206164646044820152637265737360e01b6064820152608401610525565b610e3d83838360016112eb565b826001600160a01b0316610e50826107cb565b6001600160a01b031614610e765760405162461bcd60e51b815260040161052590611f8e565b600081815260046020908152604080832080546001600160a01b03199081169091556001600160a01b0387811680865260038552838620805460001901905590871680865283862080546001019055868652600290945282852080549092168417909155905184937fddf252ad1be2c89b69c2b068fc378daa952ba7f163c4a11628f55a4df523b3ef91a4505050565b600a546001600160a01b031633146108c35760405162461bcd60e51b815260206004820181905260248201527f4f776e61626c653a2063616c6c6572206973206e6f7420746865206f776e65726044820152606401610525565b600a80546001600160a01b038381166001600160a01b0319831681179093556040519116919082907f8be0079c531659141344cd1fd0a4f28419497f9722a3daafe3b4186f6b6457e090600090a35050565b816001600160a01b0316836001600160a01b0316036110135760405162461bcd60e51b815260206004820152601960248201527f4552433732313a20617070726f766520746f2063616c6c6572000000000000006044820152606401610525565b6001600160a01b03838116600081815260056020908152604080832094871680845294825291829020805460ff191686151590811790915591519182527f17307eab39ab6107e8899845ad3d59bd9653f200f220920489ca2b5937696c31910160405180910390a3505050565b60005b828110156105c657600b805490600061109b83611cb4565b91905055506110ac82600b54611330565b600b546000908152600d60205260409020429055806110ca81611cb4565b915050611083565b6110dd848484610d95565b6110e9848484846114c9565b6109275760405162461bcd60e51b815260040161052590611fd3565b60606000611112836115ca565b600101905060008167ffffffffffffffff81111561113257611132611b48565b6040519080825280601f01601f19166020018201604052801561115c576020820181803683370190505b5090508181016020015b600019016f181899199a1a9b1b9c1cb0b131b232b360811b600a86061a8153600a850494508461116657509392505050565b606081516000036111b757505060408051602081019091526000815290565b60006040518060600160405280604081526020016120ad60409139905060006003845160026111e69190611d1a565b6111f09190611d6c565b6111fb906004612025565b67ffffffffffffffff81111561121357611213611b48565b6040519080825280601f01601f19166020018201604052801561123d576020820181803683370190505b509050600182016020820185865187015b808210156112a9576003820191508151603f8160121c168501518453600184019350603f81600c1c168501518453600184019350603f8160061c168501518453600184019350603f811685015184535060018301925061124e565b50506003865106600181146112c557600281146112d8576112e0565b603d6001830353603d60028303536112e0565b603d60018303535b509195945050505050565b6112f7848484846116a2565b6001600160a01b038416158015906113125750600c5460ff16155b156109275760405163dc8d8db760e01b815260040160405180910390fd5b6001600160a01b0382166113865760405162461bcd60e51b815260206004820181905260248201527f4552433732313a206d696e7420746f20746865207a65726f20616464726573736044820152606401610525565b6000818152600260205260409020546001600160a01b0316156113eb5760405162461bcd60e51b815260206004820152601c60248201527f4552433732313a20746f6b656e20616c7265616479206d696e746564000000006044820152606401610525565b6113f96000838360016112eb565b6000818152600260205260409020546001600160a01b03161561145e5760405162461bcd60e51b815260206004820152601c60248201527f4552433732313a20746f6b656e20616c7265616479206d696e746564000000006044820152606401610525565b6001600160a01b038216600081815260036020908152604080832080546001019055848352600290915280822080546001600160a01b0319168417905551839291907fddf252ad1be2c89b69c2b068fc378daa952ba7f163c4a11628f55a4df523b3ef908290a45050565b60006001600160a01b0384163b156115bf57604051630a85bd0160e11b81526001600160a01b0385169063150b7a029061150d90339089908890889060040161203c565b6020604051808303816000875af1925050508015611548575060408051601f3d908101601f1916820190925261154591810190612079565b60015b6115a5573d808015611576576040519150601f19603f3d011682016040523d82523d6000602084013e61157b565b606091505b50805160000361159d5760405162461bcd60e51b815260040161052590611fd3565b805181602001fd5b6001600160e01b031916630a85bd0160e11b149050610d8d565b506001949350505050565b60008072184f03e93ff9f4daa797ed6e38ed64bf6a1f0160401b83106116095772184f03e93ff9f4daa797ed6e38ed64bf6a1f0160401b830492506040015b6d04ee2d6d415b85acef81000000008310611635576d04ee2d6d415b85acef8100000000830492506020015b662386f26fc10000831061165357662386f26fc10000830492506010015b6305f5e100831061166b576305f5e100830492506008015b612710831061167f57612710830492506004015b60648310611691576064830492506002015b600a83106103f25760010192915050565b60018111156117115760405162461bcd60e51b815260206004820152603560248201527f455243373231456e756d657261626c653a20636f6e7365637574697665207472604482015274185b9cd9995c9cc81b9bdd081cdd5c1c1bdc9d1959605a1b6064820152608401610525565b816001600160a01b03851661176d5761176881600880546000838152600960205260408120829055600182018355919091527ff3f7a9fe364faab93b216da50a3214154f22a0a2b415b23a84c8169e8b636ee30155565b611790565b836001600160a01b0316856001600160a01b0316146117905761179085826117d6565b6001600160a01b0384166117ac576117a781611873565b6117cf565b846001600160a01b0316846001600160a01b0316146117cf576117cf8482611922565b5050505050565b600060016117e38461082b565b6117ed9190611d43565b600083815260076020526040902054909150808214611840576001600160a01b03841660009081526006602090815260408083208584528252808320548484528184208190558352600790915290208190555b5060009182526007602090815260408084208490556001600160a01b039094168352600681528383209183525290812055565b60085460009061188590600190611d43565b600083815260096020526040812054600880549394509092849081106118ad576118ad611d2d565b9060005260206000200154905080600883815481106118ce576118ce611d2d565b600091825260208083209091019290925582815260099091526040808220849055858252812055600880548061190657611906612096565b6001900381819060005260206000200160009055905550505050565b600061192d8361082b565b6001600160a01b039093166000908152600660209081526040808320868452825280832085905593825260079052919091209190915550565b6040518060a001604052806005905b60608152602001906001900390816119755790505090565b6001600160e01b031981168114610bf657600080fd5b6000602082840312156119b557600080fd5b81356119c08161198d565b9392505050565b60005b838110156119e25781810151838201526020016119ca565b50506000910152565b60008151808452611a038160208601602086016119c7565b601f01601f19169290920160200192915050565b6020815260006119c060208301846119eb565b600060208284031215611a3c57600080fd5b5035919050565b80356001600160a01b0381168114611a5a57600080fd5b919050565b60008060408385031215611a7257600080fd5b611a7b83611a43565b946020939093013593505050565b600060208284031215611a9b57600080fd5b6119c082611a43565b600080600060608486031215611ab957600080fd5b611ac284611a43565b9250611ad060208501611a43565b9150604084013590509250925092565b60008060408385031215611af357600080fd5b611afc83611a43565b915060208301358015158114611b1157600080fd5b809150509250929050565b60008060408385031215611b2f57600080fd5b82359150611b3f60208401611a43565b90509250929050565b634e487b7160e01b600052604160045260246000fd5b60008060008060808587031215611b7457600080fd5b611b7d85611a43565b9350611b8b60208601611a43565b925060408501359150606085013567ffffffffffffffff80821115611baf57600080fd5b818701915087601f830112611bc357600080fd5b813581811115611bd557611bd5611b48565b604051601f8201601f19908116603f01168101908382118183101715611bfd57611bfd611b48565b816040528281528a6020848701011115611c1657600080fd5b82602086016020830137600060208483010152809550505050505092959194509250565b60008060408385031215611c4d57600080fd5b611c5683611a43565b9150611b3f60208401611a43565b600181811c90821680611c7857607f821691505b602082108103611c9857634e487b7160e01b600052602260045260246000fd5b50919050565b634e487b7160e01b600052601160045260246000fd5b600060018201611cc657611cc6611c9e565b5060010190565b6020808252602d908201527f4552433732313a2063616c6c6572206973206e6f7420746f6b656e206f776e6560408201526c1c881bdc88185c1c1c9bdd9959609a1b606082015260800190565b808201808211156103f2576103f2611c9e565b634e487b7160e01b600052603260045260246000fd5b818103818111156103f2576103f2611c9e565b634e487b7160e01b600052601260045260246000fd5b600082611d7b57611d7b611d56565b500490565b600082611d8f57611d8f611d56565b500690565b6a02a34b6b2902632b33a1d160ad1b815260008451611dba81600b8501602089016119c7565b61034160f51b600b918401918201528451611ddc81600d8401602089016119c7565b61036960f51b600d92909101918201528351611dff81600f8401602088016119c7565b61039960f51b600f929091019182015260110195945050505050565b60008451611e2d8184602089016119c7565b845190830190611e418183602089016119c7565b8451910190611e548183602088016119c7565b0195945050505050565b7f646174613a696d6167652f7376672b786d6c3b6261736536342c000000000000815260008251611e9681601a8501602087016119c7565b91909101601a0192915050565b727b226e616d65223a202244617970617373202360681b81528251600090611ed28160138501602088016119c7565b7f222c20226465736372697074696f6e223a202241204461797061737320666f7260139184019182015275103cb7bab91033b0b99116101134b6b0b3b2911d101160511b60338201528351611f2e8160498401602088016119c7565b61227d60f01b60499290910191820152604b01949350505050565b7f646174613a6170706c69636174696f6e2f6a736f6e3b6261736536342c000000815260008251611f8181601d8501602087016119c7565b91909101601d0192915050565b60208082526025908201527f4552433732313a207472616e736665722066726f6d20696e636f72726563742060408201526437bbb732b960d91b606082015260800190565b60208082526032908201527f4552433732313a207472616e7366657220746f206e6f6e20455243373231526560408201527131b2b4bb32b91034b6b83632b6b2b73a32b960711b606082015260800190565b80820281158282048414176103f2576103f2611c9e565b6001600160a01b038581168252841660208201526040810183905260806060820181905260009061206f908301846119eb565b9695505050505050565b60006020828403121561208b57600080fd5b81516119c08161198d565b634e487b7160e01b600052603160045260246000fdfe4142434445464748494a4b4c4d4e4f505152535455565758595a6162636465666768696a6b6c6d6e6f707172737475767778797a303132333435363738392b2f3c73766720786d6c6e733d22687474703a2f2f7777772e77332e6f72672f323030302f73766722207072657365727665417370656374526174696f3d22784d696e594d696e206d656574222076696577426f783d223020302033353020333530223e3c7374796c653e2e62617365207b2066696c6c3a20626c61636b3b20666f6e742d66616d696c793a2073657269663b20666f6e742d73697a653a20323470783b207d3c2f7374796c653e3c726563742077696474683d223130302522206865696768743d2231303025222066696c6c3d22776869746522202f3e3c7465787420783d223530252220793d223530252220636c6173733d22626173652220746578742d616e63686f723d226d6964646c65223ea2646970667358221220cb70729449e473fe94e254df0730fc367d0df91faed7bd23deb80aa92d524e3d64736f6c63430008130033",
    "linkReferences": {}
  },
  "methodIdentifiers": {
    "approve(address,uint256)": "095ea7b3",
    "balanceOf(address)": "70a08231",
    "currentTokenId()": "009a9b7b",
    "getApproved(uint256)": "081812fc",
    "getIsTransferable()": "da16e358",
    "getMintedAt(uint256)": "f449b34a",
    "hasValidPass(address)": "18dbe6b0",
    "isApprovedForAll(address,address)": "e985e9c5",
    "isPassValid(uint256)": "48c6195d",
    "mintTo(uint256,address)": "b723b34e",
    "mintedAt(uint256)": "f1b0aa15",
    "name()": "06fdde03",
    "owner()": "8da5cb5b",
    "ownerOf(uint256)": "6352211e",
    "renounceOwnership()": "715018a6",
    "safeTransferFrom(address,address,uint256)": "42842e0e",
    "safeTransferFrom(address,address,uint256,bytes)": "b88d4fde",
    "setApprovalForAll(address,bool)": "a22cb465",
    "supportsInterface(bytes4)": "01ffc9a7",
    "symbol()": "95d89b41",
    "tokenByIndex(uint256)": "4f6ccce7",
    "tokenOfOwnerByIndex(address,uint256)": "2f745c59",
    "tokenURI(uint256)": "c87b56dd",
    "totalSupply()": "18160ddd",
    "transferFrom(address,address,uint256)": "23b872dd",
    "transferOwnership(address)": "f2fde38b"
  },
  "id": 69
}