{
  "abi": [
    {
      "inputs": [],
      "name": "BLS_DOMAIN",
      "outputs": [
        {
          "internalType": "bytes32",
          "name": "",
          "type": "bytes32"
        }
      ],
      "stateMutability": "view",
      "type": "function"
    },
    {
      "inputs": [],
      "name": "N",
      "outputs": [
        {
          "internalType": "uint256",
          "name": "",
          "type": "uint256"
        }
      ],
      "stateMutability": "view",
      "type": "function"
    },
    {
      "inputs": [
        {
          "internalType": "contract IEntryPoint",
          "name": "entryPoint",
          "type": "address"
        },
        {
          "internalType": "uint32",
          "name": "delay",
          "type": "uint32"
        }
      ],
      "name": "addStake",
      "outputs": [],
      "stateMutability": "payable",
      "type": "function"
    },
    {
      "inputs": [
        {
          "components": [
            {
              "internalType": "address",
              "name": "sender",
              "type": "address"
            },
            {
              "internalType": "uint256",
              "name": "nonce",
              "type": "uint256"
            },
            {
              "internalType": "bytes",
              "name": "initCode",
              "type": "bytes"
            },
            {
              "internalType": "bytes",
              "name": "callData",
              "type": "bytes"
            },
            {
              "internalType": "uint256",
              "name": "callGasLimit",
              "type": "uint256"
            },
            {
              "internalType": "uint256",
              "name": "verificationGasLimit",
              "type": "uint256"
            },
            {
              "internalType": "uint256",
              "name": "preVerificationGas",
              "type": "uint256"
            },
            {
              "internalType": "uint256",
              "name": "maxFeePerGas",
              "type": "uint256"
            },
            {
              "internalType": "uint256",
              "name": "maxPriorityFeePerGas",
              "type": "uint256"
            },
            {
              "internalType": "bytes",
              "name": "paymasterAndData",
              "type": "bytes"
            },
            {
              "internalType": "bytes",
              "name": "signature",
              "type": "bytes"
            }
          ],
          "internalType": "struct UserOperation[]",
          "name": "userOps",
          "type": "tuple[]"
        }
      ],
      "name": "aggregateSignatures",
      "outputs": [
        {
          "internalType": "bytes",
          "name": "aggregatesSignature",
          "type": "bytes"
        }
      ],
      "stateMutability": "pure",
      "type": "function"
    },
    {
      "inputs": [
        {
          "internalType": "bytes",
          "name": "data",
          "type": "bytes"
        }
      ],
      "name": "getTrailingPublicKey",
      "outputs": [
        {
          "internalType": "uint256[4]",
          "name": "publicKey",
          "type": "uint256[4]"
        }
      ],
      "stateMutability": "pure",
      "type": "function"
    },
    {
      "inputs": [
        {
          "components": [
            {
              "internalType": "address",
              "name": "sender",
              "type": "address"
            },
            {
              "internalType": "uint256",
              "name": "nonce",
              "type": "uint256"
            },
            {
              "internalType": "bytes",
              "name": "initCode",
              "type": "bytes"
            },
            {
              "internalType": "bytes",
              "name": "callData",
              "type": "bytes"
            },
            {
              "internalType": "uint256",
              "name": "callGasLimit",
              "type": "uint256"
            },
            {
              "internalType": "uint256",
              "name": "verificationGasLimit",
              "type": "uint256"
            },
            {
              "internalType": "uint256",
              "name": "preVerificationGas",
              "type": "uint256"
            },
            {
              "internalType": "uint256",
              "name": "maxFeePerGas",
              "type": "uint256"
            },
            {
              "internalType": "uint256",
              "name": "maxPriorityFeePerGas",
              "type": "uint256"
            },
            {
              "internalType": "bytes",
              "name": "paymasterAndData",
              "type": "bytes"
            },
            {
              "internalType": "bytes",
              "name": "signature",
              "type": "bytes"
            }
          ],
          "internalType": "struct UserOperation",
          "name": "userOp",
          "type": "tuple"
        }
      ],
      "name": "getUserOpHash",
      "outputs": [
        {
          "internalType": "bytes32",
          "name": "",
          "type": "bytes32"
        }
      ],
      "stateMutability": "view",
      "type": "function"
    },
    {
      "inputs": [
        {
          "components": [
            {
              "internalType": "address",
              "name": "sender",
              "type": "address"
            },
            {
              "internalType": "uint256",
              "name": "nonce",
              "type": "uint256"
            },
            {
              "internalType": "bytes",
              "name": "initCode",
              "type": "bytes"
            },
            {
              "internalType": "bytes",
              "name": "callData",
              "type": "bytes"
            },
            {
              "internalType": "uint256",
              "name": "callGasLimit",
              "type": "uint256"
            },
            {
              "internalType": "uint256",
              "name": "verificationGasLimit",
              "type": "uint256"
            },
            {
              "internalType": "uint256",
              "name": "preVerificationGas",
              "type": "uint256"
            },
            {
              "internalType": "uint256",
              "name": "maxFeePerGas",
              "type": "uint256"
            },
            {
              "internalType": "uint256",
              "name": "maxPriorityFeePerGas",
              "type": "uint256"
            },
            {
              "internalType": "bytes",
              "name": "paymasterAndData",
              "type": "bytes"
            },
            {
              "internalType": "bytes",
              "name": "signature",
              "type": "bytes"
            }
          ],
          "internalType": "struct UserOperation",
          "name": "userOp",
          "type": "tuple"
        }
      ],
      "name": "getUserOpPublicKey",
      "outputs": [
        {
          "internalType": "uint256[4]",
          "name": "publicKey",
          "type": "uint256[4]"
        }
      ],
      "stateMutability": "view",
      "type": "function"
    },
    {
      "inputs": [
        {
          "components": [
            {
              "internalType": "address",
              "name": "sender",
              "type": "address"
            },
            {
              "internalType": "uint256",
              "name": "nonce",
              "type": "uint256"
            },
            {
              "internalType": "bytes",
              "name": "initCode",
              "type": "bytes"
            },
            {
              "internalType": "bytes",
              "name": "callData",
              "type": "bytes"
            },
            {
              "internalType": "uint256",
              "name": "callGasLimit",
              "type": "uint256"
            },
            {
              "internalType": "uint256",
              "name": "verificationGasLimit",
              "type": "uint256"
            },
            {
              "internalType": "uint256",
              "name": "preVerificationGas",
              "type": "uint256"
            },
            {
              "internalType": "uint256",
              "name": "maxFeePerGas",
              "type": "uint256"
            },
            {
              "internalType": "uint256",
              "name": "maxPriorityFeePerGas",
              "type": "uint256"
            },
            {
              "internalType": "bytes",
              "name": "paymasterAndData",
              "type": "bytes"
            },
            {
              "internalType": "bytes",
              "name": "signature",
              "type": "bytes"
            }
          ],
          "internalType": "struct UserOperation",
          "name": "userOp",
          "type": "tuple"
        }
      ],
      "name": "userOpToMessage",
      "outputs": [
        {
          "internalType": "uint256[2]",
          "name": "",
          "type": "uint256[2]"
        }
      ],
      "stateMutability": "view",
      "type": "function"
    },
    {
      "inputs": [
        {
          "components": [
            {
              "internalType": "address",
              "name": "sender",
              "type": "address"
            },
            {
              "internalType": "uint256",
              "name": "nonce",
              "type": "uint256"
            },
            {
              "internalType": "bytes",
              "name": "initCode",
              "type": "bytes"
            },
            {
              "internalType": "bytes",
              "name": "callData",
              "type": "bytes"
            },
            {
              "internalType": "uint256",
              "name": "callGasLimit",
              "type": "uint256"
            },
            {
              "internalType": "uint256",
              "name": "verificationGasLimit",
              "type": "uint256"
            },
            {
              "internalType": "uint256",
              "name": "preVerificationGas",
              "type": "uint256"
            },
            {
              "internalType": "uint256",
              "name": "maxFeePerGas",
              "type": "uint256"
            },
            {
              "internalType": "uint256",
              "name": "maxPriorityFeePerGas",
              "type": "uint256"
            },
            {
              "internalType": "bytes",
              "name": "paymasterAndData",
              "type": "bytes"
            },
            {
              "internalType": "bytes",
              "name": "signature",
              "type": "bytes"
            }
          ],
          "internalType": "struct UserOperation[]",
          "name": "userOps",
          "type": "tuple[]"
        },
        {
          "internalType": "bytes",
          "name": "signature",
          "type": "bytes"
        }
      ],
      "name": "validateSignatures",
      "outputs": [],
      "stateMutability": "view",
      "type": "function"
    },
    {
      "inputs": [
        {
          "components": [
            {
              "internalType": "address",
              "name": "sender",
              "type": "address"
            },
            {
              "internalType": "uint256",
              "name": "nonce",
              "type": "uint256"
            },
            {
              "internalType": "bytes",
              "name": "initCode",
              "type": "bytes"
            },
            {
              "internalType": "bytes",
              "name": "callData",
              "type": "bytes"
            },
            {
              "internalType": "uint256",
              "name": "callGasLimit",
              "type": "uint256"
            },
            {
              "internalType": "uint256",
              "name": "verificationGasLimit",
              "type": "uint256"
            },
            {
              "internalType": "uint256",
              "name": "preVerificationGas",
              "type": "uint256"
            },
            {
              "internalType": "uint256",
              "name": "maxFeePerGas",
              "type": "uint256"
            },
            {
              "internalType": "uint256",
              "name": "maxPriorityFeePerGas",
              "type": "uint256"
            },
            {
              "internalType": "bytes",
              "name": "paymasterAndData",
              "type": "bytes"
            },
            {
              "internalType": "bytes",
              "name": "signature",
              "type": "bytes"
            }
          ],
          "internalType": "struct UserOperation",
          "name": "userOp",
          "type": "tuple"
        }
      ],
      "name": "validateUserOpSignature",
      "outputs": [
        {
          "internalType": "bytes",
          "name": "sigForUserOp",
          "type": "bytes"
        }
      ],
      "stateMutability": "view",
      "type": "function"
    }
  ],
  "bytecode": {
    "object": "0x608060405234801561001057600080fd5b506119c9806100206000396000f3fe6080604052600436106100905760003560e01c806364c530cd1161005957806364c530cd14610178578063a619353114610198578063b7620eb4146101b8578063c9e525df146101d8578063e3563a4f1461020c57600080fd5b80629d925014610095578063275e2d79146100dc5780634086443114610109578063451711591461013657806357f09b721461014b575b600080fd5b3480156100a157600080fd5b506100c97fd84c4373167c517e9ccd66803f86d8a4f49e7e1315a7a73b516affea7428f82b81565b6040519081526020015b60405180910390f35b3480156100e857600080fd5b506100fc6100f7366004611152565b61022c565b6040516100d391906111d9565b34801561011557600080fd5b5061012961012436600461140e565b610394565b6040516100d39190611442565b610149610144366004611473565b6103ba565b005b34801561015757600080fd5b5061016b61016636600461140e565b61041e565b6040516100d391906114b5565b34801561018457600080fd5b506100fc6101933660046114dd565b6104ae565b3480156101a457600080fd5b506100c96101b336600461140e565b6105c6565b3480156101c457600080fd5b5061016b6101d3366004611518565b6105de565b3480156101e457600080fd5b506100c97f30644e72e131a029b85045b68181585d97816a916871ca8d3c208c16d87cfd4781565b34801561021857600080fd5b5061014961022736600461154c565b61065a565b60606000826001600160401b03811115610248576102486111ec565b60405190808252806020026020018201604052801561028d57816020015b60408051808201909152600080825260208201528152602001906001900390816102665790505b50905060005b815181101561032a576000808686848181106102b1576102b16115e2565b90506020028101906102c391906115f8565b6102d290610140810190611619565b8101906102df919061165f565b9150915060405180604001604052808381526020018281525084848151811061030a5761030a6115e2565b60200260200101819052505050808061032290611697565b915050610293565b506000610357827f30644e72e131a029b85045b68181585d97816a916871ca8d3c208c16d87cfd47610976565b805160208083015160405193945061037a93909101918252602082015260400190565b604051602081830303815290604052925050505b92915050565b61039c6110cb565b60006103a783610a61565b90506103b38382610a99565b9392505050565b604051621cb65b60e51b815263ffffffff821660048201526001600160a01b03831690630396cb609034906024016000604051808303818588803b15801561040157600080fd5b505af1158015610415573d6000803e3d6000fd5b50505050505050565b6104266110e9565b60408201518051156104425761043b816105de565b91506104a8565b82600001516001600160a01b031663e02afbae6040518163ffffffff1660e01b8152600401608060405180830381865afa158015610484573d6000803e3d6000fd5b505050506040513d601f19601f820116820180604052508101906103b391906116b0565b50919050565b606060006104c0610140840184611619565b8101906104cd9190611722565b905060006104dd61016685611782565b905060006104ed61012486611782565b60405163ebbdac9160e01b815290915073__$8d4a5a82d6cc23c717644c06393100f2bb$__9063ebbdac919061052b908690869086906004016117da565b602060405180830381865af4158015610548573d6000803e3d6000fd5b505050506040513d601f19601f8201168201806040525081019061056c9190611803565b6105ae5760405162461bcd60e51b815260206004820152600e60248201526d424c533a2077726f6e672073696760901b60448201526064015b60405180910390fd5b50506040805160208101909152600081529392505050565b6000806105d283610a61565b90506103b38382610b71565b6105e66110e9565b8151608081116106305760405162461bcd60e51b81526020600482015260156024820152746461746120746f2073686f727420666f722073696760581b60448201526064016105a5565b909101605f198101518252603f198101516020830152601f19810151604083015251606082015290565b604081146106a35760405162461bcd60e51b8152602060048201526016602482015275424c533a20696e76616c6964207369676e617475726560501b60448201526064016105a5565b60006106b182840184611722565b9050836000816001600160401b038111156106ce576106ce6111ec565b60405190808252806020026020018201604052801561070757816020015b6106f46110e9565b8152602001906001900390816106ec5790505b5090506000826001600160401b03811115610724576107246111ec565b60405190808252806020026020018201604052801561075d57816020015b61074a6110cb565b8152602001906001900390816107425790505b50905060005b838110156108a357600089898381811061077f5761077f6115e2565b905060200281019061079191906115f8565b61079a90611782565b9050600081600001519050806001600160a01b031663e02afbae6175306040518263ffffffff1660e01b81526004016080604051808303818786fa1580156107e6573d6000803e3d6000fd5b50505050506040513d601f19601f8201168201806040525081019061080b91906116b0565b85848151811061081d5761081d6115e2565b60200260200101819052506108718286858151811061083e5761083e6115e2565b602002602001015160405160200161085691906114b5565b60405160208183030381529060405280519060200120610a99565b848481518110610883576108836115e2565b60200260200101819052505050808061089b90611697565b915050610763565b50604051639141376360e01b815273__$8d4a5a82d6cc23c717644c06393100f2bb$__906391413763906108df90879086908690600401611825565b602060405180830381865af41580156108fc573d6000803e3d6000fd5b505050506040513d601f19601f820116820180604052508101906109209190611803565b61096c5760405162461bcd60e51b815260206004820152601e60248201527f424c533a2076616c69646174655369676e617475726573206661696c6564000060448201526064016105a5565b5050505050505050565b604080518082019091526000808252602082015260008360008151811061099f5761099f6115e2565b60200260200101516000015190506000846000815181106109c2576109c26115e2565b602090810291909101810151015190506001805b8651811015610a4257610a298484848a85815181106109f7576109f76115e2565b6020026020010151600001518b8681518110610a1557610a156115e2565b60200260200101516020015160018c610bba565b9195509350915080610a3a81611697565b9150506109d6565b50610a4f83838388610eed565b90855260208501525091949350505050565b6000610a6c8261041e565b604051602001610a7c91906114b5565b604051602081830303815290604052805190602001209050919050565b610aa16110cb565b6000610aad8484610b71565b905073__$8d4a5a82d6cc23c717644c06393100f2bb$__63a850a9097fd84c4373167c517e9ccd66803f86d8a4f49e7e1315a7a73b516affea7428f82b83604051602001610afd91815260200190565b6040516020818303038152906040526040518363ffffffff1660e01b8152600401610b299291906118c3565b6040805180830381865af4158015610b45573d6000803e3d6000fd5b505050506040513d601f19601f82011682018060405250810190610b6991906118dc565b949350505050565b6000610b7c83610f5c565b604080516020810192909252810183905230606082015246608082015260a00160405160208183030381529060405280519060200120905092915050565b6000808089158015610bca575088155b15610bdc575085915084905083610ee0565b86158015610be8575085155b15610bfa575088915087905086610ee0565b610c026110e9565b8480610c1057610c10611931565b898a0981528480610c2357610c23611931565b81518a0960208201528480610c3a57610c3a611931565b86870960408201528480610c5057610c50611931565b6040820151870960608201526040805160808101909152808680610c7657610c76611931565b60408401518e0981526020018680610c9057610c90611931565b60608401518d0981526020018680610caa57610caa611931565b83518b0981526020018680610cc157610cc1611931565b60208401518a09905260408101518151919250141580610ce957506060810151602082015114155b610d355760405162461bcd60e51b815260206004820152601e60248201527f557365206a6163446f75626c652066756e6374696f6e20696e7374656164000060448201526064016105a5565b610d3d6110e9565b8580610d4b57610d4b611931565b8251610d579088611947565b60408401510881528580610d6d57610d6d611931565b6020830151610d7c9088611947565b60608401510860208201528580610d9557610d95611931565b8151800960408201528580610dac57610dac611931565b8151604083015109606082015260008680610dc957610dc9611931565b6060830151610dd89089611947565b8880610de657610de6611931565b602085015180090890508680610dfe57610dfe611931565b8780610e0c57610e0c611931565b8880610e1a57610e1a611931565b6040850151865109600209610e2f9089611947565b8208905060008780610e4357610e43611931565b8880610e5157610e51611931565b610e5b848b611947565b8a80610e6957610e69611931565b60408701518851090860208501510990508780610e8857610e88611931565b8880610e9657610e96611931565b6060850151602087015109610eab908a611947565b8208905060008880610ebf57610ebf611931565b8980610ecd57610ecd611931565b8b8f098551099297509095509093505050505b9750975097945050505050565b6000806000610efc8585610fff565b905060008480610f0e57610f0e611931565b828309905060008580610f2357610f23611931565b828a09905060008680610f3857610f38611931565b8780610f4657610f46611931565b8486098a09919a91995090975050505050505050565b80516020808301516040808501518051908401206060860151805190850120608087015160a088015160c089015160e08a01516101008b01516101208c01518051908b0120975160009b610a7c9b909a9991016001600160a01b039a909a168a5260208a019890985260408901969096526060880194909452608087019290925260a086015260c085015260e08401526101008301526101208201526101400190565b600082158015906110105750818314155b801561101b57508115155b6110585760405162461bcd60e51b815260206004820152600e60248201526d24b73b30b634b210373ab6b132b960911b60448201526064016105a5565b6000600183825b86156110c05761106f878361195a565b905082868061108057611080611931565b878061108e5761108e611931565b85840961109b9089611947565b86089094509250866110ad818361197c565b6110b79084611947565b9750915061105f565b509195945050505050565b60405180604001604052806002906020820280368337509192915050565b60405180608001604052806004906020820280368337509192915050565b60008083601f84011261111957600080fd5b5081356001600160401b0381111561113057600080fd5b6020830191508360208260051b850101111561114b57600080fd5b9250929050565b6000806020838503121561116557600080fd5b82356001600160401b0381111561117b57600080fd5b61118785828601611107565b90969095509350505050565b6000815180845260005b818110156111b95760208185018101518683018201520161119d565b506000602082860101526020601f19601f83011685010191505092915050565b6020815260006103b36020830184611193565b634e487b7160e01b600052604160045260246000fd5b60405161016081016001600160401b0381118282101715611225576112256111ec565b60405290565b604080519081016001600160401b0381118282101715611225576112256111ec565b6001600160a01b038116811461126257600080fd5b50565b80356112708161124d565b919050565b600082601f83011261128657600080fd5b81356001600160401b03808211156112a0576112a06111ec565b604051601f8301601f19908116603f011681019082821181831017156112c8576112c86111ec565b816040528381528660208588010111156112e157600080fd5b836020870160208301376000602085830101528094505050505092915050565b6000610160828403121561131457600080fd5b61131c611202565b905061132782611265565b81526020820135602082015260408201356001600160401b038082111561134d57600080fd5b61135985838601611275565b6040840152606084013591508082111561137257600080fd5b61137e85838601611275565b60608401526080840135608084015260a084013560a084015260c084013560c084015260e084013560e084015261010091508184013582840152610120915081840135818111156113ce57600080fd5b6113da86828701611275565b8385015250610140915081840135818111156113f557600080fd5b61140186828701611275565b8385015250505092915050565b60006020828403121561142057600080fd5b81356001600160401b0381111561143657600080fd5b610b6984828501611301565b60408101818360005b600281101561146a57815183526020928301929091019060010161144b565b50505092915050565b6000806040838503121561148657600080fd5b82356114918161124d565b9150602083013563ffffffff811681146114aa57600080fd5b809150509250929050565b60808101818360005b600481101561146a5781518352602092830192909101906001016114be565b6000602082840312156114ef57600080fd5b81356001600160401b0381111561150557600080fd5b820161016081850312156103b357600080fd5b60006020828403121561152a57600080fd5b81356001600160401b0381111561154057600080fd5b610b6984828501611275565b6000806000806040858703121561156257600080fd5b84356001600160401b038082111561157957600080fd5b61158588838901611107565b9096509450602087013591508082111561159e57600080fd5b818701915087601f8301126115b257600080fd5b8135818111156115c157600080fd5b8860208285010111156115d357600080fd5b95989497505060200194505050565b634e487b7160e01b600052603260045260246000fd5b6000823561015e1983360301811261160f57600080fd5b9190910192915050565b6000808335601e1984360301811261163057600080fd5b8301803591506001600160401b0382111561164a57600080fd5b60200191503681900382131561114b57600080fd5b6000806040838503121561167257600080fd5b50508035926020909101359150565b634e487b7160e01b600052601160045260246000fd5b6000600182016116a9576116a9611681565b5060010190565b6000608082840312156116c257600080fd5b82601f8301126116d157600080fd5b604051608081018181106001600160401b03821117156116f3576116f36111ec565b60405280608084018581111561170857600080fd5b845b818110156110c057805183526020928301920161170a565b60006040828403121561173457600080fd5b82601f83011261174357600080fd5b61174b61122b565b80604084018581111561175d57600080fd5b845b8181101561177757803584526020938401930161175f565b509095945050505050565b600061038e3683611301565b8060005b60028110156117b1578151845260209384019390910190600101611792565b50505050565b8060005b60048110156117b15781518452602093840193909101906001016117bb565b61010081016117e9828661178e565b6117f660408301856117b7565b610b6960c083018461178e565b60006020828403121561181557600080fd5b815180151581146103b357600080fd5b60006080808301611836848861178e565b604084810183905286519182905260209160a086019083890160005b82811015611875576118658483516117b7565b9286019290850190600101611852565b5050508581036060870152865180825290830193508287019060005b818110156118b4576118a486845161178e565b9483019491840191600101611891565b50939998505050505050505050565b828152604060208201526000610b696040830184611193565b6000604082840312156118ee57600080fd5b82601f8301126118fd57600080fd5b61190561122b565b80604084018581111561191757600080fd5b845b81811015611777578051845260209384019301611919565b634e487b7160e01b600052601260045260246000fd5b8181038181111561038e5761038e611681565b60008261197757634e487b7160e01b600052601260045260246000fd5b500490565b808202811582820484141761038e5761038e61168156fea264697066735822122037c537fbd6744e436dfca98292e2e9aeb835de3f4978db37b5bd56fd12fab02464736f6c63430008130033",
    "linkReferences": {
      "lib/account-abstraction/contracts/bls/lib/BLSOpen.sol": {
        "BLSOpen": [
          {
            "start": 1311,
            "length": 20
          },
          {
            "start": 2259,
            "length": 20
          },
          {
            "start": 2769,
            "length": 20
          }
        ]
      }
    }
  },
  "methodIdentifiers": {
    "BLS_DOMAIN()": "009d9250",
    "N()": "c9e525df",
    "addStake(address,uint32)": "45171159",
    "aggregateSignatures((address,uint256,bytes,bytes,uint256,uint256,uint256,uint256,uint256,bytes,bytes)[])": "275e2d79",
    "getTrailingPublicKey(bytes)": "b7620eb4",
    "getUserOpHash((address,uint256,bytes,bytes,uint256,uint256,uint256,uint256,uint256,bytes,bytes))": "a6193531",
    "getUserOpPublicKey((address,uint256,bytes,bytes,uint256,uint256,uint256,uint256,uint256,bytes,bytes))": "57f09b72",
    "userOpToMessage((address,uint256,bytes,bytes,uint256,uint256,uint256,uint256,uint256,bytes,bytes))": "40864431",
    "validateSignatures((address,uint256,bytes,bytes,uint256,uint256,uint256,uint256,uint256,bytes,bytes)[],bytes)": "e3563a4f",
    "validateUserOpSignature((address,uint256,bytes,bytes,uint256,uint256,uint256,uint256,uint256,bytes,bytes))": "64c530cd"
  },
  "id": 1
}